:100000005CC0000082C0000080C000007EC0000014
:100010007CC000007AC0000078C0000076C00000FC
:1000200074C0000072C0000070C000006EC000000C
:100030006CC000000C94A02268C0000066C00000E4
:100040000C94582662C000000C944F290C9481290E
:100050005CC000005AC0000058C0000056C000003C
:1000600054C0000052C0000000000008000201005F
:100070000003040700000000000000000102040863
:100080001020408001020408102001020408102002
:10009000040404040404040402020202020203032E
:1000A0000303030300000000250028002B000000CC
:1000B0000000240027002A00A62911241FBECFEF2C
:1000C000D8E0DEBFCDBF11E0A0E0B1E0E0EDF4E5A7
:1000D00002C005900D92A83CB107D9F724E0A8EC26
:1000E000B1E001C01D92A732B207E1F710E0CDE503
:1000F000D0E004C02197FE010E94372ACC35D107F9
:10010000C9F70E94B7230C94662A7ACFCF92DF9268
:10011000EF92FF92CF93882351F16A017B01CFEFD9
:10012000C80F20E030E0A901CB01B6010E94B7243E
:1001300018168CF0C701B60190580E94C0249B018C
:10014000AC016C2F70E090E080E0CF91FF90EF90D9
:10015000DF90CF90B2C0C701B6010E94BB248C2FA4
:10016000CF91FF90EF90DF90CF900C943827CF91F4
:10017000FF90EF90DF90CF9008950F931F938B0126
:100180009C0183E036952795179507958A95D1F7B9
:1001900008531E4F462F477021E030E0F90102C09E
:1001A000EE0FFF1F4A95E2F7AF01F80120812423EB
:1001B000CB010196211102C090E080E01F910F91C8
:1001C00008950F931F938B019C0183E0369527952B
:1001D000179507958A95D1F7677081E090E001C087
:1001E000880F6A95EAF7F801E853FE4F2081452B06
:1001F00031F48095822380831F910F910895822B83
:10020000FACF2F923F924F925F926F927F928F928E
:100210009F92AF92BF92CF92DF92EF92FF920F9395
:100220001F93CF93DF93D62EC72E782E692E4901C8
:100230005A01280161E08D2D0E94BC27CD2DDC2DB7
:100240008E010F5F1F4FA8016D2D7C2D872D962DE0
:10025000B8DF20E030E0A901C201B7010E94F1251A
:10026000181664F4C201B7010E94C0242B01C50115
:10027000B4010E94C024A201CE0123D0C801DF91A5
:10028000CF911F910F91FF90EF90DF90CF90BF9093
:10029000AF909F908F907F906F905F904F903F9026
:1002A0002F900895882341F08150682F70E090E0EE
:1002B00080E050E040E085CF0895862FB9010C948E
:1002C00038279C01FC01E859FF4FE491E33061F1CC
:1002D00040F4E13011F1E23021F160E0822F0C9422
:1002E000F827E730C1F1E83009F441C0E430A9F75C
:1002F000809180008C7F826080938000909181004B
:10030000907E9061692B60938100509387004093A9
:1003100086008091800080621BC084B5806884BDA7
:10032000DCCF84B58062FBCF809180008C7F8260BF
:100330008093800090918100907E9061692B609302
:1003400081005093870040938600809180008068F0
:1003500080938000C2CF8091B00080688093B0000D
:100360008091B100887F682B6093B100B6CF8091F7
:10037000B0008062F3CF611102C00C94BC276130E1
:10038000E1F362E0FACF662319F061E00C94F827FC
:1003900060E0FCCF90E080E008950F931F930097FA
:1003A00009F487C06115710509F483C00091180133
:1003B0001091190120911A0130911B010E3F1F4F1E
:1003C0002F4F3F4F09F066C04FEF5FEFBA014093E8
:1003D00018015093190160931A0170931B01409109
:1003E00018015091190160911A0170911B01DC01F3
:1003F0001296ED91FC9180819181A281B3818093CD
:10040000450290934602A0934702B093480284812C
:100410009581A681B7818093410290934202A09377
:100420004302B093440280859185A285B385809371
:100430003D0290933E02A0933F02B0934002848518
:100440009585A685B7858093390290933A02A0934B
:100450003B02B0933C021092350210923602109289
:10046000370210923802D2D58BE298E09093D201F5
:100470008093D1019093D4018093D301B6D4009797
:1004800031F421E030E030934A02209349021F9179
:100490000F910895009118011091190120911A01EE
:1004A00030911B01DB010D931D932D933C9313970A
:1004B00096CF8FEF9FEFEBCF8F929F92AF92BF922D
:1004C000CF92DF92EF92FF921F93CF93DF934B0176
:1004D0005C0110914C0282E090E090934A0280937C
:1004E000490281149104A104B10441F480914C02A9
:1004F000811104C080914B02C1E08111C0E0C12C88
:10050000D12C760180914C02811106C080914B0262
:10051000811102C0CC23D9F083E090E090934A028D
:1005200080934902CC2379F1CCE9DFEF111102C0AD
:100530000E948F0BCE01DF91CF911F91FF90EF9022
:10054000DF90CF90BF90AF909F908F9008956AE01A
:1005500070E080E090E00E94C72680E1C80E87E24C
:10056000D81EE11CF11C8FEF88169806A806B80665
:1005700031F0C1E08C149D04AE04BF0408F0C0E06B
:1005800080E067D4BFCFD0E0C0E0D0CFCF92DF9281
:10059000EF92FF920F931F93CF93DF938F3F9105BD
:1005A00011F008F050C02091490230914A022330E6
:1005B000310539F02091490230914A02213031054C
:1005C00031F424E030E030934A02209349026A017A
:1005D0007B01EC0182309105A0F011E0AE01C70172
:1005E000B60102D4AB01BC01CE011123F9F0DF91B9
:1005F000CF911F910F91FF90EF90DF90CF900C94CF
:10060000B80D8C01000F111F0F521E4FD8018D9194
:100610009C91892B11F30E94C20D0297F1F6D8012B
:10062000ED91FC91CE010995182FD8CF0E94DA0DDB
:1006300090E080E0DF91CF911F910F91FF90EF90BC
:10064000DF90CF9008958FEF9FEFF4CF80E001C44B
:10065000CF93DF9386E090E090934A028093490223
:1006600051D4EC01E1EDF1E084E0DF011D928A95C7
:10067000E9F7EDD710924A0210924902CE01DF91BC
:10068000CF91089580914B0208958091340208958E
:10069000609318017093190180931A0190931B01C4
:1006A00090E080E00895CF92DF92EF92FF926B018D
:1006B0007C019F7720E030E040E859E50E94B724B4
:1006C00087FF2BC020E030E040E05FE3C701B601C8
:1006D0000E94F12587FD0EC020E030E040E05FE39E
:1006E000C701B6010E944024FF90EF90DF90CF90A9
:1006F0000C94292520E030E040E05FEBC701B60113
:100700000E94F125181684F420E030E0A901C70109
:10071000B6010E94F5256B017C01C701B601FF906F
:10072000EF90DF90CF90089520E030E040E05FE36D
:10073000C701B6010E943F24FF90EF90DF90CF9059
:100740000C94A4244F925F926F927F928F929F920B
:10075000AF92BF92CF92DF92EF92FF92209114015D
:1007600030911501409116015091170160911001CF
:100770007091110180911201909113010E94F12555
:1007800018160CF0E0C06091000170910101809199
:100790000201909103018090040190900501A090C6
:1007A0000601B09007017FDF6B017C0120E030E0A3
:1007B00040E853E40E94B7246FEF87FF0EC020E0AB
:1007C00030E0A901C701B6010E94F12560E087FD74
:1007D00004C0C701B6010E94C02487E0D4DDC50172
:1007E000B40161DF6B017C0120E030E040E853E4BC
:1007F0000E94B7246FEF87FF0EC020E030E0A90110
:10080000C701B6010E94F12560E087FD04C0C70161
:10081000B6010E94C02488E0B6DD66E070E080E0AA
:1008200090E0ABDC5C019093F9038093F803C090F7
:100830001001D0901101E0901201F0901301E894A2
:10084000F7F820E030E04FE753E4C701B6010E941B
:10085000B724181634F4C12CD12C8FE7E82E83E48A
:10086000F82EB701A601C50151DCC0900702D09057
:100870000802E0900902F0900A028FEFC81AD80A25
:10088000E80AF80AC0920702D0920802E092090230
:10089000F0920A02C114D104E104F10499F48091A8
:1008A0000B0290910C02A0910D02B0910E020196E4
:1008B000A11DB11D80930B0290930C02A0930D0219
:1008C000B0930E0280900F0290901002A09011023F
:1008D000B090120260910B0270910C0280910D0297
:1008E00090910E020E94EC24A50194010E94F5252E
:1008F00020E030E040E85FE40E94F5252B013C0158
:10090000C701B6010E94EC24A50194010E94F525BF
:100910009B01AC01C301B2010E9440246093030219
:10092000709304028093050290930602FF90EF906B
:10093000DF90CF90BF90AF909F908F907F906F90FF
:100940005F904F9008956091080170910901809126
:100950000A0190910B0180900C0190900D01A090E4
:100960000E01B0900F011FCF8F929F92AF92BF9256
:10097000DF92EF92FF920F931F93CF93DF9384E068
:1009800090E0FAD0EDEEF1E08BE2DF011D928A9566
:10099000E9F780E090E0A0E8BFEB86A397A3A0A7CB
:1009A000B1A78AE097EDA3EABBE382A393A3A4A334
:1009B000B5A383E596ECA8E2BFE484839583A68380
:1009C000B7838DE698EFA2E1BDE080879187A2878B
:1009D000B38784EE95E2AEEBBFE484879587A68764
:1009E000B78782EF93E0A2E8B9EC808B918BA28B62
:1009F000B38BA1EEB1E0B383A283E5EDF1E01196F4
:100A0000FC93EE9385E391E09183808393838283CB
:100A10009583848397838683918780879387828752
:100A200081E092E015969C938E93149781EF91E06C
:100A300013969C938E93129783E092E017969C9363
:100A40008E931697C2EFD3E08BE1FE0111928A9547
:100A5000E9F7DD24D394D98E812C912C5401839411
:100A6000898A9A8AAB8ABC8A61E087E084DCDD8A65
:100A70001886D88E89869A86AB86BC8661E088E027
:100A80007ADCDD861882DA8E89829A82AB82BC8219
:100A9000E12CF12C8701A801970166E070E080E06D
:100AA00090E0AFDB9F838E83DD82DF91CF911F913A
:100AB0000F91FF90EF90DF90BF90AF909F908F903D
:100AC000089580910204811103C081E080930204A3
:100AD0008091FA03811103C081E08093FA03809131
:100AE000F20381112AC081E08093F2038091F30325
:100AF0009091F403A091F503B091F6030197A1053D
:100B0000B105D9F48091F7038823B9F066E070E06D
:100B100080E090E032DB9093F9038093F80340E0AB
:100B200050E0BA01F3DA66E070E080E090E025DBA7
:100B30009093F9038093F803B5CB089560E070E0DB
:100B400080E89FE7089560E070E080E89FE70895FF
:100B500060E070E080E89FEF089560E070E080E87A
:100B60009FEF089560E070E080EC9FEF089560E0F3
:100B700070E080EC9FEF0895F5DF609319047093A7
:100B80001A0480931B0490931C04F1DF60930D04FE
:100B900070930E0480930F0490931004CFDF609342
:100BA0001504709316048093170490931804CBDFF8
:100BB00060931104709312048093130490931404AF
:100BC000C7DF60931D0470931E0480931F049093ED
:100BD0002004C3DF609321047093220480932304D4
:100BE0009093240408954F925F926F927F928F9218
:100BF0009F92AF92BF92CF92DF92EF92FF920F93AC
:100C00001F93F89440902402509025026090260291
:100C100070902702C0901802D0901902E0901A023A
:100C2000F0901B02452B09F0A4C09B01AC012419D4
:100C300035094609570929013A010091200210910E
:100C40002102209122023091230248015901840C93
:100C5000951CA61CB71C80169106A206B306A0F42C
:100C600000911C0210911D0220911E0230911F0262
:100C70000F5F1F4F2F4F3F4F00931C0210931D0219
:100C800020931E0230931F02809220029092210234
:100C9000A0922202B092230200911C0210911D0228
:100CA00020911E0230911F02809228029092290208
:100CB000A0922A02B0922B0200932C0210932D02D4
:100CC00020932E0230932F0260932402709325020A
:100CD0008093260290932702A8E8B3E1A301920132
:100CE0000E943D2A6C0D7D1D8E1D9F1D6093180274
:100CF0007093190280931A0290931B0200911801BD
:100D00001091190120911A0130911B010F3F1F4FC3
:100D10002F4F3F4FF1F000911801109119012091D0
:100D20001A0130911B010E3F1F4F2F4F3F4F89F08B
:100D3000C0901801D0901901E0901A01F0901B01A9
:100D400021E08C149D04AE04BF0408F420E020933D
:100D5000340278941F910F91FF90EF90DF90CF9025
:100D6000BF90AF909F908F907F906F905F904F90CB
:100D700008954B015C0184189508A608B708A301E3
:100D80009201261B370B480B590B64157505860518
:100D90009705D0F082169306A406B50640F420E02D
:100DA00030E0A90181149104A104B10491F4A8E8F0
:100DB000B3E10E943D2AA7019601261B370B480B81
:100DC000590BCA01B901C5CF82169306A406B50610
:100DD00070F7A8E8B3E1A50194010E943D2A6C0DCB
:100DE0007D1D8E1D9F1DB5CFFECECF93DF9300D00E
:100DF00000D0CDB7DEB71C821B821A8219821092F6
:100E00003002109231021092320210923302BE016F
:100E10006F5F7F4FCE0103960E94842269817A81A1
:100E20008B819C810E94D91C009761F4BE016F5F89
:100E30007F4FCE0103960E94902269817A818B8137
:100E40009C812CD50F900F900F900F90DF91CF9138
:100E50000895FF920F931F93CF93DF93082F60E0C5
:100E600070E0CB010E94C726FF24F3940E94C41BAC
:100E7000EC01892B89F010E0CE3F8FEFD80769F0A5
:100E8000002361F160E070E0CB010E94C72681E0A1
:100E900090E0892B59F322C011E023D5EC01892B76
:100EA00021F0CE3F8FEFD80759F711111EC011E086
:100EB000229609F410E00E94751BEC01892B21F0A9
:100EC000CE3F8FEFD807E1F6111111C011E0CE3FF0
:100ED0008FEFD80709F410E001110BC0CE01DF91AC
:100EE000CF911F910F91FF90089511E0E4CF11E091
:100EF000F3CF60E070E0CB010E94C7261F25812F51
:100F000090E0C7CFCF93DF9380913402882321F004
:100F100060E070E0CB014CD635D6D0E0C0E0892B44
:100F200071F06AE070E080E090E00E94C72681E006
:100F300090DF28D62196C03D27E0D20781F727D63B
:100F40000E942D1D10924C0210924B0210924502ED
:100F500010924602109247021092480210924102EB
:100F600010924202109243021092440210923D02EB
:100F700010923E0210923F021092400210923902EB
:100F800010923A0210923B0210923C0210923502EB
:100F90001092360210923702109238024EEF5FEF35
:100FA0006FEF7FEF409318015093190160931A017E
:100FB00070931B0110923402E8E2F2E028E0DF01B6
:100FC0001D922A95E9F710922402109225021092A0
:100FD00026021092270210922002109221021092F3
:100FE00022021092230210921C0210921D021092F3
:100FF0001E0210921F0210921802109219021092F3
:101000001A0210921B02DF91CF910895109258029C
:101010001092590210925A0210925B0210925702DB
:1010200080916002909161029093560280935502E4
:10103000109254021092530210924F0210925002DA
:10104000109251021092520210925D0210925C02B4
:1010500090E080E00895CF92DF92EF92FF920F939D
:101060001F93CF938C01892B09F055C0209160020A
:101070003091610280915502909156024091600238
:101080005091610250935602409355022817390738
:1010900081F0109254021092530210924F0210925B
:1010A0005002109251021092520210925D02109260
:1010B0005C028091600290916102019761F58091DC
:1010C0005C0290915D02892B21F480911C018111B9
:1010D00012C080915C0290915D020197E1F48091D1
:1010E0004F0290915002A0915102B091520201978B
:1010F000A105B10581F410924F0210925002109296
:1011000051021092520210921C0182E090E09093E2
:101110005D0280935C028091600290916102019770
:1011200009F01CC180917602909177028017910797
:1011300009F014C18091720290917302A09174021F
:10114000B0917502009709F409C120917102211133
:101150000DC04091720250917302609174027091BF
:101160007502452B462B472B09F4F8C020915C02F1
:1011700030915D022230310509F0F0C02091530218
:101180002111ECC0FC01C080D180E280F38080910D
:101190005702882309F4D3C08091630290916402BE
:1011A000892B09F4FDC0209163023091640281E033
:1011B0002230310509F080E0209163023091640211
:1011C000C1E02130310549F0209163023091640281
:1011D000C1E02230310509F0C0E0882309F456C08F
:1011E00020916D0230916E0240916F025091700219
:1011F000C701B6010E94F12587FD14C020916D0240
:1012000030916E0240916F025091700260915802CD
:101210007091590280915A0290915B020E94B7240A
:1012200087FD22C020916D0230916E0240916F02C5
:1012300050917002C701B6010E94F125181634F5CD
:1012400020916D0230916E0240916F0250917002B8
:10125000609158027091590280915A0290915B02FC
:101260000E94B724811112C080916502909166029C
:10127000A0916702B0916802892B8A2B8B2B19F4FD
:1012800081E08093540281E080935302CC2309F4DF
:1012900056C020916D0230916E0240916F025091C4
:1012A0007002C701B6010E94B72487FF14C02091C5
:1012B0006D0230916E0240916F0250917002609108
:1012C00058027091590280915A0290915B020E94DB
:1012D000F12587FF22C020916D0230916E0240916E
:1012E0006F0250917002C701B6010E94B7248111AC
:1012F00026C020916D0230916E0240916F02509194
:101300007002609158027091590280915A02909136
:101310005B020E94F125181694F480916502909169
:101320006602A0916702B0916802892B8A2B8B2BF1
:1013300019F481E08093540281E08093530281E0AC
:1013400090915302911180E080935702C09258020D
:10135000D0925902E0925A02F0925B02012B09F0FE
:1013600067C180915C0290915D02892BD9F4109243
:1013700062021092530280911C01882379F082E06E
:1013800090E090935D0280935C0210921C0120918A
:1013900060023091610281E0232BE9F080E01BC004
:1013A00081E00ACF10921C0180916202882349F0EB
:1013B0001092540210925D0210925C02109262022E
:1013C000EDCF8091600290916102892BE1F08091D4
:1013D00053021092530220915C0230915D02223040
:1013E000310509F45EC088F42115310509F448C0BF
:1013F0002130310509F4F3C01092540210925302C7
:101400001092620238C081E0E6CF2330310509F442
:10141000B1C02430310581F740914F025091500204
:10142000609151027091520241155105610571059B
:1014300061F0415051096109710940934F02509385
:101440005002609351027093520240914F025091AA
:1014500050026091510270915202452B462B472B4E
:10146000D9F420915E0230915F022130310509F0FC
:1014700046C01092540210925D0210925C020CC0A1
:1014800080911C01882341F082E090E090935D02FE
:1014900080935C0210921C0110924D0280915402C4
:1014A000CEC08823C9F38091650290916602A09115
:1014B0006702B0916802181619061A061B060CF08E
:1014C0007DC08091600290916102019709F076C021
:1014D0008091650290916602A0916702B0916802C6
:1014E00080934F0290935002A0935102B093520206
:1014F00083E090E090935D0280935C02CDCF4091B9
:10150000690250916A0260916B0270916C02452BE6
:10151000462B472BA9F010925402809169029091BA
:101520006A02A0916B02B0916C0280934F0290937B
:101530005002A0935102B093520281E090E0DACFC2
:10154000882399F080911D0190911E01A0911F01A7
:10155000B091200180934F0290935002A0935102CA
:10156000B093520284E090E0C5CF1092540282E022
:1015700090E0C0CF80914F0290915002A091510213
:10158000B09152020097A105B10559F00197A10948
:10159000B10980934F0290935002A0935102B093EF
:1015A000520280914F0290915002A0915102B0914D
:1015B0005202892B8A2B8B2B09F06ECF80911D0153
:1015C00090911E01A0911F01B0912001892B8A2BBF
:1015D0008B2B09F44ECF81E080935402B3CF40911E
:1015E0004F02509150026091510270915202411588
:1015F00051056105710561F0415051096109710999
:1016000040934F02509350026093510270935202E4
:1016100040914F02509150026091510270915202DC
:10162000452B462B472B09F037CF8111C7CF9FCFD2
:1016300080914D02882309F431CF80914E02CF91E1
:101640001F910F91FF90EF90DF90CF90089510922F
:1016500058021092590210925A0210925B02109294
:10166000570210925D0210925C0210925602109284
:101670005502109277021092760210925402109244
:10168000530210924F021092500210925102109287
:10169000520210924E0210924D021092720210925B
:1016A00073021092740210927502109271021092DD
:1016B0006D0210926E0210926F021092700288EE0C
:1016C00093E0A0E0B0E080931D0190931E01A093F1
:1016D0001F01B09320011092690210926A021092C9
:1016E0006B0210926C0210926502109266021092C8
:1016F000670210926802109264021092630281E005
:1017000080931C011092620210926102109260029A
:1017100010925F0210925E0290E080E00895809146
:10172000600290916102892B19F580911C01882338
:1017300051F080916202811106C081E080934E02D7
:1017400080934D0208952091620230911C0181E046
:1017500090E0332311F090E080E030E08223932387
:10176000892B21F010924E0281E0EACF10924D02B7
:10177000089582E090E0FA01918380838FEF9FEFDC
:101780000895CF93DF93EA01009711F00E94A71DFF
:101790001982188290E080E0DF91CF910895DB01FB
:1017A000009719F48FEF8C9308952EEF2C930F96DA
:1017B0008F30910508F033C0FC01EF51F44F0C94C9
:1017C000372A0D0C0B0C090C070C050C010C030C33
:1017D000FF0BFD0BFB0BF80BF40BF00BF60B0F0CD8
:1017E00080E311968C93089589E2FBCF82E2F9CFD2
:1017F00011961C92089583E2F4CF81E2F2CF81E149
:10180000F0CF87E2EECF8AE2ECCF80E1EACF84E24C
:10181000E8CF88E2E6CF86E2E4CF81E3E2CF80E260
:10182000E0CF809184029091850208959093850283
:101830008093840208958091830208959091830299
:10184000892B809383020895982F9095809183022D
:101850008923809383020895809182020895809164
:1018600080029091810208956115710559F0FB0184
:1018700030E020E070E060E02417350719F06115D2
:10188000710511F0CB010895A081B181A817B907A6
:1018900009F4BF012F5F3F4F3696EECF809186024D
:1018A00081111CC062D268D2909379028093780231
:1018B0000E944F160E94611690937D0280937C02D5
:1018C0000E94DF1A0E94E61A90937B0280937A02AC
:1018D00081E08093860290E080E0089584EF9FEF9E
:1018E00008958F929F92AF92BF92CF92DF92EF9224
:1018F000FF920F931F93CF93DF93CDB7DEB72A9755
:101900000FB6F894DEBF0FBECDBF1A8619861886B3
:101910001F821E821D821C821B821A821982809164
:10192000860207EF1FEF882309F49CC08E010D5F2C
:101930001F4F9E012B5F3F4FAE01495F5F4FBE01BE
:10194000675F7F4F90E080E00E945F1C8C010097F2
:1019500021F00596029708F0DBC029853A8521150C
:10196000310509F402C1ED80FE804B815C81B70135
:10197000640F751F8F8198858617970708F4F5C047
:10198000E20EF31ED7019C91903C09F07FC04230DB
:10199000510508F47BC011968C91409184025091BE
:1019A0008502452B09F49CC0913F08F071C02CE1E1
:1019B000290F2D3008F48BC02DE2290F203108F4B7
:1019C00089C0903C21F48150823008F483C088E3C0
:1019D000890F8B3008F481C09FECC92E9BE0D92E73
:1019E000E9EBFBE06D817E81AE014F5F5F4F898542
:1019F0009A8509955C01C114D104A1F189809A806E
:101A00008114910479F18B819C818815990508F4E2
:101A100087C010E000E04B815C8170E060E0C701AE
:101A20000E945F2A01151105E9F449815A816985EF
:101A30007A858D819E81680F791FC501F601099510
:101A4000E980FA800D811E812F81388549855A856C
:101A50006FEF7FEF81E090E00E94FB1B8C01892BF0
:101A600009F056C0C8012A960FB6F894DEBF0FBE23
:101A7000CDBFDF91CF911F910F91FF90EF90DF903D
:101A8000CF90BF90AF909F908F90089580E085CFCA
:101A900030E020E0220F331FF901E858FD4F01909C
:101AA000F081E02D309709F497CF892F90E00995C8
:101AB000009709F491CFDC011296ED91FC911397F8
:101AC0001496CD90DC90309709F08CCF1FC021E0A8
:101AD00030E0E0CF22E030E0DDCF23E030E0DACFCD
:101AE000D12CC12CE1ECFBE09F3F09F07BCFE091D2
:101AF0007802F0917902309721F4C90104EF1FEFC9
:101B00000CC08FEF90E009950097A9F604EF1FEF46
:101B100089859A85009709F4A5CF0E94A71DA2CFB9
:101B20000E94281D8C0189859A850E94A71D70E05E
:101B300060E0C4010E94C11C98878F830E94F81B3B
:101B40009E838D836F8178856115710559F0C80179
:101B50000E94CA1E9A87898706EF1FEF892B09F01A
:101B600058CF59CF08EF1FEF56CF08EF1FEFD0CF58
:101B700020918602222319F020E00C94661687EF4C
:101B80009FEF0895809184029091850208950E94AC
:101B9000EB1A0E94451AF5D0E8E7F2E088E0DF0191
:101BA0001D928A95E9F71092860290E080E00895F0
:101BB0000C94A21821E040E050E0BA010C946616A3
:101BC00086E090E0FA019183808390E080E00895C0
:101BD00047E050E068E371E047CEDF92EF92FF927A
:101BE0000F931F93CF93DF938A01EC01C60FD71F8A
:101BF000E0908A02F0908B02D9800E94101DD816C6
:101C0000190678F082E090E0F801918380838EEFEE
:101C10009FEFDF91CF911F910F91FF90EF90DF9099
:101C20000895EF2841F482E090E0F80191838083E9
:101C300084EF9FEFEECF89818093890290E0019637
:101C4000F8019183808390E080E0E3CFCF93DF932E
:101C5000EA010E945319882321F00E941D1D0E9451
:101C6000541982E090E0998388838BEF9FEFDF9196
:101C7000CF910895CF93DF93EB0186E0FB011192A2
:101C80008A95E9F78FEF8883D6DD8983E5DD8A833E
:101C9000E6DD9D838C83DF91CF910895CF93DF9311
:101CA000EA010E945619811109C082E090E09983EF
:101CB000888385EF9FEFDF91CF91089590E080E0DA
:101CC000B5DD81E090E09983888390E080E0F3CFF8
:101CD0000F931F93CF93DF93EA018C01060F171F19
:101CE0000E94561981110BC082E090E0998388838D
:101CF00085EF9FEFDF91CF911F910F910895F8012C
:101D00008181823038F082E090E0998388838EEF81
:101D10009FEFF0CF81E090E089DD88E090E099834B
:101D2000888390E080E0E6CFCF93DF930097D1F4F3
:101D3000EB01FB01329686E0DF011D928A95E9F7FF
:101D40008FEF888385E089831A820E94101D8B8320
:101D50000E940F1D9D838C8381E08E838F83DF9192
:101D6000CF910895DF91CF911ACD88EE9DE09093A9
:101D7000880280938702089580918702909188025B
:101D800008951092880210928702089580918A0225
:101D900090918B020895411105C06115710581056F
:101DA000910561F060938A0270938B0280938C029C
:101DB00090938D0240938E0281E0089580E0089513
:101DC000FF920F931F93CF93DF938A01EC01C60F0D
:101DD000D71FF9800E94101DF816190668F082E0DE
:101DE00090E0F801918380838EEF9FEFDF91CF9198
:101DF0001F910F91FF9008956C817D818E819F814D
:101E00004B81C9DF811108C082E090E0F801918325
:101E1000808384EF9FEFEACF89818093890290E0ED
:101E20000196F8019183808390E080E0DFCFCF932B
:101E3000DF93EA01FC01E60FF71F6481758186815B
:101E400097814381A8DF811109C082E090E09983E6
:101E5000888384EF9FEFDF91CF91089581E090E038
:101E60009983888390E080E0F6CFEAE8F2E0408151
:101E7000518162817381480F511D611D711D408325
:101E80005183628373830895CF93C09189024C2F4D
:101E900050E060918A0270918B0201960E94562A4E
:101EA0008C2FE3DF10928902CF910895009799F467
:101EB00080918A0290918B022FEFFB012083892B66
:101EC00059F02091890230E02F5F3F4F24173507EA
:101ED00019F4CB01D9CF63CC0895009799F4809180
:101EE0008A0290918B022FEFFB012083892B59F0FE
:101EF0002091890230E02F5F3F4F2417350719F4F6
:101F0000CB01C2CF4CCC089523E1AC01249FC0018A
:101F1000259F900D1124E0919302F0919402E80F17
:101F2000F91F238134812250310981E022303105AB
:101F300008F080E008950F931F93CF93DF930091F3
:101F4000950210919602D0E0C0E080E00C171D07CA
:101F500049F491E0811190E0892FDF91CF911F9199
:101F60000F9108958111F5CFCE01CEDF2196EECFEE
:101F7000A0919302B0919402109729F120919502BB
:101F80003091960282179307F0F453E1589F900125
:101F9000599F300D1124A20FB31FED91FC911197A1
:101FA000309789F012968C91681768F48DE0689FDD
:101FB000E00DF11D112480819181892B21F081E0B8
:101FC0009281491708F080E008959C0143E1429F07
:101FD000C001439F900D1124E0919302F09194026F
:101FE000E80FF91F8385823091F481E090E06581EC
:101FF000768140912101509122016417750711F4F7
:1020000090E080E0892B19F081E0232B09F080E03B
:102010000895FC01A081B1818DE0689FA00DB11DE4
:10202000112413964D915C9185859685489F90016A
:10203000499F300D589F300D1124C901019661113F
:1020400003C0478144FD04960895EF92FF920F93D9
:102050001F93CF93DF93EA01FC01E60FF71F028184
:102060001381E480F5804F2D6E2DC80181DF811131
:102070000DC082E090E0998388838EEF9FEFDF911F
:10208000CF911F910F91FF90EF900895C8013CDF11
:10209000882339F082E090E09983888388EF9FEF6E
:1020A000EECF1093280100932701E0922901F092CE
:1020B0002A0181E090E09983888390E080E0DFCF7F
:1020C000CF92DF92EF92FF920F931F93CF93DF9304
:1020D0007A01EC01C60FD71FC0902701D0902801CC
:1020E0000091290110912A01412F602FC60140DF84
:1020F000811110C082E090E0F701918380838AEF24
:102100009FEFDF91CF911F910F91FF90EF90DF90A4
:10211000CF900895C601F8DE882341F082E090E078
:10212000F7019183808388EF9FEFEBCF4C815D8136
:102130006E817F819A8189818F3F41F082E090E0BA
:10214000F701918380838EEF9FEFDBCFE3E1EC9D7E
:102150009001ED9D300D1124E0919302F0919402D5
:10216000E20FF31F0190F081E02D2DE0029FE00DC2
:10217000F11D11240190F081E02D27E0129FE00D68
:10218000F11D1124808391838B8182834383548347
:10219000658376831F5F10932A0181E090E0F70149
:1021A0009183808390E080E0ACCFEF92FF920F9319
:1021B0001F93CF93DF937A018C01060F171FC091F5
:1021C0009302D0919402209781F021E030E0F80151
:1021D00082819381409195025091960284179507D0
:1021E00010F030E020E0232B71F482E090E0F70162
:1021F000918380838EEF9FEFDF91CF911F910F919D
:10220000FF90EF90089543E1489F9001499F300D62
:102210001124C20FD31F78DE882341F082E090E0C2
:10222000F7019183808388EF9FEFE6CFF801248147
:10223000358120383105C8F687818111D6CF41819B
:10224000842F90E08F7E009741F082E090E0F701CC
:102250009183808386EF9FEFCFCF4F833E832D8383
:10226000268128871986223010F421E0288721E072
:1022700030E0F70131832083BFCF88E090E0FA019E
:102280009183808390E080E00895FB018FEF80834D
:1022900081E181838FEF9FEF9383828380E890E0D9
:1022A00095838483168217820895FB018FEF8083C4
:1022B00091E0918382839383848384E3858381E0A7
:1022C00090E0978386830895DF92EF92FF920F93B9
:1022D0001F93CF93DF93EA01FC01E60FF71F818183
:1022E000813071F082E090E0998388838FEF9FEFD7
:1022F000DF91CF911F910F91FF90EF90DF900895A4
:1023000082819381D4802581E680F78000919302B9
:10231000109194020115110539F482E090E099833F
:1023200088838CEF9FEFE4CF409195025091960205
:102330008417950738F082E090E0998388838EEFC8
:102340009FEFD6CF892B39F082E090E09983888384
:1023500086EF9FEFCDCF8D2D8D7FB1F72130A1F787
:1023600081E0D11006C091E0E916F10431F080E07F
:1023700004C0E2E0EE16F104D0F3882329F390E0E4
:1023800080E0C2DD882339F082E090E09983888381
:1023900088EF9FEFADCFF801D38681E08487F68682
:1023A000E586108A178681E090E09983888390E023
:1023B00080E09ECF4CE050E062E671E055CA8F921B
:1023C0009F92BF92CF92DF92EF92FF920F931F9353
:1023D000CF93DF93EA01FC01E60FF71F828193811F
:1023E0000481B580E0919302F0919402309791F4CA
:1023F00082E090E0998388838CEF9FEFDF91CF910B
:102400001F910F91FF90EF90DF90CF90BF909F9022
:102410008F9008952091950230919602821793072C
:1024200038F082E090E0998388838EEF9FEFE6CFCB
:1024300023E1289F6001299FD00C1124EC0DFD1D84
:10244000E080F180E114F10499F28281081748F7E5
:102450008DE0089F80011124E00EF11EF7018081BC
:102460009181892B29F6BB20E1F2F7E0BF9E400164
:102470001124C4010E94A41DF70191838083E0917F
:102480009302F0919402EC0DFD1D0190F081E02D7E
:10249000E00FF11F80819181009739F482E090E094
:1024A000998388838DEF9FEFA9CFA40170E060E04E
:1024B0000E945F2A8091930290919402C80ED91EC7
:1024C000F60180819181080F191FF801B28281E025
:1024D00090E09983888390E080E090CFAF92BF92A4
:1024E000CF92DF92FF920F931F93CF93DF93EA0176
:1024F000FC01E60FF71F82819381F4800091930223
:10250000109194020115110581F482E090E0998305
:1025100088838CEF9FEFDF91CF911F910F91FF90F8
:10252000DF90CF90BF90AF900895209195023091A9
:1025300096028217930738F082E090E099838883AF
:102540008EEF9FEFE8CF2FEF2F0D2C3FA8F723E161
:10255000289F6001299FD00C11240C0D1D1DF8012E
:1025600080819181892B89F6FDE0FF9E5001112425
:10257000C5010E94A41DF80191838083E09193021C
:10258000F0919402EC0DFD1D80819181009739F44A
:1025900082E090E0998388838DEF9FEFBCCFA50107
:1025A00070E060E00E945F2AE0919302F091940253
:1025B000EC0DFD1DF28281E090E09983888390E02C
:1025C00080E0A9CFCF92DF92EF92FF920F931F93FB
:1025D000CF93DF93860F971FFC01028113818091B7
:1025E000930290919402892B81F082E090E0FA01AD
:1025F000918380838CEF9FEFDF91CF911F910F919B
:10260000FF90EF90DF90CF900895C801B0E0A0E078
:102610000197A109B1098F3F9F4FA105B10540F076
:1026200082E090E0FA01918380838EEF9FEFE4CF08
:102630007A0183E1809F6001819FD00C1124C60143
:102640000E94A41DEC01009741F482E090E0F701A4
:10265000918380838DEF9FEFCFCFA60170E060E084
:102660000E945F2AD0939402C09393021093960223
:102670000093950290E080E02FEF3FEF41E061E0B2
:1026800070E08017910741F481E090E0F7019183B9
:10269000808390E080E0B0CF3A8B298B1B864C87FB
:1026A0007E876D87188A1F8601966396EACFEF9220
:1026B000FF921F93CF93DF93EC0110E0F12CE12CFC
:1026C0006A811617A8F070E0660F771FAE014F5EA3
:1026D0005F4FC7010E94D11D009721F02FEF3FEF00
:1026E0003A8B298BDF91CF911F91FF90EF90089546
:1026F000612FCE018EDC61E070E00E94C11CE81603
:10270000F90608F47C011F5FDBCFF8942091910259
:102710003091920281E02115310509F080E0232BF0
:1027200009F0789408952F923F924F925F926F92A2
:102730007F928F929F92AF92BF92CF92DF92EF9251
:10274000FF920F931F93CF93DF933C01660E771E8A
:10275000F301828193814C01B12CA12CC091930291
:10276000D0919402209769F021E030E060919502C9
:10277000709196028617970710F030E020E0232B27
:10278000D1F482E090E0FA01918380838EEF9FEF95
:10279000DF91CF911F910F91FF90EF90DF90CF903D
:1027A000BF90AF909F908F907F906F905F904F9071
:1027B0003F902F90089580922B0190922C01A0922F
:1027C0002D01B0922E0163E1689F9001699F300D49
:1027D0001124C20FD31FF3018181833040F082E0C6
:1027E00090E0FA019183808386EF9FEFD1CF2A0199
:1027F0002B813C81232BF1F4288139819F8191FF2A
:102800002EC0232B09F46FC0209198029A81422F89
:10281000490F5527551FBA0141E050E06138710555
:1028200014F050E040E0452B09F45DC02A87920F78
:10283000909398028150823008F481C066DF88232B
:1028400009F4D8C0F3018181813009F48DC008F406
:102850007BC0823009F4C6C090E080E0ADC0232B7D
:1028600009F441C0209197029A81E22FE90FFF27D6
:10287000FF1F41E050E0ED3FF10514F050E040E073
:10288000452B89F12A87920F90939702D3CFA0818D
:10289000B181A20FB31F11966C91060F111D019605
:1028A000295F3F4F8417950794F38D859E85089F78
:1028B0001001099F300C189F300C1124C114D10451
:1028C000D1F48F8184FF17C00E940F1DF5E02F0EF9
:1028D000311C21E08215930508F420E0A701435F35
:1028E0005F4F21110EC082E090E0F201918380835E
:1028F00087EF9FEF4DCF0E940F1D2FEF221A320A54
:10290000E8CF88819981E80EF91EF70114830383CB
:10291000FFEFCF1ADF0A7A018A818C151D0409F0B6
:102920000CF48CCFE881F981EE0DFF1D428150E05F
:1029300030E020E010E000E090E080E0B3CFF12C48
:10294000E12CD12CC12CE8CF81E090E09C838B83DB
:10295000F2DA882309F480CF81E090E00E94160C1F
:1029600080E40E94240C78CF89899A89019661F0CD
:1029700083E090E09C838B8382E090E00E94160CC1
:1029800080E40E941E0C68CF8D819E8120912101E0
:102990003091220182179307D1F460912501709143
:1029A0002601AE014F5E5F4F80912301909124017B
:1029B0000E94891E0097E1F2789422E030E0F20153
:1029C00031832083892B99F08DEF9FEFE1CE892809
:1029D0008A288B2869F6892B59F6CE0168DE188A79
:1029E0001F86E8CF82E090E09C838B8335CF90E018
:1029F00080E0CECE82E090E0F2019183808385EF8B
:102A00009FEFC6CE8F929F92AF92BF92CF92DF92EE
:102A1000EF92FF920F931F93CF93DF93EA018C0104
:102A2000060F171FF8018181833098F082E090E053
:102A30009983888386EF9FEFDF91CF911F910F914C
:102A4000FF90EF90DF90CF90BF90AF909F908F90CE
:102A500008958091930290919402892B61F081E016
:102A600090E02091950230919602232B11F490E092
:102A700080E0892B39F482E090E0998388838EEF9F
:102A80009FEFDACF42DE882309F4DFC0F8018181AD
:102A9000813009F495C0E8F0823099F420919502D4
:102AA00030919602E0919302F091940290E080E0E0
:102AB00041E050E02817390709F0BDC03CDA811128
:102AC00017C0789481E090E09983888390E080E05B
:102AD000B3CF2091950230919602E0919302F0914C
:102AE000940290E080E041E050E02817390741F47B
:102AF00081E090E00E94160C80E40E94240CE1CF5B
:102B000063817481672B11F054834383019673961C
:102B1000ECCFE0919302F0919402E00FF11F23813A
:102B2000348122303105D9F4218932892F3F3F4F3A
:102B3000B1F4258136814091210150912201241761
:102B4000350761F5AF014F5E5F4F609125017091D0
:102B5000260180912301909124010E94891EEFEFAC
:102B6000CE1ADE0AEE0AFE0A0D5E1F4F4091950254
:102B70005091960270E060E0C416D506E606F706AE
:102B80003CF5009731F27894892B09F49BCF82E0D1
:102B900090E0998388838DEF9FEF4ECFC114D104CD
:102BA000E104F104E1F6232BD1F6CF0180DDE091C1
:102BB0009302F0919402E00FF11F108A1786CFCF95
:102BC00010E000E090E080E0C12CD12C7601CECF67
:102BD0000097C9F610E000E0812C912C540183E0AD
:102BE000E82EF12C1AC0E0919302F0919402E00FCC
:102BF000F11F83819481029749F4F482E38282E099
:102C000090E00E94160C80E40E941E0CFFEF8F1AC9
:102C10009F0AAF0ABF0A0D5E1F4F809195029091E7
:102C20009602B0E0A0E088169906AA06BB06DCF280
:102C300090E080E0A8CF638174816230710511F467
:102C4000548343830196739635CF82E090E0998355
:102C5000888385EF9FEFF0CE0097B9F48FEFFB01EB
:102C6000808320912B0130912C0143E1429FC001D0
:102C7000439F900D1124E0919302F0919402E80F8C
:102C8000F91F8285FB01818308950C94CF0B88E0A6
:102C900090E0FA019183808390E080E008951092A3
:102CA000920210929102E3E9F2E086E0DF011D92C8
:102CB0008A95E9F78AED91E19093900280938F02D3
:102CC000089580918F029091900208952F923F92E3
:102CD0004F925F926F927F928F929F92AF92BF922C
:102CE000CF92DF92EF92FF920F931F93CF93DF93D8
:102CF000CDB7DEB72F970FB6F894DEBF0FBECDBFAE
:102D0000F894E0919102F09192023196F093920240
:102D1000E093910278944090930250909402411471
:102D2000510409F40CC2E0919502F0919602EF2B48
:102D300009F405C22D8749875A876B877C87988756
:102D40008F831201B12CA12C10E000E0809195023C
:102D500090919602A816B90618F40115110529F1EB
:102D6000F89480919102909192020197909392022F
:102D7000809391027894C8012F960FB6F894DEBF25
:102D80000FBECDBFDF91CF911F910F91FF90EF90BC
:102D9000DF90CF90BF90AF909F908F907F906F907B
:102DA0005F904F903F902F9008957101E418F508BF
:102DB000D10117968C91179781FD54C013968D9170
:102DC0009C911497039709F04DC015968D919C9195
:102DD000EF81F8858E179F0709F044C0B50190E098
:102DE00080E07ED48A8320919302309194023D83C7
:102DF0002C833D85332309F44CC04C815D81452BE8
:102E000009F49AC18091950290919602A816B9068C
:102E100008F092C1C501D9D88823E9F06C817D8181
:102E20006E0D7F1D7D836C83DB011F968D919C91C0
:102E3000892B89F0D12CC12CF12CE12CAC81BD81E6
:102E400012968C9112978E151F0409F094F45096E7
:102E50001C921E921F972A81222321F0B50190E037
:102E600080E040D43FEFA31AB30A43E1240E311CA3
:102E70006DCFAC81BD81ED91FC91EC0DFD1D858187
:102E8000968165D6BFEFEB1AFB0AEDE0CE0ED11CA2
:102E9000D5CFEC81FD81309709F44EC18091950228
:102EA00090919602A816B90608F046C1EE0DFF1DD6
:102EB000FF87EE87C50189D88B83882339F1AE85DA
:102EC000BF851F968D919C915097019621E01D968C
:102ED0004D915C918417950709F020E02E831982AB
:102EE000712C10E000E0AE85BF8512968C917816AB
:102EF00008F45DC0EE85FF8587859089019665851C
:102F000076850E94012A908B8787A5CFB1E0BE838A
:102F1000E6CF992493946BC017D6F60196838583E8
:102F200082C0D601ED90FC90B7E06B9EE00CF11CE6
:102F30001124F7016381748180818F3F61F121E069
:102F400030E002C0220F331F8A95E2F7C901092E33
:102F5000000CAA0BBB0BFB01408151816281738184
:102F600084239523A623B72321E0892B8A2B8B2B3F
:102F700009F420E0D4012C93D70111968C91F6012D
:102F800023853485820F932F911D880E991E1486F8
:102F9000138663949BC0418150E0C4010E94562A6D
:102FA000EBCF998206EF1FEFC5C01982C3C0F9812C
:102FB000F111A0CFEDE07E9E70011124AE85BF859A
:102FC000CD90DC90CE0CDF1C13D49D838C83BB8111
:102FD000BB2309F49ECF81E0EE85FF8527853089EC
:102FE000232B09F080E0982E882309F458C0672D20
:102FF0008E859F850ED8D60118969C938E93179731
:1030000061E070E0BED4EE85FF85218932892F3FD3
:10301000320709F481CFBC01C901BCD6D60116968E
:103020009C938E931597D60115968D919C9116972A
:10303000009709F4B6CFEC81FD818E0F9F1F1A9681
:103040009C938E931997AE85BF85ED91FC91119756
:10305000EE0EFF1EF70121853285148613861A961F
:103060008C91870DD9018D93711016C0EE85FF8567
:10307000878184FF11C049855A856B857C85F9015C
:103080004183528363837483F70183859485049617
:10309000A80FB91F14861386F701B287A187D6013E
:1030A00015968D919C911697892B09F443C0EE8556
:1030B000FF85258136818091210190912201281779
:1030C000390779F019968D909C90612CD601129653
:1030D0008C911297681608F424CF1A969C928E92BF
:1030E0001997BE81BB2309F460CF61E070E0F6015F
:1030F0008781908546D4D6011796ED90FC9018975D
:1031000015964D915C91E1E0F0E0BA81BB2311F09E
:10311000F0E0E0E00C811D819C01B5018827992732
:103120008E1B9F0B68D38C01892B21F0F6018581C2
:1031300096810DD57394D7CE0FEF1FEF8CCE10E094
:1031400000E00ECE2F923F924F925F926F927F924D
:103150008F929F92AF92BF92CF92DF92EF92FF92A7
:103160000F931F93CF93DF938091930290919402DA
:1031700010E000E0892BA9F0C8DA0AEF1FEF8823DE
:1031800081F02090950230909602C0919302D091E8
:103190009402D12CC12C10E000E02C143D04A9F4C1
:1031A0007894C801DF91CF911F910F91FF90EF901C
:1031B000DF90CF90BF90AF909F908F907F906F9057
:1031C0005F904F903F902F900895C6010E94E50FA9
:1031D000882309F18B819C810397E9F48F85988975
:1031E000892BC9F0B60190E080E07AD221E030E08E
:1031F000882311F030E020E044245524421A530A79
:10320000B12CA12C912C812C8A818815190409F0EC
:1032100038F4188A1F864FEFC41AD40A6396BDCFBC
:10322000E881F981EA0DFB1D85819681892BA1F149
:1032300061E070E087819085A4D33C01D9D28C01F4
:10324000E881F981EA0DFB1D818592852581368112
:10325000200F311FAC01421B530B9A01478150854F
:10326000421B530B70E060E00E945F2AE881F98105
:10327000EA0DFB1DE780F084458156819301B6017C
:10328000C201B9D28C01892B39F0E881F981EA0DAC
:10329000FB1D858196815BD45FEF851A950A8DE0D1
:1032A000A80EB11CB1CF31CA789408952F923F92E5
:1032B0004F925F926F927F929F92AF92BF92CF9206
:1032C000DF92EF92FF920F931F93CF93DF9300D083
:1032D00000D000D0CDB7DEB70091930210919402D8
:1032E000992493940115110509F43EC0A09095020C
:1032F000B09096020ADA982E8823B1F110929402C7
:1033000010929302109296021092950210929702D8
:10331000109298028FEF9FEFDC0180932B01909326
:103320002C01A0932D01B0932E0178947AD31E83A3
:103330000D83C12CD12C7601C501B0E0A0E08983BA
:103340009A83AB83BC8322242A94322C89819A816C
:10335000AB81BC81C816D906EA06FB06F4F0C801A9
:10336000F6D380E40E94240C892D26960FB6F8949B
:10337000DEBF0FBECDBFDF91CF911F910F91FF90A8
:10338000EF90DF90CF90BF90AF909F907F906F9025
:103390005F904F903F902F900895AD81BE8115961C
:1033A0008D919C91169720912101309122018217D5
:1033B0009307D1F451968D919C91DAD4ED81FE81E1
:1033C00080819181B12CA12C412C512C3201892B6F
:1033D00089F5BFEFCB1ADB0AEB0AFB0AED81FE8110
:1033E0007396FE83ED83B2CFC114D104E104F104DE
:1033F00029F7892B19F7ED81FE81818992898F3F09
:10340000980709F057D4AD81BE8152963C922E9216
:103410005197D4CF8A0D9B1DDC018D919C91009713
:1034200009F095D3BFEF4B1A5B0A6B0A7B0AEDE0FC
:10343000AE0EB11CAD81BE818D919C9111971296FB
:103440004C9150E070E060E0441655066606770641
:103450000CF37DD3BECFCF93DF93EA0127DF811139
:1034600009C082E090E09983888385EF9FEFDF9128
:10347000CF91089581E090E00E94160C81E090E0E9
:103480009983888390E080E0F2CF10DF1092900261
:1034900010928F02089542E050E06AEA71E00C94C5
:1034A000340CFF920F931F93CF93DF938A01EC01AB
:1034B000C60FD71FF980B4D20897F816190671F015
:1034C00068F082E090E0F801918380838EEF9FEFB7
:1034D000DF91CF911F910F91FF9008956C817D81B5
:1034E0008E819F814B810E94CB0E811108C082E0AA
:1034F00090E0F8019183808384EF9FEFE9CFF9801A
:103500000E94C60E4F2D50E0BE01685F7F4F0E94A3
:10351000562A89810E94350F81E090E0F80191835D
:10352000808390E080E0D4CFDF92EF92FF920F9300
:103530001F93CF93DF938A01EC01C60FD71F0E9420
:10354000C60E7C01D9806CD2DD2059F0029721E0B3
:1035500030E0D816190619F010F030E020E0232BE7
:1035600079F482E090E0F801918380838EEF9FEF01
:10357000DF91CF911F910F91FF90EF90DF90089511
:10358000EF2841F482E090E0F8019183808384EF9A
:103590009FEFEECFF9800E94C60E4F2D50E0BE0186
:1035A0006E5F7F4F0E94562A89810E94350F81E00D
:1035B00090E0F8019183808390E080E0D9CF8BE4A4
:1035C0009AE190939A0280939902089580919902CA
:1035D00090919A0208950895FC01118210829383BC
:1035E00082830895DB011D921C92DC011296ED91FD
:1035F000FC9113977183608313967C936E9312975B
:103600000895FC0180819181DB018D939C93A081C1
:10361000B181109741F08D919C9191838083892B8A
:1036200011F4F383E2830895FC0180819181DB0131
:103630008D939C93892B11F47383628371836083D0
:103640000895FC0111821082938382830895CF93A1
:10365000DF9300D0CDB7DEB71A821982F894BE018D
:103660006F5F7F4F80EA92E0CCDF89819A8100977B
:1036700009F06DD289819A81892B89F7BE016F5F2C
:103680007F4F84EA92E0BDDF89819A81009709F03B
:103690005ED289819A81892B89F778940F900F9057
:1036A000DF91CF910895CF93DF9300D0CDB7DEB7F0
:1036B0001A821982F894BE016F5F7F4F8CE992E005
:1036C000A0DF89819A81009709F041D289819A818E
:1036D000892B89F778940F900F90DF91CF910895FF
:1036E00081E0089590E080E00895EF92FF920F93BB
:1036F0001F93CF93DF9300D0CDB7DEB71A82198224
:1037000080919B0207EF1FEF8823A1F1F894BE017F
:103710006F5F7F4F84EA92E074DF789489819A81A9
:10372000EE24E394F12C892B51F4F894BE016F5FE1
:103730007F4F80EA92E065DF7894F12CE12C89815B
:103740009A810EEF1FEF0097A9F0FC01428153818F
:1037500064E070E00DD58C01892B61F0F8946981EB
:103760007A81C701880F991F880F991F80569D4F36
:103770005BDF7894C8010F900F90DF91CF911F917C
:103780000F91FF90EF9008950F931F93CF93DF93C6
:1037900000D000D0CDB7DEB71C821B821A821982FE
:1037A00080919B0207EF1FEF8823C1F0AE014D5FB0
:1037B0005F4F64E070E0CE0101964DD58C01892BFE
:1037C00069F4E981FA818B819C8193838283F894E7
:1037D00069817A818CE992E005DF7894C8010F90C5
:1037E0000F900F900F90DF91CF911F910F9108953F
:1037F00052D6049608958F929F92AF92BF92CF9225
:10380000DF92EF92FF920F931F93CF93DF9300D03D
:10381000CDB7DEB71A821982BC016F5F7F4F63306C
:10382000710598F0AA24AA94BA2CC5010F900F90A4
:10383000DF91CF911F910F91FF90EF90DF90CF908C
:10384000BF90AF909F908F9008954115510551F30F
:10385000480159018A016C01CBDF8815990511F7E0
:10386000E114F104F9F28E0D9F1DA816B906D0F2ED
:1038700080919B028823F1F0F894B501645071099E
:103880009701AE014F5F5F4FC801049679D55C0187
:10389000892B71F489819A81F80193838283C6010F
:1038A000880F991F880F991FB80180569D4F9ADE87
:1038B0007894BBCF87EFA82EBB24BA94B6CFAF9233
:1038C000BF92CF92DF92EF92FF920F931F93CF930D
:1038D000DF9300D0CDB7DEB71A821982892B09F0A9
:1038E00047C06115710509F443C04115510509F43C
:1038F0003FC02115310509F43BC001151105C1F187
:1039000080919B028823B9F179016A015B01F894E7
:10391000BE016F5F7F4F8CE992E073DE78948981FE
:103920009A81009759F1DC0112966D917C91A80162
:1039300004963FD58C01E981FA81D501ED93FC9382
:10394000828193810496F6019183808351DFD701B0
:103950008D939C93C8010F900F90DF91CF911F9191
:103960000F91FF90EF90DF90CF90BF90AF900895B0
:103970000FEF1FEFEFCF07EF1FEFECCF0EEF1FEFB3
:10398000E9CFCF93DF93EC01672B71F48DD58C17C2
:103990009D0760F080D52496C80FD91F7FD58C0F66
:1039A0009D1FDF91CF9108957CD5F1CF90E080E00D
:1039B000F8CF0F931F93CF93DF9320919B02211198
:1039C0002BC08B01EC0180EA92E006DE84EA92E0F3
:1039D00003DE8CE992E000DE97D00097C1F464D555
:1039E00070E060E0CEDF4FE251E062E070E0D9D0FD
:1039F000009769F480912F019091300167D5B8014B
:103A0000CE019CD3009719F421E020939B02DF9113
:103A1000CF911F910F91089584EF9FEFF8CF41C58B
:103A200043C5CF93DF9343D5EC01892B11F40FDE0F
:103A30003ADECE01DF91CF910895CF93DF9337D552
:103A4000EC01892B09F403DECE01DF91CF910895BB
:103A500080912F01909130010895CF93DF93809151
:103A60009B02D0E0C0E08823D1F035D5EC01892B52
:103A7000B1F4EDDD18DE80912F01909130011AD163
:103A8000CED1EC01892B59F480EA92E0DADD84EAA8
:103A900092E0D7DD8CE992E0D4DD10929B02CE015A
:103AA000DF91CF910895EF92FF920F931F93CF93E1
:103AB000DF93EC017A018B010F5F1F4F0E9DA00178
:103AC0000F9D500D1E9D500D112470E060E00E946E
:103AD0005F2A90E080E0F0E0E0E02FEFE816F906E2
:103AE00039F4DF91CF911F910F91FF90EF900895DE
:103AF0001A8219822883309711F0D283C1830196EC
:103B0000FE01C00FD11FEACFEAEAF2E085E8DF014B
:103B10001D928A95E9F71092A9021092A802E6E395
:103B2000F3E01182108215821482138212821782AE
:103B3000168211861086E2E3F3E01182108213826E
:103B4000128290E080E0089590E080E00895009770
:103B500039F1DC018E91813041F4E0913403F09130
:103B600035033097E9F0CD010994811119C0F8941B
:103B70008FEF8C93809136039091370312969C932C
:103B80008E931197B0933703A09336038091380337
:103B90009091390301969093390380933803789478
:103BA0000895EF92FF920F931F93CF93DF934115E8
:103BB000510509F47CC0009709F479C061157105BD
:103BC00009F475C0EA01AB01BC01F8948091360399
:103BD00090913703892B19F58DEA92E08C7F6D5F08
:103BE0007F4F6C7F9B012F5F3F4F249F8001259F5C
:103BF000100D349F100D112420913E0330913F038E
:103C00002115310509F03CC0E090A802F090A9020E
:103C100022E830E02E193F092017310730F478945C
:103C20002FEF3FEF86EF9FEF22C0909337038093F3
:103C3000360350933B0340933A0350933903409328
:103C4000380370933D0360933C0310933F0300934C
:103C50003E03009709F027DF0E0D1F1D1093A902E8
:103C60000093A802789430E020E090E080E039836F
:103C70002883DF91CF911F910F91FF90EF900895CE
:103C80002017310760F290933703809336035093E7
:103C90003B0340933A0350933903409338037093A6
:103CA0003D0360933C030097E9F2FDDEDBCF8FEF2D
:103CB0009FEFDFCF892B51F5F894109237031092C4
:103CC000360310923B0310923A031092390310927C
:103CD000380310923D0310923C0320913E03309133
:103CE0003F032115310571F08091A8029091A9023E
:103CF000821B930B9093A9028093A80210923F031A
:103D000010923E03789490E080E008958FEF9FEF4B
:103D100008954115510549F1009739F16115710573
:103D200021F1F8942091320330913303232BB9F41D
:103D30002091340330913503232B89F4909333037E
:103D4000809332037093350360933403789421E0B9
:103D500030E090E080E0FA01318320830895789488
:103D60002FEF3FEF86EF9FEFF6CF8FEF9FEF089596
:103D7000019769F4F8941092330310923203109271
:103D8000350310923403789490E080E008958FEF2B
:103D90009FEF08956115710519F4F0E0E0E011C09E
:103DA0008130910581F4E0913203F0913303309733
:103DB000A1F3CB0101960995009779F3FC0181E00D
:103DC0008193CF010895892B41F78091360390911B
:103DD0003703892B11F380913C0390913D038617A3
:103DE0009707D8F2F894809138039091390300979F
:103DF00031F0E0913603F0913703309711F4789465
:103E0000CCCF218132813093370320933603019741
:103E1000909339038093380311927894D2CFEFE2D4
:103E2000F3E083E0DF011D928A95E9F7EAEAF2E028
:103E300085E8DF011D928A95E9F71092A902109298
:103E4000A802E6E3F3E08AE0DF011D928A95E9F734
:103E5000E2E3F3E084E0DF011D928A95E9F790E068
:103E600080E00895CF93DF93C0913101D09132016A
:103E7000CF3FDC0759F4C1D39093320180933101D5
:103E800097FF09C0D0933201C093310184EF9FEFB7
:103E9000DF91CF91089590E080E0FACF82309105D4
:103EA00028F48093400390E080E008958FEF9FEF27
:103EB00008954F925F926F927F92AF92BF92CF928E
:103EC000DF92EF92FF920F931F93CF93DF9300D077
:103ED000CDB7DEB71A821982009709F478C0611550
:103EE000710509F474C0209131013091320107EF5E
:103EF0001FEF2F3F3F4F09F444C06B015C01412C81
:103F0000512C3201F12CE12C10E000E09E012F5FDA
:103F10003F4FA6014E195F09B5016E0D7F1D8091BF
:103F2000310190913201C8D3892B09F04AC08981AF
:103F30009A81009741F4E114F10429F4209140039F
:103F4000222309F441C0E80EF91EEC14FD04C8F464
:103F500080E8481684E858068EE16806710418F572
:103F600060E070E0CB0113D72AE0420E511C611CC7
:103F7000711C0A3F4FEF140721F0043F8FEF180721
:103F8000A1F4C8010F900F90DF91CF911F910F9175
:103F9000FF90EF90DF90CF90BF90AF907F906F90A9
:103FA0005F904F90089501EF1FEF81E090E0013F97
:103FB0002FEF120711F090E080E0892B09F4A6CFD3
:103FC000E0CF04EF1FEFDDCF0AEF1FEFDACF0FEFE7
:103FD0001FEFD7CF4F925F926F927F92AF92BF92B7
:103FE000CF92DF92EF92FF920F931F93CF93DF93C5
:103FF00000D0CDB7DEB71A821982009709F478C0D5
:104000006115710509F474C02091310130913201BC
:1040100007EF1FEF2F3F3F4F09F444C06B015C01D6
:10402000412C512C3201F12CE12C10E000E09E01DA
:104030002F5F3F4FA6014E195F09B5016E0D7F1D21
:104040008091310190913201EDD2892B09F04AC063
:1040500089819A81009741F4E114F10429F42091B7
:104060004003222309F441C0E80EF91EEC14FD04BC
:10407000C8F480E4481682E458068FE068067104AC
:1040800018F560E070E0CB0182D62AE0420E511CA8
:10409000611C711C0E3F4FEF140721F0043F8FEF9E
:1040A0001807A1F4C8010F900F90DF91CF911F91D5
:1040B0000F91FF90EF90DF90CF90BF90AF907F90E7
:1040C0006F905F904F90089502EF1FEF81E090E0B6
:1040D000023F2FEF120711F090E080E0892B09F4E6
:1040E000A6CFE0CF04EF1FEFDDCF0EEF1FEFDACF4B
:1040F0000FEF1FEFD7CF80913101909132018F3FA9
:10410000980749F072D2892B49F48FEF9FEF909373
:1041100032018093310190E080E0089584EF9FEFB9
:104120000895FC01680F791F90E080E0E617F7071B
:1041300009F408952191820F911DF8CF2091410338
:10414000211113C08FDE009791F410924703109253
:1041500046031092450310924403109243031092B9
:10416000420321E020934103089584EF9FEF0895D7
:10417000AF92BF92CF92DF92EF92FF920F931F9375
:10418000CF93DF93009709F460C04630510508F4DF
:104190005CC020914103C7EFDFEF222309F449C03F
:1041A0008C01060F171FF801C080D180C114D10403
:1041B00009F44EC096012A5F3F4F4217530708F497
:1041C00047C07C018091460390914703938382838B
:1041D000B6016C5F7F4F5801A60EB71EC801A1DF64
:1041E000F5019183808364E070E0C80162DEEC0138
:1041F000892BF9F481E090E051DEB601C801049604
:1042000058DEEC01892B91F462E070E0C50151DECB
:10421000EC01892B59F4C7019ADC809146039091F7
:1042200047030196909347038093460390E080E014
:1042300035DECE01DF91CF911F910F91FF90EF906E
:10424000DF90CF90BF90AF900895CFEFDFEFF1CF29
:10425000C9EFDFEFEECF6F927F928F929F92AF9276
:10426000BF92CF92DF92EF92FF920F931F93CF9363
:10427000DF9300D000D0CDB7DEB7009709F47AC045
:104280004115510509F476C02091410307EF1FEF56
:10429000222309F44DC03A017B015C0164E070E027
:1042A000CE01019697DE8C01892B09F041C009816E
:1042B0001A810115110509F45AC0480186E0880EDB
:1042C000911CB701680D791D8091330190913401E3
:1042D00061DD6C01009709F450C0A70170E060E057
:1042E0000E945F2A89819A81AB81BC81EC0CFD1C04
:1042F000F70181939193A193B1937F0181E090E0C5
:10430000CDDDB801C70166DE892B31F562E070E0D2
:10431000C701800F911F5EDE8C01892BE9F490E0CC
:1043200080E0BCDDF501D182C082F3019182808200
:10433000C8010F900F900F900F90DF91CF911F91B8
:104340000F91FF90EF90DF90CF90BF90AF909F9034
:104350008F907F906F90089590E080E09FDDF50151
:1043600011821082F30111821082C601F0DB09EF85
:104370001FEFDECF0FEF1FEFDBCF06EF1FEFD8CF22
:104380000097A1F04115510589F02115310571F013
:10439000F90136966E177F0748F0DC012D933C93A8
:1043A000DA01ED93FC9390E080E008958FEF9FEFAA
:1043B0000895AF92BF92CF92DF92EF92FF920F9348
:1043C0001F93CF93DF93009709F45FC04115510508
:1043D00009F45BC06530710508F457C020914103B2
:1043E000C7EFDFEF222391F1DC01CD90DC90119734
:1043F0001296ED91FC9196012A5F3F4FC9EFDFEFD6
:104400002617370719F5C0914203D091430320972F
:1044100049F521E030E030934303209342037A01D1
:104420008C01F0934503E09344035601B4E0AB0ED6
:10443000B11CB50176DE0A0D1B1DF801208131810A
:104440008217930729F5D701CD92DC92CE01DF9137
:10445000CF911F910F91FF90EF90DF90CF90BF9081
:10446000AF90089520914403309145032F5F3F4F53
:10447000CCEFDFEFE217F30790F2CBEFDFEF2E1771
:104480003F0768F2D0E0C0E0CACFCFEFDFEFDECF6A
:10449000C3EFDFEFDBCF84E090E0089582E090E0AF
:1044A00008958CEF9FEF089580E290E008951092B8
:1044B0004703109246031092450310924403109252
:1044C00043031092420390E080E0089590933401FA
:1044D00080933301089580914103882391F00BDE8E
:1044E000009789F4109247031092460310924503F7
:1044F000109244031092430310924203109241031E
:10450000089590E080E00895009749F061157105E5
:1045100031F0FC0111821082FB011182108208959A
:10452000F3CF26E030E040E050E16EE070E090E054
:1045300080E000C0892B19F485E593E050C608950A
:104540001F920F920FB60F9211242F933F934F9308
:104550005F936F937F938F939F93AF93BF93EF93EB
:10456000FF938EE19BEF9093850080938400B7D0FA
:10457000FF91EF91BF91AF919F918F917F916F913B
:104580005F914F913F912F910F900FBE0F901F9011
:1045900018958EE19BEF9093850080938400AFE6A1
:1045A000B0E08C918E7F8C93E0E8F0E080818C7F8E
:1045B0008083E1E8F0E08081877E80838081836072
:1045C000808380818B7F80838C9181608C93089520
:1045D000EFE6F0E0808190819E7F90838170089566
:1045E00081E0089510924803089568EE73E080E03A
:1045F00090E0CDD390E080E0089526E030E040E008
:1046000052EC61E070E090E080E094DF85E593E0BB
:104610001CD5892B21F085E593E031D5F7CF90E0CB
:1046200080E00895CF92DF92EF92FF920F931F9355
:10463000CF93DF936B017A01E9011982188285E536
:1046400093E003D5892B69F18601CC24C39482E0E1
:10465000D82E80914803811110C085E593E00FD5D5
:104660000297B9F7C0924803F801D1928F0188816F
:104670009981019699838883ECCF888199818E15E1
:104680009F0578F485E593E0FAD48F3F9807A9F366
:10469000F80181938F01888199810196998388839C
:1046A000ECCF90E080E0DF91CF911F910F91FF90D0
:1046B000EF90DF90CF9008950F931F93CF93DF93E8
:1046C000EA01890185E593E06ED6F801D183C083C4
:1046D00090E080E0DF91CF911F910F910895CF92EC
:1046E000DF92EF92FF92CF93DF938091490391E0A5
:1046F000980F90934903882379F021E030E03093BC
:104700004B0320934A0380934903DF91CF91FF909D
:10471000EF90DF90CF9008957894C0913601D091BA
:1047200037016E8D7F8D88A199A156D120E030E0B0
:1047300040E85FE45AD26B017C016A8D7B8D8C8DE1
:104740009D8D4AD19B01AC01C701B60199D018D10A
:104750006B017C010E94A203B701A60190E080E0FA
:104760000E94C602F894809149038150CCCF0F93E8
:104770001F93CF93DF9310922604109225043DD30C
:10478000D0DEC0913601D0913701198218826FEFC7
:104790007FEFCB010E94480370E060E090E080E092
:1047A0000E94CA01009709F03AC00E94B404F8942C
:1047B0007894BE016A5D7F4F8A819B810E94CD0102
:1047C000892B59F46FEF7FEFCB010E945C020E94AE
:1047D0004203882311F081E08AA7F894DADE0E9470
:1047E0004503882311F080E008C00E944203811134
:1047F000FACF81E09AA59111F6CF809325047894A1
:104800000E94110C8C0178948091250481110CC0B8
:104810000E9461050E942803F89490E080E0DF91F7
:10482000CF911F910F9108950E9426030E94450386
:104830008823D9F081E0809326049091260481E0BA
:10484000911180E080932504809126048111C0DEBF
:104850000130110529F40E94110C892B09F4C2DEE4
:104860000E94110C8C01BCDECFCF0E94420381114B
:10487000E1CF81E09AA59111DECF80E0DCCF5058E6
:10488000BB27AA270ED05CC14DD130F052D120F009
:1048900031F49F3F11F41EF442C10EF4E095E7FBA2
:1048A0000FC1E92F5ED180F3BA176207730784073F
:1048B000950718F071F49EF58DC10EF4E0950B2E5E
:1048C000BA2FA02D0B01B90190010C01CA01A00162
:1048D0001124FF27591B99F0593F50F4503E68F1BD
:1048E0001A16F040A22F232F342F4427585FF3CFFE
:1048F000469537952795A795F0405395C9F77EF4CF
:104900001F16BA0B620B730B840BBAF09150A1F017
:10491000FF0FBB1F661F771F881FC2F70EC0BA0F9D
:10492000621F731F841F48F4879577956795B79525
:10493000F7959E3F08F0B3CF9395880F08F099271D
:10494000EE0F9795879508952ED180F09F3740F40C
:1049500091110EF440C160E070E080E89FE308959B
:1049600026F01B16611D711D811DB0C0CAC084D008
:1049700008F481E0089504D06894B1112CC1089521
:10498000F8D088F09F5790F0B92F9927B751A0F031
:10499000D1F0660F771F881F991F1AF0BA95C9F7D3
:1049A00012C0B13081F016D1B1E0089513C1672F64
:1049B000782F8827B85F39F0B93FCCF38695779583
:1049C0006795B395D9F73EF490958095709561956C
:1049D0007F4F8F4F9F4F0895E89409C097FB3EF497
:1049E00090958095709561957F4F8F4F9F4F99233C
:1049F000A9F0F92F96E9BB279395F69587957795BA
:104A00006795B795F111F8CFFAF4BB0F11F460FF79
:104A10001BC06F5F7F4F8F4F9F4F16C0882311F0D1
:104A200096E911C0772321F09EE8872F762F05C0E5
:104A3000662371F096E8862F70E060E02AF09A9580
:104A4000660F771F881FDAF7880F9695879597F975
:104A50000895A9D080F09F3740F491110EF0BBC0AB
:104A600060E070E080E89FEB089526F41B16611D5E
:104A7000711D811D2BC045C0990F0008550FAA0B51
:104A8000E0E8FEEF16161706E807F907C0F0121661
:104A90001306E407F50798F0621B730B840B950B64
:104AA00039F40A2661F0232B242B252B21F40895B9
:104AB0000A2609F4A140A6958FEF811D811D089556
:104AC00097F99F6780E870E060E00895882371F4AB
:104AD000772321F09850872B762F07C0662311F497
:104AE00099270DC09051862B70E060E02AF09A95CE
:104AF000660F771F881FDAF7880F9695879597F9C5
:104B000008959F3F31F0915020F4879577956795F0
:104B1000B795880F911D9695879597F908959FEF02
:104B200080EC089500240A94161617061806090644
:104B3000089500240A941216130614060506089513
:104B4000092E0394000C11F4882352F0BB0F40F49B
:104B5000BF2B11F460FF04C06F5F7F4F8F4F9F4FDB
:104B6000089557FD9058440F551F59F05F3F71F05D
:104B70004795880F97FB991F61F09F3F79F08795C4
:104B80000895121613061406551FF2CF4695F1DF4D
:104B900008C0161617061806991FF1CF86957105DD
:104BA000610508940895E5DFA0F0BEE7B91788F421
:104BB000BB279F3860F41616B11D672F782F882702
:104BC000985FF7CF869577956795B11D9395963940
:104BD000C8F30895E894BB2766277727CB0197F998
:104BE00008954ADF08F48FEF08950BD0A9CF9ADF1C
:104BF00028F09FDF18F0952309F062CF90CF1124A1
:104C0000EACFAFDFA0F3959FD1F3950F50E0551F8A
:104C1000629FF001729FBB27F00DB11D639FAA2711
:104C2000F00DB11DAA1F649F6627B00DA11D661F60
:104C3000829F2227B00DA11D621F739FB00DA11D81
:104C4000621F839FA00D611D221F749F3327A00D3B
:104C5000611D231F849F600D211D822F762F6A2FD7
:104C600011249F5750408AF0E1F088234AF0EE0F5C
:104C7000FF1FBB1F661F771F881F91505040A9F769
:104C80009E3F510570F01CCFA6CF5F3FECF3983EDE
:104C9000DCF3869577956795B795F795E7959F5FD0
:104CA000C1F7FE2B880F911D9695879597F908956A
:104CB0001F920F920FB60F9211242F933F938F9351
:104CC0009F93AF93BF9380914D0390914E03A0911A
:104CD0004F03B091500330914C0323E0230F2D3745
:104CE00058F50196A11DB11D20934C0380934D03EF
:104CF00090934E03A0934F03B093500380915103C0
:104D000090915203A0915303B09154030196A11DB9
:104D1000B11D8093510390935203A0935303B0931A
:104D20005403BF91AF919F918F913F912F910F901D
:104D30000FBE0F901F90189526E8230F0296A11D15
:104D4000B11DD2CF3FB7F894809151039091520397
:104D5000A0915303B091540326B5A89B05C02F3FE3
:104D600019F00196A11DB11D3FBFBA2FA92F982F91
:104D70008827BC01CD01620F711D811D911D42E08C
:104D8000660F771F881F991F4A95D1F708958F9254
:104D90009F92AF92BF92CF92DF92EF92FF926B0100
:104DA0007C01D0DF4B015C01C114D104E104F104AA
:104DB000D9F026D3C7DF681979098A099B09683EAB
:104DC00073408105910580F321E0C21AD108E10802
:104DD000F10888EE880E83E0981EA11CB11CC11456
:104DE000D104E104F10431F7FF90EF90DF90CF9010
:104DF000BF90AF909F908F900895789484B5826013
:104E000084BD84B5816084BD85B5826085BD85B56E
:104E1000816085BDEEE6F0E0808181608083E1E81D
:104E2000F0E0108280818260808380818160808355
:104E3000E0E8F0E0808181608083E1EBF0E0808158
:104E400084608083E0EBF0E0808181608083EAE72A
:104E5000F0E08081846080838081826080838081B3
:104E6000816080838081806880831092C100089572
:104E70001F93CF93DF93182FEB0161E07DD0209734
:104E800031F460E0812FDF91CF911F91B1C0CF3F0E
:104E9000D10511F461E0F6CFE12FF0E0E859FF4FC2
:104EA000E491E33031F140F4E130B1F0E230E1F08F
:104EB000C038D1057CF7E5CFE73029F1E83059F16A
:104EC000E430B1F780918000806280938000D093BD
:104ED0008B00C0938A0004C084B5806884BDC7BDC0
:104EE000DF91CF911F91089584B5806284BDC8BDC4
:104EF000F7CF80918000806880938000D0938900F4
:104F0000C0938800EDCF8091B00080688093B0009E
:104F1000C093B300E5CF8091B00080628093B00071
:104F2000C093B400DDCF833081F028F4813099F054
:104F30008230A9F008958730A9F08830C9F0843014
:104F4000B1F4809180008F7D03C0809180008F77C5
:104F500080938000089584B58F7784BD089584B5CB
:104F60008F7DFBCF8091B0008F778093B000089544
:104F70008091B0008F7DF9CFCF93DF9390E0FC015B
:104F8000E458FF4F249180579F4FFC018491882360
:104F9000C9F090E0880F991FFC01E255FF4FA591E1
:104FA000B491FC01EC55FF4FC591D49161110DC036
:104FB0009FB7F8948C91209582238C938881282325
:104FC00028839FBFDF91CF910895623051F49FB73E
:104FD000F8943C91822F809583238C93E8812E2B2B
:104FE000EFCF8FB7F894EC912E2B2C938FBFEACF95
:104FF0001F93CF93DF93282F30E0F901E859FF4F3B
:105000008491F901E458FF4FD491F901E057FF4F23
:10501000C491CC23A1F0162F811185DFEC2FF0E095
:10502000EE0FFF1FEC55FF4FA591B4918FB7F89489
:10503000EC91111108C0D095DE23DC938FBFDF9176
:10504000CF911F910895DE2BF8CFFC01918D228D19
:10505000892F90E0805C9F4F821B91098F73992765
:105060000895FC01918D828D981731F0828DE80FA3
:10507000F11D858D90E008958FEF9FEF0895FC015D
:10508000918D828D981761F0A28DAE0FBF2FB11D4B
:105090005D968C91928D9F5F9F73928F90E00895A3
:1050A0008FEF9FEF0895FC01538D448D252F30E045
:1050B000842F90E0821B930B541710F0CF96089525
:1050C00001970895FC01A48DA80FB92FB11DA35A13
:1050D000BF4F2C91848D90E001968F739927848F18
:1050E000A689B7892C93A089B1898C91837080643B
:1050F0008C93938D848D981306C00288F389E02DDC
:1051000080818F7D80830895CF93DF93EC01888D1C
:105110008823B1F0AA89BB89E889F9898C9185FD3A
:1051200003C0808186FD0CC00FB607FCF7CF8C91C1
:1051300085FFF2CF808185FFEDCFCE01C3DFEACFBF
:10514000DF91CF910895EF92FF920F931F93CF932A
:10515000DF93EC0181E0888F9B8D8C8D98131AC0B2
:10516000E889F989808185FF15C09FB7F894EE8999
:10517000FF896083E889F9898081837080648083F6
:105180009FBF81E090E0DF91CF911F910F91FF9041
:10519000EF900895F62E0B8D10E00F5F1F4F0F73E9
:1051A0001127E02E8C8D8E110BC00FB607FCFACFA5
:1051B000E889F989808185FFF5CFCE0183DFF2CFC1
:1051C000EB8DEC0FFD2FF11DE35AFF4FF0829FB7DF
:1051D000F8940B8FEA89FB8980818062D0CFCF92CF
:1051E000DF92EF92FF921F93CF93DF93EC016A015E
:1051F0007B01122FE889F98982E08083C11481EE56
:10520000D806E104F10499F060E079E08DE390E0E4
:10521000A70196010AD1215031094109510956953A
:10522000479537952795211580E1380790F0E88953
:10523000F989108260E874E88EE190E0A701960198
:10524000F4D02150310941095109569547953795B8
:105250002795EC85FD853083EE85FF852083188EAC
:10526000EC89FD891083EA89FB89808180618083D4
:10527000EA89FB89808188608083EA89FB89808153
:1052800080688083EA89FB8980818F7D8083DF91BC
:10529000CF911F91FF90EF90DF90CF9008951F92D4
:1052A0000F920FB60F9211242F938F939F93EF932A
:1052B000FF93E0916503F09166038081E0916B03B9
:1052C000F0916C0382FD1BC0908180916E038F5F13
:1052D0008F7320916F03821741F0E0916E03F0E02D
:1052E000EB5AFC4F958F80936E03FF91EF919F9146
:1052F0008F912F910F900FBE0F901F901895808166
:10530000F4CF1F920F920FB60F9211242F933F9359
:105310004F935F936F937F938F939F93AF93BF93BD
:10532000EF93FF9385E593E0CDDEFF91EF91BF9181
:10533000AF919F918F917F916F915F914F913F912D
:105340002F910F900FBE0F901F901895E5E5F3E099
:105350001382128288EE93E0A0E0B0E0848395830C
:10536000A683B7838AEB91E09183808385EC90E0FC
:105370009587848784EC90E09787868780EC90E01F
:10538000918B808B81EC90E0938B828B82EC90E010
:10539000958B848B86EC90E0978B868B118E128E8A
:1053A000138E148E0895AF92BF92CF92DF92EF9238
:1053B000FF920F931F93CF93DF936C017B018B01BF
:1053C000040F151FEB015E01AE18BF08C017D1070F
:1053D00059F06991D601ED91FC910190F081E02D99
:1053E000C6010995892B79F7C501DF91CF911F91EE
:1053F0000F91FF90EF90DF90CF90BF90AF90089506
:105400000895AA1BBB1B51E107C0AA1FBB1FA6170B
:10541000B70710F0A61BB70B881F991F5A95A9F75D
:1054200080959095BC01CD010895A1E21A2EAA1B8A
:10543000BB1BFD010DC0AA1FBB1FEE1FFF1FA21744
:10544000B307E407F50720F0A21BB30BE40BF50B41
:10545000661F771F881F991F1A9469F760957095CA
:10546000809590959B01AC01BD01CF010895EE0F91
:10547000FF1F0590F491E02D099409D0A59F900D90
:10548000B49F900DA49F800D911D11240895A29F9B
:10549000B001B39FC001A39F700D811D1124911D08
:1054A000B29F700D811D1124911D0895FB01DC0137
:1054B00002C001900D9241505040D8F70895DC0190
:1054C00001C06D9341505040E0F70895F894FFCF2C
:1054D000000000000000803F0000803F000000004E
:1054E0000000000000000000FEFFFFFF01E80300D5
:1054F00000FFFF00000000FFFFFFFFFFFFFFFFFFB7
:10550000FFFFFFFFFF01ED01FF00680E940EFE009C
:105510004E0ECF0BFD00E00D3A0EFC00260ECF0B19
:10552000F600170FCF0BF500ED0D560FF400E00E4F
:105530006D0FDE0093132C16DD000215CF0BDA0081
:105540003D114511D90047165511E2002510CF0B2A
:10555000E1006010CF0BE000D510CF0BD6002B1A66
:10556000CF0BD500E212CF0BD4006E12CF0BD300BD
:10557000DF11CF0BC0006411CF0BF000941ACF0BDA
:10558000ED00511ACF0B00000000A328D3295328A7
:08559000842825283F2831285A
:00000001FF
