:1000000061C000000C949F2F0C94C62F83C0000089
:1000100081C000007FC000007DC000007BC00000E8
:1000200079C0000077C0000075C0000073C00000F8
:1000300071C000000C94ED2B6DC000006BC000007F
:100040000C94ED2F67C000000C94E4320C9416332E
:1000500061C000005FC000005DC000005BC0000028
:1000600059C0000057C00000000000080002010055
:100070000003040700000000000000000102040863
:100080001020408001020408102001020408102002
:10009000040404040404040402020202020203032E
:1000A00003030303000000002300260029000000D2
:1000B0000000250028002B0000000000240027007D
:1000C0002A003B3311241FBECFEFD8E0DEBFCDBFE7
:1000D00012E0A0E0B1E0E8E1F8E602C005900D9280
:1000E000AA30B107D9F726E0AAE0B2E001C01D921C
:1000F000A239B207E1F710E0C2E6D0E004C02197D0
:10010000FE010E94DB33C136D107C9F70E94D52C0E
:100110000C940A3475CFFC01A781B0858C91918530
:100120008923A481B5819C91408151816281738131
:100130002681922359F081110BC04F5F5F4F6F4FA3
:100140007F4F408351836283738308958111F5CF7C
:100150004150510961097109F4CF8BE092E0DBCF86
:1001600086E192E0D8CF81E292E0D5CF8CE292E0B6
:10017000D2CFFC01A481B5818C9196818923A7817E
:10018000B0859C9140815181628173812185922348
:1001900059F0882359F04F5F5F4F6F4F7F4F408377
:1001A00051836283738308958823A9F341505109D1
:1001B00061097109F4CF8BE092E0DBCF86E192E038
:1001C000D8CF81E292E0D5CF8CE292E0D2CF0F93EC
:1001D0001F93CF93DF93082F162FEA01A0910A02F5
:1001E0008BE0A89FD0011124A55FBD4F1D921D92E9
:1001F0001D921C92139781E01A968C931A97802F68
:1002000090E0FC01E458FF4FE4911696EC931697AA
:10021000FC01E057FF4FE491F0E0EE0FFF1FEC55BB
:10022000FF4F8591949115969C938E931497862FEA
:1002300090E0FC01E458FF4FE4911996EC93199774
:10024000FC01E057FF4FE491F0E0EE0FFF1FEC558B
:10025000FF4F8591949118969C938E93179760E029
:10026000802F0E94513160E0812F0E945131809196
:100270000A02813081F1A0F0823009F445C0833058
:1002800009F45BC080910A0291E0980F90930A02F2
:10029000888390E080E0DF91CF911F910F910895C6
:1002A00080E0023021F08FEF033009F481E041E07B
:1002B00050E06DEA70E00E947F2F80E0123021F064
:1002C0008FEF133009F481E041E050E06BED70E016
:1002D0000E947F2FD7CF80E0023021F08FEF0330D4
:1002E00009F481E041E050E060EB70E00E947F2F74
:1002F00080E0123021F08FEF133009F481E041E00B
:1003000050E06EED70E0E4CF80E0023021F08FEF3E
:10031000033009F481E041E050E063EB70E00E94BB
:100320007F2F80E0123021F08FEF133009F481E04D
:1003300041E050E061EE70E0CBCF80E0023021F090
:100340008FEF033009F481E041E050E066EB70E0AC
:100350000E947F2F80E0123021F08FEF133009F4DC
:1003600081E041E050E064EE70E0B2CF9BE0899F15
:10037000F0011124E55FFD4F80819181A281B3815D
:10038000FB0180839183A283B38390E080E0089592
:100390009BE0899FF0011124E55FFD4F10821182DF
:1003A0001282138290E080E0089590E080E008954A
:1003B000CF92DF92EF92FF92CF93882351F16A019F
:1003C0007B01CFEFC80F20E030E0A901CB01B601DF
:1003D0000E94DD2D18168CF0C701B60190580E94BE
:1003E000E62D9B01AC016C2F70E090E080E0CF9196
:1003F000FF90EF90DF90CF90B2C0C701B6010E948E
:10040000E12D8C2FCF91FF90EF90DF90CF900C9447
:10041000CD30CF91FF90EF90DF90CF9008950F9364
:100420001F938B019C0183E03695279517950795BF
:100430008A95D1F7095C1D4F462F477021E030E0C7
:10044000F90102C0EE0FFF1F4A95E2F7AF01F80174
:1004500020812423CB010196211102C090E080E08D
:100460001F910F9108950F931F938B019C0183E0BF
:1004700036952795179507958A95D1F7677081E08E
:1004800090E001C0880F6A95EAF7F801E95CFD4F3A
:100490002081452B31F48095822380831F910F9119
:1004A0000895822BFACF2F923F924F925F926F92D4
:1004B0007F928F929F92AF92BF92CF92DF92EF92F4
:1004C000FF920F931F93CF93DF93D62EC72E782ED4
:1004D000692E49015A01280161E08D2D0E94513198
:1004E000CD2DDC2D8E010F5F1F4FA8016D2D7C2DB2
:1004F000872D962DB8DF20E030E0A901C201B701B9
:100500000E94172F181664F4C201B7010E94E62D4D
:100510002B01C501B4010E94E62DA201CE0123D01A
:10052000C801DF91CF911F910F91FF90EF90DF9065
:10053000CF90BF90AF909F908F907F906F905F9083
:100540004F903F902F900895882341F08150682F5D
:1005500070E090E080E050E040E085CF0895862F85
:10056000B9010C94CD309C01FC01E859FF4FE49196
:10057000E33061F140F4E13011F1E23021F160E06B
:10058000822F0C948D31E730C1F1E83009F441C07D
:10059000E430A9F7809180008C7F82608093800096
:1005A00090918100907E9061692B609381005093BF
:1005B0008700409386008091800080621BC084B5D4
:1005C000806884BDDCCF84B58062FBCF80918000E1
:1005D0008C7F82608093800090918100907E9061FA
:1005E000692B60938100509387004093860080912F
:1005F0008000806880938000C2CF8091B0008068C6
:100600008093B0008091B100887F682B6093B10027
:10061000B6CF8091B0008062F3CF611102C00C941C
:1006200051316130E1F362E0FACF662319F061E005
:100630000C948D3160E0FCCF90E080E008950F9342
:100640001F93009709F489C06115710509F485C0ED
:10065000009138011091390120913A0130913B010C
:100660000E3F1F4F2F4F3F4F09F068C04FEF5FEF16
:10067000BA01409338015093390160933A01709365
:100680003B01409138015091390160913A017091DC
:100690003B01DC011296ED91FC9180819181A28158
:1006A000B38180934A0390934B03A0934C03B09380
:1006B0004D0384819581A681B781809346039093F1
:1006C0004703A0934803B093490380859185A28591
:1006D000B3858093420390934303A0934403B09364
:1006E000450384859585A685B78580933E039093C1
:1006F0003F03A0934003B093410310923A0310923A
:100700003B0310923C0310923D030E94EE0F83E1E5
:1007100090E1909341028093400290934302809332
:1007200042020E94DD0E009731F421E030E0309368
:100730004F0320934E031F910F91089500913801AC
:100740001091390120913A0130913B01DB010D9369
:100750001D932D933C93139794CF8FEF9FEFEBCF87
:100760008F929F92AF92BF92CF92DF92EF92FF92C1
:100770001F93CF93DF934B015C011091510382E0F3
:1007800090E090934F0380934E0381149104A10451
:10079000B10441F480915103811104C08091500350
:1007A000C1E08111C0E0C12CD12C760180915103B0
:1007B000811106C080915003811102C0CC23D9F071
:1007C00083E090E090934F0380934E03CC2381F11C
:1007D000CCE9DFEF111102C00E947813CE01DF9146
:1007E000CF911F91FF90EF90DF90CF90BF90AF908F
:1007F0009F908F9008956AE070E080E090E00E9402
:100800005C3080E1C80E87E2D81EE11CF11C8FEF3E
:1008100088169806A806B80631F0C1E08C149D042D
:10082000AE04BF0408F0C0E080E00E94110FBECF0C
:10083000D0E0C0E0CFCFCF92DF92EF92FF920F9344
:100840001F93CF93DF938F3F910511F008F051C0B4
:1008500020914E0330914F032330310539F0209120
:100860004E0330914F032130310531F424E030E064
:1008700030934F0320934E036A017B01EC018230D9
:100880009105A8F011E0AE01C701B6010E94DC0E8F
:10089000AB01BC01CE011123F9F0DF91CF911F9183
:1008A0000F91FF90EF90DF90CF900C94A1158C01E9
:1008B000000F111F005C1D4FD8018D919C91892B59
:1008C00009F30E94AB150297E9F6D801ED91FC916E
:1008D000CE010995182FD7CF0E94C31590E080E074
:1008E000DF91CF911F910F91FF90EF90DF90CF900C
:1008F00008958FEF9FEFF4CF80E00C94110FCF930A
:10090000DF9386E090E090934F0380934E030E9424
:100910006A0FEC01E0E4F2E084E0DF011D928A95C9
:10092000E9F70E94101310924F0310924E03CE016C
:10093000DF91CF91089580915003089580913903FC
:100940000895609338017093390180933A01909330
:100950003B0190E080E008952F923F924F925F928A
:100960006F927F928F929F92AF92BF92CF92DF92BF
:10097000EF92FF920F931F93CF93DF93CDB7DEB724
:10098000CB54D1090FB6F894DEBF0FBECDBF26966B
:100990007FAF6EAF269728965FAF4EAF28973E8BFE
:1009A0002D8B2C96FFAEEEAE2C97FB01E150F04C58
:1009B000EE0FFF1FEE0FFF1FE80FF91F80809180E1
:1009C000A280B3808F8A988EA98EBA8EB501A401B9
:1009D000442777FD439555276627772729964FAFFC
:1009E0002997F901E150F04CEE0FFF1FEE0FFF1FAA
:1009F0002896AEACBFAC2897EA0DFB1DC080D18015
:100A0000E280F380CB8EDC8EED8EFE8EB701A601E8
:100A1000442777FD43955527662777272A964FAFBA
:100A20002A97188B0F87F80130E020E02C96EEAC67
:100A3000FFAC2C972E153F050CF43FC022969FAFBC
:100A40008EAF22971A8B098B312C212C812C912C63
:100A5000540183948D829E82AF82B88626968EAC96
:100A60009FAC2697281439047CF129969FAC2997CE
:100A70002A96AFAC2A9730E020E041E050E060E0F9
:100A800070E09A10F5C1C55BDF4F0FB6F894DEBF7A
:100A90000FBECDBFDF91CF911F910F91FF90EF90CF
:100AA000DF90CF90BF90AF909F908F907F906F908E
:100AB0005F904F903F902F90089511921192119254
:100AC00011922F5F3F4FB2CF2296EEADFFAD22972E
:100AD00081919191A191B1912296FFAFEEAF2297B2
:100AE0008F88988CA98CBA8CB7FE23C04D815E810B
:100AF0006F81788541505109610971095A016B0173
:100B0000A81AB90ACA0ADB0AD601C50121E0CD80BC
:100B1000DE80EF80F8848C159D05AE05BF0508F0DA
:100B200020E0822E912CB12CA12C8D829E82AF824E
:100B3000B8865D01CC24DD24A8A2B9A2CAA2DBA29A
:100B40009C01AD01442755272CA33DA34EA35FA3D1
:100B50002C96EEADFFAD2C97E219F3098D889E8897
:100B60008E169F060CF4F4012896AEACBFAC289705
:100B70002496BFAEAEAE2497C988DA88DC8ACB8AC9
:100B80001E861D86812C912C5401839489869A8619
:100B9000AB86BC86812C912C5401CD84DE84CE168C
:100BA000DF0604F1F7FF02C0F0E0E0E0E20DF31D24
:100BB0002C96EEACFFAC2C97EE15FF0554F4EE0F1F
:100BC000FF1FEE0FFF1FE00FF11F80829182A282B4
:100BD000B3822FEF221A320AE989FA893496FA8B06
:100BE000E98B3CCF2496AEADBFAD2497CD90DD9080
:100BF000ED90FD902496BFAFAEAF24972B8D3C8D2A
:100C00004D8D5E8D57FF22C089859A85AB85BC8549
:100C10000197A109B109AC01BD014C195D096E092B
:100C20007F096A017B0181E029853A854B855C85D6
:100C3000C216D306E406F50608F080E0482F50E01F
:100C400070E060E049875A876B877C87B701882707
:100C5000992768A779A78AA79BA7EE24FF2428A134
:100C600039A14AA15BA1C701B6010E9496332B01AD
:100C70003C012CA13DA14EA15FA168A579A58AA543
:100C80009BA50E9496336CA77DA78EA79FA7AB89D3
:100C9000BC894D915D916D917D91BC8BAB8BDB01DE
:100CA000CA01880D991DAA1DBB1D89839A83AB8338
:100CB000BC8391E09F8F29813A814B815C8128150B
:100CC00039054A055B0508F01F8E2CA13DA14EA1F8
:100CD0005FA1C701B6010E9496336B017C01898038
:100CE0009A80AB80BC808C0C9D1CAE1CBF1C898282
:100CF0009A82AB82BC8252019924882488AA99AA3C
:100D0000AAAABBAA29813A814B815C81280D391D91
:100D10004A1D5B1D2CAB3DAB4EAB5FAB8CA49DA4C1
:100D2000AEA4BFA454019924882488AE99AEAAAE7B
:100D3000BBAE280D391D4A1D5B1D2CAF3DAF4EAF1C
:100D40005FAFAB89BC8914972D933D934D935C9312
:100D5000139728A139A14AA15BA168A579A58AA505
:100D60009BA50E9496339F8C690D711D811D911D5D
:100D7000230166247724460E571E681E791E2CA573
:100D80003DA54EA55FA54A01AA24BB24840C951C51
:100D9000A61CB71C81E090E0A0E0B0E049815A8138
:100DA0006B817C814C155D056E057F0518F080E038
:100DB00090E0DC01880D991DAA1DBB1D41E050E0AB
:100DC00060E070E088A899A8AAA8BBA8CCA8DDA874
:100DD000EEA8FFA8C814D904EA04FB0418F040E008
:100DE00050E0BA01840F951FA61FB71F812C912CCC
:100DF00054018394C8ACD9ACEAACFBAC2CAD3DAD8E
:100E00004EAD5FAD2C153D054E055F0518F0812CEC
:100E1000912C5401880E991EAA1EBB1E4D855E851D
:100E20004F5F5F4F5E874D87B8CEEF85F889C190E1
:100E3000D190E190F190F88BEF87DB01CA01019727
:100E4000A109B1098C199D09AE09BF0934978083A6
:100E50009183A283B383E1E084179507A607B707C0
:100E600008F0E0E04E2F50E070E060E02F5F3F4F71
:100E70002C968EAC9FAC2C9728153905B4F203CE76
:100E80004F925F926F927F928F929F92AF92BF929A
:100E9000CF92DF92EF92FF920F931F93CF93DF9346
:100EA000CDB7DEB72A970FB6F894DEBF0FBECDBF21
:100EB000DB01FB01E150F04C8F01000F111F000F0F
:100EC000111FF801E80FF91F408051806280738084
:100ED000530142018824B7FC83949924AA24BB249B
:100EE0008F829886A986BA8675016401F094E09491
:100EF000D094C094C11CD11CE11CF11C26173707EB
:100F00009CF5F901E150F04CEE0FFF1FEE0FFF1FB3
:100F1000E80FF91F80809180A280B3804824592473
:100F20006A247B24F8013496E80FF91F77FE18C075
:100F30008F809884A984BA84B1E08B1A9108A108A3
:100F4000B108FA0190E080E02150310933C072907D
:100F50006290529042904C145D046E047F0441F7FD
:100F60001197A217B3079CF7F901621773070CF4E6
:100F7000FB018C01CA0170E060E06E177F07ECF1A5
:100F8000CF01F7FF02C090E080E0FC01EE0FFF1FF1
:100F9000EE0FFF1FE40FF51F82179307BCF4C192F9
:100FA000D192E192F1920196F7CF81929192A19222
:100FB000B192019682179307C4F3C094D094E09441
:100FC0008FE7F826C082D182E282F3822A960FB69A
:100FD000F894DEBF0FBECDBFDF91CF911F910F916F
:100FE000FF90EF90DF90CF90BF90AF909F908F9049
:100FF0007F906F905F904F900895D8018D909D9055
:10100000AD90BD908D01DC018D929D92AD92BD920F
:10101000CD016F5F7F4FB1CF2F923F924F925F9282
:101020006F927F928F929F92AF92BF92CF92DF92F8
:10103000EF92FF920F931F93CF93DF93CDB7DEB75D
:101040002E970FB6F894DEBF0FBECDBF9E878D875B
:101050003C872B871801FA0125E0F695E7952A953C
:10106000E1F7DB01A150B04CAA0FBB1FAA0FBB1FB9
:10107000A80FB91FCD90DD90ED90FC90FF0CCC082F
:10108000DC2C7601E617F7070CF0D5C0DF01A00FC6
:10109000B11F9B01A617B7070CF49D018A010F71C0
:1010A0001127DF01AA0FBB1FAA0FBB1F01151105D6
:1010B000F1F40D851E850A0F1B1F8B859C8550E062
:1010C00040E0BA016E0F7F1F621773070CF05DC01E
:1010D000D8018D909D90AD90BD908D01DC018D92D9
:1010E0009D92AD92BD92CD014F5F5F4FEACF6D846F
:1010F0007E846A0E7B1E7C826B82D3014D905D9054
:101100006D907C90AB84BC84BA82A98250E040E0B0
:10111000A0E2B0E0CD01801B910B9E838D83530133
:101120004201002E04C0B694A794979487940A9421
:10113000D2F74F5F5F4FDF01A40FB51FA217B307B0
:1011400084F1D701C601261737076CF4220F331F2D
:10115000220F331FED85FE852E0F3F1FF901808181
:101160009181A281B3810D8004C0880F991FAA1FAD
:10117000BB1F0A94D2F788299929AA29BB29E9819A
:10118000FA8180839183A283B3839A01220F331F54
:10119000220F331F6B847C84620E731E7A826982F5
:1011A0002EC0DA01AA0FBB1FAA0FBB1F6B807C8069
:1011B000A60DB71D4D905D906D907C90D301C2013E
:1011C0000D8004C0880F991FAA1FBB1F0A94D2F775
:1011D000882A992AAA2ABB2AA981BA818D929D922E
:1011E000AD92BD92BA83A9839ACFE981FA81C19267
:1011F000D192E192F192FA83E9834F5F5F4F4215FA
:1012000053059CF32E960FB6F894DEBF0FBECDBFEC
:10121000DF91CF911F910F91FF90EF90DF90CF90D2
:10122000BF90AF909F908F907F906F905F904F9006
:101230003F902F90089550E040E0A7CF2F923F922B
:101240004F925F926F927F928F929F92AF92BF92D6
:10125000CF92DF92EF92FF920F931F93CF93DF9382
:1012600079011B01DA01D0E0C0E040E050E0BA01B2
:10127000CE15DF059CF0DF91CF911F910F91FF906C
:10128000EF90DF90CF90BF90AF909F908F907F9026
:101290006F905F904F903F902F900895FC01819048
:1012A0009190A190B190CF01F10101911191219103
:1012B00031911F0124013501401A510A620A730A53
:1012C00093018201041B150B260B370B0D931D9305
:1012D0002D933D9366246394712CC12CD12C452B06
:1012E000462B472B39F0081519052A053B0538F41C
:1012F000612C05C080169106A206B306C8F7A301AB
:10130000B6012196B5CFCF92DF92EF92FF926B019B
:101310007C019F7720E030E040E859E50E94DD2D18
:1013200087FF2BC020E030E040E05FE3C701B6015B
:101330000E94172F87FD0EC020E030E040E05FE301
:10134000C701B6010E94662DFF90EF90DF90CF900D
:101350000C944F2E20E030E040E05FEBC701B60177
:101360000E94172F181684F420E030E0A901C7016D
:10137000B6010E941B2F6B017C01C701B601FF90D3
:10138000EF90DF90CF90089520E030E040E05FE301
:10139000C701B6010E94652DFF90EF90DF90CF90BE
:1013A0000C94CA2D4F925F926F927F928F929F9270
:1013B000AF92BF92CF92DF92EF92FF920F931F9363
:1013C000CF93DF93CDB7DEB7AC970FB6F894DEBFFF
:1013D0000FBECDBF2091200130912101409122010B
:1013E0005091230160911C0170911D0180911E019B
:1013F00090911F010E94172F18160CF00CC26091DB
:101400000C0170910D0180910E0190910F0180905F
:10141000100190901101A0901201B090130173DFA0
:101420006B017C0120E030E040E853E40E94DD2DB8
:101430006FEF87FF0EC020E030E0A901C701B601C1
:101440000E94172F60E087FD04C0C701B6010E940B
:10145000E62D87E0EAD8C501B40155DF6B017C01B8
:1014600020E030E040E853E40E94DD2D6FEF87FF7D
:101470000EC020E030E0A901C701B6010E94172F7D
:1014800060E087FD04C0C701B6010E94E62D88E038
:10149000CCD866E070E080E090E00E940F028C0102
:1014A0009093570680935606C0901C01D0901D0162
:1014B000E0901E01F0901F01E894F7F820E030E082
:1014C0004FE753E4C701B6010E94DD2D181634F42E
:1014D000C12CD12C2FE7E22E23E4F22EB701A60176
:1014E000C8010E94D801C0900801D0900901E09085
:1014F0000A01F0900B01A701960160914B067091D3
:101500004C0680914D0690914E060E94DD2D882359
:1015100041F0C0924B06D0924C06E0924D06F092FC
:101520004E0680914A06811110924A06BE01675DFF
:101530007F4F80914F060E94B601809134019091B7
:101540003501A0913601B09137018DA39EA3AFA3C1
:10155000B8A789A59AA5ABA5BCA589A39AA3ABA357
:10156000BCA382E0E82EF12C8E01075E1F4F21E024
:1015700030E0AE014F5D5F4F61E070E0CE018596D7
:10158000EBD988E0E4E2F1E0ACE3B6E001900D9243
:101590008A95E1F794E0E92EF12C0851110922E037
:1015A00030E0AE01475E5F4F62E070E084E291E0C0
:1015B000D3D904E010E02CE236E049E250E064E0E8
:1015C00070E0CE01019628DD22E030E04CE356E0E9
:1015D00064E070E08CE296E053DC22E030E0AE01A3
:1015E0004F5E5F4F68E676E0CE01499627DE0CE25B
:1015F00016E022E030E0AE014F5E5F4F62E070E047
:101600008CE291E0A9D988E0FE017996A8E6B6E0DF
:1016100001900D928A95E1F76091FC027091FD02B4
:101620008091FE029091FF020E94122E20E030E095
:1016300040E85FE40E941B2F6B017C016091F8027F
:101640007091F9028091FA029091FB020E94122E91
:101650009B01AC01C701B6010E94662D20E030E07D
:10166000A9010E94662D0E94E62DAB01BC0190E00D
:1016700080E0E1D8609108037091090380910A032A
:1016800090910B030E94122E20E030E040E85FE4CE
:101690000E941B2F6B017C01609104037091050374
:1016A00080910603909107030E94122E9B01AC01CA
:1016B000C701B6010E94662D20E030E0A9010E941A
:1016C000662D0E94E62DAB01BC0181E090E0B3D80D
:1016D000C090F802D090F902E090FA02F090FB027C
:1016E0008FEFC81AD80AE80AF80AC092F802D09216
:1016F000F902E092FA02F092FB02C114D104E10473
:10170000F10499F48091FC029091FD02A091FE02F7
:10171000B091FF020196A11DB11D8093FC02909330
:10172000FD02A093FE02B093FF0280900003909010
:101730000103A0900203B0900303009113031091E2
:1017400014036091FC027091FD028091FE02909161
:10175000FF020E94122EA50194010E941B2F20E07F
:1017600030E040E85FE40E941B2F2B013C01C701E1
:10177000B6010E94122EA50194010E941B2F9B010D
:10178000AC01C301B2010E94662DF8016083718330
:10179000828393838091040390910503A0910603B3
:1017A000B09107030196A11DB11D8093040390938E
:1017B0000503A0930603B0930703892B8A2B8B2B79
:1017C00099F48091080390910903A0910A03B091C4
:1017D0000B030196A11DB11D80930803909309038B
:1017E000A0930A03B0930B03AC960FB6F894DEBF38
:1017F0000FBECDBFDF91CF911F910F91FF90EF9062
:10180000DF90CF90BF90AF909F908F907F906F9020
:101810005F904F900895609114017091150180912F
:101820001601909117018090180190901901A090D5
:101830001A01B0901B01F3CD8F929F92AF92BF928D
:10184000DF92EF92FF920F931F93CF93DF9384E089
:1018500090E079D1EEE5F2E08FEBDF011D928A9501
:10186000E9F780E193E097838683C3E1D3E0D093E7
:101870009F02C0939E0200E013E0158B048BF0934F
:10188000C902E093C802F583E48321E030E0DC0183
:101890002D933C9385E691E09387828725E133E0A1
:1018A0003983288340E050E060E87FEB40930C03ED
:1018B00050930D0360930E0370930F034DEC5CEC9B
:1018C0006CE47DE3D8014D935D936D937C93139706
:1018D000C6EED2E089EA9DE1ABEFB6E18883998359
:1018E000AA83BB838AE695E3AFEABEED8093EA0262
:1018F0009093EB02A093EC02B093ED0285E496E4A2
:10190000AEE8B4E98093EE029093EF02A093F00268
:10191000B093F10285EA94ECAEE5BCE98093F20263
:101920009093F302A093F402B093F502A2E5B2E023
:10193000B383A283E4E4F2E01196FC93EE9387E78D
:1019400091E09183808393838283958384839783BB
:10195000868391878087938782879587848786EFA0
:1019600092E015969C938E9314971396DC93CE93E6
:10197000129717963C932E931697ECE2F6E088E1C7
:10198000DF011D928A95E9F7C4E4D6E084E3FE0105
:1019900011928A95E9F7DD24D394D9AA812C912C50
:1019A000540183948D8E9E8EAF8EB8A261E087E045
:1019B0000E940D03D9A21C8AD8AA8D8A9E8AAF8A5A
:1019C000B88E61E088E00E940D03D98E1C86DAAAE9
:1019D0008D869E86AF86B88AE12CF12C8701A801FE
:1019E000970166E070E080E090E00E9453029B8BDC
:1019F0008A8BD98A1B861882DBAA80910801909174
:101A00000901A0910A01B0910B018F839887A987E2
:101A1000BA8789829A82AB82BC824FE456E063E047
:101A200082E00E94E700DD821E8288E0E0E0F1E0D3
:101A3000A8E6B6E001900D928A95E1F78B85DF91DB
:101A4000CF911F910F91FF90EF90DF90BF90AF90DB
:101A50009F908F900C94C80180916006811103C003
:101A600081E08093600680915806811103C081E077
:101A7000809358068091500681112EC081E080939A
:101A800050068091510690915206A0915306B09154
:101A900054060197A105B105F9F4809155068823F4
:101AA000D9F066E070E080E090E00E940F02909331
:101AB00057068093560640E050E0BA010E94D801D4
:101AC00066E070E080E090E00E940F02909357067D
:101AD000809356060E94A40280914406811114C08E
:101AE00081E0809344068091450690914606A0913E
:101AF0004706B09148060197A105B10529F48091E8
:101B0000490681110C94D501089560E070E080E8E9
:101B10009FE7089560E070E080E89FE7089560E047
:101B200070E080E89FEF089560E070E080E89FEF4C
:101B3000089560E070E080EC9FEF089560E070E051
:101B400080EC9FEF0895F5DF60938406709385061F
:101B50008093860690938706F1DF609378067093F2
:101B6000790680937A0690937B06CFDF6093800698
:101B7000709381068093820690938306CBDF6093F7
:101B80007C0670937D0680937E0690937F06C7DF68
:101B9000609388067093890680938A0690938B06DB
:101BA000C3DF60938C0670938D0680938E069093AE
:101BB0008F0608954F925F926F927F928F929F92BD
:101BC000AF92BF92CF92DF92EF92FF920F931F934B
:101BD000F8944090290350902A0360902B03709052
:101BE0002C03C0901D03D0901E03E0901F03F090C3
:101BF00020034130510509F0A4C09B01AC01241918
:101C000035094609570929013A0100912503109128
:101C10002603209127033091280348015901840CA1
:101C2000951CA61CB71C80169106A206B306A0F44C
:101C3000009121031091220320912303309124036A
:101C40000F5F1F4F2F4F3F4F00932103109322032D
:101C5000209323033093240380922503909226033C
:101C6000A0922703B0922803009121031091220330
:101C7000209123033091240380922D0390922E0310
:101C8000A0922F03B09230030093310310933203DC
:101C900020933303309334036093290370932A0312
:101CA00080932B0390932C03A0E5B3ECA301920146
:101CB0000E94E1336C0D7D1D8E1D9F1D60931D03E1
:101CC00070931E0380931F039093200300913801AB
:101CD0001091390120913A0130913B010F3F1F4F84
:101CE0002F4F3F4FF1F000913801109139012091B1
:101CF0003A0130913B010E3F1F4F2F4F3F4F89F06C
:101D0000C0903801D0903901E0903A01F0903B0149
:101D100021E08C149D04AE04BF0408F420E020935D
:101D2000390378941F910F91FF90EF90DF90CF903F
:101D3000BF90AF909F908F907F906F905F904F90EB
:101D400008954B015C0184189508A608B708A30103
:101D50009201261B370B480B590B64157505860538
:101D60009705D0F082169306A406B50640F420E04D
:101D700030E0A90181149104A104B10491F4A0E51B
:101D8000B3EC0E94E133A7019601261B370B480BE9
:101D9000590BCA01B901C5CF82169306A406B50630
:101DA00070F7A0E5B3ECA50194010E94E1336C0D3E
:101DB0007D1D8E1D9F1DB5CFFDCECF93DF9300D02F
:101DC00000D0CDB7DEB71C821B821A821982109216
:101DD0003503109236031092370310923803BE0178
:101DE0006F5F7F4FCE0103960E94D12B69817A816C
:101DF0008B819C810E94C324009761F4BE016F5FB8
:101E00007F4FCE0103960E94DD2B69817A818B8101
:101E10009C812DD50F900F900F900F90DF91CF9157
:101E20000895FF920F931F93CF93DF93082F60E0E5
:101E300070E0CB010E945C30FF24F3940E94AE233B
:101E4000EC01892B89F010E0CE3F8FEFD80769F0C5
:101E5000002361F160E070E0CB010E945C3081E022
:101E600090E0892B59F322C011E024D5EC01892B95
:101E700021F0CE3F8FEFD80759F711111EC011E0A6
:101E8000229609F410E00E945F23EC01892B21F0D7
:101E9000CE3F8FEFD807E1F6111111C011E0CE3F10
:101EA0008FEFD80709F410E001110BC0CE01DF91CC
:101EB000CF911F910F91FF90089511E0E4CF11E0B1
:101EC000F3CF60E070E0CB010E945C301F25812FD2
:101ED00090E0C7CFCF93DF9380913903882321F01F
:101EE00060E070E0CB014DD636D6D0E0C0E0892B63
:101EF00071F06AE070E080E090E00E945C3081E088
:101F000090DF29D62196C03D27E0D20781F728D659
:101F10000E941725109251031092500310924A0309
:101F200010924B0310924C0310924D0310924603F3
:101F300010924703109248031092490310924203F3
:101F400010924303109244031092450310923E03F3
:101F500010923F03109240031092410310923A03F3
:101F600010923B0310923C0310923D034EEF5FEF43
:101F70006FEF7FEF409338015093390160933A013E
:101F800070933B0110923903EDE2F3E028E0DF01AA
:101F90001D922A95E9F71092290310922A031092B4
:101FA0002B0310922C0310922503109226031092FB
:101FB00027031092280310922103109222031092FB
:101FC00023031092240310921D0310921E031092FB
:101FD0001F0310922003DF91CF91089510925D03AB
:101FE00010925E0310925F031092600310925C03E4
:101FF000809165039091660390935B0380935A03ED
:1020000010925903109258031092540310925503E2
:1020100010925603109257031092620310926103BC
:1020200090E080E00895CF92DF92EF92FF920F93BD
:102030001F93CF938C01019709F055C02091650340
:102040003091660380915A0390915B034091650340
:102050005091660350935B0340935A032817390746
:1020600081F0109259031092580310925403109269
:102070005503109256031092570310926203109268
:1020800061038091650390916603019761F58091EA
:10209000610390916203892B21F480913C018111AD
:1020A00012C080916103909162030197E1F48091E5
:1020B000540390915503A0915603B0915703019793
:1020C000A105B10581F410925403109255031092AA
:1020D00056031092570310923C0182E090E09093D7
:1020E0006203809361038091650390916603019779
:1020F00009F01CC180917B0390917C0380179107AC
:1021000009F014C18091770390917803A09179032D
:10211000B0917A03009709F409C120917603211147
:102120000DC04091770350917803609179037091CD
:102130007A03452B462B472B09F4F8C02091610305
:10214000309162032230310509F0F0C0209158032C
:102150002111ECC0FC01C080D180E280F38080912D
:102160005C03882309F4D3C08091680390916903CC
:10217000892B09F4FEC0209168033091690381E046
:102180002230310509F080E0209168033091690325
:10219000C1E02130310549F0209168033091690395
:1021A000C1E02230310509F0C0E0882309F456C0AF
:1021B0002091720330917303409174035091750321
:1021C000C701B6010E94172F87FD14C0209172032A
:1021D00030917303409174035091750360915D03D6
:1021E00070915E0380915F03909160030E94DD2DEA
:1021F00087FD22C0209172033091730340917403D4
:1022000050917503C701B6010E94172F181634F5B7
:1022100020917203309173034091740350917503C0
:1022200060915D0370915E0380915F039091600304
:102230000E94DD2D811112C080916A0390916B0381
:10224000A0916C03B0916D03892B8A2B8B2B19F411
:1022500081E08093590381E080935803CC2309F4F3
:1022600056C02091720330917303409174035091D2
:102270007503C701B6010E94DD2D87FF14C02091B0
:102280007203309173034091740350917503609110
:102290005D0370915E0380915F03909160030E94E3
:1022A000172F87FF22C02091720330917303409152
:1022B000740350917503C701B6010E94DD2D811191
:1022C00026C02091720330917303409174035091A2
:1022D000750360915D0370915E0380915F0390913F
:1022E00060030E94172F181694F480916A0390914E
:1022F0006B03A0916C03B0916D03892B8A2B8B2B00
:1023000019F481E08093590381E08093580381E0C0
:1023100090915803911180E080935C03C0925D031B
:10232000D0925E03E0925F03F092600301301105EA
:1023300009F067C18091610390916203892BD9F400
:10234000109267031092580380913C01882379F022
:1023500082E090E0909362038093610310923C01CD
:10236000209165033091660381E0232BE9F080E042
:102370001BC081E009CF10923C0180916703882344
:1023800049F0109259031092620310926103109267
:102390006703EDCF8091650390916603892BE1F08F
:1023A0008091580310925803209161033091620389
:1023B0002230310509F45EC088F42115310509F495
:1023C00048C02130310509F4F3C01092590310922E
:1023D00058031092670338C081E0E6CF23303105FF
:1023E00009F4B1C02430310581F740915403509174
:1023F00055036091560370915703411551056105CE
:10240000710561F04150510961097109409354030C
:1024100050935503609356037093570340915403B0
:10242000509155036091560370915703452B462BED
:10243000472BD9F420916303309164032130310597
:1024400009F046C010925903109262031092610382
:102450000CC080913C01882341F082E090E0909391
:1024600062038093610310923C01109252038091A9
:102470005903CEC08823C9F380916A0390916B03FE
:10248000A0916C03B0916D03181619061A061B066D
:102490000CF07DC08091650390916603019709F06F
:1024A00076C080916A0390916B03A0916C03B09108
:1024B0006D038093540390935503A0935603B093F8
:1024C000570383E090E09093620380936103CDCF44
:1024D00040916E0350916F0360917003709171038E
:1024E000452B462B472BA9F01092590380916E0380
:1024F00090916F03A0917003B09171038093540386
:1025000090935503A0935603B093570381E090E056
:10251000DACF882399F080913D0190913E01A091FE
:102520003F01B09140018093540390935503A093D1
:102530005603B093570384E090E0C5CF109259033F
:1025400082E090E0C0CF8091540390915503A09118
:102550005603B09157030097A105B10559F00197B3
:10256000A109B1098093540390935503A093560396
:10257000B09357038091540390915503A091560353
:10258000B0915703892B8A2B8B2B09F06ECF80914A
:102590003D0190913E01A0913F01B0914001892BF6
:1025A0008A2B8B2B09F44ECF81E080935903B3CF54
:1025B0004091540350915503609156037091570315
:1025C000411551056105710561F0415051096109DD
:1025D00071094093540350935503609356037093CD
:1025E00057034091540350915503609156037091E5
:1025F0005703452B462B472B09F037CF8111C7CF07
:102600009FCF80915203882309F431CF80915303E7
:10261000CF911F910F91FF90EF90DF90CF90089591
:1026200010925D0310925E0310925F03109260039C
:1026300010925C03109262031092610310925B038C
:1026400010925A0310927C0310927B03109259034C
:10265000109258031092540310925503109256038F
:102660001092570310925303109252031092770363
:10267000109278031092790310927A0310927603E5
:1026800010927203109273031092740310927503E8
:1026900088EE93E0A0E0B0E080933D0190933E018E
:1026A000A0933F01B093400110926E0310926F030C
:1026B000109270031092710310926A0310926B03D0
:1026C00010926C0310926D031092690310926803CC
:1026D00081E080933C011092670310926603109290
:1026E0006503109264031092630390E080E0089504
:1026F0008091650390916603892B19F580913C01C7
:10270000882351F080916703811106C081E0809396
:1027100053038093520308952091670330913C0145
:1027200081E090E0332311F090E080E030E08223FC
:102730009323892B21F01092530381E0EACF10926A
:102740005203089582E090E0FA01918380838FEF35
:102750009FEF0895CF93DF93EA01009711F00E9455
:1027600037261982188290E080E0DF91CF9108959A
:10277000DB01009719F48FEF8C9308952EEF2C93C3
:102780000F968F30910508F033C0FC01E653FC4EE4
:102790000C94DB33F613F413F213F013EE13EA1375
:1027A000EC13E813E613E413E113DD13D913DF137D
:1027B000F81380E311968C93089589E2FBCF82E2AF
:1027C000F9CF11961C92089583E2F4CF81E2F2CF03
:1027D00081E1F0CF87E2EECF8AE2ECCF80E1EACF71
:1027E00084E2E8CF88E2E6CF86E2E4CF81E3E2CF7D
:1027F00080E2E0CF8091890390918A0308959093BD
:102800008A038093890308958091880308959091A5
:102810008803892B809388030895982F9095809141
:1028200088038923809388030895809187030895FE
:10283000809185039091860308956115710559F083
:10284000FB0130E020E070E060E02417350719F06C
:102850006115710511F0CB010895A081B181A81710
:10286000B90709F4BF012F5F3F4F3696EECF809135
:102870008B0381111CC062D268D290937E03809337
:102880007D030E94391E0E944B1E90938203809309
:1028900081030E94C9220E94D022909380038093DA
:1028A0007F0381E080938B0390E080E0089584EFC4
:1028B0009FEF08958F929F92AF92BF92CF92DF9237
:1028C000EF92FF920F931F93CF93DF93CDB7DEB7B5
:1028D0002A970FB6F894DEBF0FBECDBF1A861986B1
:1028E00018861F821E821D821C821B821A821982F8
:1028F00080918B0307EF1FEF882309F49CC08E01A2
:102900000D5F1F4F9E012B5F3F4FAE01495F5F4F31
:10291000BE01675F7F4F90E080E00E9449248C01F8
:10292000009721F00596029708F0DBC029853A85CB
:102930002115310509F402C1ED80FE804B815C81D7
:10294000B701640F751F8F8198858617970708F464
:10295000F5C0E20EF31ED7019C91903C09F07FC0B8
:102960004230510508F47BC011968C914091890347
:1029700050918A03452B09F49CC0913F08F071C027
:102980002CE1290F2D3008F48BC02DE2290F2031C6
:1029900008F489C0903C21F48150823008F483C04F
:1029A00088E3890F8B3008F481C098EBC92E93E13E
:1029B000D92EE2EAF3E16D817E81AE014F5F5F4F78
:1029C00089859A8509955C01C114D104A1F189809A
:1029D0009A808114910479F18B819C8188159905E5
:1029E00008F487C010E000E04B815C8170E060E09B
:1029F000C7010E94033401151105E9F449815A8188
:102A000069857A858D819E81680F791FC501F601E0
:102A10000995E980FA800D811E812F8138854985CD
:102A20005A856FEF7FEF81E090E00E94E5238C01F3
:102A3000892B09F056C0C8012A960FB6F894DEBF5C
:102A40000FBECDBFDF91CF911F910F91FF90EF90FF
:102A5000DF90CF90BF90AF909F908F90089580E0CF
:102A600085CF30E020E0220F331FF901E358FC4FFF
:102A70000190F081E02D309709F497CF892F90E0F5
:102A80000995009709F491CFDC011296ED91FC9124
:102A900013971496CD90DC90309709F08CCF1FC01F
:102AA00021E030E0E0CF22E030E0DDCF23E030E095
:102AB000DACFD12CC12CEAEAF3E19F3F09F07BCFBA
:102AC000E0917D03F0917E03309721F4C90104EF7A
:102AD0001FEF0CC08FEF90E009950097A9F604EF67
:102AE0001FEF89859A85009709F4A5CF0E943726A4
:102AF000A2CF0E9412258C0189859A850E943726D3
:102B000070E060E0C4010E94AB2498878F830E942C
:102B1000E2239E838D836F8178856115710559F05D
:102B2000C8010E94C3279A87898706EF1FEF892B68
:102B300009F058CF59CF08EF1FEF56CF08EF1FEF1E
:102B4000D0CF20918B03222319F020E00C94501E4B
:102B500087EF9FEF08958091890390918A030895EC
:102B60000E94D5220E942F22F5D0EDE7F3E088E005
:102B7000DF011D928A95E9F710928B0390E080E0C7
:102B800008950C948C2021E040E050E0BA010C94B0
:102B9000501E86E090E0FA019183808390E080E00F
:102BA000089547E050E06AE771E047CEDF92EF9288
:102BB000FF920F931F93CF93DF938A01EC01C60F0F
:102BC000D71FE0908F03F0909003D9800E94FA24E1
:102BD000D816190678F082E090E0F801918380839E
:102BE0008EEF9FEFDF91CF911F910F91FF90EF90AC
:102BF000DF900895EF2841F482E090E0F80191839E
:102C0000808384EF9FEFEECF898180938E0390E0E5
:102C10000196F8019183808390E080E0E3CFCF9329
:102C2000DF93EA010E943D21882321F00E940725BD
:102C30000E943E2182E090E0998388838BEF9FEF92
:102C4000DF91CF910895CF93DF93EB0186E0FB01F5
:102C500011928A95E9F78FEF8883D6DD8983E5DDC8
:102C60008A83E6DD9D838C83DF91CF910895CF9396
:102C7000DF93EA010E944021811109C082E090E0C7
:102C80009983888385EF9FEFDF91CF91089590E03E
:102C900080E0B5DD81E090E09983888390E080E07A
:102CA000F3CF0F931F93CF93DF93EA018C01060FAD
:102CB000171F0E94402181110BC082E090E0998390
:102CC000888385EF9FEFDF91CF911F910F9108953A
:102CD000F8018181823038F082E090E09983888326
:102CE0008EEF9FEFF0CF81E090E089DD88E090E00B
:102CF0009983888390E080E0E6CFCF93DF930097BD
:102D0000D1F4EB01FB01329686E0DF011D928A953A
:102D1000E9F78FEF888385E089831A820E94FA247D
:102D20008B830E94F9249D838C8381E08E838F8323
:102D3000DF91CF910895DF91CF911ACD81ED95E18B
:102D400090938D0380938C03089580918C039091D0
:102D50008D03089510928D0310928C030895809135
:102D60008F03909190030895411105C0611571057D
:102D70008105910561F060938F03709390038093B8
:102D80009103909392034093930381E0089580E030
:102D90000895FF920F931F93CF93DF938A01EC0165
:102DA000C60FD71FF9800E94FA24F816190668F09A
:102DB00082E090E0F801918380838EEF9FEFDF91B6
:102DC000CF911F910F91FF9008956C817D818E812D
:102DD0009F814B81C9DF811108C082E090E0F8013A
:102DE0009183808384EF9FEFEACF898180938E0364
:102DF00090E00196F8019183808390E080E0DFCF3E
:102E0000CF93DF93EA01FC01E60FF71F6481758120
:102E1000868197814381A8DF811109C082E090E01B
:102E20009983888384EF9FEFDF91CF91089581E0AC
:102E300090E09983888390E080E0F6CFEFE8F3E0BC
:102E40004081518162817381480F511D611D711D47
:102E500040835183628373830895CF93C0918E031F
:102E60004C2F50E060918F037091900301960E9467
:102E7000FA338C2FE3DF10928E03CF9108950097E1
:102E800099F480918F03909190032FEFFB012083A1
:102E9000892B59F020918E0330E02F5F3F4F24178C
:102EA000350719F4CB01D9CF63CC0895009799F475
:102EB00080918F03909190032FEFFB012083892B4A
:102EC00059F020918E0330E02F5F3F4F24173507D4
:102ED00019F4CB01C2CF4CCC089523E1AC01249F5F
:102EE000C001259F900D1124E0919803F091990362
:102EF000E80FF91F238134812250310981E022300B
:102F0000310508F080E008950F931F93CF93DF936E
:102F100000919A0310919B03D0E0C0E080E00C1771
:102F20001D0749F491E0811190E0892FDF91CF9145
:102F30001F910F9108958111F5CFCE01CEDF21961B
:102F4000EECFA0919803B0919903109729F12091A9
:102F50009A0330919B0382179307F0F453E1589F33
:102F60009001599F300D1124A20FB31FED91FC91D8
:102F70001197309789F012968C91681768F48DE05C
:102F8000689FE00DF11D112480819181892B21F032
:102F900081E09281491708F080E008959C0143E1A7
:102FA000429FC001439F900D1124E0919803F0913E
:102FB0009903E80FF91F8385823091F481E090E056
:102FC00065817681409141015091420164177507F6
:102FD00011F490E080E0892B19F081E0232B09F0B7
:102FE00080E00895FC01A081B1818DE0689FA00D73
:102FF000B11D112413964D915C9185859685489F4E
:103000009001499F300D589F300D1124C901019640
:10301000611103C0478144FD04960895EF92FF9229
:103020000F931F93CF93DF93EA01FC01E60FF71F85
:1030300002811381E480F5804F2D6E2DC80181DF60
:1030400081110DC082E090E0998388838EEF9FEF1D
:10305000DF91CF911F910F91FF90EF900895C801DC
:103060003CDF882339F082E090E09983888388EF01
:103070009FEFEECF1093480100934701E092490182
:10308000F0924A0181E090E09983888390E080E0AB
:10309000DFCFCF92DF92EF92FF920F931F93CF93E8
:1030A000DF937A01EC01C60FD71FC0904701D09083
:1030B00048010091490110914A01412F602FC6013A
:1030C00040DF811110C082E090E0F701918380839E
:1030D0008AEF9FEFDF91CF911F910F91FF90EF90BB
:1030E000DF90CF900895C601F8DE882341F082E09A
:1030F00090E0F7019183808388EF9FEFEBCF4C81C5
:103100005D816E817F819A8189818F3F41F082E06C
:1031100090E0F701918380838EEF9FEFDBCFE3E1B7
:10312000EC9D9001ED9D300D1124E0919803F091FC
:103130009903E20FF31F0190F081E02D2DE0029F33
:10314000E00DF11D11240190F081E02D27E0129F88
:10315000E00DF11D1124808391838B818283438351
:103160005483658376831F5F10934A0181E090E06A
:10317000F7019183808390E080E0ACCFEF92FF92E3
:103180000F931F93CF93DF937A018C01060F171FC4
:10319000C0919803D0919903209781F021E030E00D
:1031A000F8018281938140919A0350919B03841787
:1031B000950710F030E020E0232B71F482E090E0DE
:1031C000F701918380838EEF9FEFDF91CF911F9165
:1031D0000F91FF90EF90089543E1489F9001499F20
:1031E000300D1124C20FD31F78DE882341F082E016
:1031F00090E0F7019183808388EF9FEFE6CFF8019D
:103200002481358120383105C8F687818111D6CFD8
:103210004181842F90E08F7E009741F082E090E022
:10322000F7019183808386EF9FEFCFCF4F833E835B
:103230002D83268128871986223010F421E02887E3
:1032400021E030E0F70131832083BFCF88E090E0B8
:10325000FA019183808390E080E00895FB018FEF75
:10326000808381E181838FEF9FEF9383828380E866
:1032700090E095838483168217820895FB018FEF77
:10328000808391E0918382839383848384E3858325
:1032900081E090E0978386830895DF92EF92FF921A
:1032A0000F931F93CF93DF93EA01FC01E60FF71F03
:1032B0008181813071F082E090E0998388838FEF83
:1032C0009FEFDF91CF911F910F91FF90EF90DF90D3
:1032D000089582819381D4802581E680F7800091D2
:1032E0009803109199030115110539F482E090E0DB
:1032F000998388838CEF9FEFE4CF40919A0350919C
:103300009B038417950738F082E090E099838883C7
:103310008EEF9FEFD6CF892B39F082E090E0998332
:10332000888386EF9FEFCDCF8D2D8D7FB1F7213034
:10333000A1F781E0D11006C091E0E916F10431F067
:1033400080E004C0E2E0EE16F104D0F3882329F314
:1033500090E080E0C2DD882339F082E090E099833C
:10336000888388EF9FEFADCFF801D38681E0848713
:10337000F686E586108A178681E090E09983888337
:1033800090E080E09ECF4CE050E064EA71E055CAE6
:103390008F929F92BF92CF92DF92EF92FF920F9304
:1033A0001F93CF93DF93EA01FC01E60FF71F8281A1
:1033B00093810481B580E0919803F091990330974F
:1033C00091F482E090E0998388838CEF9FEFDF9106
:1033D000CF911F910F91FF90EF90DF90CF90BF9012
:1033E0009F908F90089520919A0330919B038217AC
:1033F000930738F082E090E0998388838EEF9FEF07
:10340000E6CF23E1289F6001299FD00C1124EC0D09
:10341000FD1DE080F180E114F10499F2828108172A
:1034200048F78DE0089F80011124E00EF11EF7019E
:1034300080819181892B29F6BB20E1F2F7E0BF9EC4
:1034400040011124C4010E94FE25F701918380836D
:10345000E0919803F0919903EC0DFD1D0190F0812E
:10346000E02DE00FF11F80819181009739F482E017
:1034700090E0998388838DEF9FEFA9CFA40170E03E
:1034800060E00E9403348091980390919903C80EE4
:10349000D91EF60180819181080F191FF801B282AF
:1034A00081E090E09983888390E080E090CFAF92B4
:1034B000BF92CF92DF92FF920F931F93CF93DF9330
:1034C000EA01FC01E60FF71F82819381F4800091ED
:1034D0009803109199030115110581F482E090E0A1
:1034E000998388838CEF9FEFDF91CF911F910F918C
:1034F000FF90DF90CF90BF90AF90089520919A03F6
:1035000030919B038217930738F082E090E0998313
:1035100088838EEF9FEFE8CF2FEF2F0D2C3FA8F77A
:1035200023E1289F6001299FD00C11240C0D1D1D43
:10353000F80180819181892B89F6FDE0FF9E500181
:103540001124C5010E94FE25F80191838083E0913A
:103550009803F0919903EC0DFD1D808191810097F6
:1035600039F482E090E0998388838DEF9FEFBCCFA0
:10357000A50170E060E00E940334E0919803F091AF
:103580009903EC0DFD1DF28281E090E09983888320
:1035900090E080E0A9CFCF92DF92EF92FF920F935D
:1035A0001F93CF93DF93860F971FFC010281138136
:1035B0008091980390919903892B81F082E090E0AB
:1035C000FA01918380838CEF9FEFDF91CF911F9160
:1035D0000F91FF90EF90DF90CF900895C801B0E079
:1035E000A0E00197A109B1098F3F9F4FA105B10547
:1035F00040F082E090E0FA01918380838EEF9FEFAC
:10360000E4CF7A0183E1809F6001819FD00C112477
:10361000C6010E94FE25EC01009741F482E090E093
:10362000F701918380838DEF9FEFCFCFA60170E0EC
:1036300060E00E940334D0939903C09398031093E1
:103640009B0300939A0390E080E02FEF3FEF41E06F
:1036500061E070E08017910741F481E090E0F701AC
:103660009183808390E080E0B0CF3A8B298B1B86DA
:103670004C877E876D87188A1F8601966396EACFEE
:10368000EF92FF921F93CF93DF93EC0110E0F12CA8
:10369000E12C6A811617A8F070E0660F771FAE0163
:1036A0004F5E5F4FC7010E946326009721F02FEF06
:1036B0003FEF3A8B298BDF91CF911F91FF90EF90D5
:1036C0000895612FCE018EDC61E070E00E94AB2492
:1036D000E816F90608F47C011F5FDBCFF89420910F
:1036E00096033091970381E02115310509F080E0C0
:1036F000232B09F0789408952F923F924F925F9276
:103700006F927F928F929F92AF92BF92CF92DF92F1
:10371000EF92FF920F931F93CF93DF933C01660EBE
:10372000771EF301828193814C01B12CA12CC091B1
:103730009803D0919903209769F021E030E06091DF
:103740009A0370919B038617970710F030E020E0F2
:10375000232BD1F482E090E0FA01918380838EEFF5
:103760009FEFDF91CF911F910F91FF90EF90DF902E
:10377000CF90BF90AF909F908F907F906F905F9011
:103780004F903F902F90089580924B0190924C0162
:10379000A0924D01B0924E0163E1689F9001699F34
:1037A000300D1124C20FD31FF3018181833040F00B
:1037B00082E090E0FA019183808386EF9FEFD1CF82
:1037C0002A012B813C81232BF1F4288139819F81AF
:1037D00091FF2EC0232B09F46FC020919D039A8185
:1037E000422F490F5527551FBA0141E050E061387B
:1037F000710514F050E040E0452B09F45DC02A87C4
:10380000920F90939D038150823008F481C066DF4F
:10381000882309F4D8C0F3018181813009F48DC077
:1038200008F47BC0823009F4C6C090E080E0ADC0EF
:10383000232B09F441C020919C039A81E22FE90FC8
:10384000FF27FF1F41E050E0ED3FF10514F050E08D
:1038500040E0452B89F12A87920F90939C03D3CFA8
:10386000A081B181A20FB31F11966C91060F111D9B
:103870000196295F3F4F8417950794F38D859E85A8
:10388000089F1001099F300C189F300C1124C1149F
:10389000D104D1F48F8184FF17C00E94F924F5E090
:1038A0002F0E311C21E08215930508F420E0A701BA
:1038B000435F5F4F21110EC082E090E0F2019183DF
:1038C000808387EF9FEF4DCF0E94F9242FEF221ABC
:1038D000320AE8CF88819981E80EF91EF701148336
:1038E0000383FFEFCF1ADF0A7A018A818C151D044A
:1038F00009F00CF48CCFE881F981EE0DFF1D4281B7
:1039000050E030E020E010E000E090E080E0B3CF55
:10391000F12CE12CD12CC12CE8CF81E090E09C83EC
:103920008B83F2DA882309F480CF81E090E00E9453
:10393000FF1380E40E940D1478CF89899A8901963B
:1039400061F083E090E09C838B8382E090E00E94B2
:10395000FF1380E40E94071468CF8D819E8120911F
:1039600041013091420182179307D1F460914501E2
:1039700070914601AE014F5E5F4F8091430190917F
:1039800044010E9482270097E1F2789422E030E01F
:10399000F20131832083892B99F08DEF9FEFE1CEE7
:1039A00089288A288B2869F6029758F6CE0168DEA6
:1039B000188A1F86E8CF82E090E09C838B8335CF06
:1039C00090E080E0CECE82E090E0F20191838083AF
:1039D00085EF9FEFC6CE8F929F92AF92BF92CF920C
:1039E000DF92EF92FF920F931F93CF93DF93EA0141
:1039F0008C01060F171FF8018181833098F082E057
:103A000090E09983888386EF9FEFDF91CF911F919C
:103A10000F91FF90EF90DF90CF90BF90AF909F906D
:103A20008F9008958091980390919903892B61F06C
:103A300081E090E020919A0330919B03232B11F4B5
:103A400090E080E0892B39F482E090E099838883CC
:103A50008EEF9FEFDACF42DE882309F4E0C0F80151
:103A60008181813009F496C0E8F0823099F4209188
:103A70009A0330919B03E0919803F091990390E0B1
:103A800080E041E050E02817390709F0BEC03CDA79
:103A9000811117C0789481E090E09983888390E049
:103AA00080E0B3CF20919A0330919B03E09198037B
:103AB000F091990390E080E041E050E02817390749
:103AC00041F481E090E00E94FF1380E40E940D1415
:103AD000E1CF63817481672B11F054834383019696
:103AE0007396ECCFE0919803F0919903E00FF11FEA
:103AF0002381348122303105D9F4218932892F3F45
:103B00003F4FB1F4258136814091410150914201EE
:103B10002417350761F5AF014F5E5F4F6091450196
:103B20007091460180914301909144010E94822747
:103B3000EFEFCE1ADE0AEE0AFE0A0D5E1F4F40912D
:103B40009A0350919B0370E060E0C416D506E60628
:103B5000F70644F5009731F27894892B09F49BCF4E
:103B600082E090E0998388838DEF9FEF4ECFC11460
:103B7000D104E104F104E1F622303105C8F6CF01A9
:103B80007FDDE0919803F0919903E00FF11F108A17
:103B90001786CECF10E000E090E080E0C12CD12C61
:103BA0007601CDCF0097C1F610E000E0812C912C7A
:103BB000540183E0E82EF12C1AC0E0919803F091B3
:103BC0009903E00FF11F83819481029749F4F482F5
:103BD000E38282E090E00E94FF1380E40E940714D9
:103BE000FFEF8F1A9F0AAF0ABF0A0D5E1F4F809129
:103BF0009A0390919B03B0E0A0E088169906AA066C
:103C0000BB06DCF290E080E0A7CF63817481623074
:103C1000710511F4548343830196739634CF82E087
:103C200090E09983888385EF9FEFEFCE0097B9F4FA
:103C30008FEFFB01808320914B0130914C0143E1D8
:103C4000429FC001439F900D1124E0919803F09191
:103C50009903E80FF91F8285FB01818308950C9475
:103C6000B81388E090E0FA019183808390E080E0CF
:103C700008951092970310929603E8E9F3E086E026
:103C8000DF011D928A95E9F783EC99E19093950302
:103C900080939403089580919403909195030895DF
:103CA0002F923F924F925F926F927F928F929F924C
:103CB000AF92BF92CF92DF92EF92FF920F931F933A
:103CC000CF93DF93CDB7DEB72F970FB6F894DEBF53
:103CD0000FBECDBFF894E0919603F0919703319613
:103CE000F0939703E0939603789440909803509054
:103CF00099034114510409F40CC2E0919A03F09124
:103D00009B03EF2B09F405C22D8749875A876B87E0
:103D10007C8798878F831201B12CA12C10E000E0E2
:103D200080919A0390919B03A816B90618F4011587
:103D3000110529F1F89480919603909197030197CA
:103D400090939703809396037894C8012F960FB6AB
:103D5000F894DEBF0FBECDBFDF91CF911F910F91C1
:103D6000FF90EF90DF90CF90BF90AF909F908F909B
:103D70007F906F905F904F903F902F9008957101CA
:103D8000E418F508D10117968C91179781FD54C05E
:103D900013968D919C911497039709F04DC0159639
:103DA0008D919C91EF81F8858E179F0709F044C093
:103DB000B50190E080E07ED48A8320919803309111
:103DC00099033D832C833D85332309F44CC04C81FA
:103DD0005D81452B09F49AC180919A0390919B03D0
:103DE000A816B90608F092C1C501D8D88823E9F011
:103DF0006C817D816E0D7F1D7D836C83DB011F9641
:103E00008D919C91892B89F0D12CC12CF12CE12C26
:103E1000AC81BD8112968C9112978E151F0409F00A
:103E200094F450961C921E921F972A81222321F00F
:103E3000B50190E080E040D43FEFA31AB30A43E11C
:103E4000240E311C6DCFAC81BD81ED91FC91EC0D48
:103E5000FD1D858196810BD7BFEFEB1AFB0AEDE0C4
:103E6000CE0ED11CD5CFEC81FD81309709F44EC127
:103E700080919A0390919B03A816B90608F046C159
:103E8000EE0DFF1DFF87EE87C50188D88B83882341
:103E900039F1AE85BF851F968D919C915097019603
:103EA00021E01D964D915C918417950709F020E063
:103EB0002E831982712C10E000E0AE85BF8512962A
:103EC0008C91781608F45DC0EE85FF858785908912
:103ED0000196658576850E94A533908B8787A5CF4F
:103EE000B1E0BE83E6CF992493946BC087D6F601E8
:103EF0009683858382C0D601ED90FC90B7E06B9EDF
:103F0000E00CF11C1124F7016381748180818F3FE3
:103F100061F121E030E002C0220F331F8A95E2F701
:103F2000C901092E000CAA0BBB0BFB01408151817A
:103F30006281738184239523A623B72321E0892BF3
:103F40008A2B8B2B09F420E0D4012C93D7011196F6
:103F50008C91F60123853485820F932F911D880E55
:103F6000991E1486138663949BC0418150E0C4015E
:103F70000E94FA33EBCF998206EF1FEFC5C019827A
:103F8000C3C0F981F111A0CFEDE07E9E7001112434
:103F9000AE85BF85CD90DC90CE0CDF1C13D49D8305
:103FA0008C83BB81BB2309F49ECF81E0EE85FF8526
:103FB00027853089232B09F080E0982E882309F487
:103FC00058C0672D8E859F850DD8D60118969C9375
:103FD0008E93179761E070E0BED4EE85FF8521894E
:103FE00032892F3F320709F481CFBC01C901CBD7F9
:103FF000D60116969C938E931597D60115968D91A2
:104000009C911697009709F4B6CFEC81FD818E0F35
:104010009F1F1A969C938E931997AE85BF85ED913D
:10402000FC911197EE0EFF1EF70121853285148653
:1040300013861A968C91870DD9018D93711016C035
:10404000EE85FF85878184FF11C049855A856B8580
:104050007C85F9014183528363837483F7018385EF
:1040600094850496A80FB91F14861386F701B287AA
:10407000A187D60115968D919C911697892B09F4ED
:1040800043C0EE85FF852581368180914101909165
:1040900042012817390779F019968D909C90612C70
:1040A000D60112968C911297681608F424CF1A96AE
:1040B0009C928E921997BE81BB2309F460CF61E078
:1040C00070E0F6018781908546D4D6011796ED9071
:1040D000FC90189715964D915C91E1E0F0E0BA8163
:1040E000BB2311F0F0E0E0E00C811D819C01B501E3
:1040F000882799278E1B9F0B68D38C01892B21F071
:10410000F60185819681B3D57394D7CE0FEF1FEF5B
:104110008CCE10E000E00ECE2F923F924F925F9235
:104120006F927F928F929F92AF92BF92CF92DF92C7
:10413000EF92FF920F931F93CF93DF938091980399
:104140009091990310E000E0892BA9F0C7DA0AEFFB
:104150001FEF882381F020909A0330909B03C09139
:104160009803D0919903D12CC12C10E000E02C14BD
:104170003D04A9F47894C801DF91CF911F910F916C
:10418000FF90EF90DF90CF90BF90AF909F908F9077
:104190007F906F905F904F903F902F900895C60151
:1041A0000E94CE17882309F18B819C810397E9F443
:1041B0008F859889892BC9F0B60190E080E07AD28A
:1041C00021E030E0882311F030E020E04424552441
:1041D000421A530AB12CA12C912C812C8A8188156A
:1041E000190409F038F4188A1F864FEFC41AD40A4C
:1041F0006396BDCFE881F981EA0DFB1D858196812B
:10420000892BA1F161E070E087819085A4D33C0106
:10421000D9D28C01E881F981EA0DFB1D8185928557
:1042200025813681200F311FAC01421B530B9A01AF
:1042300047815085421B530B70E060E00E940334BD
:10424000E881F981EA0DFB1DE780F0844581568104
:104250009301B601C201B9D28C01892B39F0E881F2
:10426000F981EA0DFB1D8581968101D55FEF851AE5
:10427000950A8DE0A80EB11CB1CF30CA789408958C
:104280002F923F924F925F926F927F929F92AF9246
:10429000BF92CF92DF92EF92FF920F931F93CF9333
:1042A000DF9300D000D000D0CDB7DEB700919803E7
:1042B00010919903992493940115110509F43EC0B6
:1042C000A0909A03B0909B0309DA982E8823B1F14D
:1042D000109299031092980310929B0310929A03E4
:1042E00010929C0310929D038FEF9FEFDC0180934F
:1042F0004B0190934C01A0934D01B0934E017894E3
:104300007AD31E830D83C12CD12C7601C501B0E078
:10431000A0E089839A83AB83BC8322242A94322C25
:1043200089819A81AB81BC81C816D906EA06FB0651
:10433000F4F0C8019CD480E40E940D14892D2696C7
:104340000FB6F894DEBF0FBECDBFDF91CF911F91A6
:104350000F91FF90EF90DF90CF90BF90AF909F9024
:104360007F906F905F904F903F902F900895AD8118
:10437000BE8115968D919C911697209141013091A7
:10438000420182179307D1F451968D919C91E9D502
:10439000ED81FE8180819181B12CA12C412C512C89
:1043A0003201892B89F5BFEFCB1ADB0AEB0AFB0A36
:1043B000ED81FE817396FE83ED83B2CFC114D104EB
:1043C000E104F10429F7029718F7ED81FE81818954
:1043D00092898F3F980709F024D5AD81BE8152960E
:1043E0003C922E925197D4CF8A0D9B1DDC018D916A
:1043F0009C91009709F03BD4BFEF4B1A5B0A6B0A04
:104400007B0AEDE0AE0EB11CAD81BE818D919C9119
:10441000119712964C9150E070E060E044165506FA
:10442000660677060CF323D4BECFCF93DF93EA0161
:1044300027DF811109C082E090E09983888385EFAE
:104440009FEFDF91CF91089581E090E00E94FF13EC
:1044500081E090E09983888390E080E0F2CF10DFE4
:104460001092950310929403089542E050E06CEE90
:1044700071E00C941D14FF920F931F93CF93DF9361
:104480008A01EC01C60FD71FF980B4D20897F8163D
:10449000190671F068F082E090E0F8019183808362
:1044A0008EEF9FEFDF91CF911F910F91FF900895B5
:1044B0006C817D818E819F814B810E94B416811118
:1044C00008C082E090E0F8019183808384EF9FEF41
:1044D000E9CFF9800E94AF164F2D50E0BE01685F12
:1044E0007F4F0E94FA3389810E941E1781E090E07D
:1044F000F8019183808390E080E0D4CFDF92EF9247
:10450000FF920F931F93CF93DF938A01EC01C60FA5
:10451000D71F0E94AF167C01D9806CD2DD2059F0E4
:10452000029721E030E0D816190619F010F030E0BB
:1045300020E0232B79F482E090E0F80191838083DE
:104540008EEF9FEFDF91CF911F910F91FF90EF9032
:10455000DF900895EF2841F482E090E0F801918324
:10456000808384EF9FEFEECFF9800E94AF164F2D2E
:1045700050E0BE016E5F7F4F0E94FA3389810E9436
:104580001E1781E090E0F8019183808390E080E045
:10459000D9CF85E392E290939F0380939E03089581
:1045A00080919E0390919F0308950895FC011182CC
:1045B0001082938382830895DB011D921C92DC019B
:1045C0001296ED91FC9113977183608313967C93FF
:1045D0006E9312970895FC0180819181DB018D9388
:1045E0009C93A081B181109741F08D919C91918312
:1045F0008083892B11F4F383E2830895FC01808189
:104600009181DB018D939C93892B11F473836283D9
:10461000718360830895FC011182108293838283E9
:104620000895CF93DF9300D0CDB7DEB71A821982F9
:10463000F894BE016F5F7F4F85EA93E0CCDF8981FC
:104640009A81009709F013D389819A81892B89F780
:10465000BE016F5F7F4F89EA93E0BDDF89819A8158
:10466000009709F004D389819A81892B89F778947E
:104670000F900F90DF91CF910895CF93DF9300D0EB
:10468000CDB7DEB71A821982F894BE016F5F7F4FF3
:1046900081EA93E0A0DF89819A81009709F0E7D24F
:1046A00089819A81892B89F778940F900F90DF91F7
:1046B000CF91089581E0089590E080E00895EF9211
:1046C000FF920F931F93CF93DF9300D0CDB7DEB748
:1046D0001A8219828091A00307EF1FEF8823A1F1AE
:1046E000F894BE016F5F7F4F89EA93E074DF78949E
:1046F00089819A81EE24E394F12C892B51F4F8946A
:10470000BE016F5F7F4F85EA93E065DF7894F12CFF
:10471000E12C89819A810EEF1FEF0097A9F0FC012F
:104720004281538164E070E070D68C01892B61F086
:10473000F89469817A81C701880F991F880F991FA2
:104740008B559C4F5BDF7894C8010F900F90DF91E1
:10475000CF911F910F91FF90EF9008950F931F93AA
:10476000CF93DF9300D000D0CDB7DEB71C821B8281
:104770001A8219828091A00307EF1FEF8823C1F0EE
:10478000AE014D5F5F4F64E070E0CE010196B0D6A0
:104790008C01892B69F4E981FA818B819C81938357
:1047A0008283F89469817A8181EA93E005DF7894C5
:1047B000C8010F900F900F900F90DF91CF911F9134
:1047C0000F910895B5D7049608958F929F92AF9256
:1047D000BF92CF92DF92EF92FF920F931F93CF93EE
:1047E000DF9300D0CDB7DEB71A821982BC016F5FAC
:1047F0007F4F6330710598F0AA24AA94BA2CC501A2
:104800000F900F90DF91CF911F910F91FF90EF903C
:10481000DF90CF90BF90AF909F908F9008954115FB
:10482000510551F3480159018A016C01CBDF88150C
:10483000990511F7E114F104F9F28E0D9F1DA816E8
:10484000B906D0F28091A0038823F1F0F894B50165
:10485000645071099701AE014F5F5F4FC801049624
:10486000DCD65C01892B71F489819A81F8019383EC
:104870008283C601880F991F880F991FB8018B5535
:104880009C4F9ADE7894BBCF87EFA82EBB24BA94B6
:10489000B6CFAF92BF92CF92DF92EF92FF920F937B
:1048A0001F93CF93DF9300D0CDB7DEB71A82198262
:1048B000892B09F047C06115710509F443C0411502
:1048C000510509F43FC02115310509F43BC001151C
:1048D0001105C1F18091A0038823B9F179016A0122
:1048E0005B01F894BE016F5F7F4F81EA93E073DE56
:1048F000789489819A81009759F1DC0112966D9123
:104900007C91A8010496A2D68C01E981FA81D50197
:10491000ED93FC93828193810496F60191838083C9
:1049200051DFD7018D939C93C8010F900F90DF91B9
:10493000CF911F910F91FF90EF90DF90CF90BF909C
:10494000AF9008950FEF1FEFEFCF07EF1FEFECCF02
:104950000EEF1FEFE9CFCF93DF93EC01672B71F4DC
:10496000F0D68C179D0760F0E3D62496C80FD91FA8
:10497000E2D68C0F9D1FDF91CF910895DFD6F1CF46
:1049800090E080E0F8CF0F931F93CF93DF932091B7
:10499000A00321112BC08B01EC0185EA93E006DE18
:1049A00089EA93E003DE81EA93E000DE97D0009786
:1049B000C1F4C7D670E060E0CEDF4FE451E062E0C2
:1049C00070E081D1009769F480914F01909150017E
:1049D000CAD6B801CE01FFD4009719F421E0209384
:1049E000A003DF91CF911F910F91089584EF9FEF66
:1049F000F8CFA4C6A6C6CF93DF93A6D6EC01892B29
:104A000011F40FDE3ADECE01DF91CF910895CF93FE
:104A1000DF939AD6EC01892B09F403DECE01DF91F6
:104A2000CF91089580914F01909150010895CF93B7
:104A3000DF938091A003D0E0C0E08823D1F098D626
:104A4000EC01892BB1F4EDDD18DE80914F019091DE
:104A50005001E7D1E8D2EC01892B59F485EA93E0C3
:104A6000DADD89EA93E0D7DD81EA93E0D4DD1092C4
:104A7000A003CE01DF91CF910895EF92FF920F93A3
:104A80001F93CF93DF93EC017A018B010F5F1F4FD0
:104A90000E9DA0010F9D500D1E9D500D112470E024
:104AA00060E00E94033490E080E0F0E0E0E02FEF6F
:104AB000E816F90639F4DF91CF911F910F91FF901D
:104AC000EF9008951A8219822883309711F0D283CB
:104AD000C1830196FE01C00FD11FEACFCF92DF92B2
:104AE000EF92FF920F931F93CF93DF9309ED14E0A2
:104AF0000C7F43E050E061E571E087E591E018D478
:104B000081E5E82E81E0F82E97E5C92E91E0D92EB7
:104B1000C8E4D5E0D7014D915D917D01F601619129
:104B200071916F01198308835D834C835B834A8392
:104B30007F836E839B012F5F3F4F249FC001259F82
:104B4000900D349F900D11249987888701151105C8
:104B500011F0C80192DF88859985080F191F2A96E0
:104B6000F7E5EF16F1E0FF06A9F6EFEAF3E087E2DA
:104B700091E0DF019C011D9221503040E1F710923D
:104B8000AE031092AD031092670510926605109265
:104B90006B0510926A0510926905109268051092D3
:104BA0006D0510926C0510926F0510926E051092B3
:104BB000710510927005109275051092740510928F
:104BC0007305109272051092770510927605109277
:104BD00079051092780510924505109244051092BF
:104BE00047051092460590E080E0DF91CF911F913C
:104BF0000F91FF90EF90DF90CF9008950097F1F024
:104C0000F894A7E5B1E0E8E4F5E030E020E04D916C
:104C10005D9148175907A8F042815381411551050C
:104C200081F08AE0829FF001839FF00D1124E85B00
:104C3000FA4F80819181009759F4789490E080E058
:104C400008952F5F3F4F3A962330310501F7F5CF96
:104C5000DC0111966D917C91718360834150510903
:104C600053834283FC012193CF01789408950097E8
:104C700049F1DC018E91853041F4E0914605F091D7
:104C800047053097F9F0CD0109948530D8F4282FE5
:104C900030E0F8948FEF8C938AE0829FF001839F3D
:104CA000F00D1124E85BFA4F8081918112969C935C
:104CB0008E931197B183A083828193810196938310
:104CC000828378940895CF92DF92EF92FF920F93B0
:104CD0001F93CF93DF939C0182EB93E08C7F411570
:104CE000510509F49BC02115310509F497C06115E0
:104CF000710509F493C07A01AB01B9016D5F7F4F73
:104D00006C7F9B012F5F3F4F249F8001259F100DDB
:104D1000349F100D1124F894209166053091670599
:104D2000232B59F420916E0530916F052115310523
:104D300069F12017310708F058C0209170053091B3
:104D40007105232B91F420916E0530916F05820F30
:104D5000931F20917805309179052115310509F4CB
:104D600041C02017310708F056C07894CFEFDFEF2D
:104D700086EF9FEFF701D183C083DF91CF911F9121
:104D80000F91FF90EF90DF90CF900895C3E0D0E0B7
:104D9000C090AD03D090AE0324E231E02C193D0960
:104DA0002017310710F32AE02C9FF0012D9FF00D02
:104DB0001124E85BFA4F91838083558344835383A6
:104DC00042837783668311870087009709F055DE59
:104DD0000C0D1D1D1093AE030093AD03789490E06D
:104DE00080E0C8CFC4E0D0E0D3CFC3E0D0E02AE079
:104DF0002C9FF0012D9FF00D1124E85BFA4F918359
:104E000080835583448353834283778366830097EB
:104E100029F333DEE3CFC4E0D0E0E9CF8FEF9FEF9B
:104E2000ACCF9C010397029708F069C0F89484E026
:104E30009AE0482F50E0241735070CF44DC091E05C
:104E40008AE0829FF001839FF00D1124E85BFA4F06
:104E500011821082158214821382128217821682A6
:104E60009923B1F18091660590916705892BA9F48A
:104E700020916E0530916F052115310571F08091FB
:104E8000AD039091AE03821B930B9093AE0380937E
:104E9000AD0310926F0510926E0580917005909190
:104EA0007105892BA9F42091780530917905211598
:104EB000310571F08091AD039091AE03821B930B8D
:104EC0009093AE038093AD0310927905109278050C
:104ED000789490E080E00895949FF001959FF00D04
:104EE0001124E85BFA4F40815181452B31F4408514
:104EF0005185452B11F481509CCF90E0A1CF8FEFCD
:104F00009FEF08954115510549F1009739F1611559
:104F1000710521F1F8942091440530914505232B2A
:104F2000B9F42091460530914705232B89F49093DD
:104F30004505809344057093470560934605789432
:104F400025E030E090E080E0FA013183208308958D
:104F500078942FEF3FEF86EF9FEFF6CF8FEF9FEF25
:104F60000895059769F4F894109245051092440548
:104F70001092470510924605789490E080E00895DD
:104F80008FEF9FEF08956115710519F4F0E0E0E0EF
:104F900011C08530910581F4E0914405F0914505FB
:104FA0003097A1F3CB0101960995009779F3FC01A5
:104FB00085E08193CF0108959C012350310922306F
:104FC000310520F72AE0289FD001299FB00D112438
:104FD000A85BBA4F2D913C911197232BB9F21696ED
:104FE0002D913C9117972617370780F2F894129667
:104FF0002D913C9113972115310529F0ED91FC91EC
:105000001197309711F47894C1CF41815281119654
:105010005C934E932150310913963C932E93129733
:1050200081937894C7CFE6EDF4E08EE6DF011D9220
:105030008A95E9F7EFEAF3E087E291E0DF019C016E
:105040001D9221503040E1F71092AE031092AD0353
:10505000E8E4F5E082E3DF011D928A95E9F7E4E4F4
:10506000F5E084E0DF011D928A95E9F790E080E0A9
:105070000895CF93DF93C0915D01D0915E01CF3F42
:10508000DC0759F407D490935E0180935D0197FF8C
:1050900009C0D0935E01C0935D0184EF9FEFDF9163
:1050A000CF91089590E080E0FACF8230910528F406
:1050B00080937A0590E080E008958FEF9FEF089548
:1050C0004F925F926F927F92AF92BF92CF92DF9298
:1050D000EF92FF920F931F93CF93DF9300D0CDB742
:1050E000DEB71A821982009709F478C0611571053C
:1050F00009F474C020915D0130915E0107EF1FEF4C
:105100002F3F3F4F09F444C06B015C01412C512CEF
:105110003201F12CE12C10E000E09E012F5F3F4FA7
:10512000A6014E195F09B5016E0D7F1D80915D01CD
:1051300090915E010ED4892B09F04AC089819A8131
:10514000009741F4E114F10429F420917A05222317
:1051500009F441C0E80EF91EEC14FD04C8F480E81F
:10516000481684E858068EE16806710418F560E078
:1051700070E0CB01A1D72AE0420E511C611C711CCA
:105180000A3F4FEF140721F0043F8FEF1807A1F4F7
:10519000C8010F900F90DF91CF911F910F91FF9059
:1051A000EF90DF90CF90BF90AF907F906F905F9027
:1051B0004F90089501EF1FEF81E090E0013F2FEF46
:1051C000120711F090E080E0892B09F4A6CFE0CF20
:1051D00004EF1FEFDDCF0AEF1FEFDACF0FEF1FEF66
:1051E000D7CF4F925F926F927F92AF92BF92CF9242
:1051F000DF92EF92FF920F931F93CF93DF9300D034
:10520000CDB7DEB71A821982009709F478C061150C
:10521000710509F474C020915D0130915E0107EFC2
:105220001FEF2F3F3F4F09F444C06B015C01412C3D
:10523000512C3201F12CE12C10E000E09E012F5F97
:105240003F4FA6014E195F09B5016E0D7F1D80917C
:105250005D0190915E0133D3892B09F04AC08981A9
:105260009A81009741F4E114F10429F420917A0520
:10527000222309F441C0E80EF91EEC14FD04C8F421
:1052800080E4481682E458068FE06806710418F539
:1052900060E070E0CB0110D72AE0420E511C611C87
:1052A000711C0E3F4FEF140721F0043F8FEF1807DA
:1052B000A1F4C8010F900F90DF91CF911F910F9132
:1052C000FF90EF90DF90CF90BF90AF907F906F9066
:1052D0005F904F90089502EF1FEF81E090E0023F52
:1052E0002FEF120711F090E080E0892B09F4A6CF90
:1052F000E0CF04EF1FEFDDCF0EEF1FEFDACF0FEFA0
:105300001FEFD7CF80915D0190915E018F3F98078D
:1053100049F0B8D2892B49F48FEF9FEF90935E014B
:1053200080935D0190E080E0089584EF9FEF089501
:10533000CF92DF92EF92FF920F931F93CF93DF9361
:1053400021E04115510509F020E04150510921119A
:105350002CC0DC01FB01D12CC12C21E022C03FEF8D
:10536000C31AD30A7D010D911D91E701EA80FB80EC
:10537000E016F106A8F420813181E280F380F18209
:10538000E08233832283ED90FC9011979D0122509F
:105390003109E901F982E88211961C930E9320E00D
:1053A0003296C416D506D8F2D2CFDF91CF911F9195
:1053B0000F91FF90EF90DF90CF900895FC01680F60
:1053C000791F90E080E0E617F70709F4089521912E
:1053D000820F911DF8CF20917B05211113C049DE6A
:1053E000009791F4109281051092800510927F052C
:1053F00010927E0510927D0510927C0521E020938D
:105400007B05089584EF9FEF0895AF92BF92CF92EE
:10541000DF92EF92FF920F931F93CF93DF9300974A
:1054200009F460C04630510508F45CC020917B054A
:10543000C7EFDFEF222309F449C08C01060F171FC5
:10544000F801C080D180C114D10409F44EC0960186
:105450002A5F3F4F4217530708F447C07C018091F1
:1054600080059091810593838283B6016C5F7F4FA5
:105470005801A60EB71EC801A1DFF50191838083F4
:1054800064E070E0C8011CDEEC01892BF9F481E0D6
:1054900090E00BDEB601C801049612DEEC01892B08
:1054A00091F462E070E0C5010BDEEC01892B59F448
:1054B000C701DDDB80918005909181050196909375
:1054C00081058093800590E080E0EFDDCE01DF91E3
:1054D000CF911F910F91FF90EF90DF90CF90BF90F1
:1054E000AF900895CFEFDFEFF1CFC9EFDFEFEECF51
:1054F0006F927F928F929F92AF92BF92CF92DF92E4
:10550000EF92FF920F931F93CF93DF9300D000D0C1
:10551000CDB7DEB7009709F47AC04115510509F4FB
:1055200076C020917B0507EF1FEF222309F44DC0C1
:105530003A017B015C0164E070E0CE01019651DE2E
:105540008C01892B09F041C009811A8101151105CF
:1055500009F45AC0480186E0880E911CB701680D15
:10556000791D80915F01909160010DDD6C010097C4
:1055700009F450C0A70170E060E00E940334898103
:105580009A81AB81BC81EC0CFD1CF7018193919356
:10559000A193B1937F0181E090E087DDB801C7015D
:1055A00020DE892B31F562E070E0C701800F911F8A
:1055B00018DE8C01892BE9F490E080E076DDF501BE
:1055C000D182C082F30191828082C8010F900F9036
:1055D0000F900F90DF91CF911F910F91FF90EF905F
:1055E000DF90CF90BF90AF909F908F907F906F9003
:1055F000089590E080E059DDF50111821082F301F9
:1056000011821082C60133DB09EF1FEFDECF0FEFEF
:105610001FEFDBCF06EF1FEFD8CF0097A1F04115AA
:10562000510589F02115310571F0F90136966E1793
:105630007F0748F0DC012D933C93DA01ED93FC9356
:1056400090E080E008958FEF9FEF0895AF92BF92B2
:10565000CF92DF92EF92FF920F931F93CF93DF933E
:10566000009709F45FC04115510509F45BC065302E
:10567000710508F457C020917B05C7EFDFEF2223A7
:1056800091F1DC01CD90DC9011971296ED91FC9197
:1056900096012A5F3F4FC9EFDFEF2617370719F54D
:1056A000C0917C05D0917D05209749F521E030E03F
:1056B00030937D0520937C057A018C01F0937F0562
:1056C000E0937E055601B4E0AB0EB11CB50176DE69
:1056D0000A0D1B1DF801208131818217930729F5DE
:1056E000D701CD92DC92CE01DF91CF911F910F9126
:1056F000FF90EF90DF90CF90BF90AF9008952091F2
:105700007E0530917F052F5F3F4FCCEFDFEFE21733
:10571000F30790F2CBEFDFEF2E173F0768F2D0E0F0
:10572000C0E0CACFCFEFDFEFDECFC3EFDFEFDBCFDD
:1057300084E090E0089582E090E008958CEF9FEF80
:10574000089580E290E008951092810510928005FE
:1057500010927F0510927E0510927D0510927C05B7
:1057600090E080E008959093600180935F01089538
:1057700080917B05882391F0C5DD009789F4109214
:1057800081051092800510927F0510927E0510927F
:105790007D0510927C0510927B05089590E080E0D5
:1057A0000895009749F06115710531F0FC011182EF
:1057B0001082FB01118210820895F3CF26E030E0C1
:1057C00040E050E16EE070E090E080E000C0892BA6
:1057D00019F48FE895E098C608951F920F920FB6BE
:1057E0000F9211242F933F934F935F936F937F9367
:1057F0008F939F93AF93BF93EF93FF938BEC93EFB4
:105800009093850080938400B7D0FF91EF91BF9172
:10581000AF919F918F917F916F915F914F913F9148
:105820002F910F900FBE0F901F9018958BEC93EF58
:105830009093850080938400AFE6B0E08C918E7FDA
:105840008C93E0E8F0E080818C7F8083E1E8F0E0F9
:105850008081877E808380818460808380818C7F4B
:1058600080838C9181608C930895EFE6F0E08081D5
:1058700090819E7F90838170089581E008951092B9
:105880008205089568EE73E080E090E015D490E022
:1058900080E0089526E030E040E052EC61E070E006
:1058A00090E080E094DF8FE895E064D5892B21F0CB
:1058B0008FE895E079D5F7CF90E080E00895CF921A
:1058C000DF92EF92FF920F931F93CF93DF936B01C1
:1058D0007A01E901198218828FE895E04BD5892B6E
:1058E00069F18601CC24C39482E0D82E8091820590
:1058F000811110C08FE895E057D50297B9F7C09293
:105900008205F801D1928F0188819981019699834E
:105910008883ECCF888199818E159F0578F48FE874
:1059200095E042D58F3F9807A9F3F80181938F0145
:1059300088819981019699838883ECCF90E080E0FB
:10594000DF91CF911F910F91FF90EF90DF90CF905B
:1059500008950F931F93CF93DF93EA0189018FE896
:1059600095E0B6D6F801D183C08390E080E0DF9166
:10597000CF911F910F9108958091830591E0980F29
:1059800090938305882349F021E030E0309385052A
:105990002093840580938305089578940E94D2090A
:1059A000F894809183058150F5CF0F931F93CF9387
:1059B000DF931092910610929006B4D3FFDEC0914F
:1059C0007801D0917901198218826FEF7FEFCB01B6
:1059D0000E94A10470E060E090E080E00E941C035F
:1059E000009709F042C00E941C0CF8947894BE0104
:1059F00062557F4F8A819B810E941F03892B71F41E
:105A00006FEF7FEFCB010E94B0030E949B048823BD
:105A100029F081E0FE01EC54FF4F8083F89406DF0B
:105A20000E949E04882311F080E00BC00E949B041A
:105A30008111FACF81E0FE01EC54FF4F908191116A
:105A4000F3CF8093900678940E94FA138C01789497
:105A5000CC54DF4F8091900681110CC00E942C0D18
:105A60000E947F04F89490E080E0DF91CF911F9135
:105A70000F9108950E947C040E949E048823D9F00F
:105A800081E0809391069091910681E0911180E0F0
:105A900080939006809191068111E7DE0130110517
:105AA00029F40E94FA13892B09F4E9DE0E94FA1303
:105AB0008C01E3DECFCF0E949B048111E1CF81E016
:105AC00098819111DECF80E0DCCF5058BB27AA2708
:105AD0000ED05CC14DD130F052D120F031F49F3F57
