:1000000061C000000C94CC2A0C94F32A83C0000039
:1000100081C000007FC000007DC000007BC00000E8
:1000200079C0000077C0000075C0000073C00000F8
:1000300071C000000C941A276DC000006BC0000056
:100040000C941A2B67C000000C94112E0C94432EB4
:1000500061C000005FC000005DC000005BC0000028
:1000600059C0000057C00000000000080002010055
:100070000003040700000000000000000102040863
:100080001020408001020408102001020408102002
:10009000040404040404040402020202020203032E
:1000A00003030303000000002300260029000000D2
:1000B0000000250028002B0000000000240027007D
:1000C0002A00682E11241FBECFEFD8E0DEBFCDBFBF
:1000D00012E0A0E0B1E0E4E5FEE502C005900D927B
:1000E000A630B107D9F726E0A6E0B2E001C01D9224
:1000F000AA33B207E1F710E0C2E6D0E004C02197CE
:10010000FE010E94F92EC136D107C9F70E940228CC
:100110000C94282F75CFFC01A781B0858C91918517
:100120008923A481B5819C91408151816281738131
:100130002681922359F081110BC04F5F5F4F6F4FA3
:100140007F4F408351836283738308958111F5CF7C
:100150004150510961097109F4CF87E092E0DBCF8A
:1001600082E192E0D8CF8DE192E0D5CF88E292E0B3
:10017000D2CFFC01A481B5818C9196818923A7817E
:10018000B0859C9140815181628173812185922348
:1001900059F0882359F04F5F5F4F6F4F7F4F408377
:1001A00051836283738308958823A9F341505109D1
:1001B00061097109F4CF87E092E0DBCF82E192E040
:1001C000D8CF8DE192E0D5CF88E292E0D2CF0F93E5
:1001D0001F93CF93DF93082F162FEA01A0910602F9
:1001E0008BE0A89FD0011124A95FBD4F1D921D92E5
:1001F0001D921C92139781E01A968C931A97802F68
:1002000090E0FC01E458FF4FE4911696EC931697AA
:10021000FC01E057FF4FE491F0E0EE0FFF1FEC55BB
:10022000FF4F8591949115969C938E931497862FEA
:1002300090E0FC01E458FF4FE4911996EC93199774
:10024000FC01E057FF4FE491F0E0EE0FFF1FEC558B
:10025000FF4F8591949118969C938E93179760E029
:10026000802F0E947E2C60E0812F0E947E2C809146
:100270000602813081F1A0F0823009F445C083305C
:1002800009F45BC08091060291E0980F90930602FA
:10029000888390E080E0DF91CF911F910F910895C6
:1002A00080E0023021F08FEF033009F481E041E07B
:1002B00050E06DEA70E00E94AC2A80E0123021F03C
:1002C0008FEF133009F481E041E050E06BED70E016
:1002D0000E94AC2AD7CF80E0023021F08FEF0330AC
:1002E00009F481E041E050E060EB70E00E94AC2A4C
:1002F00080E0123021F08FEF133009F481E041E00B
:1003000050E06EED70E0E4CF80E0023021F08FEF3E
:10031000033009F481E041E050E063EB70E00E94BB
:10032000AC2A80E0123021F08FEF133009F481E025
:1003300041E050E061EE70E0CBCF80E0023021F090
:100340008FEF033009F481E041E050E066EB70E0AC
:100350000E94AC2A80E0123021F08FEF133009F4B4
:1003600081E041E050E064EE70E0B2CF9BE0899F15
:10037000F0011124E95FFD4F80819181A281B38159
:10038000FB0180839183A283B38390E080E0089592
:100390009BE0899FF0011124E95FFD4F10821182DB
:1003A0001282138290E080E0089590E080E008954A
:1003B000CF92DF92EF92FF92CF93882351F16A019F
:1003C0007B01CFEFC80F20E030E0A901CB01B601DF
:1003D0000E940A2918168CF0C701B60190580E9495
:1003E00013299B01AC016C2F70E090E080E0CF916D
:1003F000FF90EF90DF90CF90B2C0C701B6010E948E
:100400000E298C2FCF91FF90EF90DF90CF900C941E
:10041000FA2BCF91FF90EF90DF90CF9008950F933C
:100420001F938B019C0183E03695279517950795BF
:100430008A95D1F70D5C1D4F462F477021E030E0C3
:10044000F90102C0EE0FFF1F4A95E2F7AF01F80174
:1004500020812423CB010196211102C090E080E08D
:100460001F910F9108950F931F938B019C0183E0BF
:1004700036952795179507958A95D1F7677081E08E
:1004800090E001C0880F6A95EAF7F801ED5CFD4F36
:100490002081452B31F48095822380831F910F9119
:1004A0000895822BFACF2F923F924F925F926F92D4
:1004B0007F928F929F92AF92BF92CF92DF92EF92F4
:1004C000FF920F931F93CF93DF93D62EC72E782ED4
:1004D000692E49015A01280161E08D2D0E947E2C70
:1004E000CD2DDC2D8E010F5F1F4FA8016D2D7C2DB2
:1004F000872D962DB8DF20E030E0A901C201B701B9
:100500000E94442A181664F4C201B7010E941329FC
:100510002B01C501B4010E941329A201CE0123D0F1
:10052000C801DF91CF911F910F91FF90EF90DF9065
:10053000CF90BF90AF909F908F907F906F905F9083
:100540004F903F902F900895882341F08150682F5D
:1005500070E090E080E050E040E085CF0895862F85
:10056000B9010C94FA2B9C01FC01E859FF4FE4916E
:10057000E33061F140F4E13011F1E23021F160E06B
:10058000822F0C94BA2CE730C1F1E83009F441C055
:10059000E430A9F7809180008C7F82608093800096
:1005A00090918100907E9061692B609381005093BF
:1005B0008700409386008091800080621BC084B5D4
:1005C000806884BDDCCF84B58062FBCF80918000E1
:1005D0008C7F82608093800090918100907E9061FA
:1005E000692B60938100509387004093860080912F
:1005F0008000806880938000C2CF8091B0008068C6
:100600008093B0008091B100887F682B6093B10027
:10061000B6CF8091B0008062F3CF611102C00C941C
:100620007E2C6130E1F362E0FACF662319F061E0DD
:100630000C94BA2C60E0FCCF90E080E008950F931A
:100640001F93009709F487C06115710509F483C0F1
:10065000009134011091350120913601309137011C
:100660000E3F1F4F2F4F3F4F09F066C04FEF5FEF18
:10067000BA01409334015093350160933601709371
:1006800037014091340150913501609136017091EC
:100690003701DC011296ED91FC9180819181A2815C
:1006A000B3818093460390934703A0934803B0938C
:1006B000490384819581A681B781809342039093F9
:1006C0004303A0934403B093450380859185A2859D
:1006D000B38580933E0390933F03A0934003B09370
:1006E000410384859585A685B78580933A039093C9
:1006F0003B03A0933C03B0933D031092360310924A
:10070000370310923803109239039BD786E49BE09D
:1007100090933D0280933C0290933F0280933E026F
:100720007FD6009731F421E030E030934B032093E3
:100730004A031F910F9108950091340110913501E2
:100740002091360130913701DB010D931D932D93DC
:100750003C93139796CF8FEF9FEFEBCF8F929F92A3
:10076000AF92BF92CF92DF92EF92FF921F93CF93FF
:10077000DF934B015C0110914D0382E090E0909378
:100780004B0380934A0381149104A104B10441F402
:1007900080914D03811104C080914C03C1E081110F
:1007A000C0E0C12CD12C760180914D03811106C08F
:1007B00080914C03811102C0CC23D9F083E090E0FA
:1007C00090934B0380934A03CC2379F1CCE9DFEF7C
:1007D000111102C00E94AB0ECE01DF91CF911F918B
:1007E000FF90EF90DF90CF90BF90AF909F908F9051
:1007F00008956AE070E080E090E00E94892B80E13B
:10080000C80E87E2D81EE11CF11C8FEF88169806EF
:10081000A806B80631F0C1E08C149D04AE04BF04F4
:1008200008F0C0E080E030D6BFCFD0E0C0E0D0CF4D
:10083000CF92DF92EF92FF920F931F93CF93DF93AC
:100840008F3F910511F008F050C020914A0330917C
:100850004B032330310539F020914A0330914B038B
:100860002130310531F424E030E030934B03209304
:100870004A036A017B01EC0182309105A0F011E08E
:10088000AE01C701B601CBD5AB01BC01CE0111232E
:10089000F9F0DF91CF911F910F91FF90EF90DF90D2
:1008A000CF900C94D4108C01000F111F045C1D4FCD
:1008B000D8018D919C91892B11F30E94DE10029733
:1008C000F1F6D801ED91FC91CE010995182FD8CF02
:1008D0000E94F61090E080E0DF91CF911F910F9180
:1008E000FF90EF90DF90CF9008958FEF9FEFF4CFC0
:1008F00080E0CAC5CF93DF9386E090E090934B03EE
:1009000080934A031AD6EC01ECE3F2E084E0DF01C5
:100910001D928A95E9F70E94430E10924B031092A4
:100920004A03CE01DF91CF91089580914C03089541
:10093000809135030895609334017093350180935D
:1009400036019093370190E080E00895CF92DF92D6
:10095000EF92FF926B017C019F7720E030E040E84E
:1009600059E50E940A2987FF2BC020E030E040E0D3
:100970005FE3C701B6010E94442A87FD0EC020E054
:1009800030E040E05FE3C701B6010E949328FF908A
:10099000EF90DF90CF900C947C2920E030E040E095
:1009A0005FEBC701B6010E94442A181684F420E0C8
:1009B00030E0A901C701B6010E94482A6B017C0101
:1009C000C701B601FF90EF90DF90CF90089520E02F
:1009D00030E040E05FE3C701B6010E949228FF903B
:1009E000EF90DF90CF900C94F7284F925F926F9228
:1009F0007F928F929F92AF92BF92CF92DF92EF92AF
:100A0000FF920F931F93CF93DF9300D000D0CDB709
:100A1000DEB7609104037091050380910603909105
:100A200007030E943F2920E030E040E85FE40E9495
:100A3000482A6B017C016091000370910103809151
:100A40000203909103030E943F299B01AC01C7015F
:100A5000B6010E9493282AE037ED43E25CE30E944E
:100A6000482A209118013091190140911A015091A2
:100A70001B010E940A2987FFFDC180911C019091F2
:100A80001D01A0911E01B0911F018093E805909374
:100A9000E905A093EA05B093EB052091240130917C
:100AA000250140912601509127016091E805709140
:100AB000E9058091EA059091EB050E94442A1816F9
:100AC0000CF0E1C1609108017091090180910A0167
:100AD00090910B0180900C0190900D01A0900E015F
:100AE000B0900F0133DF6B017C0120E030E040E883
:100AF00053E40E940A296FEF87FF0EC020E030E028
:100B0000A901C701B6010E94442A60E087FD04C024
:100B1000C701B6010E94132987E087DDC501B40132
:100B200015DF6B017C0120E030E040E853E40E94D7
:100B30000A296FEF87FF0EC020E030E0A901C7014E
:100B4000B6010E94442A60E087FD04C0C701B601D7
:100B50000E94132988E069DDC0900401D09005014E
:100B6000E0900601F0900701A70196016091F7055A
:100B70007091F8058091F9059091FA050E940A2973
:100B8000882341F0C092F705D092F805E092F9056C
:100B9000F092FA058091F60581111092F605BE01DA
:100BA0006F5F7F4F8091FB05E1DB69817A818B81EB
:100BB0009C810E9441292091280130912901409176
:100BC0002A0150912B010E94482A20912C0130913A
:100BD0002D0140912E0150912F010E94482A4B0176
:100BE0005C01209114063091150640911606509133
:100BF00017060E94922820913001309131014091D6
:100C00003201509133010E94482A6093EC057093A1
:100C1000ED058093EE059093EF0566E070E080E0CF
:100C200090E0FDDB8C019093030680930206C09058
:100C3000E805D090E905E090EA05F090EB05E8942E
:100C4000F7F820E030E04FE753E4C701B6010E9417
:100C50000A29181634F4C12CD12C8FE7E82E83E42E
:100C6000F82EB701A601C801A3DB8092140690926A
:100C70001506A0921606B09217066091F8027091C0
:100C8000F9028091FA029091FB020E943F2920E034
:100C900030E040E85FE40E94482A6B017C016091EB
:100CA000F4027091F5028091F6029091F7020E9491
:100CB0003F299B01AC01C701B6010E94932820E0A7
:100CC00030E0A9010E9493280E941329AB01BC01C6
:100CD00090E080E0ADDD60910403709105038091A8
:100CE0000603909107030E943F2920E030E040E88E
:100CF0005FE40E94482A6B017C01609100037091BF
:100D0000010380910203909103030E943F299B01FC
:100D1000AC01C701B6010E94932820E030E0A90190
:100D20000E9493280E941329AB01BC0181E090E04E
:100D30007FDDC090F402D090F502E090F602F090D2
:100D4000F7028FEFC81AD80AE80AF80AC092F4022C
:100D5000D092F502E092F602F092F702C114D104AB
:100D6000E104F10499F48091F8029091F902A091C4
:100D7000FA02B091FB020196A11DB11D8093F80209
:100D80009093F902A093FA02B093FB028090FC02C8
:100D90009090FD02A090FE02B090FF0200910F0320
:100DA000109110036091F8027091F9028091FA029B
:100DB0009091FB020E943F29A50194010E94482ABC
:100DC00020E030E040E85FE40E94482A2B013C012B
:100DD000C701B6010E943F29A50194010E94482A3B
:100DE0009B01AC01C301B2010E949328F80160830A
:100DF0007183828393838091000390910103A0917A
:100E00000203B09103030196A11DB11D809300035D
:100E100090930103A0930203B0930303892B8A2BC1
:100E20008B2B99F48091040390910503A091060304
:100E3000B09107030196A11DB11D80930403909307
:100E40000503A0930603B09307030F900F900F9034
:100E50000F90DF91CF911F910F91FF90EF90DF9056
:100E6000CF90BF90AF909F908F907F906F905F904A
:100E70004F9008958091200190912101A09122012D
:100E8000B091230102CE6091100170911101809107
:100E90001201909113018090140190901501A0907F
:100EA0001601B09017011ECE4F925F926F927F9203
:100EB000AF92BF92DF92EF92FF920F931F93CF9367
:100EC000DF9384E090E072D1EAE5F2E08FEBDF019E
:100ED0001D928A95E9F78CE093E097838683CFE0B3
:100EE000D3E0D0939B02C0939A020CEF12E0158BD3
:100EF000048BF093C502E093C402F583E48321E000
:100F000030E0DC012D933C9381E691E0938782876A
:100F100021E133E03983288340E050E060E87FEB53
:100F2000409308035093090360930A0370930B03E3
:100F30004AE057ED63E27CE3D8014D935D936D93F6
:100F40007C931397C2EED2E08DE89DE7AAE7BDEE51
:100F500088839983AA83BB838BEC92E6ADE6B7ECDA
:100F60008093E6029093E702A093E802B093E9022F
:100F700087EE96EDA9E1B1E08093EA029093EB024F
:100F8000A093EC02B093ED028AEF95E7A6EAB2EEE9
:100F90008093EE029093EF02A093F002B093F102DF
:100FA000AEE4B2E0B383A283E0E4F2E01196FC93F6
:100FB000EE9383E791E0918380839383828395838B
:100FC0008483978386839187808793878287958799
:100FD000848782EF92E015969C938E9314971396D4
:100FE000DC93CE93129717963C932E931697E8EEC8
:100FF000F5E088E0DF011D928A95E9F7C0EFD5E0C2
:1010000080E3FE0111928A95E9F7DD24D394DDA6F1
:10101000412C512C320143944D8E5E8E6F8E78A2FE
:1010200061E087E0FADAD9A21C8ADCA64D8A5E8AE2
:101030006F8A788E61E088E0F0DAD98E1B8618829C
:10104000DFA690E0A92E91E0B92EF501848195816B
:10105000A681B7818F839887A987BA8749825A82E8
:101060006B827C824BEF55E063E082E0B0D8DD829A
:101070001E821C86DEA64D865E866F86788AE12CEF
:10108000F12C8701A801970166E070E080E090E014
:101090000ADA9B8B8A8BD98AF50180819181A281A2
:1010A000B3818CA39DA3AEA3BFA38B85DF91CF910A
:1010B0001F910F91FF90EF90DF90BF90AF907F90C6
:1010C0006F905F904F9064C980910C06811103C0AE
:1010D00081E080930C0680910406811103C081E0B9
:1010E000809304068091F005811113C081E0809304
:1010F000F0058091F1059091F205A091F305B09172
:10110000F4050197A105B10521F48091F505811140
:101110004CD98091FC0581112AC081E08093FC05A7
:101120008091FD059091FE05A091FF05B09100060C
:101130000197A105B105D9F4809101068823B9F082
:1011400066E070E080E090E06AD9909303068093B7
:10115000020640E050E0BA012BD966E070E080E082
:1011600090E05DD99093030680930206EDC908953F
:1011700060E070E080E89FE7089560E070E080E85C
:101180009FE7089560E070E080E89FEF089560E0D9
:1011900070E080E89FEF089560E070E080EC9FEFE2
:1011A000089560E070E080EC9FEF0895F5DF6093B4
:1011B0002C0670932D0680932E0690932F06F1DF58
:1011C0006093200670932106809322069093230655
:1011D000CFDF609328067093290680932A069093A8
:1011E0002B06CBDF6093240670932506809326069A
:1011F00090932706C7DF6093300670933106809383
:10120000320690933306C3DF60933406709335063D
:10121000809336069093370608954F925F926F92AF
:101220007F928F929F92AF92BF92CF92DF92EF9276
:10123000FF920F931F93F89440902503509026033C
:101240006090270370902803C0901903D0901A0370
:10125000E0901B03F0901C034130510509F0A4C03D
:101260009B01AC01241935094609570929013A01A6
:101270000091210310912203209123033091240334
:1012800048015901840C951CA61CB71C80169106B8
:10129000A206B306A0F400911D0310911E03209135
:1012A0001F03309120030F5F1F4F2F4F3F4F0093BD
:1012B0001D0310931E0320931F033093200380927D
:1012C000210390922203A0922303B0922403009161
:1012D0001D0310911E0320911F0330912003809263
:1012E000290390922A03A0922B03B0922C0300931F
:1012F0002D0310932E0320932F033093300360931C
:101300002503709326038093270390932803A0E17D
:10131000B7E2A30192010E94FF2E6C0D7D1D8E1D70
:101320009F1D6093190370931A0380931B0390937E
:101330001C03009134011091350120913601309148
:1013400037010F3F1F4F2F4F3F4FF1F000913401F6
:101350001091350120913601309137010E3F1F4F1A
:101360002F4F3F4F89F0C0903401D0903501E0906D
:101370003601F090370121E08C149D04AE04BF04C7
:1013800008F420E02093350378941F910F91FF908B
:10139000EF90DF90CF90BF90AF909F908F907F9015
:1013A0006F905F904F9008954B015C0184189508F1
:1013B000A608B708A3019201261B370B480B590B4F
:1013C0006415750586059705D0F082169306A40668
:1013D000B50640F420E030E0A90181149104A10495
:1013E000B10491F4A0E1B7E20E94FF2EA70196019B
:1013F000261B370B480B590BCA01B901C5CF821602
:101400009306A406B50670F7A0E1B7E2A501940122
:101410000E94FF2E6C0D7D1D8E1D9F1DB5CFFDCE34
:10142000CF93DF9300D000D0CDB7DEB71C821B82F4
:101430001A821982109231031092320310923303F0
:1014400010923403BE016F5F7F4FCE0103960E945E
:10145000FE2669817A818B819C810E94F61F00970C
:1014600061F4BE016F5F7F4FCE0103960E940A2791
:1014700069817A818B819C812DD50F900F900F907F
:101480000F90DF91CF910895FF920F931F93CF9309
:10149000DF93082F60E070E0CB010E94892BFF24CE
:1014A000F3940E94E11EEC01892B89F010E0CE3FFD
:1014B0008FEFD80769F0002361F160E070E0CB01A5
:1014C0000E94892B81E090E0892B59F322C011E022
:1014D00024D5EC01892B21F0CE3F8FEFD80759F7A7
:1014E00011111EC011E0229609F410E00E94921E14
:1014F000EC01892B21F0CE3F8FEFD807E1F61111D7
:1015000011C011E0CE3F8FEFD80709F410E00111B0
:101510000BC0CE01DF91CF911F910F91FF900895E5
:1015200011E0E4CF11E0F3CF60E070E0CB010E9466
:10153000892B1F25812F90E0C7CFCF93DF93809118
:101540003503882321F060E070E0CB014DD636D61C
:10155000D0E0C0E0892B71F06AE070E080E090E0BC
:101560000E94892B81E090DF29D62196C03D27E09B
:10157000D20781F728D60E944A2010924D0310927C
:101580004C031092460310924703109248031092A6
:1015900049031092420310924303109244031092A5
:1015A000450310923E0310923F03109240031092A5
:1015B000410310923A0310923B0310923C031092A5
:1015C0003D031092360310923703109238031092A5
:1015D00039034EEF5FEF6FEF7FEF4093340150938D
:1015E0003501609336017093370110923503E9E2BB
:1015F000F3E028E0DF011D922A95E9F71092250318
:1016000010922603109227031092280310922103B0
:1016100010922203109223031092240310921D03B0
:1016200010921E0310921F031092200310921903B0
:1016300010921A0310921B0310921C03DF91CF919A
:1016400008951092590310925A0310925B0310925E
:101650005C03109258038091610390916203909310
:10166000570380935603109255031092540310921F
:101670005003109251031092520310925303109290
:101680005E0310925D0390E080E00895CF92DF92B8
:10169000EF92FF920F931F93CF938C01019709F064
:1016A00055C020916103309162038091560390915F
:1016B0005703409161035091620350935703409345
:1016C00056032817390781F01092550310925403DE
:1016D0001092500310925103109252031092530330
:1016E00010925E0310925D038091610390916203FA
:1016F000019761F580915D0390915E03892B21F440
:1017000080913801811112C080915D0390915E0338
:101710000197E1F48091500390915103A0915203FD
:10172000B09153030197A105B10581F410925003C4
:1017300010925103109252031092530310923801E9
:1017400082E090E090935E0380935D03809161035B
:1017500090916203019709F01CC1809177039091E9
:1017600078038017910709F014C180917303909159
:101770007403A0917503B0917603009709F409C131
:101780002091720321110DC0409173035091740395
:101790006091750370917603452B462B472B09F416
:1017A000F8C020915D0330915E032230310509F0CD
:1017B000F0C0209154032111ECC0FC01C080D18005
:1017C000E280F38080915803882309F4D3C080918C
:1017D000640390916503892B09F4FEC02091640392
:1017E0003091650381E02230310509F080E02091DD
:1017F000640330916503C1E02130310549F0209147
:10180000640330916503C1E02230310509F0C0E086
:10181000882309F456C020916E0330916F034091E4
:10182000700350917103C701B6010E94442A87FDDD
:1018300014C020916E0330916F034091700350915A
:1018400071036091590370915A0380915B039091E9
:101850005C030E940A2987FD22C020916E0330910B
:101860006F034091700350917103C701B6010E944C
:10187000442A181634F520916E0330916F0340917D
:101880007003509171036091590370915A038091D4
:101890005B0390915C030E940A29811112C0809120
:1018A000660390916703A0916803B0916903892B47
:1018B0008A2B8B2B19F481E08093550381E0809370
:1018C0005403CC2309F456C020916E0330916F036A
:1018D0004091700350917103C701B6010E940A291B
:1018E00087FF14C020916E0330916F034091700305
:1018F000509171036091590370915A0380915B0379
:1019000090915C030E94442A87FF22C020916E03BD
:1019100030916F034091700350917103C701B6017C
:101920000E940A29811126C020916E0330916F0315
:1019300040917003509171036091590370915A0363
:1019400080915B0390915C030E94442A181694F4E2
:101950008091660390916703A0916803B091690339
:10196000892B8A2B8B2B19F481E08093550381E01E
:101970008093540381E090915403911180E080930F
:101980005803C0925903D0925A03E0925B03F0923D
:101990005C030130110509F067C180915D039091EE
:1019A0005E03892BD9F41092630310925403809143
:1019B0003801882379F082E090E090935E03809371
:1019C0005D0310923801209161033091620381E040
:1019D000232BE9F080E01BC081E009CF1092380191
:1019E00080916303882349F01092550310925E039F
:1019F00010925D0310926303EDCF8091610390918B
:101A00006203892BE1F080915403109254032091DA
:101A10005D0330915E032230310509F45EC088F425
:101A20002115310509F448C02130310509F4F3C00E
:101A300010925503109254031092630338C081E052
:101A4000E6CF2330310509F4B1C02430310581F7E8
:101A50004091500350915103609152037091530390
:101A6000411551056105710561F041505109610948
:101A70007109409350035093510360935203709344
:101A80005303409150035091510360915203709160
:101A90005303452B462B472BD9F420915F033091FC
:101AA00060032130310509F046C0109255031092B1
:101AB0005E0310925D030CC080913801882341F0D1
:101AC00082E090E090935E0380935D031092380172
:101AD00010924E0380915503CEC08823C9F38091A4
:101AE000660390916703A0916803B091690318168B
:101AF00019061A061B060CF07DC0809161039091B7
:101B00006203019709F076C08091660390916703A4
:101B1000A0916803B091690380935003909351039F
:101B2000A0935203B093530383E090E090935E033D
:101B300080935D03CDCF40916A0350916B03609118
:101B40006C0370916D03452B462B472BA9F0109227
:101B5000550380916A0390916B03A0916C03B0913F
:101B60006D038093500390935103A0935203B0935D
:101B7000530381E090E0DACF882399F08091390116
:101B800090913A01A0913B01B0913C0180935003A8
:101B900090935103A0935203B093530384E090E0D9
:101BA000C5CF1092550382E090E0C0CF80915003E2
:101BB00090915103A0915203B09153030097A10556
:101BC000B10559F00197A109B10980935003909391
:101BD0005103A0935203B09353038091500390910B
:101BE0005103A0915203B0915303892B8A2B8B2B65
:101BF00009F06ECF8091390190913A01A0913B019B
:101C0000B0913C01892B8A2B8B2B09F44ECF81E0BC
:101C100080935503B3CF409150035091510360918D
:101C2000520370915303411551056105710561F02F
:101C30004150510961097109409350035093510378
:101C4000609352037093530340915003509151039A
:101C50006091520370915303452B462B472B09F09B
:101C600037CF8111C7CF9FCF80914E03882309F4CE
:101C700031CF80914F03CF911F910F91FF90EF9043
:101C8000DF90CF9008951092590310925A0310924A
:101C90005B0310925C031092580310925E03109243
:101CA0005D0310925703109256031092780310921E
:101CB0007703109255031092540310925003109220
:101CC0005103109252031092530310924F0310923B
:101CD0004E031092730310927403109275031092C6
:101CE00076031092720310926E0310926F0310929B
:101CF00070031092710388EE93E0A0E0B0E080934F
:101D0000390190933A01A0933B01B0933C011092AA
:101D10006A0310926B0310926C0310926D03109281
:101D20006603109267031092680310926903109281
:101D300065031092640381E080933801109263037D
:101D400010926203109261031092600310925F037D
:101D500090E080E008958091610390916203892B67
:101D600019F580913801882351F080916303811126
:101D700006C081E080934F0380934E030895209125
:101D800063033091380181E090E0332311F090E05B
:101D900080E030E082239323892B21F010924F03BF
:101DA00081E0EACF10924E03089582E090E0FA01BC
:101DB000918380838FEF9FEF0895CF93DF93EA01A4
:101DC000009711F00E9467211982188290E080E04C
:101DD000DF91CF910895DB01009719F48FEF8C9379
:101DE00008952EEF2C930F968F30910508F033C095
:101DF000FC01E350F14F0C94F92E290F270F250F0A
:101E0000230F210F1D0F1F0F1B0F190F170F140F7B
:101E1000100F0C0F120F2B0F80E311968C93089567
:101E200089E2FBCF82E2F9CF11961C92089583E2FA
:101E3000F4CF81E2F2CF81E1F0CF87E2EECF8AE208
:101E4000ECCF80E1EACF84E2E8CF88E2E6CF86E219
:101E5000E4CF81E3E2CF80E2E0CF809185039091EF
:101E60008603089590938603809385030895809157
:101E70008403089590918403892B809384030895AB
:101E8000982F9095809184038923809384030895EB
:101E90008091830308958091810390918203089536
:101EA0006115710559F0FB0130E020E070E060E061
:101EB0002417350719F06115710511F0CB0108954C
:101EC000A081B181A817B90709F4BF012F5F3F4F67
:101ED0003696EECF8091870381111CC062D268D202
:101EE00090937A03809379030E946C190E947E1963
:101EF00090937E0380937D030E94FC1D0E94031E2D
:101F000090937C0380937B0381E08093870390E030
:101F100080E0089584EF9FEF08958F929F92AF9293
:101F2000BF92CF92DF92EF92FF920F931F93CF93C6
:101F3000DF93CDB7DEB72A970FB6F894DEBF0FBE9A
:101F4000CDBF1A86198618861F821E821D821C82AA
:101F50001B821A8219828091870307EF1FEF882363
:101F600009F49CC08E010D5F1F4F9E012B5F3F4FF8
:101F7000AE01495F5F4FBE01675F7F4F90E080E039
:101F80000E947C1F8C01009721F00596029708F0B3
:101F9000DBC029853A852115310509F402C1ED80A0
:101FA000FE804B815C81B701640F751F8F8198851E
:101FB0008617970708F4F5C0E20EF31ED7019C912F
:101FC000903C09F07FC04230510508F47BC0119667
:101FD0008C914091850350918603452B09F49CC058
:101FE000913F08F071C02CE1290F2D3008F48BC00F
:101FF0002DE2290F203108F489C0903C21F4815052
:10200000823008F483C088E3890F8B3008F481C0E4
:102010009BEEC92E9EE0D92EE5EDFEE06D817E811E
:10202000AE014F5F5F4F89859A8509955C01C114A8
:10203000D104A1F189809A808114910479F18B8176
:102040009C818815990508F487C010E000E04B8159
:102050005C8170E060E0C7010E94212F011511052D
:10206000E9F449815A8169857A858D819E81680F5D
:10207000791FC501F6010995E980FA800D811E815D
:102080002F81388549855A856FEF7FEF81E090E099
:102090000E94181F8C01892B09F056C0C8012A968E
:1020A0000FB6F894DEBF0FBECDBFDF91CF911F9169
:1020B0000F91FF90EF90DF90CF90BF90AF909F90E7
:1020C0008F90089580E085CF30E020E0220F331F0D
:1020D000F901E758FC4F0190F081E02D309709F4A9
:1020E00097CF892F90E00995009709F491CFDC01F3
:1020F0001296ED91FC9113971496CD90DC90309749
:1021000009F08CCF1FC021E030E0E0CF22E030E0CA
:10211000DDCF23E030E0DACFD12CC12CEDEDFEE0B5
:102120009F3F09F07BCFE0917903F0917A033097DC
:1021300021F4C90104EF1FEF0CC08FEF90E0099567
:102140000097A9F604EF1FEF89859A85009709F497
:10215000A5CF0E946721A2CF0E9445208C018985CE
:102160009A850E94672170E060E0C4010E94DE1F32
:1021700098878F830E94151F9E838D836F8178853A
:102180006115710559F0C8010E94F3229A87898769
:1021900006EF1FEF892B09F058CF59CF08EF1FEF3B
:1021A00056CF08EF1FEFD0CF20918703222319F0DD
:1021B00020E00C94831987EF9FEF089580918503A9
:1021C0009091860308950E94081E0E94621DF5D01A
:1021D000E9E7F3E088E0DF011D928A95E9F71092C4
:1021E000870390E080E008950C94BF1B21E040E05D
:1021F00050E0BA010C94831986E090E0FA019183D3
:10220000808390E080E0089547E050E066E771E069
:1022100047CEDF92EF92FF920F931F93CF93DF93FE
:102220008A01EC01C60FD71FE0908B03F0908C035E
:10223000D9800E942D20D816190678F082E090E00F
:10224000F801918380838EEF9FEFDF91CF911F91F3
:102250000F91FF90EF90DF900895EF2841F482E016
:1022600090E0F8019183808384EF9FEFEECF898126
:1022700080938A0390E00196F8019183808390E037
:1022800080E0E3CFCF93DF93EA010E94701C8823A4
:1022900021F00E943A200E94711C82E090E0998314
:1022A00088838BEF9FEFDF91CF910895CF93DF93DA
:1022B000EB0186E0FB0111928A95E9F78FEF8883A5
:1022C000D6DD8983E5DD8A83E6DD9D838C83DF911E
:1022D000CF910895CF93DF93EA010E94731C81117F
:1022E00009C082E090E09983888385EF9FEFDF91BA
:1022F000CF91089590E080E0B5DD81E090E0998392
:10230000888390E080E0F3CF0F931F93CF93DF9308
:10231000EA018C01060F171F0E94731C81110BC06C
:1023200082E090E09983888385EF9FEFDF91CF91E2
:102330001F910F910895F8018181823038F082E079
:1023400090E0998388838EEF9FEFF0CF81E090E05B
:1023500089DD88E090E09983888390E080E0E6CF93
:10236000CF93DF930097D1F4EB01FB01329686E027
:10237000DF011D928A95E9F78FEF888385E08983D5
:102380001A820E942D208B830E942C209D838C8397
:1023900081E08E838F83DF91CF910895DF91CF917C
:1023A0001ACD84E091E19093890380938803089586
:1023B0008091880390918903089510928903109267
:1023C0008803089580918B0390918C0308954111A7
:1023D00005C0611571058105910561F060938B035E
:1023E00070938C0380938D0390938E0340938F039F
:1023F00081E0089580E00895FF920F931F93CF939B
:10240000DF938A01EC01C60FD71FF9800E942D20AF
:10241000F816190668F082E090E0F8019183808355
:102420008EEF9FEFDF91CF911F910F91FF90089555
:102430006C817D818E819F814B81C9DF811108C0B4
:1024400082E090E0F8019183808384EF9FEFEACFF0
:10245000898180938A0390E00196F80191838083BB
:1024600090E080E0DFCFCF93DF93EA01FC01E60F3D
:10247000F71F64817581868197814381A8DF81116F
:1024800009C082E090E09983888384EF9FEFDF9119
:10249000CF91089581E090E09983888390E080E077
:1024A000F6CFEBE8F3E04081518162817381480F00
:1024B000511D611D711D4083518362837383089593
:1024C000CF93C0918A034C2F50E060918B037091A1
:1024D0008C0301960E94182F8C2FE3DF10928A0341
:1024E000CF910895009799F480918B0390918C037C
:1024F0002FEFFB012083892B59F020918A0330E0D4
:102500002F5F3F4F2417350719F4CB01D9CF63CC88
:102510000895009799F480918B0390918C032FEF8D
:10252000FB012083892B59F020918A0330E02F5F33
:102530003F4F2417350719F4CB01C2CF4CCC089577
:1025400023E1AC01249FC001259F900D1124E0914F
:102550009403F0919503E80FF91F238134812250F1
:10256000310981E02230310508F080E008950F93B1
:102570001F93CF93DF930091960310919703D0E0C0
:10258000C0E080E00C171D0749F491E0811190E054
:10259000892FDF91CF911F910F9108958111F5CF70
:1025A000CE01CEDF2196EECFA0919403B09195039A
:1025B000109729F120919603309197038217930782
:1025C000F0F453E1589F9001599F300D1124A20F50
:1025D000B31FED91FC911197309789F012968C9171
:1025E000681768F48DE0689FE00DF11D112480816B
:1025F0009181892B21F081E09281491708F080E0D8
:1026000008959C0143E1429FC001439F900D112416
:10261000E0919403F0919503E80FF91F83858230D0
:1026200091F481E090E06581768140913D01509187
:102630003E016417750711F490E080E0892B19F0D2
:1026400081E0232B09F080E00895FC01A081B18195
:102650008DE0689FA00DB11D112413964D915C91E2
:1026600085859685489F9001499F300D589F300D74
:102670001124C9010196611103C0478144FD0496EC
:102680000895EF92FF920F931F93CF93DF93EA0188
:10269000FC01E60FF71F02811381E480F5804F2DC6
:1026A0006E2DC80181DF81110DC082E090E0998319
:1026B00088838EEF9FEFDF91CF911F910F91FF9055
:1026C000EF900895C8013CDF882339F082E090E064
:1026D0009983888388EF9FEFEECF10934401009396
:1026E0004301E0924501F092460181E090E0998338
:1026F000888390E080E0DFCFCF92DF92EF92FF926D
:102700000F931F93CF93DF937A01EC01C60FD71F6E
:10271000C0904301D09044010091450110914601C1
:10272000412F602FC60140DF811110C082E090E090
:10273000F701918380838AEF9FEFDF91CF911F9103
:102740000F91FF90EF90DF90CF900895C601F8DED3
:10275000882341F082E090E0F7019183808388EF45
:102760009FEFEBCF4C815D816E817F819A81898162
:102770008F3F41F082E090E0F701918380838EEFFC
:102780009FEFDBCFE3E1EC9D9001ED9D300D112437
:10279000E0919403F0919503E20FF31F0190F08113
:1027A000E02D2DE0029FE00DF11D11240190F0813C
:1027B000E02D27E0129FE00DF11D1124808391830D
:1027C0008B81828343835483658376831F5F109359
:1027D000460181E090E0F7019183808390E080E002
:1027E000ACCFEF92FF920F931F93CF93DF937A01B9
:1027F0008C01060F171FC0919403D0919503209769
:1028000081F021E030E0F8018281938140919603CC
:10281000509197038417950710F030E020E0232BA8
:1028200071F482E090E0F701918380838EEF9FEF57
:10283000DF91CF911F910F91FF90EF90089543E1A9
:10284000489F9001499F300D1124C20FD31F78DE9D
:10285000882341F082E090E0F7019183808388EF44
:102860009FEFE6CFF8012481358120383105C8F685
:1028700087818111D6CF4181842F90E08F7E009790
:1028800041F082E090E0F7019183808386EF9FEF33
:10289000CFCF4F833E832D83268128871986223010
:1028A00010F421E0288721E030E0F7013183208314
:1028B000BFCF88E090E0FA019183808390E080E0D0
:1028C0000895FB018FEF808381E181838FEF9FEF7C
:1028D0009383828380E890E09583848316821782B5
:1028E0000895FB018FEF808391E09183828393832E
:1028F000848384E3858381E090E0978386830895D1
:10290000DF92EF92FF920F931F93CF93DF93EA0131
:10291000FC01E60FF71F8181813071F082E090E0C9
:10292000998388838FEF9FEFDF91CF911F910F9154
:10293000FF90EF90DF90089582819381D48025816C
:10294000E680F7800091940310919503011511051D
:1029500039F482E090E0998388838CEF9FEFE4CF95
:1029600040919603509197038417950738F082E0C1
:1029700090E0998388838EEF9FEFD6CF892B39F033
:1029800082E090E09983888386EF9FEFCDCF8D2DF5
:102990008D7FB1F72130A1F781E0D11006C091E021
:1029A000E916F10431F080E004C0E2E0EE16F10433
:1029B000D0F3882329F390E080E0C2DD882339F04A
:1029C00082E090E09983888388EF9FEFADCFF80194
:1029D000D38681E08487F686E586108A178681E0B3
:1029E00090E09983888390E080E09ECF4CE050E0B7
:1029F00060EA71E055CA8F929F92BF92CF92DF92A8
:102A0000EF92FF920F931F93CF93DF93EA01FC01A4
:102A1000E60FF71F828193810481B580E0919403D2
:102A2000F0919503309791F482E090E09983888348
:102A30008CEF9FEFDF91CF911F910F91FF90EF905F
:102A4000DF90CF90BF909F908F9008952091960334
:102A5000309197038217930738F082E090E09983D2
:102A600088838EEF9FEFE6CF23E1289F6001299FA7
:102A7000D00C1124EC0DFD1DE080F180E114F10477
:102A800099F28281081748F78DE0089F8001112490
:102A9000E00EF11EF70180819181892B29F6BB2080
:102AA000E1F2F7E0BF9E40011124C4010E942E21F3
:102AB000F70191838083E0919403F0919503EC0DED
:102AC000FD1D0190F081E02DE00FF11F80819181CB
:102AD000009739F482E090E0998388838DEF9FEF2F
:102AE000A9CFA40170E060E00E94212F809194039F
:102AF00090919503C80ED91EF60180819181080F2F
:102B0000191FF801B28281E090E09983888390E0F8
:102B100080E090CFAF92BF92CF92DF92FF920F935F
:102B20001F93CF93DF93EA01FC01E60FF71F828129
:102B30009381F48000919403109195030115110580
:102B400081F482E090E0998388838CEF9FEFDF919E
:102B5000CF911F910F91FF90DF90CF90BF90AF90DA
:102B6000089520919603309197038217930738F0C8
:102B700082E090E0998388838EEF9FEFE8CF2FEF7C
:102B80002F0D2C3FA8F723E1289F6001299FD00C2F
:102B900011240C0D1D1DF80180819181892B89F66E
:102BA000FDE0FF9E50011124C5010E942E21F80175
:102BB00091838083E0919403F0919503EC0DFD1DCA
:102BC00080819181009739F482E090E09983888335
:102BD0008DEF9FEFBCCFA50170E060E00E94212F38
:102BE000E0919403F0919503EC0DFD1DF28281E0DC
:102BF00090E09983888390E080E0A9CFCF92DF9224
:102C0000EF92FF920F931F93CF93DF93860F971F3F
:102C1000FC01028113818091940390919503892B8B
:102C200081F082E090E0FA01918380838CEF9FEF46
:102C3000DF91CF911F910F91FF90EF90DF90CF9098
:102C40000895C801B0E0A0E00197A109B1098F3F44
:102C50009F4FA105B10540F082E090E0FA01918319
:102C600080838EEF9FEFE4CF7A0183E1809F600144
:102C7000819FD00C1124C6010E942E21EC010097E7
:102C800041F482E090E0F701918380838DEF9FEF24
:102C9000CFCFA60170E060E00E94212FD093950372
:102CA000C0939403109397030093960390E080E001
:102CB0002FEF3FEF41E061E070E08017910741F4B2
:102CC00081E090E0F7019183808390E080E0B0CFD5
:102CD0003A8B298B1B864C877E876D87188A1F86C7
:102CE00001966396EACFEF92FF921F93CF93DF9303
:102CF000EC0110E0F12CE12C6A811617A8F070E0CD
:102D0000660F771FAE014F5E5F4FC7010E94932190
:102D1000009721F02FEF3FEF3A8B298BDF91CF9176
:102D20001F91FF90EF900895612FCE018EDC61E03E
:102D300070E00E94DE1FE816F90608F47C011F5FB0
:102D4000DBCFF894209192033091930381E0211519
:102D5000310509F080E0232B09F0789408952F9233
:102D60003F924F925F926F927F928F929F92AF921B
:102D7000BF92CF92DF92EF92FF920F931F93CF9368
:102D8000DF933C01660E771EF301828193814C0133
:102D9000B12CA12CC0919403D0919503209769F098
:102DA00021E030E0609196037091970386179707B2
:102DB00010F030E020E0232BD1F482E090E0FA0123
:102DC000918380838EEF9FEFDF91CF911F910F91C1
:102DD000FF90EF90DF90CF90BF90AF909F908F903B
:102DE0007F906F905F904F903F902F9008958092CA
:102DF000470190924801A0924901B0924A0163E1D3
:102E0000689F9001699F300D1124C20FD31FF301F9
:102E10008181833040F082E090E0FA0191838083E9
:102E200086EF9FEFD1CF2A012B813C81232BF1F438
:102E3000288139819F8191FF2EC0232B09F46FC017
:102E4000209199039A81422F490F5527551FBA01A6
:102E500041E050E06138710514F050E040E0452B4E
:102E600009F45DC02A87920F9093990381508230B4
:102E700008F481C066DF882309F4D8C0F30181819A
:102E8000813009F48DC008F47BC0823009F4C6C0DB
:102E900090E080E0ADC0232B09F441C0209198035D
:102EA0009A81E22FE90FFF27FF1F41E050E0ED3F3D
:102EB000F10514F050E040E0452B89F12A87920F8C
:102EC00090939803D3CFA081B181A20FB31F119625
:102ED0006C91060F111D0196295F3F4F84179507CE
:102EE00094F38D859E85089F1001099F300C189FD3
:102EF000300C1124C114D104D1F48F8184FF17C088
:102F00000E942C20F5E02F0E311C21E08215930544
:102F100008F420E0A701435F5F4F21110EC082E05B
:102F200090E0F2019183808387EF9FEF4DCF0E9465
:102F30002C202FEF221A320AE8CF88819981E80EDF
:102F4000F91EF70114830383FFEFCF1ADF0A7A011A
:102F50008A818C151D0409F00CF48CCFE881F9816D
:102F6000EE0DFF1D428150E030E020E010E000E077
:102F700090E080E0B3CFF12CE12CD12CC12CE8CF34
:102F800081E090E09C838B83F2DA882309F480CF80
:102F900081E090E00E94320F80E40E94400F78CFE1
:102FA00089899A89019661F083E090E09C838B8304
:102FB00082E090E00E94320F80E40E943A0F68CFD6
:102FC0008D819E8120913D0130913E0182179307B2
:102FD000D1F46091410170914201AE014F5E5F4FAB
:102FE00080913F01909140010E94B2220097E1F24E
:102FF000789422E030E0F20131832083892B99F02C
:103000008DEF9FEFE1CE89288A288B2869F60297F9
:1030100058F6CE0168DE188A1F86E8CF82E090E07D
:103020009C838B8335CF90E080E0CECE82E090E031
:10303000F2019183808385EF9FEFC6CE8F929F929E
:10304000AF92BF92CF92DF92EF92FF920F931F93B6
:10305000CF93DF93EA018C01060F171FF8018181DE
:10306000833098F082E090E09983888386EF9FEF29
:10307000DF91CF911F910F91FF90EF90DF90CF9054
:10308000BF90AF909F908F900895809194039091FE
:103090009503892B61F081E090E0209196033091B7
:1030A0009703232B11F490E080E0892B39F482E020
:1030B00090E0998388838EEF9FEFDACF42DE8823FA
:1030C00009F4E0C0F8018181813009F496C0E8F08C
:1030D000823099F42091960330919703E091940304
:1030E000F091950390E080E041E050E02817390727
:1030F00009F0BEC03CDA811117C0789481E090E0FD
:103100009983888390E080E0B3CF2091960330913B
:103110009703E0919403F091950390E080E041E003
:1031200050E02817390741F481E090E00E94320F07
:1031300080E40E94400FE1CF63817481672B11F01E
:103140005483438301967396ECCFE0919403F091FE
:103150009503E00FF11F2381348122303105D9F42A
:10316000218932892F3F3F4FB1F42581368140912B
:103170003D0150913E012417350761F5AF014F5EC7
:103180005F4F609141017091420180913F019091A8
:1031900040010E94B222EFEFCE1ADE0AEE0AFE0ACA
:1031A0000D5E1F4F409196035091970370E060E0D1
:1031B000C416D506E606F70644F5009731F2789472
:1031C000892B09F49BCF82E090E0998388838DEF6F
:1031D0009FEF4ECFC114D104E104F104E1F6223097
:1031E0003105C8F6CF017FDDE0919403F09195039E
:1031F000E00FF11F108A1786CECF10E000E090E0BC
:1032000080E0C12CD12C7601CDCF0097C1F610E023
:1032100000E0812C912C540183E0E82EF12C1AC09F
:10322000E0919403F0919503E00FF11F8381948165
:10323000029749F4F482E38282E090E00E94320F28
:1032400080E40E943A0FFFEF8F1A9F0AAF0ABF0A6D
:103250000D5E1F4F8091960390919703B0E0A0E020
:1032600088169906AA06BB06DCF290E080E0A7CF9C
:10327000638174816230710511F454834383019634
:10328000739634CF82E090E09983888385EF9FEF37
:10329000EFCE0097B9F48FEFFB01808320914701B7
:1032A0003091480143E1429FC001439F900D11249A
:1032B000E0919403F0919503E80FF91F8285FB01DB
:1032C000818308950C94EB0E88E090E0FA019183DD
:1032D000808390E080E0089510929303109292030F
:1032E000E4E9F3E086E0DF011D928A95E9F786EFD5
:1032F00094E19093910380939003089580919003BB
:103300009091910308952F923F924F925F926F9206
:103310007F928F929F92AF92BF92CF92DF92EF9265
:10332000FF920F931F93CF93DF93CDB7DEB72F9705
:103330000FB6F894DEBF0FBECDBFF894E0919203B4
:10334000F09193033196F0939303E0939203789472
:1033500040909403509095034114510409F40CC219
:10336000E0919603F0919703EF2B09F405C22D87A6
:1033700049875A876B877C8798878F831201B12C86
:10338000A12C10E000E08091960390919703A8167D
:10339000B90618F40115110529F1F89480919203EA
:1033A0009091930301979093930380939203789461
:1033B000C8012F960FB6F894DEBF0FBECDBFDF91C8
:1033C000CF911F910F91FF90EF90DF90CF90BF9022
:1033D000AF909F908F907F906F905F904F903F90B5
:1033E0002F9008957101E418F508D10117968C917A
:1033F000179781FD54C013968D919C911497039754
:1034000009F04DC015968D919C91EF81F8858E172E
:103410009F0709F044C0B50190E080E07ED48A8324
:1034200020919403309195033D832C833D85332374
:1034300009F44CC04C815D81452B09F49AC18091FF
:10344000960390919703A816B90608F092C1C5019A
:10345000D8D88823E9F06C817D816E0D7F1D7D8336
:103460006C83DB011F968D919C91892B89F0D12C67
:10347000C12CF12CE12CAC81BD8112968C9112975C
:103480008E151F0409F094F450961C921E921F97FB
:103490002A81222321F0B50190E080E040D43FEF63
:1034A000A31AB30A43E1240E311C6DCFAC81BD8158
:1034B000ED91FC91EC0DFD1D8581968108D7BFEF44
:1034C000EB1AFB0AEDE0CE0ED11CD5CFEC81FD81CD
:1034D000309709F44EC18091960390919703A816F6
:1034E000B90608F046C1EE0DFF1DFF87EE87C50146
:1034F00088D88B83882339F1AE85BF851F968D913F
:103500009C915097019621E01D964D915C918417F6
:10351000950709F020E02E831982712C10E000E05D
:10352000AE85BF8512968C91781608F45DC0EE8545
:10353000FF85878590890196658576850E94C32ED3
:10354000908B8787A5CFB1E0BE83E6CF9924939473
:103550006BC084D6F6019683858382C0D601ED9038
:10356000FC90B7E06B9EE00CF11C1124F701638125
:10357000748180818F3F61F121E030E002C0220F31
:10358000331F8A95E2F7C901092E000CAA0BBB0B69
:10359000FB01408151816281738184239523A6239D
:1035A000B72321E0892B8A2B8B2B09F420E0D4014F
:1035B0002C93D70111968C91F60123853485820FC7
:1035C000932F911D880E991E1486138663949BC0B9
:1035D000418150E0C4010E94182FEBCF998206EF81
:1035E0001FEFC5C01982C3C0F981F111A0CFEDE072
:1035F0007E9E70011124AE85BF85CD90DC90CE0CEF
:10360000DF1C13D49D838C83BB81BB2309F49ECF25
:1036100081E0EE85FF8527853089232B09F080E046
:10362000982E882309F458C0672D8E859F850DD864
:10363000D60118969C938E93179761E070E0BED4E4
:10364000EE85FF85218932892F3F320709F481CF2A
:10365000BC01C901C8D7D60116969C938E931597C5
:10366000D60115968D919C911697009709F4B6CFC7
:10367000EC81FD818E0F9F1F1A969C938E93199754
:10368000AE85BF85ED91FC911197EE0EFF1EF701FF
:1036900021853285148613861A968C91870DD9015F
:1036A0008D93711016C0EE85FF85878184FF11C050
:1036B00049855A856B857C85F901418352836383F3
:1036C0007483F701838594850496A80FB91F148627
:1036D0001386F701B287A187D60115968D919C912B
:1036E0001697892B09F443C0EE85FF852581368125
:1036F00080913D0190913E012817390779F0199684
:103700008D909C90612CD60112968C911297681620
:1037100008F424CF1A969C928E921997BE81BB23EF
:1037200009F460CF61E070E0F6018781908546D4AE
:10373000D6011796ED90FC90189715964D915C91D7
:10374000E1E0F0E0BA81BB2311F0F0E0E0E00C81B1
:103750001D819C01B501882799278E1B9F0B68D37B
:103760008C01892B21F0F60185819681B0D5739467
:10377000D7CE0FEF1FEF8CCE10E000E00ECE2F92D1
:103780003F924F925F926F927F928F929F92AF92F1
:10379000BF92CF92DF92EF92FF920F931F93CF933E
:1037A000DF93809194039091950310E000E0892BC2
:1037B000A9F0C7DA0AEF1FEF882381F02090960363
:1037C00030909703C0919403D0919503D12CC12CD4
:1037D00010E000E02C143D04A9F47894C801DF91B6
:1037E000CF911F910F91FF90EF90DF90CF90BF90FE
:1037F000AF909F908F907F906F905F904F903F9091
:103800002F900895C6010E940113882309F18B812E
:103810009C810397E9F48F859889892BC9F0B601BB
:1038200090E080E07AD221E030E0882311F030E0AF
:1038300020E044245524421A530AB12CA12C912C87
:10384000812C8A818815190409F038F4188A1F869A
:103850004FEFC41AD40A6396BDCFE881F981EA0D0F
:10386000FB1D85819681892BA1F161E070E0878144
:103870009085A4D33C01D9D28C01E881F981EA0D6D
:10388000FB1D8185928525813681200F311FAC017A
:10389000421B530B9A0147815085421B530B70E02A
:1038A00060E00E94212FE881F981EA0DFB1DE7808D
:1038B000F084458156819301B601C201B9D28C01D1
:1038C000892B39F0E881F981EA0DFB1D858196810C
:1038D000FED45FEF851A950A8DE0A80EB11CB1CF1A
:1038E00030CA789408952F923F924F925F926F92D0
:1038F0007F929F92AF92BF92CF92DF92EF92FF9210
:103900000F931F93CF93DF9300D000D000D0CDB79B
:10391000DEB70091940310919503992493940115B7
:10392000110509F43EC0A0909603B090970309DA00
:10393000982E8823B1F1109295031092940310925F
:1039400097031092960310929803109299038FEFA9
:103950009FEFDC018093470190934801A0934901B8
:10396000B0934A0178947AD31E830D83C12CD12C55
:103970007601C501B0E0A0E089839A83AB83BC8364
:1039800022242A94322C89819A81AB81BC81C81669
:10399000D906EA06FB06F4F0C80199D480E40E9437
:1039A000400F892D26960FB6F894DEBF0FBECDBF0F
:1039B000DF91CF911F910F91FF90EF90DF90CF900B
:1039C000BF90AF909F907F906F905F904F903F908F
:1039D0002F900895AD81BE8115968D919C9116977B
:1039E00020913D0130913E0182179307D1F4519609
:1039F0008D919C91E6D5ED81FE8180819181B12CE4
:103A0000A12C412C512C3201892B89F5BFEFCB1A07
:103A1000DB0AEB0AFB0AED81FE817396FE83ED83E0
:103A2000B2CFC114D104E104F10429F7029718F7C9
:103A3000ED81FE81818992898F3F980709F021D518
:103A4000AD81BE8152963C922E925197D4CF8A0D71
:103A50009B1DDC018D919C91009709F038D4BFEF3C
:103A60004B1A5B0A6B0A7B0AEDE0AE0EB11CAD810E
:103A7000BE818D919C91119712964C9150E070E00F
:103A800060E044165506660677060CF320D4BECFD8
:103A9000CF93DF93EA0127DF811109C082E090E034
:103AA0009983888385EF9FEFDF91CF91089581E01F
:103AB00090E00E94320F81E090E09983888390E04B
:103AC00080E0F2CF10DF10929103109290030895DE
:103AD00042E050E068EE71E00C94500FFF920F93BB
:103AE0001F93CF93DF938A01EC01C60FD71FF98094
:103AF000B4D20897F816190671F068F082E090E0E9
:103B0000F801918380838EEF9FEFDF91CF911F911A
:103B10000F91FF9008956C817D818E819F814B81F3
:103B20000E94E711811108C082E090E0F8019183C2
:103B3000808384EF9FEFE9CFF9800E94E2114F2D3F
:103B400050E0BE01685F7F4F0E94182F89810E945C
:103B5000511281E090E0F8019183808390E080E051
:103B6000D4CFDF92EF92FF920F931F93CF93DF9307
:103B70008A01EC01C60FD71F0E94E2117C01D98097
:103B80006CD2DD2059F0029721E030E0D8161906FA
:103B900019F010F030E020E0232B79F482E090E07F
:103BA000F801918380838EEF9FEFDF91CF911F917A
:103BB0000F91FF90EF90DF900895EF2841F482E09D
:103BC00090E0F8019183808384EF9FEFEECFF9803E
:103BD0000E94E2114F2D50E0BE016E5F7F4F0E94A8
:103BE000182F89810E94511281E090E0F8019183A1
:103BF000808390E080E0D9CF88E69DE190939B039D
:103C000080939A03089580919A0390919B0308955D
:103C10000895FC0111821082938382830895DB0151
:103C20001D921C92DC011296ED91FC911397718309
:103C3000608313967C936E9312970895FC018081A4
:103C40009181DB018D939C93A081B181109741F00C
:103C50008D919C9191838083892B11F4F383E2836E
:103C60000895FC0180819181DB018D939C93892BC8
:103C700011F473836283718360830895FC01118260
:103C80001082938382830895CF93DF9300D0CDB7C2
:103C9000DEB71A821982F894BE016F5F7F4F81EA06
:103CA00093E0CCDF89819A81009709F010D3898154
:103CB0009A81892B89F7BE016F5F7F4F85EA93E078
:103CC000BDDF89819A81009709F001D389819A81AA
:103CD000892B89F778940F900F90DF91CF910895F9
:103CE000CF93DF9300D0CDB7DEB71A821982F89454
:103CF000BE016F5F7F4F8DE993E0A0DF89819A81DC
:103D0000009709F0E4D289819A81892B89F7789408
:103D10000F900F90DF91CF91089581E0089590E08A
:103D200080E00895EF92FF920F931F93CF93DF935C
:103D300000D0CDB7DEB71A82198280919C0307EFBD
:103D40001FEF8823A1F1F894BE016F5F7F4F85EAD2
:103D500093E074DF789489819A81EE24E394F12CC6
:103D6000892B51F4F894BE016F5F7F4F81EA93E095
:103D700065DF7894F12CE12C89819A810EEF1FEF99
:103D80000097A9F0FC014281538164E070E06AD69B
:103D90008C01892B61F0F89469817A81C701880FC1
:103DA000991F880F991F8F559C4F5BDF7894C8012E
:103DB0000F900F90DF91CF911F910F91FF90EF9097
:103DC00008950F931F93CF93DF9300D000D0CDB70A
:103DD000DEB71C821B821A82198280919C0307EF36
:103DE0001FEF8823C1F0AE014D5F5F4F64E070E0CC
:103DF000CE010196AAD68C01892B69F4E981FA815A
:103E00008B819C8193838283F89469817A818DE987
:103E100093E005DF7894C8010F900F900F900F90FA
:103E2000DF91CF911F910F910895AFD70496089518
:103E30008F929F92AF92BF92CF92DF92EF92FF92BA
:103E40000F931F93CF93DF9300D0CDB7DEB71A82C5
:103E50001982BC016F5F7F4F6330710598F0AA240F
:103E6000AA94BA2CC5010F900F90DF91CF911F91AA
:103E70000F91FF90EF90DF90CF90BF90AF909F9009
:103E80008F9008954115510551F3480159018A0158
:103E90006C01CBDF8815990511F7E114F104F9F2F3
:103EA0008E0D9F1DA816B906D0F280919C03882321
:103EB000F1F0F894B501645071099701AE014F5FBC
:103EC0005F4FC8010496D6D65C01892B71F48981B5
:103ED0009A81F80193838283C601880F991F880F06
:103EE000991FB8018F559C4F9ADE7894BBCF87EF0E
:103EF000A82EBB24BA94B6CFAF92BF92CF92DF92D6
:103F0000EF92FF920F931F93CF93DF9300D0CDB723
:103F1000DEB71A821982892B09F047C06115710535
:103F200009F443C04115510509F43FC0211531057D
:103F300009F43BC001151105C1F180919C03882350
:103F4000B9F179016A015B01F894BE016F5F7F4F9F
:103F50008DE993E073DE789489819A81009759F115
:103F6000DC0112966D917C91A80104969CD68C017F
:103F7000E981FA81D501ED93FC93828193810496C6
:103F8000F6019183808351DFD7018D939C93C80103
:103F90000F900F90DF91CF911F910F91FF90EF90B5
:103FA000DF90CF90BF90AF9008950FEF1FEFEFCF4E
:103FB00007EF1FEFECCF0EEF1FEFE9CFCF93DF93AB
:103FC000EC01672B71F4EAD68C179D0760F0DDD603
:103FD0002496C80FD91FDCD68C0F9D1FDF91CF917F
:103FE0000895D9D6F1CF90E080E0F8CF0F931F93DA
:103FF000CF93DF9320919C0321112BC08B01EC0107
:1040000081EA93E006DE85EA93E003DE8DE993E042
:1040100000DE97D00097C1F4C1D670E060E0CEDF3B
:104020004BE451E062E070E07ED1009769F480914A
:104030004B0190914C01C4D6B801CE01F9D4009740
:1040400019F421E020939C03DF91CF911F910F91F0
:10405000089584EF9FEFF8CF9EC6A0C6CF93DF935D
:10406000A0D6EC01892B11F40FDE3ADECE01DF91F0
:10407000CF910895CF93DF9394D6EC01892B09F467
:1040800003DECE01DF91CF91089580914B01909195
:104090004C010895CF93DF9380919C03D0E0C0E062
:1040A0008823D1F092D6EC01892BB1F4EDDD18DE36
:1040B00080914B0190914C01E4D1E5D2EC01892B28
:1040C00059F481EA93E0DADD85EA93E0D7DD8DE902
:1040D00093E0D4DD10929C03CE01DF91CF9108953F
:1040E000EF92FF920F931F93CF93DF93EC017A012E
:1040F0008B010F5F1F4F0E9DA0010F9D500D1E9D48
:10410000500D112470E060E00E94212F90E080E0CB
:10411000F0E0E0E02FEFE816F90639F4DF91CF91F7
:104120001F910F91FF90EF9008951A8219822883B2
:10413000309711F0D283C1830196FE01C00FD11FC9
:10414000EACFCF92DF92EF92FF920F931F93CF931C
:10415000DF9305E914E00C7F43E050E06DE471E08B
:1041600083E591E012D48DE4E82E81E0F82E93E50A
:10417000C92E91E0D92EC4E0D5E0D7014D915D91D3
:104180007D01F601619171916F01198308835D834F
:104190004C835B834A837F836E839B012F5F3F4FFA
:1041A000249FC001259F900D349F900D1124998765
:1041B00088870115110511F0C80192DF888599855E
:1041C000080F191F2A96F3E5EF16F1E0FF06A9F68E
:1041D000EBEAF3E087EEDF011D928A95E9F7109292
:1041E000AA031092A903109223051092220510929F
:1041F000270510922605109225051092240510928D
:1042000029051092280510922B0510922A0510926C
:104210002D0510922C051092310510923005109248
:104220002F0510922E051092330510923205109230
:104230003505109234051092010510920005109278
:1042400003051092020590E080E0DF91CF911F916D
:104250000F91FF90EF90DF90CF9008950097F1F0CD
:10426000F894A3E5B1E0E4E0F5E030E020E04D9122
:104270005D9148175907A8F04281538141155105B6
:1042800081F08AE0829FF001839FF00D1124EC5FA2
:10429000FA4F80819181009759F4789490E080E002
:1042A00008952F5F3F4F3A962330310501F7F5CF40
:1042B000DC0111966D917C917183608341505109AD
:1042C00053834283FC012193CF0178940895009792
:1042D00049F1DC018E91853041F4E0910205F091C5
:1042E00003053097F9F0CD0109948530D8F4282FD3
:1042F00030E0F8948FEF8C938AE0829FF001839FE7
:10430000F00D1124EC5FFA4F8081918112969C93FD
:104310008E931197B183A0838281938101969383B9
:10432000828378940895CF92DF92EF92FF920F9359
:104330001F93CF93DF939C018EEA93E08C7F41150E
:10434000510509F49BC02115310509F497C0611589
:10435000710509F493C07A01AB01B9016D5F7F4F1C
:104360006C7F9B012F5F3F4F249F8001259F100D85
:10437000349F100D1124F8942091220530912305CB
:10438000232B59F420912A0530912B052115310555
:1043900069F12017310708F058C020912C053091A1
:1043A0002D05232B91F420912A0530912B05820FA6
:1043B000931F20913405309135052115310509F4FD
:1043C00041C02017310708F056C07894CFEFDFEFD7
:1043D00086EF9FEFF701D183C083DF91CF911F91CB
:1043E0000F91FF90EF90DF90CF900895C3E0D0E061
:1043F000C090A903D090AA0324EE30E02C193D0907
:104400002017310710F32AE02C9FF0012D9FF00DAB
:104410001124EC5FFA4F9183808355834483538347
:1044200042837783668311870087009709F058DEFF
:104430000C0D1D1D1093AA030093A903789490E01E
:1044400080E0C8CFC4E0D0E0D3CFC3E0D0E02AE022
:104450002C9FF0012D9FF00D1124EC5FFA4F9183FA
:104460008083558344835383428377836683009795
:1044700029F336DEE3CFC4E0D0E0E9CF8FEF9FEF42
:10448000ACCF9C010397029708F069C0F89484E0D0
:104490009AE0482F50E0241735070CF44DC091E006
:1044A0008AE0829FF001839FF00D1124EC5FFA4FA8
:1044B0001182108215821482138212821782168250
:1044C0009923B1F18091220590912305892BA9F4BC
:1044D00020912A0530912B052115310571F080912D
:1044E000A9039091AA03821B930B9093AA03809334
:1044F000A90310922B0510922A0580912C0590910A
:104500002D05892BA9F4209134053091350521150D
:10451000310571F08091A9039091AA03821B930B3E
:104520009093AA038093A903109235051092340545
:10453000789490E080E00895949FF001959FF00DAD
:104540001124EC5FFA4F40815181452B31F44085B5
:104550005185452B11F481509CCF90E0A1CF8FEF76
:104560009FEF08954115510549F1009739F1611503
:10457000710521F1F8942091000530910105232B5C
:10458000B9F42091020530910305232B89F490930F
:1045900001058093000570930305609302057894EC
:1045A00025E030E090E080E0FA0131832083089537
:1045B00078942FEF3FEF86EF9FEFF6CF8FEF9FEFCF
:1045C0000895059769F4F89410920105109200057A
:1045D0001092030510920205789490E080E008950F
:1045E0008FEF9FEF08956115710519F4F0E0E0E099
:1045F00011C08530910581F4E0910005F09101052D
:104600003097A1F3CB0101960995009779F3FC014E
:1046100085E08193CF0108959C0123503109223018
:10462000310520F72AE0289FD001299FB00D1124E1
:10463000AC5FBA4F2D913C911197232BB9F216968E
:104640002D913C9117972617370780F2F894129610
:104650002D913C9113972115310529F0ED91FC9195
:104660001197309711F47894C1CF418152811196FE
:104670005C934E932150310913963C932E931297DD
:1046800081937894C7CFE2E9F4E08EE6DF011D92D2
:104690008A95E9F7EBEAF3E087EEDF011D928A9550
:1046A000E9F71092AA031092A903E4E0F5E082E38F
:1046B000DF011D928A95E9F7E0E0F5E084E0DF0193
:1046C0001D928A95E9F790E080E00895CF93DF93FB
:1046D000C0915901D0915A01CF3FDC0759F407D45A
:1046E00090935A018093590197FF09C0D0935A01C2
:1046F000C093590184EF9FEFDF91CF91089590E02F
:1047000080E0FACF8230910528F48093360590E05E
:1047100080E008958FEF9FEF08954F925F926F9220
:104720007F92AF92BF92CF92DF92EF92FF920F9360
:104730001F93CF93DF9300D0CDB7DEB71A821982D3
:10474000009709F478C06115710509F474C02091CF
:10475000590130915A0107EF1FEF2F3F3F4F09F4E6
:1047600044C06B015C01412C512C3201F12CE12C35
:1047700010E000E09E012F5F3F4FA6014E195F0938
:10478000B5016E0D7F1D8091590190915A010ED493
:10479000892B09F04AC089819A81009741F4E1147C
:1047A000F10429F420913605222309F441C0E80ED2
:1047B000F91EEC14FD04C8F480E8481684E8580695
:1047C0008EE16806710418F560E070E0CB01A1D7B6
:1047D0002AE0420E511C611C711C0A3F4FEF140766
:1047E00021F0043F8FEF1807A1F4C8010F900F903C
:1047F000DF91CF911F910F91FF90EF90DF90CF90BD
:10480000BF90AF907F906F905F904F90089501EFB1
:104810001FEF81E090E0013F2FEF120711F090E0D1
:1048200080E0892B09F4A6CFE0CF04EF1FEFDDCFA6
:104830000AEF1FEFDACF0FEF1FEFD7CF4F925F9244
:104840006F927F92AF92BF92CF92DF92EF92FF92E0
:104850000F931F93CF93DF9300D0CDB7DEB71A82AB
:104860001982009709F478C06115710509F474C0C4
:104870002091590130915A0107EF1FEF2F3F3F4F11
:1048800009F444C06B015C01412C512C3201F12C24
:10489000E12C10E000E09E012F5F3F4FA6014E1972
:1048A0005F09B5016E0D7F1D8091590190915A01EC
:1048B00033D3892B09F04AC089819A81009741F44A
:1048C000E114F10429F420913605222309F441C0B2
:1048D000E80EF91EEC14FD04C8F480E4481682E4E6
:1048E00058068FE06806710418F560E070E0CB01AF
:1048F00010D72AE0420E511C611C711C0E3F4FEF75
:10490000140721F0043F8FEF1807A1F4C8010F909E
:104910000F90DF91CF911F910F91FF90EF90DF905B
:10492000CF90BF90AF907F906F905F904F90089521
:1049300002EF1FEF81E090E0023F2FEF120711F02E
:1049400090E080E0892B09F4A6CFE0CF04EF1FEFC1
:10495000DDCF0EEF1FEFDACF0FEF1FEFD7CF809134
:10496000590190915A018F3F980749F0B8D2892B8D
:1049700049F48FEF9FEF90935A018093590190E093
:1049800080E0089584EF9FEF0895CF92DF92EF9239
:10499000FF920F931F93CF93DF9321E041155105B1
:1049A00009F020E04150510921112CC0DC01FB012C
:1049B000D12CC12C21E022C03FEFC31AD30A7D01C4
:1049C0000D911D91E701EA80FB80E016F106A8F445
:1049D00020813181E280F380F182E082338322837F
:1049E000ED90FC9011979D0122503109E901F98267
:1049F000E88211961C930E9320E03296C416D506D9
:104A0000D8F2D2CFDF91CF911F910F91FF90EF900D
:104A1000DF90CF900895FC01680F791F90E080E04F
:104A2000E617F70709F408952191820F911DF8CF39
:104A300020913705211113C049DE009791F410929F
:104A40003D0510923C0510923B0510923A051092DC
:104A500039051092380521E020933705089584EF39
:104A60009FEF0895AF92BF92CF92DF92EF92FF92A5
:104A70000F931F93CF93DF93009709F460C04630E4
:104A8000510508F45CC020913705C7EFDFEF222302
:104A900009F449C08C01060F171FF801C080D180AE
:104AA000C114D10409F44EC096012A5F3F4F42174A
:104AB000530708F447C07C0180913C0590913D0567
:104AC00093838283B6016C5F7F4F5801A60EB71E99
:104AD000C801A1DFF5019183808364E070E0C80123
:104AE0001CDEEC01892BF9F481E090E00BDEB601CD
:104AF000C801049612DEEC01892B91F462E070E0AB
:104B0000C5010BDEEC01892B59F4C701E0DB809174
:104B10003C0590913D05019690933D0580933C05A1
:104B200090E080E0EFDDCE01DF91CF911F910F91FA
:104B3000FF90EF90DF90CF90BF90AF900895CFEFB0
:104B4000DFEFF1CFC9EFDFEFEECF6F927F928F9261
:104B50009F92AF92BF92CF92DF92EF92FF920F930C
:104B60001F93CF93DF9300D000D0CDB7DEB700976F
:104B700009F47AC04115510509F476C02091370532
:104B800007EF1FEF222309F44DC03A017B015C01BE
:104B900064E070E0CE01019651DE8C01892B09F0B2
:104BA00041C009811A810115110509F45AC0480153
:104BB00086E0880E911CB701680D791D80915B011C
:104BC00090915C0110DD6C01009709F450C0A701C1
:104BD00070E060E00E94212F89819A81AB81BC81C5
:104BE000EC0CFD1CF70181939193A193B1937F018C
:104BF00081E090E087DDB801C70120DE892B31F527
:104C000062E070E0C701800F911F18DE8C01892BD4
:104C1000E9F490E080E076DDF501D182C082F30115
:104C200091828082C8010F900F900F900F90DF91BA
:104C3000CF911F910F91FF90EF90DF90CF90BF9099
:104C4000AF909F908F907F906F90089590E080E05C
:104C500059DDF50111821082F30111821082C60123
:104C600036DB09EF1FEFDECF0FEF1FEFDBCF06EFD5
:104C70001FEFD8CF0097A1F04115510589F02115FC
:104C8000310571F0F90136966E177F0748F0DC01A7
:104C90002D933C93DA01ED93FC9390E080E008952E
:104CA0008FEF9FEF0895AF92BF92CF92DF92EF9276
:104CB000FF920F931F93CF93DF93009709F45FC088
:104CC0004115510509F45BC06530710508F457C002
:104CD00020913705C7EFDFEF222391F1DC01CD9062
:104CE000DC9011971296ED91FC9196012A5F3F4F4F
:104CF000C9EFDFEF2617370719F5C0913805D091B6
:104D00003905209749F521E030E0309339052093AB
:104D100038057A018C01F0933B05E0933A05560182
:104D2000B4E0AB0EB11CB50176DE0A0D1B1DF80117
:104D3000208131818217930729F5D701CD92DC922A
:104D4000CE01DF91CF911F910F91FF90EF90DF90F7
:104D5000CF90BF90AF90089520913A0530913B05D8
:104D60002F5F3F4FCCEFDFEFE217F30790F2CBEF6F
:104D7000DFEF2E173F0768F2D0E0C0E0CACFCFEFD9
:104D8000DFEFDECFC3EFDFEFDBCF84E090E008950D
:104D900082E090E008958CEF9FEF089580E290E02C
:104DA000089510923D0510923C0510923B0510921B
:104DB0003A05109239051092380590E080E0089588
:104DC00090935C0180935B0108958091370588235F
:104DD00091F0C5DD009789F410923D0510923C05D5
:104DE00010923B0510923A05109239051092380541
:104DF00010923705089590E080E00895009749F0FB
:104E00006115710531F0FC0111821082FB011182E4
:104E100010820895F3CF26E030E040E050E16EE0EC
:104E200070E090E080E000C0892B19F48BE495E0FD
:104E300098C608951F920F920FB60F9211242F93C8
:104E40003F934F935F936F937F938F939F93AF9312
:104E5000BF93EF93FF938FE89DEF9093850080932E
:104E60008400B7D0FF91EF91BF91AF919F918F9147
:104E70007F916F915F914F913F912F910F900FBE56
:104E80000F901F9018958FE89DEF90938500809369
:104E90008400AFE6B0E08C918E7F8C93E0E8F0E088
:104EA00080818C7F8083E1E8F0E08081877E808351
:104EB00080818460808380818C7F80838C918160FD
:104EC0008C930895EFE6F0E0808190819E7F90833F
:104ED0008170089581E0089510923E05089568EE6E
:104EE00073E080E090E015D490E080E0089526E043
:104EF00030E040E052EC61E070E090E080E094DF70
:104F00008BE495E064D5892B21F08BE495E079D58D
:104F1000F7CF90E080E00895CF92DF92EF92FF927A
:104F20000F931F93CF93DF936B017A01E9011982ED
:104F300018828BE495E04BD5892B69F18601CC244E
:104F4000C39482E0D82E80913E05811110C08BE47D
:104F500095E057D50297B9F7C0923E05F801D19276
:104F60008F0188819981019699838883ECCF88810C
:104F700099818E159F0578F48BE495E042D58F3F9B
:104F80009807A9F3F80181938F018881998101968F
:104F900099838883ECCF90E080E0DF91CF911F91DF
:104FA0000F91FF90EF90DF90CF9008950F931F9394
:104FB000CF93DF93EA0189018BE495E0B6D6F8013F
:104FC000D183C08390E080E0DF91CF911F910F915A
:104FD000089580913F0591E0980F90933F058823B5
:104FE00049F021E030E03093410520934005809363
:104FF0003F05089578940E94F504F89480913F0548
:105000008150F5CF0F931F93CF93DF931092390602
:1050100010923806B4D3FFDEC0917401D0917501AF
:10502000198218826FEF7FEFCB010E949B0470E022
:1050300060E090E080E00E941C03009709F042C00D
:105040000E945407F8947894BE0162557F4F8A817C
:105050009B810E941F03892B71F46FEF7FEFCB01BF
:105060000E94AE030E949504882329F081E0FE018E
:10507000EC54FF4F8083F89406DF0E949804882345
:1050800011F080E00BC00E9495048111FACF81E0FD
:10509000FE01EC54FF4F90819111F3CF80933806BD
:1050A00078940E942D0F8C017894CC54DF4F80911E
:1050B000380681110CC00E9464080E947A04F8949A
:1050C00090E080E0DF91CF911F910F9108950E94B1
:1050D00078040E9498048823D9F081E080933906EF
:1050E0009091390681E0911180E08093380680919B
:1050F00039068111E7DE0130110529F40E942D0FD8
:10510000892B09F4E9DE0E942D0F8C01E3DECFCF5D
:105110000E9495048111E1CF81E098819111DECF49
:1051200080E0DCCF5058BB27AA270ED05CC14DD100
:1051300030F052D120F031F49F3F11F41EF442C1FF
:105140000EF4E095E7FB0FC1E92F5ED180F3BA17AB
:10515000620773078407950718F071F49EF58DC1F7
:105160000EF4E0950B2EBA2FA02D0B01B901900182
:105170000C01CA01A0011124FF27591B99F0593FC6
:1051800050F4503E68F11A16F040A22F232F342F0E
:105190004427585FF3CF469537952795A795F0405C
:1051A0005395C9F77EF41F16BA0B620B730B840B71
:1051B000BAF09150A1F0FF0FBB1F661F771F881F29
:1051C000C2F70EC0BA0F621F731F841F48F4879581
:1051D00077956795B795F7959E3F08F0B3CF939570
:1051E000880F08F09927EE0F9795879508952ED18F
:1051F00080F09F3740F491110EF440C160E070E000
:1052000080E89FE3089526F01B16611D711D811D26
:10521000B0C0CAC084D008F481E0089504D0689476
:10522000B1112CC10895F8D088F09F5790F0B92F94
:105230009927B751A0F0D1F0660F771F881F991FEB
:105240001AF0BA95C9F712C0B13081F016D1B1E0A9
:10525000089513C1672F782F8827B85F39F0B93FB9
:10526000CCF3869577956795B395D9F73EF49095ED
:105270008095709561957F4F8F4F9F4F0895E8946B
:1052800009C097FB3EF490958095709561957F4F8E
:105290008F4F9F4F9923A9F0F92F96E9BB2793953C
:1052A000F695879577956795B795F111F8CFFAF44C
:1052B000BB0F11F460FF1BC06F5F7F4F8F4F9F4F7D
:1052C00016C0882311F096E911C0772321F09EE8DB
:1052D000872F762F05C0662371F096E8862F70E041
:1052E00060E02AF09A95660F771F881FDAF7880F1B
:1052F0009695879597F90895A9D080F09F3740F447
:1053000091110EF0BBC060E070E080E89FEB089563
:1053100026F41B16611D711D811D2BC045C0990F00
:105320000008550FAA0BE0E8FEEF16161706E8076F
:10533000F907C0F012161306E407F50798F0621B90
:10534000730B840B950B39F40A2661F0232B242B65
:10535000252B21F408950A2609F4A140A6958FEF84
:10536000811D811D089597F99F6780E870E060E0D6
:105370000895882371F4772321F09850872B762F96
:1053800007C0662311F499270DC09051862B70E059
:1053900060E02AF09A95660F771F881FDAF7880F6A
:1053A0009695879597F908959F3F31F0915020F495
:1053B000879577956795B795880F911D96958795F1
:1053C00097F908959FEF80EC089500240A9416162B
:1053D000170618060906089500240A9412161306E3
:1053E000140605060895092E0394000C11F4882371
:1053F00052F0BB0F40F4BF2B11F460FF04C06F5F8D
:105400007F4F8F4F9F4F089557FD9058440F551F62
:1054100059F05F3F71F04795880F97FB991F61F036
:105420009F3F79F087950895121613061406551FAD
:10543000F2CF4695F1DF08C0161617061806991F19
:10544000F1CF86957105610508940895E5DFA0F018
:10545000BEE7B91788F4BB279F3860F41616B11D54
:10546000672F782F8827985FF7CF86957795679570
:10547000B11D93959639C8F30895E894BB27662724
:105480007727CB0197F908954ADF08F48FEF089545
:105490000BD0A9CF9ADF28F09FDF18F0952309F0F1
:1054A00062CF90CF1124EACFAFDFA0F3959FD1F365
:1054B000950F50E0551F629FF001729FBB27F00DC2
:1054C000B11D639FAA27F00DB11DAA1F649F662717
:1054D000B00DA11D661F829F2227B00DA11D621F66
:1054E000739FB00DA11D621F839FA00D611D221F20
:1054F000749F3327A00D611D231F849F600D211D04
:10550000822F762F6A2F11249F5750408AF0E1F0A6
:1055100088234AF0EE0FFF1FBB1F661F771F881FEF
:1055200091505040A9F79E3F510570F01CCFA6CF77
:105530005F3FECF3983EDCF3869577956795B795DA
:10554000F795E7959F5FC1F7FE2B880F911D969504
:10555000879597F9089508958230E8F4E82FF0E0F0
:10556000EE0FFF1FE35AFE4F71836083813041F0DD
:10557000809169008C7F482B40936900E89A0895D8
:1055800080916900837F440F551F440F551F482B9E
:1055900040936900E99A08951F920F920FB60F92F7
:1055A00011242F933F934F935F936F937F938F9328
:1055B0009F93AF93BF93EF93FF93E0915D01F091C1
:1055C0005E010995FF91EF91BF91AF919F918F91EE
:1055D0007F916F915F914F913F912F910F900FBEEF
:1055E0000F901F9018951F920F920FB60F921124D3
:1055F0002F933F934F935F936F937F938F939F93DB
:10560000AF93BF93EF93FF93E0915F01F09160013F
:105610000995FF91EF91BF91AF919F918F917F91EC
:105620006F915F914F913F912F910F900FBE0F900F
:105630001F9018951F920F920FB60F9211242F935F
:105640003F938F939F93AF93BF9380914305909126
:105650004405A0914505B09146053091420523E0EF
:10566000230F2D3758F50196A11DB11D209342053A
:105670008093430590934405A0934505B093460558
:105680008091470590914805A0914905B0914A0540
:105690000196A11DB11D8093470590934805A093E5
:1056A0004905B0934A05BF91AF919F918F913F916A
:1056B0002F910F900FBE0F901F90189526E8230F83
:1056C0000296A11DB11DD2CF3FB7F8948091470536
:1056D00090914805A0914905B0914A0526B5A89B2F
:1056E00005C02F3F19F00196A11DB11D3FBFBA2F74
:1056F000A92F982F8827BC01CD01620F711D811D34
:10570000911D42E0660F771F881F991F4A95D1F7B8
:1057100008958F929F92AF92BF92CF92DF92EF92B5
:10572000FF926B017C01D0DF4B015C01C114D104FD
:10573000E104F104D9F026D3C7DF681979098A0991
:105740009B09683E73408105910580F321E0C21AF0
:10575000D108E108F10888EE880E83E0981EA11CAC
:10576000B11CC114D104E104F10431F7FF90EF90B2
:10577000DF90CF90BF90AF909F908F9008957894D6
:1057800084B5826084BD84B5816084BD85B5826046
:1057900085BD85B5816085BDEEE6F0E080818160E4
:1057A0008083E1E8F0E010828081826080838081E4
:1057B00081608083E0E8F0E0808181608083E1EBBC
:1057C000F0E0808184608083E0EBF0E080818160A4
:1057D0008083EAE7F0E0808184608083808182605A
:1057E0008083808181608083808180688083109243
:1057F000C10008951F93CF93DF93182FEB0161E051
:105800007DD0209731F460E0812FDF91CF911F91FF
:10581000B1C0CF3FD10511F461E0F6CFE12FF0E048
:10582000E859FF4FE491E33031F140F4E130B1F059
:10583000E230E1F0C038D1057CF7E5CFE73029F15F
:10584000E83059F1E430B1F78091800080628093B4
:105850008000D0938B00C0938A0004C084B5806818
:1058600084BDC7BDDF91CF911F91089584B580623B
:1058700084BDC8BDF7CF8091800080688093800090
:10588000D0938900C0938800EDCF8091B0008068EC
:105890008093B000C093B300E5CF8091B0008062E8
:1058A0008093B000C093B400DDCF833081F028F442
:1058B000813099F08230A9F008958730A9F08830BE
:1058C000C9F08430B1F4809180008F7D03C0809155
:1058D00080008F7780938000089584B58F7784BD92
:1058E000089584B58F7DFBCF8091B0008F77809332
:1058F000B00008958091B0008F7DF9CFCF93DF93F2
:1059000090E0FC01E458FF4F249180579F4FFC0129
:1059100084918823C9F090E0880F991FFC01E85416
:10592000FF4FA591B491FC01E255FF4FC591D49171
:1059300061110DC09FB7F8948C91209582238C93B0
:105940008881282328839FBFDF91CF9108956230FB
:1059500051F49FB7F8943C91822F809583238C93C8
:10596000E8812E2BEFCF8FB7F894EC912E2B2C9350
:105970008FBFEACF1F93CF93DF93282F30E0F90139
:10598000E859FF4F8491F901E458FF4FD491F90190
:10599000E057FF4FC491CC23A1F0162F811185DF72
:1059A000EC2FF0E0EE0FFF1FE255FF4FA591B491F1
:1059B0008FB7F894EC91111108C0D095DE23DC93D9
:1059C0008FBFDF91CF911F910895DE2BF8CFFC019F
:1059D000918D228D892F90E0805C9F4F821B9109D1
:1059E0008F7399270895FC01918D828D981731F05E
:1059F000828DE80FF11D858D90E008958FEF9FEF68
:105A00000895FC01918D828D981761F0A28DAE0FE3
:105A1000BF2FB11D5D968C91928D9F5F9F73928F6A
:105A200090E008958FEF9FEF0895FC01538D448D12
:105A3000252F30E0842F90E0821B930B541710F039
:105A4000CF96089501970895FC01A48DA80FB92F52
:105A5000B11DA35ABF4F2C91848D90E001968F7396
:105A60009927848FA689B7892C93A089B1898C91B5
:105A7000837080648C93938D848D981306C0028804
:105A8000F389E02D80818F7D80830895CF93DF930C
:105A9000EC01888D8823B1F0AA89BB89E889F9894E
:105AA0008C9185FD03C0808186FD0CC00FB607FC7C
:105AB000F7CF8C9185FFF2CF808185FFEDCFCE01AE
:105AC000C3DFEACFDF91CF910895EF92FF920F935A
:105AD0001F93CF93DF93EC0181E0888F9B8D8C8D9A
