:1000000070C000000C94772C0C949E2C92C00000C1
:1000100090C000008EC000008CC000008AC00000AC
:1000200088C0000086C0000084C0000082C00000BC
:1000300080C000000C94AA277CC000007AC0000099
:100040000C94C52C76C000000C94BC2F0C94EE2FA1
:1000500070C000006EC000006CC000006AC00000EC
:1000600068C0000066C0000005A84CCDB2D44EB9EF
:100070003836A9020C50B9918688083CA6AAAA2A4B
:10008000BE000000803F00000008000201000003E5
:100090000407000000000000000001020408102016
:1000A000408001020408102001020408102004040A
:1000B0000404040404040202020202020303030310
:1000C00003030000000023002600290000000000B8
:1000D000250028002B0000000000240027002A0033
:1000E000133011241FBECFEFD8E0DEBFCDBF12E02A
:1000F000A0E0B1E0EAEAF1E602C005900D92AE326E
:10010000B107D9F727E0AEE2B2E001C01D92A032FC
:10011000B207E1F710E0C1E7D0E004C02197FE018B
:100120000E94A430C037D107C9F70E9438290C9427
:10013000D33066CFFC01A781B0858C91918589234E
:10014000A481B5819C914081518162817381268116
:10015000922359F081110BC04F5F5F4F6F4F7F4F5C
:10016000408351836283738308958111F5CF415099
:10017000510961097109F4CF8FE292E0DBCF8AE384
:1001800092E0D8CF85E492E0D5CF80E592E0D2CF5F
:10019000FC01A481B5818C9196818923A781B085CA
:1001A0009C9140815181628173812185922359F014
:1001B000882359F04F5F5F4F6F4F7F4F40835183CC
:1001C0006283738308958823A9F34150510961091B
:1001D0007109F4CF8FE292E0DBCF8AE392E0D8CFCF
:1001E00085E492E0D5CF80E592E0D2CF0F931F93C4
:1001F000CF93DF93082F162FEA01A0912E028BE0F8
:10020000A89FD0011124A15DBD4F1D921D921D928A
:100210001C92139781E01A968C931A97802F90E086
:10022000FC01E656FF4FE4911696EC931697FC01FD
:10023000E255FF4FE491F0E0EE0FFF1FEE53FF4F4A
:100240008591949115969C938E931497862F90E0A8
:10025000FC01E656FF4FE4911996EC931997FC01C7
:10026000E255FF4FE491F0E0EE0FFF1FEE53FF4F1A
:100270008591949118969C938E93179760E0802FA8
:100280000E94292E60E0812F0E94292E80912E024B
:10029000813081F1A0F0823009F445C0833009F447
:1002A0005BC080912E0291E0980F90932E0288837C
:1002B00090E080E0DF91CF911F910F91089580E051
:1002C000023021F08FEF033009F481E041E050E08B
:1002D0006CEB70E00E94572C80E0123021F08FEF21
:1002E000133009F481E041E050E06AEE70E00E94D2
:1002F000572CD7CF80E0023021F08FEF033009F484
:1003000081E041E050E06FEB70E00E94572C80E00C
:10031000123021F08FEF133009F481E041E050E01A
:100320006DEE70E0E4CF80E0023021F08FEF03301B
:1003300009F481E041E050E062EC70E00E94572C4B
:1003400080E0123021F08FEF133009F481E041E0BA
:1003500050E060EF70E0CBCF80E0023021F08FEF13
:10036000033009F481E041E050E065EC70E00E9468
:10037000572C80E0123021F08FEF133009F481E028
:1003800041E050E063EF70E0B2CF9BE0899FF00165
:100390001124E15DFD4F80819181A281B381FB0138
:1003A00080839183A283B38390E080E008959BE0F3
:1003B000899FF0011124E15DFD4F108211821282AC
:1003C000138290E080E0089590E080E00895CF925D
:1003D000DF92EF92FF92CF93882351F16A017B0164
:1003E000CFEFC80F20E030E0A901CB01B6010E9499
:1003F000402A18168CF0C701B60190580E94492A6D
:100400009B01AC016C2F70E090E080E0CF91FF90F9
:10041000EF90DF90CF90B2C0C701B6010E94442A8E
:100420008C2FCF91FF90EF90DF90CF900C94A52D63
:10043000CF91FF90EF90DF90CF9008950F931F938F
:100440008B019C0183E036952795179507958A9532
:10045000D1F7055A1D4F462F477021E030E0F901D2
:1004600002C0EE0FFF1F4A95E2F7AF01F8012081AD
:100470002423CB010196211102C090E080E01F915E
:100480000F9108950F931F938B019C0183E0369584
:100490002795179507958A95D1F7677081E090E0C9
:1004A00001C0880F6A95EAF7F801E55AFD4F2081EF
:1004B000452B31F48095822380831F910F910895FD
:1004C000822BFACF2F923F924F925F926F927F9240
:1004D0008F929F92AF92BF92CF92DF92EF92FF9254
:1004E0000F931F93CF93DF93D62EC72E782E692EAE
:1004F00049015A01280161E08D2D0E94292ECD2D40
:10050000DC2D8E010F5F1F4FA8016D2D7C2D872DD7
:10051000962DB8DF20E030E0A901C201B7010E94AA
:100520007A2B181664F4C201B7010E94492A2B01E4
:10053000C501B4010E94492AA201CE0123D0C801FD
:10054000DF91CF911F910F91FF90EF90DF90CF90AF
:10055000BF90AF909F908F907F906F905F904F90E3
:100560003F902F900895882341F08150682F70E0CC
:1005700090E080E050E040E085CF0895862FB901FB
:100580000C94A52D9C01FC01EA57FF4FE491E33048
:1005900061F140F4E13011F1E23021F160E0822FAD
:1005A0000C94652EE730C1F1E83009F441C0E43025
:1005B000A9F7809180008C7F826080938000909169
:1005C0008100907E9061692B609381005093870039
:1005D000409386008091800080621BC084B5806853
:1005E00084BDDCCF84B58062FBCF809180008C7F9E
:1005F00082608093800090918100907E9061692B51
:100600006093810050938700409386008091800022
:10061000806880938000C2CF8091B0008068809312
:10062000B0008091B100887F682B6093B100B6CF95
:100630008091B0008062F3CF611102C00C94292E2A
:100640006130E1F362E0FACF662319F061E00C94C7
:10065000652E60E0FCCF90E080E008950F931F933B
:10066000009709F48CC06115710509F488C00091E8
:100670005C0110915D0120915E0130915F010E3FA0
:100680001F4F2F4F3F4F09F06BC04FEF5FEFBA0185
:1006900040935C0150935D0160935E0170935F0134
:1006A00040915C0150915D0160915E0170915F012C
:1006B000DC011296ED91FC9180819181A281B38140
:1006C00080937F0390938003A0938103B093820370
:1006D00084819581A681B78180937B0390937C036D
:1006E000A0937D03B0937E0380859185A285B38519
:1006F0008093770390937803A0937903B0937A0360
:1007000084859585A685B78580937303909374033C
:10071000A0937503B093760310926F031092700349
:1007200010927103109272030E94CA0B8FEE9BE02D
:1007300090936502809364029093670280936602AF
:10074000909369028093680214D7009731F421E0F6
:1007500030E030938403209383031F910F91089519
:1007600000915C0110915D0120915E0130915F016B
:10077000DB010D931D932D933C93139791CF8FEF36
:100780009FEFEBCF8F929F92AF92BF92CF92DF926B
:10079000EF92FF921F93CF93DF934B015C01109177
:1007A000860382E090E09093840380938303811416
:1007B0009104A104B10441F480918603811104C025
:1007C00080918503C1E08111C0E0C12CD12C76015C
:1007D00080918603811106C080918503811102C03A
:1007E000CC23D9F083E090E090938403809383033B
:1007F000CC2379F1CCE9DFEF111102C00E94540F34
:10080000CE01DF91CF911F91FF90EF90DF90CF90BD
:10081000BF90AF909F908F9008956AE070E080E065
:1008200090E00E94342D80E1C80E87E2D81EE11CC2
:10083000F11C8FEF88169806A806B80631F0C1E0C3
:100840008C149D04AE04BF0408F0C0E080E0C5D65F
:10085000BFCFD0E0C0E0D0CFCF92DF92EF92FF9237
:100860000F931F93CF93DF938F3F910511F008F003
:1008700050C020918303309184032330310539F037
:1008800020918303309184032130310531F424E039
:1008900030E030938403209383036A017B01EC01F1
:1008A00083309105A0F011E0AE01C701B60160D61A
:1008B000AB01BC01CE011123F9F0DF91CF911F9163
:1008C0000F91FF90EF90DF90CF900C947D118C01F1
:1008D000000F111F0C591D4FD8018D919C91892B30
:1008E00011F30E9487110297F1F6D801ED91FC9166
:1008F000CE010995182FD8CF0E949F1190E080E07B
:10090000DF91CF911F910F91FF90EF90DF90CF90EB
:1009100008958FEF9FEFF4CF80E05FC6CF93DF9312
:1009200086E090E09093840380938303AFD6EC013C
:10093000E4E6F2E086E0DF011D928A95E9F70E9485
:10094000EC0E1092840310928303CE01DF91CF91BD
:10095000089580918503089580916E0308956093B2
:100960005C0170935D0180935E0190935F0190E064
:1009700080E00895FC0191E080913C03811190E0BA
:1009800092830895CF92DF92EF92FF926B017C01E8
:100990009F7720E030E040E859E50E94402A87FF39
:1009A0002BC020E030E040E05FE3C701B6010E94C9
:1009B0007A2B87FD0EC020E030E040E05FE3C70106
:1009C000B6010E94C929FF90EF90DF90CF900C9460
:1009D000B22A20E030E040E05FEBC701B6010E94A0
:1009E0007A2B181684F420E030E0A901C701B60183
:1009F0000E947E2B6B017C01C701B601FF90EF9036
:100A0000DF90CF90089520E030E040E05FE3C70141
:100A1000B6010E94C829FF90EF90DF90CF900C9410
:100A20002D2A4F925F926F927F928F929F92AF92F8
:100A3000BF92CF92DF92EF92FF92CF93DF9380919C
:100A40003C038F5F823008F0E6C080933C03C09087
:100A5000CC06D090CD06E090CE06F090CF06C092A6
:100A6000C406D092C506E092C606F092C706C091B1
:100A70004403D0914503288139814A815B8160918B
:100A800034017091350180913601909137010E94B7
:100A90007E2B209138013091390140913A015091DB
:100AA0003B010E94C9290E94E12B20912C01309129
:100AB0002D0140912E0150912F010E947E2B2091FB
:100AC00030013091310140913201509133010E9447
:100AD000C929A70196010E94C8296093C80670938E
:100AE000C9068093CA069093CB06C0901E03D0908F
:100AF0001F03E0902003F09021038FEFC81AD80A5B
:100B0000E80AF80AC0921E03D0921F03E092200365
:100B1000F0922103C114D104E104F10499F480910D
:100B2000220390912303A0912403B0912503019601
:100B3000A11DB11D8093220390932303A09324034E
:100B4000B09325038090260390902703A09028035C
:100B5000B0902903609122037091230380912403B4
:100B6000909125030E94752AA50194010E947E2B75
:100B700020E030E040E85FE40E947E2B2B013C0146
:100B8000C701B6010E94752AA50194010E947E2B1F
:100B90009B01AC01C301B2010E94C929688379831A
:100BA0008A839B8380912A0390912B03A0912C032D
:100BB000B0912D030196A11DB11D80932A0390933E
:100BC0002B03A0932C03B0932D03892B8A2B8B2B03
:100BD00099F480912E0390912F03A0913003B0914E
:100BE00031030196A11DB11D80932E0390932F0315
:100BF000A0933003B0933103DF91CF91FF90EF903A
:100C0000DF90CF90BF90AF909F908F907F906F902C
:100C10005F904F90089510923C0319CF4F925F92CE
:100C20006F927F928F929F92AF92BF92CF92DF92FC
:100C3000EF92FF92CF93DF93CDB7DEB728970FB631
:100C4000F894DEBF0FBECDBFC090C806D090C906D5
:100C5000E090CA06F090CB0620910001309101018E
:100C60004091020150910301C701B6010E947E2B01
:100C70002091F8063091F9064091FA065091FB0652
:100C80000E94C82920911001309111014091120158
:100C9000509113010E947E2B4B015C0120911401A5
:100CA000309115014091160150911701C701B6010D
:100CB0000E947E2B2091F4063091F5064091F606B5
:100CC0005091F7060E94C929A50194010E94C929E3
:100CD00020914401309145014091460150914701D6
:100CE0000E947E2B6B017C0140904801509049018D
:100CF00060904A0170904B019B01AC01C301B201AD
:100D00000E94402A87FD12C040904C0150904D0136
:100D100060904E0170904F019601A701C301B2018E
:100D20000E947A2B181614F026013701A3019201B4
:100D30006091500170915101809152019091530145
:100D40000E94402A87FF46C160911C0170911D01DD
:100D500080911E0190911F0120912001309121016D
:100D600040912201509123012D833E834F83588768
:100D700009DE6B017C0120E030E040E853E40E9492
:100D8000402A6FEF87FF0EC020E030E0A901C701C5
:100D9000B6010E947A2B60E087FD04C0C701B6014E
:100DA0000E94492A87E050DC6D817E818F81988581
:100DB000E9DD6B017C0120E030E040E853E40E9473
:100DC000402A6FEF87FF0EC020E030E0A901C70185
:100DD000B6010E947A2B60E087FD04C0C701B6010E
:100DE0000E94492A88E030DC66E070E080E090E014
:100DF00025DB7C019093E3068093E206E89477F884
:100E000020E030E04FE753E4C301B2010E94402AE2
:100E1000181634F4412C512C8FE7682E83E4782E79
:100E2000B301A201C701D3DAC0901801D090190113
:100E3000E0901A01F0901B01A70196016091D7067E
:100E40007091D8068091D9069091DA060E94402AC6
:100E5000882341F0C092D706D092D806E092D906F6
:100E6000F092DA068091D60681111092D606BE0164
:100E70006F5F7F4F8091DB0688DA69817A818B8191
:100E80009C810E94772A2091540130915501409114
:100E90005601509157010E947E2B209158013091AC
:100EA000590140915A0150915B010E947E2B609341
:100EB000CC067093CD068093CE069093CF062091FA
:100EC000C8063091C9064091CA065091CB06609180
:100ED00004017091050180910601909107010E9423
:100EE0007E2B20913C0130913D0140913E0150917B
:100EF0003F010E947E2B2091F4063091F50640912F
:100F0000F6065091F7060E94C9296093F406709383
:100F1000F5068093F6069093F706209140013091F4
:100F200041014091420150914301C501B4010E9429
:100F30007E2B2091F8063091F9064091FA065091E7
:100F4000FB060E94C9296093F8067093F906809306
:100F5000FA069093FB068091320390913303A0919F
:100F60003403B09135030196A11DB11D8093320366
:100F700090933303A0933403B0933503892B8A2BCA
:100F80008B2B99F48091360390913703A09138030D
:100F9000B09139030196A11DB11D80933603909342
:100FA0003703A0933803B093390328960FB6F8940B
:100FB000DEBF0FBECDBFDF91CF91FF90EF90DF90EE
:100FC000CF90BF90AF909F908F907F906F905F90E9
:100FD0004F90089560912401709125018091260120
:100FE00090912701209128013091290140912A01F7
:100FF00050912B01B9CE8F929F92AF92BF92DF9208
:10100000EF92FF920F931F93CF93DF9384E090E0D2
:1010100076D1E4E8F2E08EECDF011D928A95E9F7E3
:1010200081E493E097838683C4E4D3E0D093C50240
:10103000C093C40206E213E0158B048BF093EF0219
:10104000E093EE02F583E48321E030E0DC012D93B0
:101050003C9389E891E09387828726E433E03983E3
:10106000288340E050E060E87FEB40933D035093DD
:101070003E0360933F03709340034AE057ED63EAF9
:101080007BE3D8014D935D936D937C931397CCE0F4
:10109000D3E08CE197EAAEE8B0ED88839983AA8328
:1010A000BB838EE79DE9AAE9B8EF80931003909384
:1010B0001103A0931203B093130380E49CE7A0E70D
:1010C000B8E68093140390931503A0931603B0938E
:1010D00017038CE59DE9A4ECB3E280931803909389
:1010E0001903A0931A03B0931B03A8E7B2E0B383DC
:1010F000A283EAE6F2E01196FC93EE938BE991E08D
:10110000918380839383828395838483978386836B
:101110009187808793878287958784878CE193E086
:1011200015969C938E9314971396DC93CE931297F7
:1011300017963C932E931697E4ECF6E08CE0DF01D3
:101140001D928A95E9F7C0EDD6E086E3FE01119283
:101150008A95E9F7DD24D394DBAA812C912C5401E4
:1011600083948D8E9E8EAF8EB8A261E087E064DAA4
:10117000D9A21C8ADAAA8D8A9E8AAF8AB88E61E0CB
:1011800088E05ADAD98E1C86DCAA8D869E86AF86C8
:10119000B88AE12CF12C8701A801970166E070E084
:1011A00080E090E08FD99B8B8A8BD98A1B8618822E
:1011B000DDAA00E011E0F801808D918DA28DB38D44
:1011C0008F839887A987BA8789829A82AB82BC82EB
:1011D0004BED56E063E082E009D8DD821E82F80123
:1011E00084859585A685B7858CA39DA3AEA3BFA353
:1011F00080859185A285B38588A799A7AAA7BBA753
:101200008B85DF91CF911F910F91FF90EF90DF9031
:10121000BF90AF909F908F90CAC88091EC068111CB
:1012200003C081E08093EC068091E406811103C045
:1012300081E08093E4068091DC0681112AC081E080
:101240008093DC068091DD069091DE06A091DF069A
:10125000B091E0060197A105B105D9F48091E106AE
:101260008823B9F066E070E080E090E0E7D89093E2
:10127000E3068093E20640E050E0BA01A8D866E0B9
:1012800070E080E090E0DAD89093E3068093E20685
:101290006AD98091D006811113C081E08093D00675
:1012A0008091D1069091D206A091D306B091D40638
:1012B0000197A105B10521F48091D506811184C85B
:1012C000089560E070E080E89FE7089560E070E0D6
:1012D00080E89FE7089560E070E080E89FEF089560
:1012E00060E070E080E89FEF089560E070E080ECDF
:1012F0009FEF089560E070E080EC9FEF0895F5DFC8
:101300006093120770931307809314079093150747
:10131000F1DF6093060770930707809308079093A7
:101320000907CFDF60930E0770930F0780931007B4
:1013300090931107CBDF60930A0770930B0780939C
:101340000C0790930D07C7DF60931607709317077C
:101350008093180790931907C3DF60931A0770935F
:101360001B0780931C0790931D0708954F925F926F
:101370006F927F928F929F92AF92BF92CF92DF92A5
:10138000EF92FF920F931F93F89440905E0350905A
:101390005F036090600370906103C0905203D0902F
:1013A0005303E0905403F09055034130510509F088
:1013B000A4C09B01AC01241935094609570929012C
:1013C0003A0100915A0310915B0320915C03309124
:1013D0005D0348015901840C951CA61CB71C80169E
:1013E0009106A206B306A0F400915603109157038C
:1013F00020915803309159030F5F1F4F2F4F3F4FDC
:1014000000935603109357032093580330935903C6
:1014100080925A0390925B03A0925C03B0925D03AA
:1014200000915603109157032091580330915903AE
:101430008092620390926303A0926403B09265036A
:101440000093660310936703209368033093690346
:1014500060935E0370935F038093600390936103D6
:10146000A8E8B3E1A30192010E94AA306C0D7D1D92
:101470008E1D9F1D609352037093530380935403FA
:101480009093550300915C0110915D0120915E01E4
:1014900030915F010F3F1F4F2F4F3F4FF1F00091F1
:1014A0005C0110915D0120915E0130915F010E3F62
:1014B0001F4F2F4F3F4F89F0C0905C01D0905D01CE
:1014C000E0905E01F0905F0121E08C149D04AE0479
:1014D000BF0408F420E020936E0378941F910F91CD
:1014E000FF90EF90DF90CF90BF90AF909F908F9044
:1014F0007F906F905F904F9008954B015C0184182E
:101500009508A608B708A3019201261B370B480BC4
:10151000590B6415750586059705D0F0821693065C
:10152000A406B50640F420E030E0A901811491043E
:10153000A104B10491F4A8E8B3E10E94AA30A70184
:101540009601261B370B480B590BCA01B901C5CFB1
:1015500082169306A406B50670F7A8E8B3E1A501C4
:1015600094010E94AA306C0D7D1D8E1D9F1DB5CF6C
:10157000FDCECF93DF9300D000D0CDB7DEB71C8275
:101580001B821A82198210926A0310926B031092C6
:101590006C0310926D03BE016F5F7F4FCE01039607
:1015A0000E948E2769817A818B819C810E94B12063
:1015B000009761F4BE016F5F7F4FCE0103960E94DA
:1015C0009A2769817A818B819C812DD50F900F900C
:1015D0000F900F90DF91CF910895FF920F931F937B
:1015E000CF93DF93082F60E070E0CB010E94342D91
:1015F000FF24F3940E949C1FEC01892B89F010E0DA
:10160000CE3F8FEFD80769F0002361F160E070E012
:10161000CB010E94342D81E090E0892B59F322C048
:1016200011E024D5EC01892B21F0CE3F8FEFD807B4
:1016300059F711111EC011E0229609F410E00E9422
:101640004D1FEC01892B21F0CE3F8FEFD807E1F63B
:10165000111111C011E0CE3F8FEFD80709F410E04F
:1016600001110BC0CE01DF91CF911F910F91FF901F
:10167000089511E0E4CF11E0F3CF60E070E0CB011A
:101680000E94342D1F25812F90E0C7CFCF93DF9389
:1016900080916E03882321F060E070E0CB014DD68D
:1016A00036D6D0E0C0E0892B71F06AE070E080E0CF
:1016B00090E00E94342D81E090DF29D62196C03D34
:1016C00027E0D20781F728D60E94052110928603D1
:1016D0001092850310927F03109280031092810371
:1016E0001092820310927B0310927C0310927D0370
:1016F00010927E0310927703109278031092790370
:1017000010927A031092730310927403109275036F
:101710001092760310926F0310927003109271036F
:10172000109272034EEF5FEF6FEF7FEF40935C011B
:1017300050935D0160935E0170935F0110926E03A0
:10174000E2E6F3E028E0DF011D922A95E9F7109226
:101750005E0310925F031092600310926103109277
:101760005A0310925B0310925C0310925D03109277
:101770005603109257031092580310925903109277
:101780005203109253031092540310925503DF91A9
:10179000CF910895109292031092930310929403A4
:1017A000109295031092910380919A0390919B035C
:1017B0009093900380938F0310928E0310928D0369
:1017C0001092890310928A0310928B0310928C035B
:1017D000109297031092960390E080E00895CF92C4
:1017E000DF92EF92FF920F931F93CF938C0101979B
:1017F00009F055C020919A0330919B0380918F038B
:101800009091900340919A0350919B0350939003C1
:1018100040938F032817390781F010928E0310929E
:101820008D031092890310928A0310928B031092F9
:101830008C03109297031092960380919A039091D3
:101840009B03019761F58091960390919703892BF3
:1018500021F480916001811112C0809196039091D2
:1018600097030197E1F48091890390918A03A091F5
:101870008B03B0918C030197A105B10581F41092FF
:10188000890310928A0310928B0310928C0310929A
:10189000600182E090E0909397038093960380919B
:1018A0009A0390919B03019709F01CC18091B003AA
:1018B0009091B1038017910709F014C18091AC0396
:1018C0009091AD03A091AE03B091AF03009709F4DE
:1018D00009C12091AB0321110DC04091AC0350917F
:1018E000AD036091AE037091AF03452B462B472BA0
:1018F00009F4F8C020919603309197032230310506
:1019000009F0F0C020918D032111ECC0FC01C080D2
:10191000D180E280F38080919103882309F4D3C0C1
:1019200080919D0390919E03892B09F4FEC0209124
:101930009D0330919E0381E02230310509F080E063
:1019400020919D0330919E03C1E02130310549F083
:1019500020919D0330919E03C1E02230310509F0B2
:10196000C0E0882309F456C02091A7033091A80352
:101970004091A9035091AA03C701B6010E947A2B96
:1019800087FD14C02091A7033091A8034091A903BB
:101990005091AA03609192037091930380919403F4
:1019A000909195030E94402A87FD22C02091A703B1
:1019B0003091A8034091A9035091AA03C701B60131
:1019C0000E947A2B181634F52091A7033091A803B2
:1019D0004091A9035091AA036091920370919303DF
:1019E00080919403909195030E94402A811112C026
:1019F00080919F039091A003A091A103B091A203B5
:101A0000892B8A2B8B2B19F481E080938E0381E044
:101A100080938D03CC2309F456C02091A703309105
:101A2000A8034091A9035091AA03C701B6010E94DF
:101A3000402A87FF14C02091A7033091A80340914A
:101A4000A9035091AA03609192037091930380912E
:101A50009403909195030E947A2B87FF22C02091D6
:101A6000A7033091A8034091A9035091AA03C7018D
:101A7000B6010E94402A811126C02091A70330910F
:101A8000A8034091A9035091AA0360919203709119
:101A9000930380919403909195030E947A2B1816DA
:101AA00094F480919F039091A003A091A103B09121
:101AB000A203892B8A2B8B2B19F481E080938E0350
:101AC00081E080938D0381E090918D03911180E0FE
:101AD00080939103C0929203D0929303E092940377
:101AE000F09295030130110509F067C180919603CA
:101AF00090919703892BD9F410929C0310928D0337
:101B000080916001882379F082E090E090939703C0
:101B1000809396031092600120919A0330919B0369
:101B200081E0232BE9F080E01BC081E009CF109217
:101B3000600180919C03882349F010928E031092DB
:101B400097031092960310929C03EDCF80919A0315
:101B500090919B03892BE1F080918D0310928D036E
:101B600020919603309197032230310509F45EC02D
:101B700088F42115310509F448C02130310509F4F4
:101B8000F3C010928E0310928D0310929C0338C004
:101B900081E0E6CF2330310509F4B1C024303105AE
:101BA00081F74091890350918A0360918B03709172
:101BB0008C03411551056105710561F041505109D2
:101BC000610971094093890350938A0360938B03E1
:101BD00070938C034091890350918A0360918B0329
:101BE00070918C03452B462B472BD9F420919803F9
:101BF000309199032130310509F046C010928E03CF
:101C000010929703109296030CC080916001882374
:101C100041F082E090E090939703809396031092B6
:101C200060011092870380918E03CEC08823C9F390
:101C300080919F039091A003A091A103B091A20372
:101C4000181619061A061B060CF07DC080919A031F
:101C500090919B03019709F076C080919F0390912A
:101C6000A003A091A103B091A20380938903909354
:101C70008A03A0938B03B0938C0383E090E090934E
:101C8000970380939603CDCF4091A3035091A40373
:101C90006091A5037091A603452B462B472BA9F015
:101CA00010928E038091A3039091A403A091A503A9
:101CB000B091A6038093890390938A03A0938B032A
:101CC000B0938C0381E090E0DACF882399F0809183
:101CD000610190916201A0916301B09164018093D0
:101CE000890390938A03A0938B03B0938C0384E0C1
:101CF00090E0C5CF10928E0382E090E0C0CF80913B
:101D0000890390918A03A0918B03B0918C03009773
:101D1000A105B10559F00197A109B1098093890383
:101D200090938A03A0938B03B0938C0380918903D3
:101D300090918A03A0918B03B0918C03892B8A2BFD
:101D40008B2B09F06ECF8091610190916201A0917F
:101D50006301B0916401892B8A2B8B2B09F44ECF40
:101D600081E080938E03B3CF4091890350918A0321
:101D700060918B0370918C034115510561057105CC
:101D800061F04150510961097109409389035093F1
:101D90008A0360938B0370938C0340918903509165
:101DA0008A0360918B0370918C03452B462B472B44
:101DB00009F037CF8111C7CF9FCF80918703882348
:101DC00009F431CF80918803CF911F910F91FF903B
:101DD000EF90DF90CF9008951092920310929303AA
:101DE000109294031092950310929103109297030E
:101DF000109296031092900310928F031092B103E9
:101E00001092B00310928E0310928D0310928903EA
:101E100010928A0310928B0310928C031092880305
:101E2000109287031092AC031092AD031092AE0390
:101E30001092AF031092AB031092A7031092A80365
:101E40001092A9031092AA0388EE93E0A0E0B0E0FC
:101E50008093610190936201A0936301B093640148
:101E60001092A3031092A4031092A5031092A6034C
:101E700010929F031092A0031092A1031092A2034C
:101E800010929E0310929D0381E080936001109256
:101E90009C0310929B0310929A0310929903109244
:101EA000980390E080E0089580919A0390919B03BD
:101EB000892B19F580916001882351F080919C0352
:101EC000811106C081E08093880380938703089581
:101ED00020919C033091600181E090E0332311F068
:101EE00090E080E030E082239323892B21F0109250
:101EF000880381E0EACF10928703089582E090E0A2
:101F0000FA01918380838FEF9FEF0895CF93DF9342
:101F1000EA01009711F00E941F221982188290E0B6
:101F200080E0DF91CF910895DB01009719F48FEFE6
:101F30008C9308952EEF2C930F968F30910508F017
:101F400033C0FC01EA55F04F0C94A430D20FD00FEF
:101F5000CE0FCC0FCA0FC60FC80FC40FC20FC00FD1
:101F6000BD0FB90FB50FBB0FD40F80E311968C9343
:101F7000089589E2FBCF82E2F9CF11961C92089571
:101F800083E2F4CF81E2F2CF81E1F0CF87E2EECFBE
:101F90008AE2ECCF80E1EACF84E2E8CF88E2E6CFC4
:101FA00086E2E4CF81E3E2CF80E2E0CF8091BE031E
:101FB0009091BF0308959093BF038093BE0308954B
:101FC0008091BD0308959091BD03892B8093BD033B
:101FD0000895982F90958091BD0389238093BD0328
:101FE00008958091BC0308958091BA039091BB033A
:101FF00008956115710559F0FB0130E020E070E0B3
:1020000060E02417350719F06115710511F0CB0157
:102010000895A081B181A817B90709F4BF012F5F06
:102020003F4F3696EECF8091C00381111CC062D223
:1020300068D29093B3038093B2030E94251A0E9442
:10204000371A9093B7038093B6030E94B71E0E947D
:10205000BE1E9093B5038093B40381E08093C003C8
:1020600090E080E0089584EF9FEF08958F929F9213
:10207000AF92BF92CF92DF92EF92FF920F931F9396
:10208000CF93DF93CDB7DEB72A970FB6F894DEBFB4
:102090000FBECDBF1A86198618861F821E821D822A
:1020A0001C821B821A8219828091C00307EF1FEFE6
:1020B000882309F49CC08E010D5F1F4F9E012B5F8A
:1020C0003F4FAE01495F5F4FBE01675F7F4F90E0BA
:1020D00080E00E9437208C01009721F0059602973E
:1020E00008F0DBC029853A852115310509F402C1C4
:1020F000ED80FE804B815C81B701640F751F8F817D
:1021000098858617970708F4F5C0E20EF31ED701ED
:102110009C91903C09F07FC04230510508F47BC08F
:1021200011968C914091BE035091BF03452B09F449
:102130009CC0913F08F071C02CE1290F2D3008F4AC
:102140008BC02DE2290F203108F489C0903C21F486
:102150008150823008F483C088E3890F8B3008F403
:1021600081C094E9C92E9FE0D92EEEE7FFE06D8192
:102170007E81AE014F5F5F4F89859A8509955C012D
:10218000C114D104A1F189809A808114910479F15C
:102190008B819C818815990508F487C010E000E0C8
:1021A0004B815C8170E060E0C7010E94CC3001157A
:1021B0001105E9F449815A8169857A858D819E816D
:1021C000680F791FC501F6010995E980FA800D8134
:1021D0001E812F81388549855A856FEF7FEF81E019
:1021E00090E00E94D31F8C01892B09F056C0C801D2
:1021F0002A960FB6F894DEBF0FBECDBFDF91CF9108
:102200001F910F91FF90EF90DF90CF90BF90AF9014
:102210009F908F90089580E085CF30E020E0220FDE
:10222000331FF901EE54FC4F0190F081E02D3097FF
:1022300009F497CF892F90E00995009709F491CF81
:10224000DC011296ED91FC9113971496CD90DC90E1
:10225000309709F08CCF1FC021E030E0E0CF22E0C2
:1022600030E0DDCF23E030E0DACFD12CC12CE6E83E
:10227000FFE09F3F09F07BCFE091B203F091B30301
:10228000309721F4C90104EF1FEF0CC08FEF90E0ED
:1022900009950097A9F604EF1FEF89859A850097A5
:1022A00009F4A5CF0E941F22A2CF0E9400218C0119
:1022B00089859A850E941F2270E060E0C4010E9417
:1022C000992098878F830E94D01F9E838D836F8172
:1022D00078856115710559F0C8010E947E239A879F
:1022E000898706EF1FEF892B09F058CF59CF08EFE8
:1022F0001FEF56CF08EF1FEFD0CF2091C00322234E
:1023000019F020E00C943C1A87EF9FEF089580911C
:10231000BE039091BF0308950E94C31E0E941D1E1C
:10232000F5D0E2EBF3E088E0DF011D928A95E9F752
:102330001092C00390E080E008950C94791C21E095
:1023400040E050E0BA010C943C1A86E090E0FA01BB
:102350009183808390E080E0089547E050E06EE94B
:1023600071E047CEDF92EF92FF920F931F93CF93CE
:10237000DF938A01EC01C60FD71FE090C403F090F1
:10238000C503D9800E94E820D816190678F082E0AB
:1023900090E0F801918380838EEF9FEFDF91CF91E2
:1023A0001F910F91FF90EF90DF900895EF2841F477
:1023B00082E090E0F8019183808384EF9FEFEECF7D
:1023C00089818093C30390E00196F8019183808313
:1023D00090E080E0E3CFCF93DF93EA010E942A1DD3
:1023E000882321F00E94F5200E942B1D82E090E0BE
:1023F000998388838BEF9FEFDF91CF910895CF93DF
:10240000DF93EB0186E0FB0111928A95E9F78FEFEC
:102410008883D6DD8983E5DD8A83E6DD9D838C8331
:10242000DF91CF910895CF93DF93EA010E942D1D94
:10243000811109C082E090E09983888385EF9FEF46
:10244000DF91CF91089590E080E0B5DD81E090E0EC
:102450009983888390E080E0F3CF0F931F93CF930D
:10246000DF93EA018C01060F171F0E942D1D8111B9
:102470000BC082E090E09983888385EF9FEFDF9126
:10248000CF911F910F910895F8018181823038F02A
:1024900082E090E0998388838EEF9FEFF0CF81E018
:1024A00090E089DD88E090E09983888390E080E087
:1024B000E6CFCF93DF930097D1F4EB01FB01329687
:1024C00086E0DF011D928A95E9F78FEF888385E02A
:1024D00089831A820E94E8208B830E94E7209D83D3
:1024E0008C8381E08E838F83DF91CF910895DF917C
:1024F000CF911ACD8DEA91E19093C2038093C103ED
:1025000008958091C1039091C20308951092C2036F
:102510001092C10308958091C4039091C50308955A
:10252000411105C0611571058105910561F0609348
:10253000C4037093C5038093C6039093C70340936D
:10254000C80381E0089580E00895FF920F931F93E0
:10255000CF93DF938A01EC01C60FD71FF9800E9449
:10256000E820F816190668F082E090E0F8019183FF
:1025700080838EEF9FEFDF91CF911F910F91FF909E
:1025800008956C817D818E819F814B81C9DF81118E
:1025900008C082E090E0F8019183808384EF9FEF90
:1025A000EACF89818093C30390E00196F80191837B
:1025B000808390E080E0DFCFCF93DF93EA01FC01DE
:1025C000E60FF71F64817581868197814381A8DFBB
:1025D000811109C082E090E09983888384EF9FEFA6
:1025E000DF91CF91089581E090E09983888390E016
:1025F00080E0F6CFE4ECF3E04081518162817381A9
:10260000480F511D611D711D408351836283738387
:102610000895CF93C091C3034C2F50E06091C40341
:102620007091C50301960E94C3308C2FE3DF109296
:10263000C303CF910895009799F48091C4039091BA
:10264000C5032FEFFB012083892B59F02091C30391
:1026500030E02F5F3F4F2417350719F4CB01D9CF56
:1026600063CC0895009799F48091C4039091C503B9
:102670002FEFFB012083892B59F02091C30330E019
:102680002F5F3F4F2417350719F4CB01C2CF4CCC35
:10269000089523E1AC01249FC001259F900D1124D2
:1026A000E091CD03F091CE03E80FF91F238134812F
:1026B0002250310981E02230310508F080E0089590
:1026C0000F931F93CF93DF930091CF031091D0030B
:1026D000D0E0C0E080E00C171D0749F491E08111C3
:1026E00090E0892FDF91CF911F910F910895811173
:1026F000F5CFCE01CEDF2196EECFA091CD03B091E4
:10270000CE03109729F12091CF033091D003821787
:102710009307F0F453E1589F9001599F300D112415
:10272000A20FB31FED91FC911197309789F012968B
:102730008C91681768F48DE0689FE00DF11D1124FD
:1027400080819181892B21F081E09281491708F0E5
:1027500080E008959C0143E1429FC001439F900D9A
:102760001124E091CD03F091CE03E80FF91F83858A
:10277000823099F481E090E0658176814091650135
:10278000509166016417750711F490E080E0892B81
:1027900021F081E02230310508F080E00895FC014D
:1027A000A081B1818DE0689FA00DB11D1124139609
:1027B0004D915C9185859685489F9001499F300D8C
:1027C000589F300D1124C9010196611103C0478142
:1027D00044FD04960895EF92FF920F931F93CF93B9
:1027E000DF93EA01FC01E60FF71F02811381E48009
:1027F000F5804F2D6E2DC80180DF81110DC082E064
:1028000090E0998388838EEF9FEFDF91CF911F91A6
:102810000F91FF90EF900895C8013BDF882339F0B6
:1028200082E090E09983888388EF9FEFEECF10934A
:102830006C0100936B01E0926D01F0926E0181E0FA
:1028400090E09983888390E080E0DFCFCF92DF92A1
:10285000EF92FF920F931F93CF93DF937A01EC01D6
:10286000C60FD71FC0906B01D0906C0100916D0115
:1028700010916E01412F602FC6013FDF811110C002
:1028800082E090E0F701918380838AEF9FEFDF91F0
:10289000CF911F910F91FF90EF90DF90CF9008950F
:1028A000C601F7DE882341F082E090E0F7019183D2
:1028B000808388EF9FEFEBCF4C815D816E817F81BC
:1028C0009A8189818F3F41F082E090E0F701918306
:1028D00080838EEF9FEFDBCFE3E1EC9D9001ED9DD8
:1028E000300D1124E091CD03F091CE03E20FF31FE0
:1028F0000190F081E02D2DE0029FE00DF11D1124EB
:102900000190F081E02D27E0129FE00DF11D1124D0
:10291000808391838B818283438354836583768311
:102920001F5F10936E0181E090E0F7019183808337
:1029300090E080E0ACCFEF92FF920F931F93CF9384
:10294000DF937A018C01060F171FC091CD03D09140
:10295000CE03209781F021E030E0F801828193815D
:102960004091CF035091D0038417950710F030E0C9
:1029700020E0232B71F482E090E0F70191838083C3
:102980008EEF9FEFDF91CF911F910F91FF90EF900E
:10299000089543E1489F9001499F300D1124C20FD3
:1029A000D31F77DE882341F082E090E0F701918326
:1029B000808388EF9FEFE6CFF801248135812038AE
:1029C0003105C8F687818111D6CF4181842F90E0EF
:1029D0008F7E009741F082E090E0F7019183808341
:1029E00086EF9FEFCFCF4F833E832D8326812887AD
:1029F0001986223010F421E0288721E030E0F70129
:102A000031832083BFCF88E090E0FA0191838083F7
:102A100090E080E00895FB018FEF808381E1818366
:102A20008FEF9FEF9383828380E890E09583848388
:102A3000168217820895FB018FEF808391E09183C6
:102A400082839383848384E3858381E090E097830A
:102A500086830895BF92CF92DF92EF92FF920F93F9
:102A60001F93CF93DF93DA01FC01E60FF71F8181FB
:102A7000813081F082E090E08D939C938FEF9FEF07
:102A8000DF91CF911F910F91FF90EF90DF90CF904A
:102A9000BF900895C281D381B4808581068117815A
:102AA000E090CD03F090CE03E114F10439F482E01C
:102AB00090E08D939C938CEF9FEFE2CF2091CF031A
:102AC0003091D003C217D30738F082E090E08D93A5
:102AD0009C938EEF9FEFD4CFC230D10538F082E0C7
:102AE00090E08D939C9386EF9FEFCACF9B2D9D7FA7
:102AF000B1F78130A1F7B11005C00130110531F0F7
:102B000080E004C081E002301105D0F3882339F35E
:102B10006D01CE01BEDD882341F082E090E0F60138
:102B20009183808388EF9FEFABCF83E18C9FF0018F
:102B30008D9FF00D1124EE0DFF1DB38681E084877B
:102B400016870587108A178681E090E0F601918349
:102B5000808390E080E094CF4CE050E068EC71E03E
:102B600048CA8F929F92BF92CF92DF92EF92FF92CC
:102B70000F931F93CF93DF93EA01FC01E60FF71F3A
:102B8000828193810481B580E091CD03F091CE03E1
:102B9000309791F482E090E0998388838CEF9FEFE7
:102BA000DF91CF911F910F91FF90EF90DF90CF9029
:102BB000BF909F908F9008952091CF033091D003C4
:102BC0008217930738F082E090E0998388838EEF34
:102BD0009FEFE6CF23E1289F6001299FD00C1124AD
:102BE000EC0DFD1DE080F180E114F10499F2828189
:102BF000081748F78DE0089F80011124E00EF11EB0
:102C0000F70180819181892B29F6BB20E1F2F7E061
:102C1000BF9E40011124C4010E94E621F701918367
:102C20008083E091CD03F091CE03EC0DFD1D01906A
:102C3000F081E02DE00FF11F80819181009739F440
:102C400082E090E0998388838DEF9FEFA9CFA40164
:102C500070E060E00E94CC308091CD039091CE0373
:102C6000C80ED91EF60180819181080F191FF80145
:102C7000B28281E090E09983888390E080E090CFF9
:102C8000AF92BF92CF92DF92FF920F931F93CF9399
:102C9000DF93EA01FC01E60FF71F82819381F48044
:102CA0000091CD031091CE030115110581F482E04E
:102CB00090E0998388838CEF9FEFDF91CF911F91F4
:102CC0000F91FF90DF90CF90BF90AF90089520912B
:102CD000CF033091D0038217930738F082E090E061
:102CE000998388838EEF9FEFE8CF2FEF2F0D2C3F36
:102CF000A8F723E1289F6001299FD00C11240C0D17
:102D00001D1DF80180819181892B89F6FDE0FF9ED0
:102D100050011124C5010E94E621F80191838083AE
:102D2000E091CD03F091CE03EC0DFD1D80819181EA
:102D3000009739F482E090E0998388838DEF9FEFCC
:102D4000BCCFA50170E060E00E94CC30E091CD03E3
:102D5000F091CE03EC0DFD1DF28281E090E09983AD
:102D6000888390E080E0A9CFCF92DF92EF92FF922C
:102D70000F931F93CF93DF93860F971FFC01028160
:102D800013818091CD039091CE03892B81F082E055
:102D900090E0FA01918380838CEF9FEFDF91CF91D8
:102DA0001F910F91FF90EF90DF90CF900895C80191
:102DB000B0E0A0E00197A109B1098F3F9F4FA105A5
:102DC000B10540F082E090E0FA01918380838EEFBC
:102DD0009FEFE4CF7A0183E1809F6001819FD00C57
:102DE0001124C6010E94E621EC01009741F482E023
:102DF00090E0F701918380838DEF9FEFCFCFA60105
:102E000070E060E00E94CC30D093CE03C093CD033D
:102E10001093D0030093CF0390E080E02FEF3FEFBB
:102E200041E061E070E08017910741F481E090E0BB
:102E3000F7019183808390E080E0B0CF3A8B298BBB
:102E40001B864C877E876D87188A1F86019663963E
:102E5000EACFEF92FF921F93CF93DF93EC0110E044
:102E6000F12CE12C6A811617A8F070E0660F771F2D
:102E7000AE014F5E5F4FC7010E944B22009721F0C9
:102E80002FEF3FEF3A8B298BDF91CF911F91FF906E
:102E9000EF900895612FCE0182DC61E070E00E9426
:102EA0009920E816F90608F47C011F5FDBCFF8943F
:102EB0002091CB033091CC0381E02115310509F03D
:102EC00080E0232B09F0789408952F923F924F923F
:102ED0005F926F927F928F929F92AF92BF92CF92AA
:102EE000DF92EF92FF920F931F93CF93DF933C01FA
:102EF000660E771EF301828193814C01B12CA12CC7
:102F0000C091CD03D091CE03209769F021E030E04D
:102F10006091CF037091D0038617970710F030E0CF
:102F200020E0232BD1F482E090E0FA0191838083AA
:102F30008EEF9FEFDF91CF911F910F91FF90EF9058
:102F4000DF90CF90BF90AF909F908F907F906F90C9
:102F50005F904F903F902F90089580926F019092D4
:102F60007001A0927101B092720163E1689F9001BB
:102F7000699F300D1124C20FD31FF301818183306B
:102F800040F082E090E0FA019183808386EF9FEF2A
:102F9000D1CF2A012B813C81232BF1F42881398167
:102FA0009F8191FF2EC0232B09F46FC02091D20383
:102FB0009A81422F490F5527551FBA0141E050E031
:102FC0006138710514F050E040E0452B09F45DC014
:102FD0002A87920F9093D2038150823008F481C0E7
:102FE00066DF882309F4DAC0F3018181813009F4B6
:102FF0008DC008F47BC0823009F4C8C090E080E046
:10300000ADC0232B09F441C02091D1039A81E22F56
:10301000E90FFF27FF1F41E050E0ED3FF10514F0FD
:1030200050E040E0452B89F12A87920F9093D1031D
:10303000D3CFA081B181A20FB31F11966C91060F5F
:10304000111D0196295F3F4F8417950794F38D85D5
:103050009E85089F1001099F300C189F300C112489
:10306000C114D104D1F48F8184FF17C00E94E720DE
:10307000F5E02F0E311C21E08215930508F420E0C5
:10308000A701435F5F4F21110EC082E090E0F20183
:103090009183808387EF9FEF4DCF0E94E7202FEF32
:1030A000221A320AE8CF88819981E80EF91EF701C9
:1030B00014830383FFEFCF1ADF0A7A018A818C150C
:1030C0001D0409F00CF48CCFE881F981EE0DFF1D91
:1030D000428150E030E020E010E000E090E080E04D
:1030E000B3CFF12CE12CD12CC12CE8CF81E090E0C2
:1030F0009C838B83E5DA882309F480CF81E090E01C
:103100000E94DB0F80E40E94E90F78CF89899A89B9
:10311000019661F083E090E09C838B8382E090E0F5
:103120000E94DB0F80E40E94E30F68CF8D819E81B7
:10313000209165013091660182179307D1F4609167
:10314000690170916A01AE014F5E5F4F8091670126
:10315000909168010E943D230097E1F2789422E06B
:1031600030E0F20131832083892BA9F08DEF9FEFAE
:10317000E1CE22E082169104A104B1045CF603972B
:1031800048F6CE0166DE188A1F86E6CF82E090E020
:103190009C838B8333CF90E080E0CCCE82E090E0C4
:1031A000F2019183808385EF9FEFC4CE8F929F922F
:1031B000AF92BF92CF92DF92EF92FF920F931F9345
:1031C000CF93DF93EA018C01060F171FF80181816D
:1031D000833098F082E090E09983888386EF9FEFB8
:1031E000DF91CF911F910F91FF90EF90DF90CF90E3
:1031F000BF90AF909F908F9008958091CD03909154
:10320000CE03892B61F081E090E02091CF033091D3
:10321000D003232B11F490E080E0892B39F482E075
:1032200090E0998388838EEF9FEFDACF40DE88238A
:1032300009F4E1C0F8018181813009F497C0E8F018
:10324000823099F42091CF033091D003E091CD03E7
:10325000F091CE0390E080E041E050E0281739077C
:1032600009F0BFC02DDA811117C0789481E090E099
:103270009983888390E080E0B3CF2091CF03309191
:10328000D003E091CD03F091CE0390E080E041E0E7
:1032900050E02817390741F481E090E00E94DB0FED
:1032A00080E40E94E90FE1CF63817481672B11F004
:1032B0005483438301967396ECCFE091CD03F09154
:1032C000CE03E00FF11F2381348122303105D9F480
:1032D000218932892F3F3F4FB1F4258136814091BA
:1032E0006501509166012417350761F5AF014F5E06
:1032F0005F4F6091690170916A01809167019091BF
:1033000068010E943D23EFEFCE1ADE0AEE0AFE0AA4
:103310000D5E1F4F4091CF035091D00370E060E0ED
:10332000C416D506E606F7064CF5009731F27894F8
:10333000892B09F49BCF82E090E0998388838DEFFD
:103340009FEF4ECF42E0C416D104E104F104DCF655
:1033500023303105C0F6CF017CDDE091CD03F09143
:10336000CE03E00FF11F108A1786CDCF10E000E0EA
:1033700090E080E0C12CD12C7601CCCF0097B9F63B
:1033800010E000E0812C912C540183E0E82EF12C18
:103390001AC0E091CD03F091CE03E00FF11F8381BD
:1033A0009481029749F4F482E38282E090E00E94E3
:1033B000DB0F80E40E94E30FFFEF8F1A9F0AAF0A32
:1033C000BF0A0D5E1F4F8091CF039091D003B0E0F4
:1033D000A0E088169906AA06BB06DCF290E080E021
:1033E000A6CF638174816230710511F454834383E5
:1033F0000196739633CF82E090E09983888385EFBE
:103400009FEFEECE0097B9F48FEFFB018083209100
:103410006F013091700143E1429FC001439F900DC5
:103420001124E091CD03F091CE03E80FF91F8285BE
:10343000FB01818308950C94940F88E090E0FA01D9
:103440009183808390E080E008951092CC031092E5
:10345000CB03EDECF3E086E0DF011D928A95E9F7FE
:103460008CEA95E19093CA038093C90308958091F3
:10347000C9039091CA0308952F923F924F925F9291
:103480006F927F928F929F92AF92BF92CF92DF9274
:10349000EF92FF920F931F93CF93DF93CDB7DEB7D9
:1034A0002F970FB6F894DEBF0FBECDBFF894E09112
:1034B000CB03F091CC033196F093CC03E093CB0394
:1034C00078944090CD035090CE034114510409F4F8
:1034D0000DC2E091CF03F091D003EF2B09F406C2A7
:1034E0002D8749875A876B877C8798878F8312013E
:1034F000B12CA12C10E000E08091CF039091D0037B
:10350000A816B90618F40115110529F1F89480914F
:10351000CB039091CC0301979093CC038093CB0382
:103520007894C8012F960FB6F894DEBF0FBECDBFBA
:10353000DF91CF911F910F91FF90EF90DF90CF908F
:10354000BF90AF909F908F907F906F905F904F90C3
:103550003F902F9008957101E418F508D101179656
:103560008C91179781FD54C013968D919C9114975F
:10357000039709F04DC015968D919C91EF81F885C8
:103580008E179F0709F044C0B50190E080E080D419
:103590008A832091CD033091CE033D832C833D85DA
:1035A000332309F44CC04C815D81452B09F49BC148
:1035B0008091CF039091D003A816B90608F093C16B
:1035C000C501C8D88823E9F06C817D816E0D7F1D0F
:1035D0007D836C83DB011F968D919C91892B89F0F3
:1035E000D12CC12CF12CE12CAC81BD8112968C9197
:1035F00012978E151F0409F094F450961C921E9297
:103600001F972A81222321F0B50190E080E042D467
:103610003FEFA31AB30A43E1240E311C6DCFAC81F6
:10362000BD81ED91FC91EC0DFD1D8581968107D743
:10363000BFEFEB1AFB0AEDE0CE0ED11CD5CFEC812B
:10364000FD81309709F44FC18091CF039091D00351
:10365000A816B90608F047C1EE0DFF1DFF87EE87DB
:10366000C50178D88B83882339F1AE85BF851F9635
:103670008D919C915097019621E01D964D915C9102
:103680008417950709F020E02E831982712C10E031
:1036900000E0AE85BF8512968C91781608F45DC067
:1036A000EE85FF85878590890196658576850E94E0
:1036B0006E30908B8787A5CFB1E0BE83E6CF99248B
:1036C00093946BC083D6F6019683858383C0D6011D
:1036D000ED90FC90B7E06B9EE00CF11C1124F7011B
:1036E0006381748180818F3F61F121E030E002C00D
:1036F000220F331F8A95E2F7C901092E000CAA0B8D
:10370000BB0BFB014081518162817381842395232E
:10371000A623B72321E0892B8A2B8B2B09F420E0E9
:10372000D4012C93D70111968C91F6012385348511
:10373000820F932F911D880E991E14861386639411
:103740009CC0418150E0C4010E94C330EBCF9982FC
:1037500006EF1FEFC6C01982C4C0F981F111A0CFD6
:10376000EDE07E9E70011124AE85BF85CD90DC908A
:10377000CE0CDF1C15D49D838C83BB81BB2309F445
:103780009ECF81E0EE85FF8527853089232B09F0C8
:1037900080E0982E882309F459C0672D8E859F8577
:1037A0000E94CF13D60118969C938E93179761E0D1
:1037B00070E0BFD4EE85FF85218932892F3F320723
:1037C00009F480CFBC01C90199D7D60116969C9304
:1037D0008E931597D60115968D919C91169700970B
:1037E00009F4B5CFEC81FD818E0F9F1F1A969C9333
:1037F0008E931997AE85BF85ED91FC911197EE0ED2
:10380000FF1EF70121853285148613861A968C9146
:10381000870DD9018D93711016C0EE85FF858781C4
:1038200084FF11C049855A856B857C85F9014183E8
:10383000528363837483F701838594850496A80F6C
:10384000B91F14861386F701B287A187D601159692
:103850008D919C911697892B09F443C0EE85FF85C5
:10386000258136818091650190916601281739077D
:1038700079F019968D909C90612CD60112968C91BE
:103880001297681608F423CF1A969C928E92199775
:10389000BE81BB2309F45FCF61E070E0F601878150
:1038A000908547D4D6011796ED90FC901897159601
:1038B0004D915C91E1E0F0E0BA81BB2311F0F0E0C2
:1038C000E0E00C811D819C01B501882799278E1BA2
:1038D0009F0B69D38C01892B21F0F601858196819C
:1038E000AED57394D6CE0FEF1FEF8BCE10E000E075
:1038F0000DCE2F923F924F925F926F927F928F9256
:103900009F92AF92BF92CF92DF92EF92FF920F936E
:103910001F93CF93DF938091CD039091CE0310E05E
:1039200000E0892BA9F0C3DA0AEF1FEF882381F0AA
:103930002090CF033090D003C091CD03D091CE031F
:10394000D12CC12C10E000E02C143D04A9F4789493
:10395000C801DF91CF911F910F91FF90EF90DF9001
:10396000CF90BF90AF909F908F907F906F905F901F
:103970004F903F902F900895C6010E94AA1388236C
:1039800009F18B819C810397E9F48F859889892BB4
:10399000C9F0B60190E080E07BD221E030E08823DE
:1039A00011F030E020E044245524421A530AB12C8F
:1039B000A12C912C812C8A818815190409F038F4E6
:1039C000188A1F864FEFC41AD40A6396BDCFE881C8
:1039D000F981EA0DFB1D85819681892BA1F161E0BA
:1039E00070E087819085A5D33C01DAD28C01E88113
:1039F000F981EA0DFB1D8185928525813681200F95
:103A0000311FAC01421B530B9A0147815085421B69
:103A1000530B70E060E00E94CC30E881F981EA0D40
:103A2000FB1DE780F084458156819301B601C201F8
:103A3000BAD28C01892B39F0E881F981EA0DFB1D9E
:103A400085819681FCD45FEF851A950A8DE0A80EDA
:103A5000B11CB1CF2CCA789408952F923F924F9207
:103A60005F926F927F929F92AF92BF92CF92DF92BE
:103A7000EF92FF920F931F93CF93DF9300D000D06C
:103A800000D0CDB7DEB70091CD031091CE039924BD
:103A900093940115110509F43EC0A090CF03B09096
:103AA000D00305DA982E8823B1F11092CE0310923C
:103AB000CD031092D0031092CF031092D103109235
:103AC000D2038FEF9FEFDC0180936F019093700121
:103AD000A0937101B093720178947BD31E830D8300
:103AE000C12CD12C7601C501B0E0A0E089839A8376
:103AF000AB83BC8322242A94322C89819A81AB81A6
:103B0000BC81C816D906EA06FB06F4F0C80197D4B2
:103B100080E40E94E90F892D26960FB6F894DEBF47
:103B20000FBECDBFDF91CF911F910F91FF90EF900E
:103B3000DF90CF90BF90AF909F907F906F905F90FD
:103B40004F903F902F900895AD81BE8115968D9135
:103B50009C91169720916501309166018217930719
:103B6000D1F451968D919C91B7D5ED81FE818081E4
:103B70009181B12CA12C412C512C3201892B91F532
:103B8000BFEFCB1ADB0AEB0AFB0AED81FE817396CD
:103B9000FE83ED83B2CFB2E0CB16D104E104F10491
:103BA00024F7039710F7ED81FE81818992898F3F79
:103BB000980709F00CD5AD81BE8152963C922E92A9
:103BC0005197D3CF8A0D9B1DDC018D919C9100975D
:103BD00009F035D4BFEF4B1A5B0A6B0A7B0AEDE0A4
:103BE000AE0EB11CAD81BE818D919C911197129644
:103BF0004C9150E070E060E044165506660677068A
:103C00000CF31DD4BDCFCF93DF93EA0126DF8111E2
:103C100009C082E090E09983888385EF9FEFDF9170
:103C2000CF91089581E090E00E94DB0F81E090E069
:103C30009983888390E080E0F2CF0FDF1092CA036F
:103C40001092C903089542E050E060E172E00C94E4
:103C5000F90FFF920F931F93CF93DF938A01EC012B
:103C6000C60FD71FF980B4D20897F816190671F05D
:103C700068F082E090E0F801918380838EEF9FEFFF
:103C8000DF91CF911F910F91FF9008956C817D81FD
:103C90008E819F814B810E949012811108C082E029
:103CA00090E0F8019183808384EF9FEFE9CFF98062
:103CB0000E948B124F2D50E0BE01685F7F4F0E9423
:103CC000C33089810E94FA1281E090E0F80191836B
:103CD000808390E080E0D4CFDF92EF92FF920F9349
:103CE0001F93CF93DF938A01EC01C60FD71F0E9469
:103CF0008B127C01D9806CD2DD2059F0029721E033
:103D000030E0D816190619F010F030E020E0232B2F
:103D100079F482E090E0F801918380838EEF9FEF49
:103D2000DF91CF911F910F91FF90EF90DF90089559
:103D3000EF2841F482E090E0F8019183808384EFE2
:103D40009FEFEECFF9800E948B124F2D50E0BE0105
:103D50006E5F7F4F0E94C33089810E94FA1281E01A
:103D600090E0F8019183808390E080E0D9CF83E2F6
:103D70009EE19093D4038093D30308958091D3035D
:103D80009091D40308950895FC01118210829383C9
:103D900082830895DB011D921C92DC011296ED9145
:103DA000FC9113977183608313967C936E931297A3
:103DB0000895FC0180819181DB018D939C93A0810A
:103DC000B181109741F08D919C9191838083892BD3
:103DD00011F4F383E2830895FC0180819181DB017A
:103DE0008D939C93892B11F4738362837183608319
:103DF0000895FC0111821082938382830895CF93EA
:103E0000DF9300D0CDB7DEB71A821982F894BE01D5
:103E10006F5F7F4F8AED93E0CCDF89819A810097B5
:103E200009F00DD389819A81892B89F7BE016F5FD3
:103E30007F4F8EED93E0BDDF89819A81009709F075
:103E4000FED289819A81892B89F778940F900F90FF
:103E5000DF91CF910895CF93DF9300D0CDB7DEB738
:103E60001A821982F894BE016F5F7F4F86ED93E04E
:103E7000A0DF89819A81009709F0E1D289819A8136
:103E8000892B89F778940F900F90DF91CF91089547
:103E900081E0089590E080E00895EF92FF920F9303
:103EA0001F93CF93DF9300D0CDB7DEB71A8219826C
:103EB0008091D50307EF1FEF8823A1F1F894BE018D
:103EC0006F5F7F4F8EED93E074DF789489819A81E4
:103ED000EE24E394F12C892B51F4F894BE016F5F2A
:103EE0007F4F8AED93E065DF7894F12CE12C898196
:103EF0009A810EEF1FEF0097A9F0FC0142815381D8
:103F000064E070E03FD68C01892B61F0F894698100
:103F10007A81C701880F991F880F991F86529C4F7D
:103F20005BDF7894C8010F900F90DF91CF911F91C4
:103F30000F91FF90EF9008950F931F93CF93DF930E
:103F400000D000D0CDB7DEB71C821B821A82198246
:103F50008091D50307EF1FEF8823C1F0AE014D5FBD
:103F60005F4F64E070E0CE0101967FD68C01892B13
:103F700069F4E981FA818B819C8193838283F8942F
:103F800069817A8186ED93E005DF7894C8010F900E
:103F90000F900F900F90DF91CF911F910F91089587
:103FA00084D7049608958F929F92AF92BF92CF923A
:103FB000DF92EF92FF920F931F93CF93DF9300D086
:103FC000CDB7DEB71A821982BC016F5F7F4F6330B5
:103FD000710598F0AA24AA94BA2CC5010F900F90ED
:103FE000DF91CF911F910F91FF90EF90DF90CF90D5
:103FF000BF90AF909F908F9008954115510551F358
:10400000480159018A016C01CBDF8815990511F728
:10401000E114F104F9F28E0D9F1DA816B906D0F235
:104020008091D5038823F1F0F894B50164507109AB
:104030009701AE014F5F5F4FC8010496ABD65C019C
:10404000892B71F489819A81F80193838283C60157
:10405000880F991F880F991FB80186529C4F9ADECE
:104060007894BBCF87EFA82EBB24BA94B6CFAF927B
:10407000BF92CF92DF92EF92FF920F931F93CF9355
:10408000DF9300D0CDB7DEB71A821982892B09F0F1
:1040900047C06115710509F443C04115510509F484
:1040A0003FC02115310509F43BC001151105C1F1CF
:1040B0008091D5038823B9F179016A015B01F894F5
:1040C000BE016F5F7F4F86ED93E073DE7894898148
:1040D0009A81009759F1DC0112966D917C91A801AB
:1040E000049671D68C01E981FA81D501ED93FC9398
:1040F000828193810496F6019183808351DFD701F9
:104100008D939C93C8010F900F90DF91CF911F91D9
:104110000F91FF90EF90DF90CF90BF90AF900895F8
:104120000FEF1FEFEFCF07EF1FEFECCF0EEF1FEFFB
:10413000E9CFCF93DF93EC01672B71F4BFD68C17D7
:104140009D0760F0B2D62496C80FD91FB1D68C0F48
:104150009D1FDF91CF910895AED6F1CF90E080E022
:10416000F8CF0F931F93CF93DF932091D5032111A5
:104170002BC08B01EC018AED93E006DE8EED93E01F
:1041800003DE86ED93E000DE97D00097C1F496D66B
:1041900070E060E0CEDF43E751E062E070E07BD1A9
:1041A000009769F4809173019091740199D6B801D8
:1041B000CE01CED4009719F421E02093D503DF91EE
:1041C000CF911F910F91089584EF9FEFF8CF73C6A1
:1041D00075C6CF93DF9375D6EC01892B11F40FDEF2
:1041E0003ADECE01DF91CF910895CF93DF9369D668
:1041F000EC01892B09F403DECE01DF91CF91089504
:1042000080917301909174010895CF93DF93809111
:10421000D503D0E0C0E08823D1F067D6EC01892B2C
:10422000B1F4EDDD18DE8091730190917401CFD16E
:10423000B5D2EC01892B59F48AED93E0DADD8EEDED
:1042400093E0D7DD86ED93E0D4DD1092D503CE0167
:10425000DF91CF910895EF92FF920F931F93CF9329
:10426000DF93EC017A018B010F5F1F4F0E9DA001C0
:104270000F9D500D1E9D500D112470E060E00E94B6
:10428000CC3090E080E0F0E0E0E02FEFE816F906B7
:1042900039F4DF91CF911F910F91FF90EF90089526
:1042A0001A8219822883309711F0D283C183019634
:1042B000FE01C00FD11FEACFAF92BF92CF92DF9223
:1042C000EF92FF920F931F93CF93DF9388E095E0D7
:1042D0007C012CEFE22243E050E065E771E08BE7E0
:1042E00091E0E3D385E7C82E81E0D82E9BE7A92E85
:1042F00091E0B92EC1EDD5E08E01D6014D915D91D1
:104300006D01F501619171915F01D8011196FC92E7
:10431000EE9215965C934E93149713965C934E937E
:10432000129717967C936E9316979B012F5F3F4FC2
:10433000249FC001259F900D349F900D1124199644
:104340009C938E931897E114F10411F0C70183DF59
:10435000F80180859185E80EF91E065F1F4FFBE787
:10436000CF16F1E0DF0649F6E4EEF3E081E291E0FA
:10437000DF019C011D9221503040E1F71092E303D0
:104380001092E2031F8E1E8E1BA21AA219A218A25F
:104390001DA21CA21FA21EA22A9635E0CF3ED30763
:1043A00089F71092CE051092CD051092D00510928B
:1043B000CF0590E080E0DF91CF911F910F91FF90AA
:1043C000EF90DF90CF90BF90AF9008950097F1F0FD
:1043D000F894ABE7B1E0E1EDF5E030E020E04D919D
:1043E0005D9148175907A8F0428153814115510545
:1043F00081F08AE0829FF001839FF00D1124EF523B
:10440000FA4F80819181009759F4789490E080E090
:1044100008952F5F3F4F3A962330310501F7F5CFCE
:10442000DC0111966D917C9171836083415051093B
:1044300053834283FC012193CF0178940895009720
:1044400049F1DC018E91863041F4E091CF05F09185
:10445000D0053097F9F0CD0109948630D8F4282F93
:1044600030E0F8948FEF8C938AE0829FF001839F75
:10447000F00D1124EF52FA4F8081918112969C9396
:104480008E931197B183A083828193810196938348
:10449000828378940895CF92DF92EF92FF920F93E8
:1044A0001F93CF93DF939C0187EE93E08C7F4115A0
:1044B000510509F489C02115310509F485C061153C
:1044C000710509F481C08A01AB01B9016D5F7F4FAD
:1044D0006C7F9B012F5F3F4F249F7001259FF00C45
:1044E000349FF00C1124F894E1EDF5E023E030E086
:1044F000E901A6A1B7A1C68CD78CCD2809F058C078
:10450000109709F03EC0C090E203D090E3032EE183
:1045100031E02C193D092E153F0530F47894CFEF8A
:10452000DFEF86EF9FEF21C02AE02C9FF0012D9F47
:10453000F00D1124EF52FA4F918380835583448309
:104540005383428377836683F186E086009709F080
:1045500082DEEC0CFD1CF092E303E092E20378941F
:10456000CF3FDC07F1F290E080E0F801D183C08317
:10457000DF91CF911F910F91FF90EF90DF90CF903F
:104580000895AE15BF05A0F02AE02C9FF0012D9FE5
:10459000F00D1124EF52FA4F9183808355834483A9
:1045A00053834283778366830097C9F254DED7CF63
:1045B0008A0F9B1F2F5F3F4F3A962630310509F037
:1045C00097CFCFEFDFEFCBCF8FEF9FEFD1CF9C0116
:1045D0000397039708F04EC0F89485E09AE0482FBF
:1045E00050E0241735079CF191E08AE0829FF001AA
:1045F000839FF00D1124EF52FA4F11821082158221
:10460000148213821282178216829923E1F080911C
:10461000E2039091E303E1EDF5E0268D378D232B46
:1046200049F426A137A12115310521F0821B930BF6
:1046300017A216A23A9625E0EF3EF20771F7909383
:10464000E3038093E203789490E080E00895949FE0
:10465000F001959FF00D1124EF52FA4F40815181E6
:10466000452B31F440855185452B11F48150B7CF4E
:1046700090E0BBCF8FEF9FEF08954115510549F1B1
:10468000009739F16115710521F1F8942091CD055C
:104690003091CE05232BB9F42091CF053091D00570
:1046A000232B89F49093CE058093CD057093D0058C
:1046B0006093CF05789426E030E090E080E0FA0146
:1046C00031832083089578942FEF3FEF86EF9FEF9B
:1046D000F6CF8FEF9FEF0895069769F4F894109244
:1046E000CE051092CD051092D0051092CF0578948A
:1046F00090E080E008958FEF9FEF089561157105B8
:1047000019F4F0E0E0E011C08630910581F4E09109
:10471000CD05F091CE053097A1F3CB010196099517
:10472000009779F3FC0186E08193CF0108959C0105
:10473000235031092330310520F72AE0289FD0018A
:10474000299FB00D1124AF52BA4F2D913C91119772
:10475000232BB9F216962D913C9117972617370700
:1047600080F2F89412962D913C9113972115310502
:1047700029F0ED91FC911197309711F47894C1CF05
:104780004181528111965C934E93215031091396C9
:104790003C932E93129781937894C7CFE5E0F5E090
:1047A00088ECDF011D928A95E9F7E4EEF3E081E2FF
:1047B00091E0DF019C011D9221503040E1F7109201
:1047C000E3031092E203E1EDF5E08CE3DF011D92DB
:1047D0008A95E9F7EDECF5E084E0DF011D928A951A
:1047E000E9F790E080E00895CF93DF93C0918101D5
:1047F000D0918201CF3FDC0759F409D49093820114
:104800008093810197FF09C0D0938201C0938101F9
:1048100084EF9FEFDF91CF91089590E080E0FACF91
:104820008230910528F480930D0690E080E0089591
:104830008FEF9FEF08954F925F926F927F92AF92AA
:10484000BF92CF92DF92EF92FF920F931F93CF937D
:10485000DF9300D0CDB7DEB71A821982009709F432
:1048600079C06115710509F475C0209181013091FD
:10487000820107EF1FEF2F3F3F4F09F445C06B0147
:104880005C01412C512C3201F12CE12C10E000E0B4
:104890009E012F5F3F4FA6014E195F09B5016E0DB6
:1048A0007F1D809181019091820110D4892B09F0A4
:1048B0004BC089819A81009741F4E114F10429F4F5
:1048C00020910D06222309F442C0E80EF91EEC14D3
:1048D000FD04D0F480E8481684E858068EE16806A6
:1048E000710420F560E070E0CB010E94342D2AE0D5
:1048F000420E511C611C711C0A3F4FEF140721F03E
:10490000043F8FEF1807A1F4C8010F900F90DF91BB
:10491000CF911F910F91FF90EF90DF90CF90BF90BC
:10492000AF907F906F905F904F90089501EF1FEFD1
:1049300081E090E0013F2FEF120711F090E080E05E
:10494000892B09F4A5CFE0CF04EF1FEFDDCF0AEFED
:104950001FEFDACF0FEF1FEFD7CF4F925F926F921B
:104960007F92AF92BF92CF92DF92EF92FF920F931E
:104970001F93CF93DF9300D0CDB7DEB71A82198291
:10498000009709F479C06115710509F475C020918B
:1049900081013091820107EF1FEF2F3F3F4F09F454
:1049A00045C06B015C01412C512C3201F12CE12CF2
:1049B00010E000E09E012F5F3F4FA6014E195F09F6
:1049C000B5016E0D7F1D809181019091820134D3DC
:1049D000892B09F04BC089819A81009741F4E11439
:1049E000F10429F420910D06222309F442C0E80EB7
:1049F000F91EEC14FD04D0F480E4481682E4580655
:104A00008FE06806710420F560E070E0CB010E9441
:104A1000342D2AE0420E511C611C711C0E3F4FEFD9
:104A2000140721F0043F8FEF1807A1F4C8010F907D
:104A30000F90DF91CF911F910F91FF90EF90DF903A
:104A4000CF90BF90AF907F906F905F904F90089500
:104A500002EF1FEF81E090E0023F2FEF120711F00D
:104A600090E080E0892B09F4A5CFE0CF04EF1FEFA1
:104A7000DDCF0EEF1FEFDACF0FEF1FEFD7CF809113
:104A80008101909182018F3F980749F0B8D2892B1C
:104A900049F48FEF9FEF909382018093810190E022
:104AA00080E0089584EF9FEF0895CF92DF92EF9218
:104AB000FF920F931F93CF93DF9321E04115510590
:104AC00009F020E04150510921112CC0DC01FB010B
:104AD000D12CC12C21E022C03FEFC31AD30A7D01A3
:104AE0000D911D91E701EA80FB80E016F106A8F424
:104AF00020813181E280F380F182E082338322835E
:104B0000ED90FC9011979D0122503109E901F98245
:104B1000E88211961C930E9320E03296C416D506B7
:104B2000D8F2D2CFDF91CF911F910F91FF90EF90EC
:104B3000DF90CF900895FC01680F791F90E080E02E
:104B4000E617F70709F408952191820F911DF8CF18
:104B500020910E06211113C047DE009791F41092A8
:104B6000140610921306109212061092110610925B
:104B7000100610920F0621E020930E06089584EF90
:104B80009FEF0895AF92BF92CF92DF92EF92FF9284
:104B90000F931F93CF93DF93009709F460C04630C3
:104BA000510508F45CC020910E06C7EFDFEF222309
:104BB00009F449C08C01060F171FF801C080D1808D
:104BC000C114D10409F44EC096012A5F3F4F421729
:104BD000530708F447C07C01809113069091140696
:104BE00093838283B6016C5F7F4F5801A60EB71E78
:104BF000C801A1DFF5019183808364E070E0C80102
:104C00001ADEEC01892BF9F481E090E009DEB601AF
:104C1000C801049610DEEC01892B91F462E070E08B
:104C2000C50109DEEC01892B59F4C70108DC80912C
:104C30001306909114060196909314068093130620
:104C400090E080E0EDDDCE01DF91CF911F910F91DB
:104C5000FF90EF90DF90CF90BF90AF900895CFEF8F
:104C6000DFEFF1CFC9EFDFEFEECF6F927F928F9240
:104C70009F92AF92BF92CF92DF92EF92FF920F93EB
:104C80001F93CF93DF9300D000D0CDB7DEB700974E
:104C900009F47AC04115510509F476C020910E0639
:104CA00007EF1FEF222309F44DC03A017B015C019D
:104CB00064E070E0CE01019650DE8C01892B09F092
:104CC00041C009811A810115110509F45AC0480132
:104CD00086E0880E911CB701680D791D80918301D3
:104CE000909184010BDD6C01009709F450C0A7017D
:104CF00070E060E00E94CC3089819A81AB81BC81F8
:104D0000EC0CFD1CF70181939193A193B1937F016A
:104D100081E090E085DDB801C7011FDE892B31F508
:104D200062E070E0C701800F911F17DE8C01892BB4
:104D3000E9F490E080E074DDF501D182C082F301F6
:104D400091828082C8010F900F900F900F90DF9199
:104D5000CF911F910F91FF90EF90DF90CF90BF9078
:104D6000AF909F908F907F906F90089590E080E03B
:104D700057DDF50111821082F30111821082C60104
:104D80005EDB09EF1FEFDECF0FEF1FEFDBCF06EF8C
:104D90001FEFD8CF0097A1F04115510589F02115DB
:104DA000310571F0F90136966E177F0748F0DC0186
:104DB0002D933C93DA01ED93FC9390E080E008950D
:104DC0008FEF9FEF0895AF92BF92CF92DF92EF9255
:104DD000FF920F931F93CF93DF93009709F45FC067
:104DE0004115510509F45BC06530710508F457C0E1
:104DF00020910E06C7EFDFEF222391F1DC01CD9069
:104E0000DC9011971296ED91FC9196012A5F3F4F2D
:104E1000C9EFDFEF2617370719F5C0910F06D091BC
:104E20001006209749F521E030E0309310062093DA
:104E30000F067A018C01F0931206E09311065601D9
:104E4000B4E0AB0EB11CB50176DE0A0D1B1DF801F6
:104E5000208131818217930729F5D701CD92DC9209
:104E6000CE01DF91CF911F910F91FF90EF90DF90D6
:104E7000CF90BF90AF900895209111063091120607
:104E80002F5F3F4FCCEFDFEFE217F30790F2CBEF4E
:104E9000DFEF2E173F0768F2D0E0C0E0CACFCFEFB8
:104EA000DFEFDECFC3EFDFEFDBCF84E090E00895EC
:104EB00082E090E008958CEF9FEF089580E290E00B
:104EC0000895109214061092130610921206109272
:104ED00011061092100610920F0690E080E00895DF
:104EE0009093840180938301089580910E06882316
:104EF00091F0C5DD009789F4109214061092130604
:104F000010921206109211061092100610920F06BF
:104F100010920E06089590E080E00895009749F001
:104F20006115710531F0FC0111821082FB011182C3
:104F300010820895F3CF26E030E040E050E16EE0CB
:104F400070E090E080E000C0892B19F487E296E0E1
:104F5000B3C708951F920F920FB60F9211242F938B
:104F60003F934F935F936F937F938F939F93AF93F1
:104F7000BF93EF93FF938EE19BEF90938500809317
:104F80008400B7D0FF91EF91BF91AF919F918F9126
:104F90007F916F915F914F913F912F910F900FBE35
:104FA0000F901F9018958EE19BEF90938500809352
:104FB0008400AFE6B0E08C918E7F8C93E0E8F0E067
:104FC00080818C7F8083E1E8F0E08081877E808330
:104FD00080818360808380818B7F80838C918160DE
:104FE0008C930895EFE6F0E0808190819E7F90831E
:104FF0008170089581E0089510921506089568EE75
:1050000073E080E090E030D590E080E0089526E005
:1050100030E040E052EC61E070E090E080E094DF4E
:1050200087E296E07FD6892B21F087E296E094D63E
:10503000F7CF90E080E00895CF92DF92EF92FF9259
:105040000F931F93CF93DF936B017A01E9011982CC
:10505000188287E296E066D6892B69F18601CC2416
:10506000C39482E0D82E80911506811110C087E28A
:1050700096E072D60297B9F7C0921506F801D19260
:105080008F0188819981019699838883ECCF8881EB
:1050900099818E159F0578F487E296E05DD68F3F63
:1050A0009807A9F3F80181938F018881998101966E
:1050B00099838883ECCF90E080E0DF91CF911F91BE
:1050C0000F91FF90EF90DF90CF9008950F931F9373
:1050D000CF93DF93EA01890187E296E0D1D7F80107
:1050E000D183C08390E080E0DF91CF911F910F9139
:1050F0000895CF92DF92EF92FF920F931F93CF9379
:10510000DF9300D01F92CDB7DEB78091190691E0F2
:10511000980F909319068823A1F021E030E0309396
:105120001D0620931C06809319060F900F900F9078
:10513000DF91CF911F910F91FF90EF90DF90CF9073
:105140000895CE0101960E94BA04789400919C01C2
:1051500010919D01F801E256FF4F608171818281BB
:105160009381C3D120E030E040E85FE4C7D26B0117
:105170007C01F801E656FF4F608171818281938145
:10518000B4D19B01AC01C701B60103D120E030E0EE
:10519000A901FFD07ED16B017C010E941105B701EE
:1051A000A60181E090E00E942C04F89480911906F9
:1051B0008150809319068B81882389F0809118068D
:1051C00091E0980F90931806882349F021E030E091
:1051D00030931D0620931C0680931806A6CF80915D
:1051E0001806882309F4A1CF80911A0681119DCF5A
:1051F00080911B068F5F80931B067894F801EE5414
:10520000FF4F60817181828193816FD120E030E016
:1052100040E85FE473D26B017C01F801E255FF4F77
:10522000608171818281938160D19B01AC01C70152
:10523000B601AFD09B01AC01ACD020E030E0A901B9
:10524000A8D027D16B017C010E940E06B701A601F0
:1052500082E090E00E942C04F8948091180681501E
:105260008093180680911B06815080931B065DCFAA
:105270000F931F93CF93DF9310921F0710921E0777
:1052800029D459DEC0919C01D0919D0119821882C8
:105290006FEF7FEFCB010E94AF0470E060E090E021
:1052A00080E00E942B03009709F042C00E94FB0798
:1052B000F8947894BE0167547F4F8A819B810E9445
:1052C0002E03892B71F46FEF7FEFCB010E94C20395
:1052D0000E94A904882329F081E0FE01E154FF4FD8
:1052E0008083F89460DE0E94AC04882311F080E093
:1052F0000BC00E94A9048111FACF81E0FE01E154A4
:10530000FF4F90819111F3CF80931E0778940E94F4
:10531000D60F8C017894C154DF4F80911E07811104
:105320000CC00E940D090E948E04F89490E080E069
:10533000DF91CF911F910F9108950E948C040E94DC
:10534000AC048823D9F081E080931F0790911F0758
:1053500081E0911180E080931E0780911F078111E9
:1053600041DE0130110529F40E94D60F892B09F482
:1053700043DE0E94D60F8C013DDECFCF0E94A904F0
:105380008111E1CF81E098819111DECF80E0DCCF07
:105390005058BB27AA270ED05CC14DD130F052D156
:1053A00020F031F49F3F11F41EF442C10EF4E09559
:1053B000E7FB0FC1E92F5ED180F3BA1762077307CD
:1053C0008407950718F071F49EF58DC10EF4E095F1
:1053D0000B2EBA2FA02D0B01B90190010C01CA01AF
:1053E000A0011124FF27591B99F0593F50F4503E5A
:1053F00068F11A16F040A22F232F342F4427585F4C
:10540000F3CF469537952795A795F0405395C9F763
:105410007EF41F16BA0B620B730B840BBAF091501B
:10542000A1F0FF0FBB1F661F771F881FC2F70EC0BA
:10543000BA0F621F731F841F48F48795779567958D
:10544000B795F7959E3F08F0B3CF9395880F08F076
:105450009927EE0F9795879508952ED180F09F3765
:1054600040F491110EF440C160E070E080E89FE3E9
:10547000089526F01B16611D711D811DB0C0CAC0A4
:1054800084D008F481E0089504D06894B1112CC14F
:105490000895F8D088F09F5790F0B92F9927B75109
:1054A000A0F0D1F0660F771F881F991F1AF0BA95E8
:1054B000C9F712C0B13081F016D1B1E0089513C11F
:1054C000672F782F8827B85F39F0B93FCCF38695DE
:1054D00077956795B395D9F73EF49095809570953B
:1054E00061957F4F8F4F9F4F0895E89409C097FBB8
:1054F0003EF490958095709561957F4F8F4F9F4FAB
:105500009923A9F0F92F96E9BB279395F6958795EE
:1055100077956795B795F111F8CFFAF4BB0F11F4B1
:1055200060FF1BC06F5F7F4F8F4F9F4F16C0882358
:1055300011F096E911C0772321F09EE8872F762F8E
:1055400005C0662371F096E8862F70E060E02AF0CF
:105550009A95660F771F881FDAF7880F96958795BB
:1055600097F90895A9D080F09F3740F491110EF07B
:10557000BBC060E070E080E89FEB089526F41B1646
:10558000611D711D811D2BC045C0990F0008550F6D
:10559000AA0BE0E8FEEF16161706E807F907C0F0B9
:1055A00012161306E407F50798F0621B730B840BC1
:1055B000950B39F40A2661F0232B242B252B21F49B
:1055C00008950A2609F4A140A6958FEF811D811D3B
:1055D000089597F99F6780E870E060E00895882358
:1055E00071F4772321F09850872B762F07C066231C
:1055F00011F499270DC09051862B70E060E02AF0DD
:105600009A95660F771F881FDAF7880F969587950A
:1056100097F908959F3F31F0915020F48795779541
:105620006795B795880F911D9695879597F9089579
:105630009FEF80EC089500240A94161617061806AA
:105640000906089500240A94121613061406050686
:105650000895092E0394000C11F4882352F0BB0F17
:1056600040F4BF2B11F460FF04C06F5F7F4F8F4F7A
:105670009F4F089557FD9058440F551F59F05F3FB5
:1056800071F04795880F97FB991F61F09F3F79F064
:1056900087950895121613061406551FF2CF4695E6
:1056A000F1DF08C0161617061806991FF1CF869568
:1056B0007105610508940895E5DFA0F0BEE7B9170C
:1056C00088F4BB279F3860F41616B11D672F782F1A
:1056D0008827985FF7CF869577956795B11D939545
:1056E0009639C8F30895E894BB2766277727CB013E
:1056F00097F908954ADF08F48FEF08950BD0A9CFEA
:105700009ADF28F09FDF18F0952309F062CF90CF41
:105710001124EACFAFDFA0F3959FD1F3950F50E0AE
:10572000551F629FF001729FBB27F00DB11D639F53
:10573000AA27F00DB11DAA1F649F6627B00DA11DF9
:10574000661F829F2227B00DA11D621F739FB00D9F
:10575000A11D621F839FA00D611D221F749F33270F
:10576000A00D611D231F849F600D211D822F762FA8
:105770006A2F11249F5750408AF0E1F088234AF0A5
:10578000EE0FFF1FBB1F661F771F881F91505040F1
:10579000A9F79E3F510570F01CCFA6CF5F3FECF3F9
:1057A000983EDCF3869577956795B795F795E795DD
:1057B0009F5FC1F7FE2B880F911D9695879597F9EE
:1057C00008959F9305D00F9007FCEE5F28C030CF5F
:1057D00059DFE8F3E894E0E0BB279F57F0F02AEDAB
:1057E0003FE049EC06C0EE0FBB0F661F771F881F16
:1057F00028F0B23A62077307840728F0B25A620BA6
:10580000730B840BE3959A9572F7803830F49A9570
:10581000BB0F661F771F881FD2F79048FDCEEF930E
:10582000E0FF06C0A2EA2AED3FE049EC5FEBC2DDF3
:1058300010DF0F90039401FC9058E8E6F0E000C000
:105840009F938F937F936F93FF93EF939B01AC0193
:1058500055DFEF91FF9105D02F913F914F915F91CF
:105860004DCFDF93CF931F930F93FF92EF92DF9271
:105870007B018C01689405C0DA2EEF014BDFFE013D
:10588000E894A5912591359145915591AEF3EF019D
:1058900091DDFE019701A801DA9479F7DF90EF908E
:1058A000FF900F911F91CF91DF910895089582305D
:1058B000E8F4E82FF0E0EE0FFF1FEB57FE4F718387
:1058C0006083813041F0809169008C7F482B409348
:1058D0006900E89A089580916900837F440F551FFD
:1058E000440F551F482B40936900E99A08951F9271
:1058F0000F920FB60F9211242F933F934F935F9304
:105900006F937F938F939F93AF93BF93EF93FF9387
:10591000E0918501F09186010995FF91EF91BF918A
:10592000AF919F918F917F916F915F914F913F9137
:105930002F910F900FBE0F901F9018951F920F92EE
:105940000FB60F9211242F933F934F935F936F9352
:105950007F938F939F93AF93BF93EF93FF93E091C8
:105960008701F09188010995FF91EF91BF91AF9167
:105970009F918F917F916F915F914F913F912F9167
:105980000F900FBE0F901F9018951F920F920FB699
:105990000F9211242F933F938F939F93AF93BF93B5
:1059A00080911F0690912006A0912106B0912206B9
:1059B00030911E0623E0230F2D3758F50196A11DC7
:1059C000B11D20931E0680931F0690932006A0937E
:1059D0002106B09322068091230690912406A0917F
:1059E0002506B09126060196A11DB11D80932306C0
:1059F00090932406A0932506B0932606BF91AF91FD
:105A00009F918F913F912F910F900FBE0F901F90FC
:105A1000189526E8230F0296A11DB11DD2CF3FB7DE
:105A2000F8948091230690912406A0912506B091C8
:105A3000260626B5A89B05C02F3F19F00196A11D8B
:105A4000B11D3FBFBA2FA92F982F8827BC01CD01C8
:105A5000620F711D811D911D42E0660F771F881F27
:105A6000991F4A95D1F708958F929F92AF92BF9256
:105A7000CF92DF92EF92FF926B017C01D0DF4B015E
:105A80005C01C114D104E104F104D9F026D3C7DFCD
:105A9000681979098A099B09683E73408105910557
:105AA00080F321E0C21AD108E108F10888EE880EDF
:105AB00083E0981EA11CB11CC114D104E104F104BF
:105AC00031F7FF90EF90DF90CF90BF90AF909F9015
:105AD0008F900895789484B5826084BD84B5816088
