:1000000061C000000C9435310C945C3183C0000059
:1000100081C000007FC000007DC000007BC00000E8
:1000200079C0000077C0000075C0000073C00000F8
:1000300071C000000C94A72C6DC000006BC00000C4
:100040000C94833167C000000C947A340C94AC3467
:1000500061C000005FC000005DC000005BC0000028
:1000600059C0000057C00000000000080002010055
:100070000003040700000000000000000102040863
:100080001020408001020408102001020408102002
:10009000040404040404040402020202020203032E
:1000A00003030303000000002300260029000000D2
:1000B0000000250028002B0000000000240027007D
:1000C0002A00D13411241FBECFEFD8E0DEBFCDBF50
:1000D00012E0A0E0B1E0E4E4FBE602C005900D927E
:1000E000A631B107D9F726E0A6E1B2E001C01D9222
:1000F000A039B207E1F710E0C2E6D0E004C02197D2
:10010000FE010E947135C136D107C9F70E94352E14
:100110000C94A03575CFFC01A781B0858C91918599
:100120008923A481B5819C91408151816281738131
:100130002681922359F081110BC04F5F5F4F6F4FA3
:100140007F4F408351836283738308958111F5CF7C
:100150004150510961097109F4CF87E192E0DBCF89
:1001600082E292E0D8CF8DE292E0D5CF88E392E0B0
:10017000D2CFFC01A481B5818C9196818923A7817E
:10018000B0859C9140815181628173812185922348
:1001900059F0882359F04F5F5F4F6F4F7F4F408377
:1001A00051836283738308958823A9F341505109D1
:1001B00061097109F4CF87E192E0DBCF82E292E03E
:1001C000D8CF8DE292E0D5CF88E392E0D2CF0F93E3
:1001D0001F93CF93DF93082F162FEA01A0911602E9
:1001E0008BE0A89FD0011124A95EBD4F1D921D92E6
:1001F0001D921C92139781E01A968C931A97802F68
:1002000090E0FC01E458FF4FE4911696EC931697AA
:10021000FC01E057FF4FE491F0E0EE0FFF1FEC55BB
:10022000FF4F8591949115969C938E931497862FEA
:1002300090E0FC01E458FF4FE4911996EC93199774
:10024000FC01E057FF4FE491F0E0EE0FFF1FEC558B
:10025000FF4F8591949118969C938E93179760E029
:10026000802F0E94E73260E0812F0E94E732809168
:100270001602813081F1A0F0823009F445C083304C
:1002800009F45BC08091160291E0980F90931602DA
:10029000888390E080E0DF91CF911F910F910895C6
:1002A00080E0023021F08FEF033009F481E041E07B
:1002B00050E06DEA70E00E94153180E0123021F0CC
:1002C0008FEF133009F481E041E050E06BED70E016
:1002D0000E941531D7CF80E0023021F08FEF03303C
:1002E00009F481E041E050E060EB70E00E941531DC
:1002F00080E0123021F08FEF133009F481E041E00B
:1003000050E06EED70E0E4CF80E0023021F08FEF3E
:10031000033009F481E041E050E063EB70E00E94BB
:10032000153180E0123021F08FEF133009F481E0B5
:1003300041E050E061EE70E0CBCF80E0023021F090
:100340008FEF033009F481E041E050E066EB70E0AC
:100350000E94153180E0123021F08FEF133009F444
:1003600081E041E050E064EE70E0B2CF9BE0899F15
:10037000F0011124E95EFD4F80819181A281B3815A
:10038000FB0180839183A283B38390E080E0089592
:100390009BE0899FF0011124E95EFD4F10821182DC
:1003A0001282138290E080E0089590E080E008954A
:1003B000CF92DF92EF92FF92CF93882351F16A019F
:1003C0007B01CFEFC80F20E030E0A901CB01B601DF
:1003D0000E943D2F18168CF0C701B60190580E945C
:1003E000462F9B01AC016C2F70E090E080E0CF9134
:1003F000FF90EF90DF90CF90B2C0C701B6010E948E
:10040000412F8C2FCF91FF90EF90DF90CF900C94E5
:100410006332CF91FF90EF90DF90CF9008950F93CC
:100420001F938B019C0183E03695279517950795BF
:100430008A95D1F70D5B1D4F462F477021E030E0C4
:10044000F90102C0EE0FFF1F4A95E2F7AF01F80174
:1004500020812423CB010196211102C090E080E08D
:100460001F910F9108950F931F938B019C0183E0BF
:1004700036952795179507958A95D1F7677081E08E
:1004800090E001C0880F6A95EAF7F801ED5BFD4F37
:100490002081452B31F48095822380831F910F9119
:1004A0000895822BFACF2F923F924F925F926F92D4
:1004B0007F928F929F92AF92BF92CF92DF92EF92F4
:1004C000FF920F931F93CF93DF93D62EC72E782ED4
:1004D000692E49015A01280161E08D2D0E94E73201
:1004E000CD2DDC2D8E010F5F1F4FA8016D2D7C2DB2
:1004F000872D962DB8DF20E030E0A901C201B701B9
:100500000E947730181664F4C201B7010E94462F8A
:100510002B01C501B4010E94462FA201CE0123D0B8
:10052000C801DF91CF911F910F91FF90EF90DF9065
:10053000CF90BF90AF909F908F907F906F905F9083
:100540004F903F902F900895882341F08150682F5D
:1005500070E090E080E050E040E085CF0895862F85
:10056000B9010C9463329C01FC01E859FF4FE491FE
:10057000E33061F140F4E13011F1E23021F160E06B
:10058000822F0C942333E730C1F1E83009F441C0E5
:10059000E430A9F7809180008C7F82608093800096
:1005A00090918100907E9061692B609381005093BF
:1005B0008700409386008091800080621BC084B5D4
:1005C000806884BDDCCF84B58062FBCF80918000E1
:1005D0008C7F82608093800090918100907E9061FA
:1005E000692B60938100509387004093860080912F
:1005F0008000806880938000C2CF8091B0008068C6
:100600008093B0008091B100887F682B6093B10027
:10061000B6CF8091B0008062F3CF611102C00C941C
:10062000E7326130E1F362E0FACF662319F061E06E
:100630000C94233360E0FCCF90E080E008950F93AA
:100640001F93009709F489C06115710509F485C0ED
:1006500000914401109145012091460130914701DC
:100660000E3F1F4F2F4F3F4F09F068C04FEF5FEF16
:10067000BA01409344015093450160934601709341
:1006800047014091440150914501609146017091AC
:100690004701DC011296ED91FC9180819181A2814C
:1006A000B3818093650390936603A0936703B0932F
:1006B000680384819581A681B781809361039093BB
:1006C0006203A0936303B093640380859185A28540
:1006D000B38580935D0390935E03A0935F03B09313
:1006E000600384859585A685B7858093590390938B
:1006F0005A03A0935B03B0935C03109255031092CE
:10070000560310925703109258030E94AD1082EDC9
:1007100090E190934D0280934C0290934F0280930E
:100720004E020E949C0F009731F421E030E030939C
:100730006A03209369031F910F910895009144016A
:10074000109145012091460130914701DB010D9345
:100750001D932D933C93139794CF8FEF9FEFEBCF87
:100760008F929F92AF92BF92CF92DF92EF92FF92C1
:100770001F93CF93DF934B015C0110916C0382E0D8
:1007800090E090936A038093690381149104A1041B
:10079000B10441F480916C03811104C080916B031A
:1007A000C1E08111C0E0C12CD12C760180916C0395
:1007B000811106C080916B03811102C0CC23D9F056
:1007C00083E090E090936A0380936903CC2381F1E6
:1007D000CCE9DFEF111102C00E943714CE01DF9186
:1007E000CF911F91FF90EF90DF90CF90BF90AF908F
:1007F0009F908F9008956AE070E080E090E00E9402
:10080000F23180E1C80E87E2D81EE11CF11C8FEFA7
:1008100088169806A806B80631F0C1E08C149D042D
:10082000AE04BF0408F0C0E080E00E94D00FBECF4D
:10083000D0E0C0E0CFCFCF92DF92EF92FF920F9344
:100840001F93CF93DF938F3F910511F008F051C0B4
:100850002091690330916A032330310539F02091EA
:10086000690330916A032130310531F424E030E02E
:1008700030936A03209369036A017B01EC018230A3
:100880009105A8F011E0AE01C701B6010E949B0FCF
:10089000AB01BC01CE011123F9F0DF91CF911F9183
:1008A0000F91FF90EF90DF90CF900C9460168C0129
:1008B000000F111F045B1D4FD8018D919C91892B56
:1008C00009F30E946A160297E9F6D801ED91FC91AE
:1008D000CE010995182FD7CF0E94821690E080E0B4
:1008E000DF91CF911F910F91FF90EF90DF90CF900C
:1008F00008958FEF9FEFF4CF80E00C94D00FCF934B
:10090000DF9386E090E090936A03809369030E94EE
:100910002910EC01ECE4F2E084E0DF011D928A95FD
:10092000E9F70E94CF1310926A0310926903CE0177
:10093000DF91CF91089580916B03089580915403C6
:10094000089560934401709345018093460190930C
:10095000470190E080E008954F925F926F927F92FE
:100960008F929F92AF92BF92CF92DF92EF92FF92BF
:100970000F931F93CF93DF93CDB7DEB72A970FB6B0
:10098000F894DEBF0FBECDBFDB01FB01E150F04CA0
:100990008F01000F111F000F111FF801E80FF91F41
:1009A0004080518062807380530142018824B7FCEB
:1009B00083949924AA24BB248F829886A986BA8618
:1009C00075016401F094E094D094C094C11CD11CD2
:1009D000E11CF11C261737079CF5F901E150F04C9A
:1009E000EE0FFF1FEE0FFF1FE80FF91F80809180B1
:1009F000A280B380482459246A247B24F8013496C9
:100A0000E80FF91F77FE18C08F809884A984BA84F4
:100A1000B1E08B1A9108A108B108FA0190E080E0DA
:100A20002150310933C072906290529042904C1420
:100A30005D046E047F0441F71197A217B3079CF77A
:100A4000F901621773070CF4FB018C01CA0170E015
:100A500060E06E177F07ECF1CF01F7FF02C090E076
:100A600080E0FC01EE0FFF1FEE0FFF1FE40FF51FEC
:100A700082179307BCF4C192D192E192F192019650
:100A8000F7CF81929192A192B1920196821793072A
:100A9000C4F3C094D094E0948FE7F826C082D1824A
:100AA000E282F3822A960FB6F894DEBF0FBECDBF66
:100AB000DF91CF911F910F91FF90EF90DF90CF903A
:100AC000BF90AF909F908F907F906F905F904F906E
:100AD0000895D8018D909D90AD90BD908D01DC0161
:100AE0008D929D92AD92BD92CD016F5F7F4FB1CF40
:100AF0002F923F924F925F926F927F928F929F922E
:100B0000AF92BF92CF92DF92EF92FF920F931F931B
:100B1000CF93DF93CDB7DEB72E970FB6F894DEBF35
:100B20000FBECDBF9E878D873C872B871801FA01AA
:100B300025E0F695E7952A95E1F7DB01A150B04C49
:100B4000AA0FBB1FAA0FBB1FA80FB91FCD90DD9026
:100B5000ED90FC90FF0CCC08DC2C7601E617F70733
:100B60000CF0D5C0DF01A00FB11F9B01A617B7077E
:100B70000CF49D018A010F711127DF01AA0FBB1F21
:100B8000AA0FBB1F01151105F1F40D851E850A0F73
:100B90001B1F8B859C8550E040E0BA016E0F7F1FC4
:100BA000621773070CF05DC0D8018D909D90AD90D9
:100BB000BD908D01DC018D929D92AD92BD92CD01D3
:100BC0004F5F5F4FEACF6D847E846A0E7B1E7C820E
:100BD0006B82D3014D905D906D907C90AB84BC8412
:100BE000BA82A98250E040E0A0E2B0E0CD01801BD3
:100BF000910B9E838D8353014201002E04C0B69455
:100C0000A794979487940A94D2F74F5F5F4FDF01C0
:100C1000A40FB51FA217B30784F1D701C601261789
:100C200037076CF4220F331F220F331FED85FE852B
:100C30002E0F3F1FF90180819181A281B3810D8028
:100C400004C0880F991FAA1FBB1F0A94D2F78829D6
:100C50009929AA29BB29E981FA8180839183A283FA
:100C6000B3839A01220F331F220F331F6B847C84BE
:100C7000620E731E7A8269822EC0DA01AA0FBB1F30
:100C8000AA0FBB1F6B807C80A60DB71D4D905D9099
:100C90006D907C90D301C2010D8004C0880F991F14
:100CA000AA1FBB1F0A94D2F7882A992AAA2ABB2A0C
:100CB000A981BA818D929D92AD92BD92BA83A9838A
:100CC0009ACFE981FA81C192D192E192F192FA83AD
:100CD000E9834F5F5F4F421553059CF32E960FB685
:100CE000F894DEBF0FBECDBFDF91CF911F910F9162
:100CF000FF90EF90DF90CF90BF90AF909F908F903C
:100D00007F906F905F904F903F902F90089550E0AC
:100D100040E0A7CF2F923F924F925F926F927F92C7
:100D20008F929F92AF92BF92CF92DF92EF92FF92FB
:100D30000F931F93CF93DF93CDB7DEB7CB54D10979
:100D40000FB6F894DEBF0FBECDBF26967FAF6EAF55
:100D5000269728965FAF4EAF28973E8B2D8B2C960B
:100D6000FFAEEEAE2C97FB01E150F04CEE0FFF1FF3
:100D7000EE0FFF1FE80FF91F80809180A280B380E3
:100D80008F8A988EA98EBA8EB501A401442777FD6B
:100D9000439555276627772729964FAF2997F9015D
:100DA000E150F04CEE0FFF1FEE0FFF1F2896AEAC88
:100DB000BFAC2897EA0DFB1DC080D180E280F38094
:100DC000CB8EDC8EED8EFE8EB701A601442777FD1B
:100DD00043955527662777272A964FAF2A97188B72
:100DE0000F87F80130E020E02C96EEACFFAC2C979A
:100DF0002E153F050CF43FC022969FAF8EAF229771
:100E00001A8B098B312C212C812C912C5401839429
:100E10008D829E82AF82B88626968EAC9FAC269736
:100E2000281439047CF129969FAC29972A96AFACF7
:100E30002A9730E020E041E050E060E070E09A1056
:100E4000F5C1C55BDF4F0FB6F894DEBF0FBECDBF57
:100E5000DF91CF911F910F91FF90EF90DF90CF9096
:100E6000BF90AF909F908F907F906F905F904F90CA
:100E70003F902F90089511921192119211922F5F2D
:100E80003F4FB2CF2296EEADFFAD22978191919167
:100E9000A191B1912296FFAFEEAF22978F88988CE7
:100EA000A98CBA8CB7FE23C04D815E816F81788595
:100EB00041505109610971095A016B01A81AB90A17
:100EC000CA0ADB0AD601C50121E0CD80DE80EF80B1
:100ED000F8848C159D05AE05BF0508F020E0822E34
:100EE000912CB12CA12C8D829E82AF82B8865D019F
:100EF000CC24DD24A8A2B9A2CAA2DBA29C01AD0128
:100F0000442755272CA33DA34EA35FA32C96EEADFB
:100F1000FFAD2C97E219F3098D889E888E169F06E7
:100F20000CF4F4012896AEACBFAC28972496BFAE63
:100F3000AEAE2497C988DA88DC8ACB8A1E861D86E5
:100F4000812C912C5401839489869A86AB86BC8629
:100F5000812C912C5401CD84DE84CE16DF0604F161
:100F6000F7FF02C0F0E0E0E0E20DF31D2C96EEACDE
:100F7000FFAC2C97EE15FF0554F4EE0FFF1FEE0F9C
:100F8000FF1FE00FF11F80829182A282B3822FEFB8
:100F9000221A320AE989FA893496FA8BE98B3CCF16
:100FA0002496AEADBFAD2497CD90DD90ED90FD9031
:100FB0002496BFAFAEAF24972B8D3C8D4D8D5E8DAB
:100FC00057FF22C089859A85AB85BC850197A10909
:100FD000B109AC01BD014C195D096E097F096A01B7
:100FE0007B0181E029853A854B855C85C216D30655
:100FF000E406F50608F080E0482F50E070E060E07D
:1010000049875A876B877C87B7018827992768A704
:1010100079A78AA79BA7EE24FF2428A139A14AA17A
:101020005BA1C701B6010E942C352B013C012CA10C
:101030003DA14EA15FA168A579A58AA59BA50E94A7
:101040002C356CA77DA78EA79FA7AB89BC894D9136
:101050005D916D917D91BC8BAB8BDB01CA01880DDD
:10106000991DAA1DBB1D89839A83AB83BC8391E024
:101070009F8F29813A814B815C81281539054A056A
:101080005B0508F01F8E2CA13DA14EA15FA1C701F9
:10109000B6010E942C356B017C0189809A80AB805F
:1010A000BC808C0C9D1CAE1CBF1C89829A82AB82BA
:1010B000BC8252019924882488AA99AAAAAABBAA08
:1010C00029813A814B815C81280D391D4A1D5B1DA8
:1010D0002CAB3DAB4EAB5FAB8CA49DA4AEA4BFA428
:1010E00054019924882488AE99AEAAAEBBAE280DCF
:1010F000391D4A1D5B1D2CAF3DAF4EAF5FAFAB89B5
:10110000BC8914972D933D934D935C93139728A11D
:1011100039A14AA15BA168A579A58AA59BA50E94D2
:101120002C359F8C690D711D811D911D2301662435
:101130007724460E571E681E791E2CA53DA54EA588
:101140005FA54A01AA24BB24840C951CA61CB71CCD
:1011500081E090E0A0E0B0E049815A816B817C8120
:101160004C155D056E057F0518F080E090E0DC0110
:10117000880D991DAA1DBB1D41E050E060E070E0A4
:1011800088A899A8AAA8BBA8CCA8DDA8EEA8FFA803
:10119000C814D904EA04FB0418F040E050E0BA0196
:1011A000840F951FA61FB71F812C912C5401839487
:1011B000C8ACD9ACEAACFBAC2CAD3DAD4EAD5FAD2F
:1011C0002C153D054E055F0518F0812C912C54011E
:1011D000880E991EAA1EBB1E4D855E854F5F5F4F10
:1011E0005E874D87B8CEEF85F889C190D190E190A8
:1011F000F190F88BEF87DB01CA010197A109B109D2
:101200008C199D09AE09BF09349780839183A2830D
:10121000B383E1E084179507A607B70708F0E0E07D
:101220004E2F50E070E060E02F5F3F4F2C968EAC69
:101230009FAC2C9728153905B4F203CE2F923F921C
:101240004F925F926F927F928F929F92AF92BF92D6
:10125000CF92DF92EF92FF920F931F93CF93DF9382
:1012600000D000D0CDB7DEB78B015C834B83FB0190
:10127000E150F04CEE0FFF1FEE0FFF1FE80FF91FBC
:10128000408151816281738177FD27C04C01B12C6F
:10129000A12CC12CD12C7601A016B10664F5F40165
:1012A00061917191819191914F010E94722F4B81B7
:1012B0005C810E947D309B01AC01C701B6010E9498
:1012C000C62E6B017C012B813C81205E3F4F3C830D
:1012D0002B833FEFA31AB30ADFCF9A838983312C84
:1012E000212C81E090E0A0E0B0E0C12CD12C76016F
:1012F00020163106CCF0C701B6010F900F900F9069
:101300000F90DF91CF911F910F91FF90EF90DF90A1
:10131000CF90BF90AF909F908F907F906F905F9095
:101320004F903F902F900895E981FA81419051901C
:1013300061907190FA83E983409450946094709422
:1013400053014201880E991EAA1EBB1EC501B4019D
:101350000E94722F4B815C810E947D309B01AC0109
:10136000C701B6010E94C52E6B017C0181E0841487
:101370009504A604B70408F080E090E0B0E0A0E097
:101380002B813C81205E3F4F3C832B833FEF231A10
:10139000330AAECFFC0191E080912203811190E0ED
:1013A00092830895CF92DF92EF92FF926B017C01BE
:1013B0009F7720E030E040E859E50E943D2F87FF0D
:1013C0002BC020E030E040E05FE3C701B6010E949F
:1013D000773087FD0EC020E030E040E05FE3C701DA
:1013E000B6010E94C62EFF90EF90DF90CF900C9434
:1013F000AF2F20E030E040E05FEBC701B6010E9474
:101400007730181684F420E030E0A901C701B60156
:101410000E94B1306B017C01C701B601FF90EF90D3
:10142000DF90CF90089520E030E040E05FE3C70117
:10143000B6010E94C52EFF90EF90DF90CF900C94E4
:101440002A2F4F925F926F927F928F929F92AF92CC
:10145000BF92CF92DF92EF92FF92CF93DF93809172
:1014600022038F5F823008F09CC080932203C090DB
:101470000403D0900503E0900603F09007038FEF7C
:10148000C81AD80AE80AF80AC0920403D0920503E1
:10149000E0920603F0920703C114D104E104F104C1
:1014A00099F48091080390910903A0910A03B091E7
:1014B0000B030196A11DB11D8093080390930903AE
:1014C000A0930A03B0930B0380900C0390900D033C
:1014D000A0900E03B0900F03C0912A03D0912B036C
:1014E000609108037091090380910A0390910B03A6
:1014F0000E94722FA50194010E94B13020E030E0DB
:1015000040E85FE40E94B1302B013C01C701B60105
:101510000E94722FA50194010E94B1309B01AC0181
:10152000C301B2010E94C62E688379838A839B839C
:101530008091100390911103A0911203B0911303B5
:101540000196A11DB11D8093100390931103A093E8
:101550001203B0931303892B8A2B8B2B99F4809160
:10156000140390911503A0911603B09117030196EF
:10157000A11DB11D8093140390931503A09316032E
:10158000B0931703DF91CF91FF90EF90DF90CF9052
:10159000BF90AF909F908F907F906F905F904F9093
:1015A00008951092220363CF4F925F926F927F92C1
:1015B0008F929F92AF92BF92CF92DF92EF92FF9263
:1015C0000F931F93CF93DF93CDB7DEB764970FB61A
:1015D000F894DEBF0FBECDBF88E0E8E3F1E0A4E3FE
:1015E000B6E001900D928A95E1F7809120019091EB
:1015F0002101A0912201B091230180933C06909398
:101600003D06A0933E06B0933F06C0900C01D090DB
:101610000D01E0900E01F0900F01A701960160917D
:101620004B0670914C0680914D0690914E060E949B
:101630003D2F882341F0C0924B06D0924C06E09299
:101640004D06F0924E0680914A06811110924A068C
:10165000BE016F5E7F4F80914F060E94B601809160
:10166000400190914101A0914201B09143018D87C9
:101670009E87AF87B88B89899A89AB89BC8989870E
:101680009A87AB87BC8792E0E92EF12C8E010F5F21
:101690001F4F21E030E0AE01475F5F4F61E070E037
:1016A000CE010D9637DB24E0E22EF12C04E216E0A9
:1016B00022E030E0AE014F5F5F4F62E070E088E310
:1016C00091E028DB04E010E024E136E049E250E05C
:1016D00064E070E084E296E00BDA22E030E044E37C
:1016E00056E064E070E084E196E036D9C0903C06B4
:1016F000D0903D06E0903E06F0903F0650E040E07E
:1017000062E070E084E396E099DD20E030E040E0C4
:101710005BE20E94B1309B01AC01C701B6010E949F
:10172000C52E6093400670934106809342069093C5
:101730004306209108013091090140910A0150911E
:101740000B010E94B13020916806309169064091EA
:101750006A0650916B060E94C62E20912801309196
:10176000290140912A0150912B010E94B1305B0167
:101770008C01C0902C01D0902D01E0902E01F090B2
:101780002F019B01AC01C701B6010E943D2F87FDCF
:1017900012C0C0903001D0903101E0903201F09041
:1017A00033019501A801C701B6010E9477301816D0
:1017B00014F065017801A7019601609134017091E0
:1017C000350180913601909137010E943D2F87FFAE
:1017D000DDC0609110017091110180911201909112
:1017E0001301409014015090150160901601709003
:1017F0001701D8DD4B015C0120E030E040E853E404
:101800000E943D2F6FEF87FF0EC020E030E0A9015E
:10181000C501B4010E94773060E087FD04C0C501B6
:10182000B4010E94462F87E00E941503C301B20154
:10183000B9DD4B015C0120E030E040E853E40E9458
:101840003D2F6FEF87FF0EC020E030E0A901C501FA
:10185000B4010E94773060E087FD04C0C501B40187
:101860000E94462F88E00E94150366E070E080E049
:1018700090E00E940F028C019093570680935606C9
:10188000E894F7F820E030E04FE753E4C701B601F1
:101890000E943D2F181634F4C12CD12C8FE7E82E6E
:1018A00083E4F82EB701A601C8010E94D801209157
:1018B00040063091410640914206509143066091A6
:1018C00000017091010180910201909103010E9439
:1018D000B130209124013091250140912601509191
:1018E00027010E94B130209168063091690640912D
:1018F0006A0650916B060E94C62E6093680670932C
:10190000690680936A0690936B0680911803909104
:101910001903A0911A03B0911B030196A11DB11DDB
:101920008093180390931903A0931A03B0931B0399
:10193000892B8A2B8B2B99F480911C0390911D038A
:10194000A0911E03B0911F030196A11DB11D8093AC
:101950001C0390931D03A0931E03B0931F03649672
:101960000FB6F894DEBF0FBECDBFDF91CF911F91B0
:101970000F91FF90EF90DF90CF90BF90AF909F902E
:101980008F907F906F905F904F90089560911801B5
:101990007091190180911A0190911B0140901C01D6
:1019A00050901D0160901E0170901F0122CF4F9238
:1019B0005F926F927F92AF92BF92DF92EF92FF920F
:1019C0000F931F93CF93DF9384E090E07BD1EAE6FF
:1019D000F2E08EECDF011D928A95E9F787E293E051
:1019E00097838683CAE2D3E0D093AB02C093AA0266
:1019F0000CE013E0158B048BF093D502E093D40236
:101A0000F583E48321E030E0DC012D933C9381E712
:101A100091E0938782872CE233E03983288340E08A
:101A200050E060E87FEB40932303509324036093DE
:101A30002503709326034AE057ED63EA7BE3D80160
:101A40004D935D936D937C931397C2EFD2E084E73F
:101A50009BE0ABE3B3EE88839983AA83BB8387EBD8
:101A60009FE2A6E4BEEB8093F6029093F702A09368
:101A7000F802B093F9028CEB90E9A1EAB9E88093FF
:101A8000FA029093FB02A093FC02B093FD0287E759
:101A90009CE4A0E6B3EF8093FE029093FF02A09334
:101AA0000003B0930103AEE5B2E0B383A283E0E5A7
:101AB000F2E01196FC93EE9383E891E091838083AA
:101AC000938382839583848397838683918780879A
:101AD000938782879587848782E093E015969C930D
:101AE0008E9314971396DC93CE93129717963C938C
:101AF0002E931697E4E1F6E080E3DF011D928A95CC
:101B0000E9F7C4E4D6E082E3FE0111928A95E9F791
:101B1000DD24D394D9AA80E0A82E81E0B82EF50167
:101B200084859585A685B7858F839887A987BA8789
:101B3000412C512C3201439449825A826B827C821F
:101B40004FE456E063E082E00E94E700DD821E82FF
:101B50001C8EDFA64D8E5E8E6F8E78A261E087E0D0
:101B60000E940D03D9A21C8ADEA64D8A5E8A6F8A66
:101B7000788E61E088E00E940D03D98E1C86D8AA79
:101B80004D865E866F86788AE12CF12C8701A8014C
:101B9000970166E070E080E090E00E9453029B8B2A
:101BA0008A8BD98AF50184819581A681B7818CA31E
:101BB0009DA3AEA3BFA38B85DF91CF911F910F9102
:101BC000FF90EF90DF90BF90AF907F906F905F900D
:101BD0004F900C94C80180914406811114C081E09B
:101BE000809344068091450690914606A091470651
:101BF000B09148060197A105B10529F480914906E5
:101C000081110E94D50180916006811103C081E09D
:101C10008093600680915806811103C081E0809313
:101C200058068091500681112EC081E080935006A5
:101C30008091510690915206A0915306B09154069E
:101C40000197A105B105F9F4809155068823D9F0D3
:101C500066E070E080E090E00E940F0290935706EB
:101C60008093560640E050E0BA010E94D80166E039
:101C700070E080E090E00E940F02909357068093FE
:101C800056060C94A402089560E070E080E89FE797
:101C9000089560E070E080E89FE7089560E070E0FC
:101CA00080E89FEF089560E070E080E89FEF08957E
:101CB00060E070E080EC9FEF089560E070E080EC01
:101CC0009FEF0895F5DF60938206709383068093FB
:101CD000840690938506F1DF60937606709377060D
:101CE0008093780690937906CFDF60937E06709399
:101CF0007F068093800690938106CBDF60937A06FF
:101D000070937B0680937C0690937D06C7DF60937B
:101D10008606709387068093880690938906C3DFB2
:101D200060938A0670938B0680938C0690938D0641
:101D300008954F925F926F927F928F929F92AF928F
:101D4000BF92CF92DF92EF92FF920F931F93F8947E
:101D500040904403509045036090460370904703C1
:101D6000C0903803D0903903E0903A03F0903B03E1
:101D70004130510509F0A4C09B01AC01241935097B
:101D80004609570929013A01009140031091410386
:101D9000209142033091430348015901840C951C62
:101DA000A61CB71C80169106A206B306A0F40091EB
:101DB0003C0310913D0320913E0330913F030F5FA0
:101DC0001F4F2F4F3F4F00933C0310933D03209331
:101DD0003E0330933F038092400390924103A092D0
:101DE0004203B092430300913C0310913D032091C4
:101DF0003E0330913F038092480390924903A092A2
:101E00004A03B0924B0300934C0310934D0320936D
:101E10004E0330934F0360934403709345038093C4
:101E2000460390934703A8E8B3E1A30192010E94FF
:101E300077356C0D7D1D8E1D9F1D6093380370934B
:101E4000390380933A0390933B030091440110912E
:101E5000450120914601309147010F3F1F4F2F4F01
:101E60003F4FF1F00091440110914501209146014E
:101E7000309147010E3F1F4F2F4F3F4F89F0C090C9
:101E80004401D0904501E0904601F090470121E0E7
:101E90008C149D04AE04BF0408F420E02093540386
:101EA00078941F910F91FF90EF90DF90CF90BF90AB
:101EB000AF909F908F907F906F905F904F9008951C
:101EC0004B015C0184189508A608B708A30192018C
:101ED000261B370B480B590B6415750586059705AE
:101EE000D0F082169306A406B50640F420E030E058
:101EF000A90181149104A104B10491F4A8E8B3E10B
:101F00000E947735A7019601261B370B480B590B0A
:101F1000CA01B901C5CF82169306A406B50670F7AB
:101F2000A8E8B3E1A50194010E9477356C0D7D1DF1
:101F30008E1D9F1DB5CFFDCECF93DF9300D000D077
:101F4000CDB7DEB71C821B821A8219821092500311
:101F5000109251031092520310925303BE016F5F0F
:101F60007F4FCE0103960E948B2C69817A818B81F1
:101F70009C810E948225009761F4BE016F5F7F4FB4
:101F8000CE0103960E94972C69817A818B819C8176
:101F90002DD50F900F900F900F90DF91CF91089556
:101FA000FF920F931F93CF93DF93082F60E070E0B1
:101FB000CB010E94F231FF24F3940E946D24EC01C6
:101FC000892B89F010E0CE3F8FEFD80769F000230E
:101FD00061F160E070E0CB010E94F23181E090E0BD
:101FE000892B59F322C011E024D5EC01892B21F073
:101FF000CE3F8FEFD80759F711111EC011E022967E
:1020000009F410E00E941E24EC01892B21F0CE3F40
:102010008FEFD807E1F6111111C011E0CE3F8FEF1D
:10202000D80709F410E001110BC0CE01DF91CF9168
:102030001F910F91FF90089511E0E4CF11E0F3CFCD
:1020400060E070E0CB010E94F2311F25812F90E00B
:10205000C7CFCF93DF9380915403882321F060E0B2
:1020600070E0CB014DD636D6D0E0C0E0892B71F0C0
:102070006AE070E080E090E00E94F23181E090DF61
:1020800029D62196C03D27E0D20781F728D60E94A5
:10209000D62510926C0310926B0310926503109278
:1020A0006603109267031092680310926103109206
:1020B0006203109263031092640310925D03109206
:1020C0005E0310925F031092600310925903109206
:1020D0005A0310925B0310925C0310925503109206
:1020E000560310925703109258034EEF5FEF6FEFB5
:1020F0007FEF4093440150934501609346017093F4
:10210000470110925403E8E4F3E028E0DF011D9258
:102110002A95E9F710924403109245031092460362
:102120001092470310924003109241031092420311
:102130001092430310923C0310923D0310923E0311
:1021400010923F03109238031092390310923A0311
:1021500010923B03DF91CF91089510927803109273
:10216000790310927A0310927B0310927703809187
:10217000800390918103909376038093750310926E
:1021800074031092730310926F03109270031092F5
:1021900071031092720310927D0310927C0390E001
:1021A00080E00895CF92DF92EF92FF920F931F93FA
:1021B000CF938C01019709F055C020918003309195
:1021C0008103809175039091760340918003509133
:1021D000810350937603409375032817390781F0E4
:1021E000109274031092730310926F031092700395
:1021F000109271031092720310927D0310927C036F
:102200008091800390918103019761F580917C0317
:1022100090917D03892B21F480914801811112C096
:1022200080917C0390917D030197E1F480916F038D
:1022300090917003A0917103B09172030197A10571
:10224000B10581F410926F03109270031092710324
:10225000109272031092480182E090E090937D0307
:1022600080937C038091800390918103019709F012
:102270001CC180919603909197038017910709F0F4
:1022800014C18091920390919303A0919403B09113
:102290009503009709F409C12091910321110DC004
:1022A0004091920350919303609194037091950330
:1022B000452B462B472B09F4F8C020917C03309125
:1022C0007D032230310509F0F0C020917303211104
:1022D000ECC0FC01C080D180E280F3808091770364
:1022E000882309F4D3C08091830390918403892BC0
:1022F00009F4FEC0209183033091840381E02230F1
:10230000310509F080E02091830330918403C1E01E
:102310002130310549F02091830330918403C1E0DD
:102320002230310509F0C0E0882309F456C020911D
:102330008D0330918E0340918F0350919003C7011C
:10234000B6010E94773087FD14C020918D03309133
:102350008E0340918F0350919003609178037091A8
:10236000790380917A0390917B030E943D2F87FD32
:1023700022C020918D0330918E0340918F035091A4
:102380009003C701B6010E947730181634F52091EA
:102390008D0330918E0340918F0350919003609193
:1023A00078037091790380917A0390917B030E9466
:1023B0003D2F811112C08091850390918603A091D9
:1023C0008703B0918803892B8A2B8B2B19F481E02A
:1023D0008093740381E080937303CC2309F456C087
:1023E00020918D0330918E0340918F035091900383
:1023F000C701B6010E943D2F87FF14C020918D03B5
:1024000030918E0340918F03509190036091780337
:102410007091790380917A0390917B030E947730C9
:1024200087FF22C020918D0330918E0340918F034E
:1024300050919003C701B6010E943D2F811126C023
:1024400020918D0330918E0340918F035091900322
:10245000609178037091790380917A0390917B0366
:102460000E947730181694F480918503909186032A
:10247000A0918703B0918803892B8A2B8B2B19F4A9
:1024800081E08093740381E08093730381E09091F5
:102490007303911180E080937703C0927803D09208
:1024A0007903E0927A03F0927B030130110509F081
:1024B00067C180917C0390917D03892BD9F41092A0
:1024C00082031092730380914801882379F082E09F
:1024D00090E090937D0380937C03109248012091BB
:1024E00080033091810381E0232BE9F080E01BC061
:1024F00081E009CF1092480180918203882349F03E
:102500001092740310927D0310927C031092820348
:10251000EDCF8091800390918103892BE1F0809130
:1025200073031092730320917C0330917D0322305A
:10253000310509F45EC088F42115310509F448C05D
:102540002130310509F4F3C0109274031092730323
:102550001092820338C081E0E6CF2330310509F4C0
:10256000B1C02430310581F740916F035091700361
:1025700060917103709172034115510561057105F8
:1025800061F0415051096109710940936F03509303
:102590007003609371037093720340916F035091C5
:1025A00070036091710370917203452B462B472B8A
:1025B000D9F420917E0330917F032130310509F059
:1025C00046C01092740310927D0310927C030CC0DD
:1025D00080914801882341F082E090E090937D0350
:1025E00080937C031092480110926D0380917403D4
:1025F000CEC08823C9F38091850390918603A09172
:102600008703B0918803181619061A061B060CF0EA
:102610007DC08091800390918103019709F076C07D
:102620008091850390918603A0918703B0918803E0
:1026300080936F0390937003A0937103B093720320
:1026400083E090E090937D0380937C03CDCF409115
:10265000890350918A0360918B0370918C03452B01
:10266000462B472BA9F01092740380918903909117
:102670008A03A0918B03B0918C0380936F03909396
:102680007003A0937103B093720381E090E0DACFFE
:10269000882399F08091490190914A01A0914B01C2
:1026A000B0914C0180936F0390937003A0937103DA
:1026B000B093720384E090E0C5CF1092740382E07F
:1026C00090E0C0CF80916F0390917003A09171034F
:1026D000B09172030097A105B10559F00197A109C6
:1026E000B10980936F0390937003A0937103B0932B
:1026F000720380916F0390917003A0917103B09168
:102700007203892B8A2B8B2B09F06ECF80914901A4
:1027100090914A01A0914B01B0914C01892B8A2BD9
:102720008B2B09F44ECF81E080937403B3CF40919B
:102730006F035091700360917103709172034115A2
:1027400051056105710561F0415051096109710937
:1027500040936F03509370036093710370937203FF
:1027600040916F03509170036091710370917203F7
:10277000452B462B472B09F037CF8111C7CF9FCF71
:1027800080916D03882309F431CF80916E03CF913E
:102790001F910F91FF90EF90DF90CF9008951092CE
:1027A00078031092790310927A0310927B031092AF
:1027B000770310927D0310927C031092760310929F
:1027C000750310929703109296031092740310925F
:1027D000730310926F0310927003109271031092A2
:1027E000720310926E0310926D0310929203109276
:1027F00093031092940310929503109291031092F8
:102800008D0310928E0310928F031092900388EE26
:1028100093E0A0E0B0E08093490190934A01A09337
:102820004B01B0934C011092890310928A031092CD
:102830008B0310928C0310928503109286031092E2
:10284000870310928803109284031092830381E01F
:1028500080934801109282031092810310928003AA
:1028600010927F0310927E0390E080E008958091A3
:10287000800390918103892B19F580914801882369
:1028800051F080918203811106C081E080936E0334
:1028900080936D030895209182033091480181E077
:1028A00090E0332311F090E080E030E08223932326
:1028B000892B21F010926E0381E0EACF10926D0314
:1028C000089582E090E0FA01918380838FEF9FEF7B
:1028D0000895CF93DF93EA01009711F00E94F32649
:1028E0001982188290E080E0DF91CF910895DB019A
:1028F000009719F48FEF8C9308952EEF2C930F9679
:102900008F30910508F033C0FC01E757FB4E0C9463
:102910007135B514B314B114AF14AD14A914AB14BC
:10292000A714A514A314A0149C1498149E14B714EF
:1029300080E311968C93089589E2FBCF82E2F9CF70
:1029400011961C92089583E2F4CF81E2F2CF81E1E7
:10295000F0CF87E2EECF8AE2ECCF80E1EACF84E2EB
:10296000E8CF88E2E6CF86E2E4CF81E3E2CF80E2FF
:10297000E0CF8091A4039091A50308959093A503BF
:102980008093A40308958091A30308959091A303D5
:10299000892B8093A3030895982F90958091A3038A
:1029A00089238093A30308958091A20308958091C1
:1029B000A0039091A10308956115710559F0FB01E1
:1029C00030E020E070E060E02417350719F0611571
:1029D000710511F0CB010895A081B181A817B90745
:1029E00009F4BF012F5F3F4F3696EECF8091A603CB
:1029F00081111CC062D268D290939903809398038E
:102A00000E94F81E0E940A1F90939D0380939C03CE
:102A10000E9488230E948F2390939B0380939A03A4
:102A200081E08093A60390E080E0089584EF9FEF1B
:102A300008958F929F92AF92BF92CF92DF92EF92C2
:102A4000FF920F931F93CF93DF93CDB7DEB72A97F3
:102A50000FB6F894DEBF0FBECDBF1A861986188652
:102A60001F821E821D821C821B821A821982809103
:102A7000A60307EF1FEF882309F49CC08E010D5FAA
:102A80001F4F9E012B5F3F4FAE01495F5F4FBE015D
:102A9000675F7F4F90E080E00E9408258C010097DF
:102AA00021F00596029708F0DBC029853A852115AB
:102AB000310509F402C1ED80FE804B815C81B701D4
:102AC000640F751F8F8198858617970708F4F5C0E6
:102AD000E20EF31ED7019C91903C09F07FC042307A
:102AE000510508F47BC011968C914091A40350913C
:102AF000A503452B09F49CC0913F08F071C02CE15F
:102B0000290F2D3008F48BC02DE2290F203108F455
:102B100089C0903C21F48150823008F483C088E35E
:102B2000890F8B3008F481C097E7C92E94E1D92E24
:102B3000E1E6F4E16D817E81AE014F5F5F4F8985F3
:102B40009A8509955C01C114D104A1F189809A800C
:102B50008114910479F18B819C818815990508F481
:102B600087C010E000E04B815C8170E060E0C7014D
:102B70000E94993501151105E9F449815A81698549
:102B80007A858D819E81680F791FC501F6010995AF
:102B9000E980FA800D811E812F81388549855A850B
:102BA0006FEF7FEF81E090E00E94A4248C01892BDD
:102BB00009F056C0C8012A960FB6F894DEBF0FBEC2
:102BC000CDBFDF91CF911F910F91FF90EF90DF90DC
:102BD000CF90BF90AF909F908F90089580E085CF69
:102BE00030E020E0220F331FF901E856FC4F01903E
:102BF000F081E02D309709F497CF892F90E0099567
:102C0000009709F491CFDC011296ED91FC91139796
:102C10001496CD90DC90309709F08CCF1FC021E046
:102C200030E0E0CF22E030E0DDCF23E030E0DACF6B
:102C3000D12CC12CE9E6F4E19F3F09F07BCFE09174
:102C40009803F0919903309721F4C90104EF1FEF25
:102C50000CC08FEF90E009950097A9F604EF1FEFE5
:102C600089859A85009709F4A5CF0E94F326A2CF03
:102C70000E94D1258C0189859A850E94F32670E0F7
:102C800060E0C4010E946A2598878F830E94A12476
:102C90009E838D836F8178856115710559F0C80118
:102CA0000E947F289A87898706EF1FEF892B09F0FA
:102CB00058CF59CF08EF1FEF56CF08EF1FEFD0CFF7
:102CC0002091A603222319F020E00C940F1F87EF18
:102CD0009FEF08958091A4039091A50308950E9409
:102CE00094230E94EE22F5D0E8E9F3E088E0DF01CA
:102CF0001D928A95E9F71092A60390E080E008956E
:102D00000C944B2121E040E050E0BA010C940F1FDD
:102D100086E090E0FA019183808390E080E008955E
:102D200047E050E066E871E047CEDF92EF92FF9215
:102D30000F931F93CF93DF938A01EC01C60FD71F28
:102D4000E090AA03F090AB03D9800E94B925D81671
:102D5000190678F082E090E0F801918380838EEF8D
:102D60009FEFDF91CF911F910F91FF90EF90DF9038
:102D70000895EF2841F482E090E0F8019183808388
:102D800084EF9FEFEECF89818093A90390E00196B5
:102D9000F8019183808390E080E0E3CFCF93DF93CD
:102DA000EA010E94FC21882321F00E94C6250E948E
:102DB000FD2182E090E0998388838BEF9FEFDF9184
:102DC000CF910895CF93DF93EB0186E0FB01119241
:102DD0008A95E9F78FEF8883D6DD8983E5DD8A83DD
:102DE000E6DD9D838C83DF91CF910895CF93DF93B0
:102DF000EA010E94FF21811109C082E090E09983DD
:102E0000888385EF9FEFDF91CF91089590E080E078
:102E1000B5DD81E090E09983888390E080E0F3CF96
:102E20000F931F93CF93DF93EA018C01060F171FB7
:102E30000E94FF2181110BC082E090E0998388837A
:102E400085EF9FEFDF91CF911F910F910895F801CA
:102E50008181823038F082E090E0998388838EEF20
:102E60009FEFF0CF81E090E089DD88E090E09983EA
:102E7000888390E080E0E6CFCF93DF930097D1F492
:102E8000EB01FB01329686E0DF011D928A95E9F79E
:102E90008FEF888385E089831A820E94B9258B830E
:102EA0000E94B8259D838C8381E08E838F83DF9180
:102EB000CF910895DF91CF911ACD80E996E190935B
:102EC000A8038093A70308958091A7039091A80376
:102ED00008951092A8031092A70308958091AA0361
:102EE0009091AB030895411105C0611571058105ED
:102EF000910561F06093AA037093AB038093AC03D8
:102F00009093AD034093AE0381E0089580E008956F
:102F1000FF920F931F93CF93DF938A01EC01C60FAB
:102F2000D71FF9800E94B925F816190668F082E0CB
:102F300090E0F801918380838EEF9FEFDF91CF9136
:102F40001F910F91FF9008956C817D818E819F81EB
:102F50004B81C9DF811108C082E090E0F8019183C4
:102F6000808384EF9FEFEACF89818093A90390E06B
:102F70000196F8019183808390E080E0DFCFCF93CA
:102F8000DF93EA01FC01E60FF71F648175818681FA
:102F900097814381A8DF811109C082E090E0998385
:102FA000888384EF9FEFDF91CF91089581E090E0D7
:102FB0009983888390E080E0F6CFEAEAF3E04081ED
:102FC000518162817381480F511D611D711D4083C4
:102FD0005183628373830895CF93C091A9034C2FCB
:102FE00050E06091AA037091AB0301960E94903566
:102FF0008C2FE3DF1092A903CF910895009799F4E5
:103000008091AA039091AB032FEFFB012083892BC2
:1030100059F02091A90330E02F5F3F4F2417350767
:1030200019F4CB01D9CF63CC0895009799F480911E
:10303000AA039091AB032FEFFB012083892B59F05A
:103040002091A90330E02F5F3F4F2417350719F473
:10305000CB01C2CF4CCC089523E1AC01249FC00129
:10306000259F900D1124E091B303F091B403E80F74
:10307000F91F238134812250310981E0223031054A
:1030800008F080E008950F931F93CF93DF93009192
:10309000B5031091B603D0E0C0E080E00C171D0727
:1030A00049F491E0811190E0892FDF91CF911F9138
:1030B0000F9108958111F5CFCE01CEDF2196EECF8D
:1030C000A091B303B091B403109729F12091B503F7
:1030D0003091B60382179307F0F453E1589F9001A3
:1030E000599F300D1124A20FB31FED91FC91119740
:1030F000309789F012968C91681768F48DE0689F7C
:10310000E00DF11D112480819181892B21F081E056
:103110009281491708F080E008959C0143E1429FA5
:10312000C001439F900D1124E091B303F091B403CB
:10313000E80FF91F8385823091F481E090E065818A
:10314000768140914D0150914E016417750711F43D
:1031500090E080E0892B19F081E0232B09F080E0DA
:103160000895FC01A081B1818DE0689FA00DB11D83
:10317000112413964D915C9185859685489F900109
:10318000499F300D589F300D1124C90101966111DE
:1031900003C0478144FD04960895EF92FF920F9378
:1031A0001F93CF93DF93EA01FC01E60FF71F028123
:1031B0001381E480F5804F2D6E2DC80181DF8111D0
:1031C0000DC082E090E0998388838EEF9FEFDF91BE
:1031D000CF911F910F91FF90EF900895C8013CDFB0
:1031E000882339F082E090E09983888388EF9FEF0D
:1031F000EECF1093540100935301E0925501F092E9
:10320000560181E090E09983888390E080E0DFCFF1
:10321000CF92DF92EF92FF920F931F93CF93DF93A2
:103220007A01EC01C60FD71FC0905301D090540112
:103230000091550110915601412F602FC60140DFCA
:10324000811110C082E090E0F701918380838AEFC2
:103250009FEFDF91CF911F910F91FF90EF90DF9043
:10326000CF900895C601F8DE882341F082E090E017
:10327000F7019183808388EF9FEFEBCF4C815D81D5
:103280006E817F819A8189818F3F41F082E090E059
:10329000F701918380838EEF9FEFDBCFE3E1EC9D1D
:1032A0009001ED9D300D1124E091B303F091B40332
:1032B000E20FF31F0190F081E02D2DE0029FE00D61
:1032C000F11D11240190F081E02D27E0129FE00D07
:1032D000F11D1124808391838B81828343835483E6
:1032E000658376831F5F1093560181E090E0F701BC
:1032F0009183808390E080E0ACCFEF92FF920F93B8
:103300001F93CF93DF937A018C01060F171FC09193
:10331000B303D091B403209781F021E030E0F801AD
:10332000828193814091B5035091B603841795072C
:1033300010F030E020E0232B71F482E090E0F70100
:10334000918380838EEF9FEFDF91CF911F910F913B
:10335000FF90EF90089543E1489F9001499F300D01
:103360001124C20FD31F78DE882341F082E090E061
:10337000F7019183808388EF9FEFE6CFF8012481E6
:10338000358120383105C8F687818111D6CF41813A
:10339000842F90E08F7E009741F082E090E0F7016B
:1033A0009183808386EF9FEFCFCF4F833E832D8322
:1033B000268128871986223010F421E0288721E011
:1033C00030E0F70131832083BFCF88E090E0FA013D
:1033D0009183808390E080E00895FB018FEF8083EC
:1033E00081E181838FEF9FEF9383828380E890E078
:1033F00095838483168217820895FB018FEF808363
:1034000091E0918382839383848384E3858381E045
:1034100090E0978386830895DF92EF92FF920F9357
:103420001F93CF93DF93EA01FC01E60FF71F818121
:10343000813071F082E090E0998388838FEF9FEF75
:10344000DF91CF911F910F91FF90EF90DF90089542
:1034500082819381D4802581E680F7800091B30337
:103460001091B4030115110539F482E090E09983BD
:1034700088838CEF9FEFE4CF4091B5035091B60362
:103480008417950738F082E090E0998388838EEF67
:103490009FEFD6CF892B39F082E090E09983888323
:1034A00086EF9FEFCDCF8D2D8D7FB1F72130A1F726
:1034B00081E0D11006C091E0E916F10431F080E01E
:1034C00004C0E2E0EE16F104D0F3882329F390E083
:1034D00080E0C2DD882339F082E090E09983888320
:1034E00088EF9FEFADCFF801D38681E08487F68621
:1034F000E586108A178681E090E09983888390E0C2
:1035000080E09ECF4CE050E060EB71E055CA8F92B6
:103510009F92BF92CF92DF92EF92FF920F931F93F1
:10352000CF93DF93EA01FC01E60FF71F82819381BD
:103530000481B580E091B303F091B403309791F426
:1035400082E090E0998388838CEF9FEFDF91CF91A9
:103550001F910F91FF90EF90DF90CF90BF909F90C1
:103560008F9008952091B5033091B6038217930789
:1035700038F082E090E0998388838EEF9FEFE6CF6A
:1035800023E1289F6001299FD00C1124EC0DFD1D23
:10359000E080F180E114F10499F28281081748F784
:1035A0008DE0089F80011124E00EF11EF70180815B
:1035B0009181892B29F6BB20E1F2F7E0BF9E400103
:1035C0001124C4010E94BA26F70191838083E091FF
:1035D000B303F091B403EC0DFD1D0190F081E02DDB
:1035E000E00FF11F80819181009739F482E090E033
:1035F000998388838DEF9FEFA9CFA40170E060E0ED
:103600000E9499358091B3039091B403C80ED91EDE
:10361000F60180819181080F191FF801B28281E0C3
:1036200090E09983888390E080E090CFAF92BF9242
:10363000CF92DF92FF920F931F93CF93DF93EA0114
:10364000FC01E60FF71F82819381F4800091B303A0
:103650001091B4030115110581F482E090E0998383
:1036600088838CEF9FEFDF91CF911F910F91FF9097
:10367000DF90CF90BF90AF9008952091B503309127
:10368000B6038217930738F082E090E0998388832D
:103690008EEF9FEFE8CF2FEF2F0D2C3FA8F723E100
:1036A000289F6001299FD00C11240C0D1D1DF801CD
:1036B00080819181892B89F6FDE0FF9E50011124C4
:1036C000C5010E94BA26F80191838083E091B3037B
:1036D000F091B403EC0DFD1D80819181009739F4C8
:1036E00082E090E0998388838DEF9FEFBCCFA501A6
:1036F00070E060E00E949935E091B303F091B4036B
:10370000EC0DFD1DF28281E090E09983888390E0CA
:1037100080E0A9CFCF92DF92EF92FF920F931F9399
:10372000CF93DF93860F971FFC0102811381809155
:10373000B3039091B403892B81F082E090E0FA0109
:10374000918380838CEF9FEFDF91CF911F910F9139
:10375000FF90EF90DF90CF900895C801B0E0A0E017
:103760000197A109B1098F3F9F4FA105B10540F015
:1037700082E090E0FA01918380838EEF9FEFE4CFA7
:103780007A0183E1809F6001819FD00C1124C601E2
:103790000E94BA26EC01009741F482E090E0F70124
:1037A000918380838DEF9FEFCFCFA60170E060E023
:1037B0000E949935D093B403C093B3031093B6031A
:1037C0000093B50390E080E02FEF3FEF41E061E030
:1037D00070E08017910741F481E090E0F701918358
:1037E000808390E080E0B0CF3A8B298B1B864C879A
:1037F0007E876D87188A1F8601966396EACFEF92BF
:10380000FF921F93CF93DF93EC0110E0F12CE12C9A
:103810006A811617A8F070E0660F771FAE014F5E41
:103820005F4FC7010E941F27009721F02FEF3FEF46
:103830003A8B298BDF91CF911F91FF90EF900895E4
:10384000612FCE018EDC61E070E00E946A25E816EF
:10385000F90608F47C011F5FDBCFF8942091B103D7
:103860003091B20381E02115310509F080E0232B6E
:1038700009F0789408952F923F924F925F926F9241
:103880007F928F929F92AF92BF92CF92DF92EF92F0
:10389000FF920F931F93CF93DF933C01660E771E29
:1038A000F301828193814C01B12CA12CC091B3030F
:1038B000D091B403209769F021E030E06091B50326
:1038C0007091B6038617970710F030E020E0232BA5
:1038D000D1F482E090E0FA01918380838EEF9FEF34
:1038E000DF91CF911F910F91FF90EF90DF90CF90DC
:1038F000BF90AF909F908F907F906F905F904F9010
:103900003F902F9008958092570190925801A09275
:103910005901B0925A0163E1689F9001699F300D8F
:103920001124C20FD31FF3018181833040F082E064
:1039300090E0FA019183808386EF9FEFD1CF2A0137
:103940002B813C81232BF1F4288139819F8191FFC8
:103950002EC0232B09F46FC02091B8039A81422F07
:10396000490F5527551FBA0141E050E061387105F4
:1039700014F050E040E0452B09F45DC02A87920F17
:103980009093B8038150823008F481C066DF8823A9
:1039900009F4D8C0F3018181813009F48DC008F4A5
:1039A0007BC0823009F4C6C090E080E0ADC0232B1C
:1039B00009F441C02091B7039A81E22FE90FFF2754
:1039C000FF1F41E050E0ED3FF10514F050E040E012
:1039D000452B89F12A87920F9093B703D3CFA0810B
:1039E000B181A20FB31F11966C91060F111D0196A4
:1039F000295F3F4F8417950794F38D859E85089F17
:103A00001001099F300C189F300C1124C114D104EF
:103A1000D1F48F8184FF17C00E94B825F5E02F0EE6
:103A2000311C21E08215930508F420E0A701435FD3
:103A30005F4F21110EC082E090E0F20191838083FC
:103A400087EF9FEF4DCF0E94B8252FEF221A320A41
:103A5000E8CF88819981E80EF91EF701148303836A
:103A6000FFEFCF1ADF0A7A018A818C151D0409F055
:103A70000CF48CCFE881F981EE0DFF1D428150E0FE
:103A800030E020E010E000E090E080E0B3CFF12CE7
:103A9000E12CD12CC12CE8CF81E090E09C838B837A
:103AA000F2DA882309F480CF81E090E00E94BE140E
:103AB00080E40E94CC1478CF89899A89019661F0BC
:103AC00083E090E09C838B8382E090E00E94BE14B0
:103AD00080E40E94C61468CF8D819E8120914D01A3
:103AE00030914E0182179307D1F46091510170918A
:103AF0005201AE014F5E5F4F80914F019091500196
:103B00000E943E280097E1F2789422E030E0F20132
:103B100031832083892B99F08DEF9FEFE1CE8928A7
:103B20008A288B2869F6039758F6CE0168DE188A32
:103B30001F86E8CF82E090E09C838B8335CF90E0B6
:103B400080E0CECE82E090E0F2019183808385EF29
:103B50009FEFC6CE8F929F92AF92BF92CF92DF928D
:103B6000EF92FF920F931F93CF93DF93EA018C01A3
:103B7000060F171FF8018181833098F082E090E0F2
:103B80009983888386EF9FEFDF91CF911F910F91EB
:103B9000FF90EF90DF90CF90BF90AF909F908F906D
:103BA00008958091B3039091B403892B61F081E073
:103BB00090E02091B5033091B603232B11F490E0EF
:103BC00080E0892B39F482E090E0998388838EEF3E
:103BD0009FEFDACF42DE882309F4E0C0F80181814B
:103BE000813009F496C0E8F0823099F42091B50351
:103BF0003091B603E091B303F091B40390E080E01C
:103C000041E050E02817390709F0BEC03CDA8111C5
:103C100017C0789481E090E09983888390E080E0F9
:103C2000B3CF2091B5033091B603E091B303F09187
:103C3000B40390E080E041E050E02817390741F4F8
:103C400081E090E00E94BE1480E40E94CC14E1CF99
:103C500063817481672B11F05483438301967396BB
:103C6000ECCFE091B303F091B403E00FF11F238197
:103C7000348122303105D9F4218932892F3F3F4FD9
:103C8000B1F42581368140914D0150914E012417A8
:103C9000350761F5AF014F5E5F4F60915101709143
:103CA000520180914F01909150010E943E28EFEF08
:103CB000CE1ADE0AEE0AFE0A0D5E1F4F4091B503D2
:103CC0005091B60370E060E0C416D506E606F7062C
:103CD00044F5009731F27894892B09F49BCF82E068
:103CE00090E0998388838DEF9FEF4ECFC114D1046C
:103CF000E104F104E1F623303105C8F6CF017FDDA0
:103D0000E091B303F091B403E00FF11F108A17861E
:103D1000CECF10E000E090E080E0C12CD12C760105
:103D2000CDCF0097C1F610E000E0812C912C54011A
:103D300083E0E82EF12C1AC0E091B303F091B403B4
:103D4000E00FF11F83819481029749F4F482E382AA
:103D500082E090E00E94BE1480E40E94C614FFEF4F
:103D60008F1A9F0AAF0ABF0A0D5E1F4F8091B503DD
:103D70009091B603B0E0A0E088169906AA06BB06AB
:103D8000DCF290E080E0A7CF63817481623071053E
:103D900011F4548343830196739634CF82E090E00C
:103DA0009983888385EF9FEFEFCE0097B9F48FEF6B
:103DB000FB018083209157013091580143E1429FDC
:103DC000C001439F900D1124E091B303F091B4031F
:103DD000E80FF91F8285FB01818308950C94771405
:103DE00088E090E0FA019183808390E080E008957C
:103DF0001092B2031092B103E3EBF3E086E0DF012F
:103E00001D928A95E9F782E89AE19093B003809336
:103E1000AF0308958091AF039091B00308952F925E
:103E20003F924F925F926F927F928F929F92AF924A
:103E3000BF92CF92DF92EF92FF920F931F93CF9397
:103E4000DF93CDB7DEB72F970FB6F894DEBF0FBE66
:103E5000CDBFF894E091B103F091B2033196F093A5
:103E6000B203E093B10378944090B3035090B4034D
:103E70004114510409F40CC2E091B503F091B6036A
:103E8000EF2B09F405C22D8749875A876B877C87FA
:103E900098878F831201B12CA12C10E000E0809153
:103EA000B5039091B603A816B90618F401151105CB
:103EB00029F1F8948091B1039091B2030197909306
:103EC000B2038093B1037894C8012F960FB6F8948B
:103ED000DEBF0FBECDBFDF91CF911F910F91FF903D
:103EE000EF90DF90CF90BF90AF909F908F907F909A
:103EF0006F905F904F903F902F9008957101E4185C
:103F0000F508D10117968C91179781FD54C013962F
:103F10008D919C911497039709F04DC015968D9142
:103F20009C91EF81F8858E179F0709F044C0B50179
:103F300090E080E07ED48A832091B3033091B40373
:103F40003D832C833D85332309F44CC04C815D8136
:103F5000452B09F49AC18091B5039091B603A81638
:103F6000B90608F092C1C501D8D88823E9F06C8160
:103F70007D816E0D7F1D7D836C83DB011F968D918E
:103F80009C91892B89F0D12CC12CF12CE12CAC8196
:103F9000BD8112968C9112978E151F0409F094F42E
:103FA00050961C921E921F972A81222321F0B50160
:103FB00090E080E040D43FEFA31AB30A43E1240E1F
:103FC000311C6DCFAC81BD81ED91FC91EC0DFD1DDF
:103FD0008581968108D7BFEFEB1AFB0AEDE0CE0E84
:103FE000D11CD5CFEC81FD81309709F44EC1809171
:103FF000B5039091B603A816B90608F046C1EE0DB8
:10400000FF1DFF87EE87C50188D88B83882339F190
:10401000AE85BF851F968D919C915097019621E0AA
:104020001D964D915C918417950709F020E02E8331
:104030001982712C10E000E0AE85BF8512968C913C
:10404000781608F45DC0EE85FF8587859089019616
:10405000658576850E943B35908B8787A5CFB1E03B
:10406000BE83E6CF992493946BC084D6F6019683E1
:10407000858382C0D601ED90FC90B7E06B9EE00C8A
:10408000F11C1124F7016381748180818F3F61F1FC
:1040900021E030E002C0220F331F8A95E2F7C90108
:1040A000092E000CAA0BBB0BFB01408151816281E0
:1040B000738184239523A623B72321E0892B8A2BA0
:1040C0008B2B09F420E0D4012C93D70111968C910D
:1040D000F60123853485820F932F911D880E991E3A
:1040E0001486138663949BC0418150E0C4010E94F2
:1040F0009035EBCF998206EF1FEFC5C01982C3C080
:10410000F981F111A0CFEDE07E9E70011124AE8502
:10411000BF85CD90DC90CE0CDF1C13D49D838C83A7
:10412000BB81BB2309F49ECF81E0EE85FF85278507
:104130003089232B09F080E0982E882309F458C099
:10414000672D8E859F850DD8D60118969C938E93EA
:10415000179761E070E0BED4EE85FF852189328932
:104160002F3F320709F481CFBC01C901C8D7D6015E
:1041700016969C938E931597D60115968D919C91CA
:104180001697009709F4B6CFEC81FD818E0F9F1F23
:104190001A969C938E931997AE85BF85ED91FC91ED
:1041A0001197EE0EFF1EF7012185328514861386C6
:1041B0001A968C91870DD9018D93711016C0EE85DA
:1041C000FF85878184FF11C049855A856B857C8571
:1041D000F9014183528363837483F7018385948556
:1041E0000496A80FB91F14861386F701B287A1871A
:1041F000D60115968D919C911697892B09F443C091
:10420000EE85FF852581368180914D0190914E018B
:104210002817390779F019968D909C90612CD6015A
:1042200012968C911297681608F424CF1A969C92D5
:104230008E921997BE81BB2309F460CF61E070E0D4
:10424000F6018781908546D4D6011796ED90FC90B3
:10425000189715964D915C91E1E0F0E0BA81BB238F
:1042600011F0F0E0E0E00C811D819C01B501882790
:1042700099278E1B9F0B68D38C01892B21F0F601A7
:1042800085819681B0D57394D7CE0FEF1FEF8CCE7A
:1042900010E000E00ECE2F923F924F925F926F920D
:1042A0007F928F929F92AF92BF92CF92DF92EF92C6
:1042B000FF920F931F93CF93DF938091B30390915D
:1042C000B40310E000E0892BA9F0C7DA0AEF1FEF72
:1042D000882381F02090B5033090B603C091B303DA
:1042E000D091B403D12CC12C10E000E02C143D047B
:1042F000A9F47894C801DF91CF911F910F91FF909D
:10430000EF90DF90CF90BF90AF909F908F907F9075
:104310006F905F904F903F902F900895C6010E943C
:104320008D18882309F18B819C810397E9F48F858F
:104330009889892BC9F0B60190E080E07AD221E01B
:1043400030E0882311F030E020E044245524421A64
:10435000530AB12CA12C912C812C8A818815190427
:1043600009F038F4188A1F864FEFC41AD40A6396EE
:10437000BDCFE881F981EA0DFB1D85819681892BEE
:10438000A1F161E070E087819085A4D33C01D9D28E
:104390008C01E881F981EA0DFB1D818592852581DB
:1043A0003681200F311FAC01421B530B9A0147810C
:1043B0005085421B530B70E060E00E949935E88104
:1043C000F981EA0DFB1DE780F08445815681930158
:1043D000B601C201B9D28C01892B39F0E881F9818B
:1043E000EA0DFB1D85819681FED45FEF851A950A43
:1043F0008DE0A80EB11CB1CF30CA789408952F92E9
:104400003F924F925F926F927F929F92AF92BF9234
:10441000CF92DF92EF92FF920F931F93CF93DF9390
:1044200000D000D000D0CDB7DEB70091B30310911B
:10443000B403992493940115110509F43EC0A0908A
:10444000B503B090B60309DA982E8823B1F1109223
:10445000B4031092B3031092B6031092B5031092F6
:10446000B7031092B8038FEF9FEFDC0180935701E1
:1044700090935801A0935901B0935A0178947AD33C
:104480001E830D83C12CD12C7601C501B0E0A0E0C4
:1044900089839A83AB83BC8322242A94322C89811A
:1044A0009A81AB81BC81C816D906EA06FB06F4F0F6
:1044B000C80199D480E40E94CC14892D26960FB6A9
:1044C000F894DEBF0FBECDBFDF91CF911F910F914A
:1044D000FF90EF90DF90CF90BF90AF909F907F9034
:1044E0006F905F904F903F902F900895AD81BE8167
:1044F00015968D919C91169720914D0130914E010A
:1045000082179307D1F451968D919C91E6D5ED8158
:10451000FE8180819181B12CA12C412C512C320142
:10452000892B89F5BFEFCB1ADB0AEB0AFB0AED8179
:10453000FE817396FE83ED83B2CFC114D104E104F2
:10454000F10429F7039718F7ED81FE81818992899B
:104550008F3F980709F021D5AD81BE8152963C92DC
:104560002E925197D4CF8A0D9B1DDC018D919C9189
:10457000009709F038D4BFEF4B1A5B0A6B0A7B0A2D
:10458000EDE0AE0EB11CAD81BE818D919C91119775
:1045900012964C9150E070E060E0441655066606B5
:1045A00077060CF320D4BECFCF93DF93EA0127DF49
:1045B000811109C082E090E09983888385EF9FEFA5
:1045C000DF91CF91089581E090E00E94BE1481E0D8
:1045D00090E09983888390E080E0F2CF10DF109222
:1045E000B0031092AF03089542E050E068EF71E02D
:1045F0000C94DC14FF920F931F93CF93DF938A01E7
:10460000EC01C60FD71FF980B4D20897F816190627
:1046100071F068F082E090E0F801918380838EEF82
:104620009FEFDF91CF911F910F91FF9008956C81C3
:104630007D818E819F814B810E947317811108C0FB
:1046400082E090E0F8019183808384EF9FEFE9CFCF
:10465000F9800E946E174F2D50E0BE01685F7F4FBA
:104660000E94903589810E94DD1781E090E0F80179
:104670009183808390E080E0D4CFDF92EF92FF922D
:104680000F931F93CF93DF938A01EC01C60FD71FBF
:104690000E946E177C01D9806CD2DD2059F0029700
:1046A00021E030E0D816190619F010F030E020E0D3
:1046B000232B79F482E090E0F801918380838EEFE0
:1046C0009FEFDF91CF911F910F91FF90EF90DF90BF
:1046D0000895EF2841F482E090E0F801918380830F
:1046E00084EF9FEFEECFF9800E946E174F2D50E0C0
:1046F000BE016E5F7F4F0E94903589810E94DD1759
:1047000081E090E0F8019183808390E080E0D9CF50
:1047100084EF92E29093BA038093B9030895809155
:10472000B9039091BA0308950895FC011182108293
:10473000938382830895DB011D921C92DC01129603
:10474000ED91FC9113977183608313967C936E9324
:1047500012970895FC0180819181DB018D939C93D8
:10476000A081B181109741F08D919C9191838083BC
:10477000892B11F4F383E2830895FC0180819181F8
:10478000DB018D939C93892B11F473836283718376
:1047900060830895FC0111821082938382830895BF
:1047A000CF93DF9300D0CDB7DEB71A821982F89489
:1047B000BE016F5F7F4F80EC93E0CCDF89819A81EF
:1047C000009709F010D389819A81892B89F7BE015E
:1047D0006F5F7F4F84EC93E0BDDF89819A81009702
:1047E00009F001D389819A81892B89F778940F90F8
:1047F0000F90DF91CF910895CF93DF9300D0CDB785
:10480000DEB71A821982F894BE016F5F7F4F8CEB7E
:1048100093E0A0DF89819A81009709F0E4D2898131
:104820009A81892B89F778940F900F90DF91CF911F
:10483000089581E0089590E080E00895EF92FF925E
:104840000F931F93CF93DF9300D0CDB7DEB71A82BB
:1048500019828091BB0307EF1FEF8823A1F1F89421
:10486000BE016F5F7F4F84EC93E074DF78948981A1
:104870009A81EE24E394F12C892B51F4F894BE0133
:104880006F5F7F4F80EC93E065DF7894F12CE12C33
:1048900089819A810EEF1FEF0097A9F0FC014281F8
:1048A000538164E070E06BD68C01892B61F0F89441
:1048B00069817A81C701880F991F880F991F8054D9
:1048C0009C4F5BDF7894C8010F900F90DF91CF91E0
:1048D0001F910F91FF90EF9008950F931F93CF9327
:1048E000DF9300D000D0CDB7DEB71C821B821A82C6
:1048F00019828091BB0307EF1FEF8823C1F0AE013F
:104900004D5F5F4F64E070E0CE010196ABD68C0145
:10491000892B69F4E981FA818B819C81938382835D
:10492000F89469817A818CEB93E005DF7894C80173
:104930000F900F900F900F90DF91CF911F910F91DB
:104940000895B0D7049608958F929F92AF92BF9228
:10495000CF92DF92EF92FF920F931F93CF93DF934B
:1049600000D0CDB7DEB71A821982BC016F5F7F4FCE
:104970006330710598F0AA24AA94BA2CC5010F904F
:104980000F90DF91CF911F910F91FF90EF90DF90EB
:10499000CF90BF90AF909F908F9008954115510593
:1049A00051F3480159018A016C01CBDF8815990543
:1049B00011F7E114F104F9F28E0D9F1DA816B90646
:1049C000D0F28091BB038823F1F0F894B5016450D4
:1049D00071099701AE014F5F5F4FC8010496D7D6AA
:1049E0005C01892B71F489819A81F8019383828318
:1049F000C601880F991F880F991FB80180549C4FDA
:104A00009ADE7894BBCF87EFA82EBB24BA94B6CF9A
:104A1000AF92BF92CF92DF92EF92FF920F931F93CC
:104A2000CF93DF9300D0CDB7DEB71A821982892BDE
:104A300009F047C06115710509F443C041155105DE
:104A400009F43FC02115310509F43BC001151105DA
:104A5000C1F18091BB038823B9F179016A015B013F
:104A6000F894BE016F5F7F4F8CEB93E073DE789418
:104A700089819A81009759F1DC0112966D917C91A0
:104A8000A80104969DD68C01E981FA81D501ED93A8
:104A9000FC93828193810496F6019183808351DF98
:104AA000D7018D939C93C8010F900F90DF91CF9108
:104AB0001F910F91FF90EF90DF90CF90BF90AF903C
:104AC00008950FEF1FEFEFCF07EF1FEFECCF0EEFC3
:104AD0001FEFE9CFCF93DF93EC01672B71F4EBD697
:104AE0008C179D0760F0DED62496C80FD91FDDD63F
:104AF0008C0F9D1FDF91CF910895DAD6F1CF90E012
:104B000080E0F8CF0F931F93CF93DF932091BB03E7
:104B100021112BC08B01EC0180EC93E006DE84ECCC
:104B200093E003DE8CEB93E000DE97D00097C1F4B6
:104B3000C2D670E060E0CEDF4BE551E062E070E0AD
:104B40007ED1009769F480915B0190915C01C5D69C
:104B5000B801CE01FAD4009719F421E02093BB03E9
:104B6000DF91CF911F910F91089584EF9FEFF8CFC0
:104B70009FC6A1C6CF93DF93A1D6EC01892B11F478
:104B80000FDE3ADECE01DF91CF910895CF93DF9310
:104B900095D6EC01892B09F403DECE01DF91CF918C
:104BA000089580915B0190915C010895CF93DF930C
:104BB0008091BB03D0E0C0E08823D1F093D6EC0114
:104BC000892BB1F4EDDD18DE80915B0190915C01E1
:104BD000E4D1E5D2EC01892B59F480EC93E0DADDE5
:104BE00084EC93E0D7DD8CEB93E0D4DD1092BB0333
:104BF000CE01DF91CF910895EF92FF920F931F9313
:104C0000CF93DF93EC017A018B010F5F1F4F0E9D55
:104C1000A0010F9D500D1E9D500D112470E060E00D
:104C20000E94993590E080E0F0E0E0E02FEFE81698
:104C3000F90639F4DF91CF911F910F91FF90EF901A
:104C400008951A8219822883309711F0D283C18384
:104C50000196FE01C00FD11FEACFCF92DF92EF92F3
:104C6000FF920F931F93CF93DF9304EB14E00C7F1D
:104C700043E050E06DE571E083E691E013D48DE50B
:104C8000E82E81E0F82E93E6C92E91E0D92ECBE2F2
:104C9000D5E0D7014D915D917D01F6016191719152
:104CA0006F01198308835D834C835B834A837F8311
:104CB0006E839B012F5F3F4F249FC001259F900D66
:104CC000349F900D1124998788870115110511F0E3
:104CD000C80192DF88859985080F191F2A96F3E687
:104CE000EF16F1E0FF06A9F6EAECF3E087EEDF014C
:104CF0001D928A95E9F71092C9031092C803109289
:104D00004A051092490510924E0510924D051092D9
:104D10004C0510924B051092500510924F051092C1
:104D2000520510925105109254051092530510929D
:104D3000580510925705109256051092550510927D
:104D40005A051092590510925C0510925B0510925D
:104D500028051092270510922A051092290590E047
:104D600080E0DF91CF911F910F91FF90EF90DF9046
:104D7000CF9008950097F1F0F894A3E6B1E0EBE24C
:104D8000F5E030E020E04D915D9148175907A8F01B
:104D9000428153814115510581F08AE0829FF001E3
:104DA000839FF00D1124E55DFA4F8081918100977A
:104DB00059F4789490E080E008952F5F3F4F3A9641
:104DC0002330310501F7F5CFDC0111966D917C910F
:104DD000718360834150510953834283FC012193C5
:104DE000CF0178940895009749F1DC018E918530C8
:104DF00041F4E0912905F0912A053097F9F0CD01B1
:104E000009948530D8F4282F30E0F8948FEF8C93F4
:104E10008AE0829FF001839FF00D1124E55DFA4F37
:104E20008081918112969C938E931197B183A08378
:104E30008281938101969383828378940895CF929F
:104E4000DF92EF92FF920F931F93CF93DF939C011A
:104E50008DEC93E08C7F4115510509F49BC0211521
:104E6000310509F497C06115710509F493C07A0101
:104E7000AB01B9016D5F7F4F6C7F9B012F5F3F4F8F
:104E8000249F8001259F100D349F100D1124F8944C
:104E90002091490530914A05232B59F42091510561
:104EA000309152052115310569F12017310708F0BD
:104EB00058C02091530530915405232B91F4209133
:104EC000510530915205820F931F20915B0530915F
:104ED0005C052115310509F441C02017310708F0A0
:104EE00056C07894CFEFDFEF86EF9FEFF701D183C5
:104EF000C083DF91CF911F910F91FF90EF90DF90D2
:104F0000CF900895C3E0D0E0C090C803D090C9030B
:104F100024EE30E02C193D092017310710F32AE068
:104F20002C9FF0012D9FF00D1124E55DFA4F918328
:104F300080835583448353834283778366831187B9
:104F40000087009709F058DE0C0D1D1D1093C90352
:104F50000093C803789490E080E0C8CFC4E0D0E02C
:104F6000D3CFC3E0D0E02AE02C9FF0012D9FF00DBD
:104F70001124E55DFA4F91838083558344835383E5
:104F8000428377836683009729F336DEE3CFC4E05C
:104F9000D0E0E9CF8FEF9FEFACCF9C010397029752
:104FA00008F069C0F89484E09AE0482F50E0241794
:104FB00035070CF44DC091E08AE0829FF001839F99
:104FC000F00D1124E55DFA4F1182108215821482D2
:104FD00013821282178216829923B1F180914905BA
:104FE00090914A05892BA9F42091510530915205E1
:104FF0002115310571F08091C8039091C903821B7E
:10500000930B9093C9038093C8031092520510929A
:1050100051058091530590915405892BA9F4209155
:105020005B0530915C052115310571F08091C80355
:105030009091C903821B930B9093C9038093C8037B
:1050400010925C0510925B05789490E080E00895E2
:10505000949FF001959FF00D1124E55DFA4F40817A
:105060005181452B31F440855185452B11F48150F8
:105070009CCF90E0A1CF8FEF9FEF08954115510590
:1050800049F1009739F16115710521F1F8942091EA
:10509000270530912805232BB9F42091290530915B
:1050A0002A05232B89F49093280580932705709374
:1050B0002A0560932905789425E030E090E080E0AF
:1050C000FA0131832083089578942FEF3FEF86EF24
:1050D0009FEFF6CF8FEF9FEF0895059769F4F8944F
:1050E000109228051092270510922A051092290582
:1050F000789490E080E008958FEF9FEF0895611518
:10510000710519F4F0E0E0E011C08530910581F4FB
:10511000E0912705F09128053097A1F3CB01019686
:105120000995009779F3FC0185E08193CF010895FB
:105130009C01235031092230310520F72AE0289FB5
:10514000D001299FB00D1124A55DBA4F2D913C913E
:105150001197232BB9F216962D913C91179726178C
:10516000370780F2F89412962D913C9113972115F0
:10517000310529F0ED91FC911197309711F4789455
:10518000C1CF4181528111965C934E9321503109D8
:1051900013963C932E93129781937894C7CFE1EBAB
:1051A000F4E086E7DF011D928A95E9F7EAECF3E087
:1051B00087EEDF011D928A95E9F71092C9031092DC
:1051C000C803EBE2F5E082E3DF011D928A95E9F77F
:1051D000E7E2F5E084E0DF011D928A95E9F790E0CF
:1051E00080E00895CF93DF93C0916901D0916A0167
:1051F000CF3FDC0759F408D490936A01809369018A
:1052000097FF09C0D0936A01C093690184EF9FEFB3
:10521000DF91CF91089590E080E0FACF8230910540
:1052200028F480935D0590E080E008958FEF9FEF74
:1052300008954F925F926F927F92AF92BF92CF92FA
:10524000DF92EF92FF920F931F93CF93DF9300D0E3
:10525000CDB7DEB71A821982009709F479C06115BB
:10526000710509F475C02091690130916A0107EF59
:105270001FEF2F3F3F4F09F445C06B015C01412CEC
:10528000512C3201F12CE12C10E000E09E012F5F47
:105290003F4FA6014E195F09B5016E0D7F1D80912C
:1052A000690190916A010FD4892B09F04BC0898163
:1052B0009A81009741F4E114F10429F420915D05ED
:1052C000222309F442C0E80EF91EEC14FD04D0F4C8
:1052D00080E8481684E858068EE16806710420F5D7
:1052E00060E070E0CB010E94F2312AE0420E511CD6
:1052F000611C711C0A3F4FEF140721F0043F8FEF30
:105300001807A1F4C8010F900F90DF91CF911F9162
:105310000F91FF90EF90DF90CF90BF90AF907F9074
:105320006F905F904F90089501EF1FEF81E090E044
:10533000013F2FEF120711F090E080E0892B09F474
:10534000A5CFE0CF04EF1FEFDDCF0AEF1FEFDACFDD
:105350000FEF1FEFD7CF4F925F926F927F92AF9276
:10536000BF92CF92DF92EF92FF920F931F93CF9352
:10537000DF9300D0CDB7DEB71A821982009709F407
:1053800078C06115710509F474C0209169013091EC
:105390006A0107EF1FEF2F3F3F4F09F444C06B0135
:1053A0005C01412C512C3201F12CE12C10E000E089
:1053B0009E012F5F3F4FA6014E195F09B5016E0D8B
:1053C0007F1D8091690190916A0133D3892B09F087
:1053D0004AC089819A81009741F4E114F10429F4CB
:1053E00020915D05222309F441C0E80EF91EEC145A
:1053F000FD04C8F480E4481682E458068FE068068D
:10540000710418F560E070E0CB01ECD72AE0420EA1
:10541000511C611C711C0E3F4FEF140721F0043F1B
:105420008FEF1807A1F4C8010F900F90DF91CF9173
:105430001F910F91FF90EF90DF90CF90BF90AF90B2
:105440007F906F905F904F90089502EF1FEF81E083
:1054500090E0023F2FEF120711F090E080E0892BDF
:1054600009F4A6CFE0CF04EF1FEFDDCF0EEF1FEF63
:10547000DACF0FEF1FEFD7CF8091690190916A01CA
:105480008F3F980749F0B8D2892B49F48FEF9FEFEF
:1054900090936A018093690190E080E0089584EF21
:1054A0009FEF0895CF92DF92EF92FF920F931F9399
:1054B000CF93DF9321E04115510509F020E04150E1
:1054C000510921112CC0DC01FB01D12CC12C21E0A0
:1054D00022C03FEFC31AD30A7D010D911D91E70150
:1054E000EA80FB80E016F106A8F420813181E28099
:1054F000F380F182E08233832283ED90FC90119758
:105500009D0122503109E901F982E88211961C932C
:105510000E9320E03296C416D506D8F2D2CFDF9192
:10552000CF911F910F91FF90EF90DF90CF90089552
:10553000FC01680F791F90E080E0E617F70709F497
:1055400008952191820F911DF8CF20915E052111C0
:1055500013C048DE009791F4109264051092630521
:1055600010926205109261051092600510925F051D
:1055700021E020935E05089584EF9FEF0895AF9298
:10558000BF92CF92DF92EF92FF920F931F93CF9330
:10559000DF93009709F460C04630510508F45CC001
:1055A00020915E05C7EFDFEF222309F449C08C018B
:1055B000060F171FF801C080D180C114D10409F46F
:1055C0004EC096012A5F3F4F4217530708F447C069
:1055D0007C01809163059091640593838283B60179
:1055E0006C5F7F4F5801A60EB71EC801A1DFF50101
:1055F0009183808364E070E0C8011BDEEC01892B9D
:10560000F9F481E090E00ADEB601C801049611DEEB
:10561000EC01892B91F462E070E0C5010ADEEC0137
:10562000892B59F4C701DFDB8091630590916405F4
:105630000196909364058093630590E080E0EEDD31
:10564000CE01DF91CF911F910F91FF90EF90DF90EE
:10565000CF90BF90AF900895CFEFDFEFF1CFC9EFBC
:10566000DFEFEECF6F927F928F929F92AF92BF92B9
:10567000CF92DF92EF92FF920F931F93CF93DF931E
:1056800000D000D0CDB7DEB7009709F47AC041153D
:10569000510509F476C020915E0507EF1FEF222324
:1056A00009F44DC03A017B015C0164E070E0CE0179
:1056B000019651DE8C01892B09F041C009811A81C4
:1056C0000115110509F45AC0480186E0880E911CA5
:1056D000B701680D791D80916B0190916C010FDD10
:1056E0006C01009709F450C0A70170E060E00E94CF
:1056F000993589819A81AB81BC81EC0CFD1CF70145
:1057000081939193A193B1937F0181E090E086DD35
:10571000B801C70120DE892B31F562E070E0C701D6
:10572000800F911F18DE8C01892BE9F490E080E056
:1057300075DDF501D182C082F30191828082C801BA
:105740000F900F900F900F90DF91CF911F910F91BD
:10575000FF90EF90DF90CF90BF90AF909F908F9091
:105760007F906F90089590E080E058DDF501118200
:105770001082F30111821082C60135DB09EF1FEFA1
:10578000DECF0FEF1FEFDBCF06EF1FEFD8CF009775
:10579000A1F04115510589F02115310571F0F9018C
:1057A00036966E177F0748F0DC012D933C93DA01A3
:1057B000ED93FC9390E080E008958FEF9FEF0895C4
:1057C000AF92BF92CF92DF92EF92FF920F931F930F
:1057D000CF93DF93009709F45FC04115510509F499
:1057E0005BC06530710508F457C020915E05C7EFB6
:1057F000DFEF222391F1DC01CD90DC90119712961E
:10580000ED91FC9196012A5F3F4FC9EFDFEF26171C
:10581000370719F5C0915F05D0916005209749F5CC
:1058200021E030E03093600520935F057A018C0120
:10583000F0936205E09361055601B4E0AB0EB11C34
:10584000B50176DE0A0D1B1DF8012081318182171A
:10585000930729F5D701CD92DC92CE01DF91CF914C
:105860001F910F91FF90EF90DF90CF90BF90AF907E
:10587000089520916105309162052F5F3F4FCCEF75
:10588000DFEFE217F30790F2CBEFDFEF2E173F07C2
:1058900068F2D0E0C0E0CACFCFEFDFEFDECFC3EFDA
:1058A000DFEFDBCF84E090E0089582E090E00895A0
:1058B0008CEF9FEF089580E290E0089510926405C8
:1058C00010926305109262051092610510926005B6
:1058D00010925F0590E080E0089590936C018093B2
:1058E0006B01089580915E05882391F0C5DD0097D6
:1058F00089F410926405109263051092620510926B
:1059000061051092600510925F0510925E05089582
:1059100090E080E00895009749F06115710531F03D
:10592000FC0111821082FB01118210820895F3CFD5
:1059300026E030E040E050E16EE070E090E080E092
:1059400000C0892B19F487E795E074C708951F926A
:105950000F920FB60F9211242F933F934F935F93A3
:105960006F937F938F939F93AF93BF93EF93FF9327
:105970008EE19BEF9093850080938400B7D0FF91D8
:10598000EF91BF91AF919F918F917F916F915F91B7
:105990004F913F912F910F900FBE0F901F90189530
:1059A0008EE19BEF9093850080938400AFE6B0E09A
:1059B0008C918E7F8C93E0E8F0E080818C7F8083F7
:1059C000E1E8F0E08081877E80838081836080834E
:1059D00080818B7F80838C9181608C930895EFE62A
:1059E000F0E0808190819E7F90838170089581E0B6
:1059F000089510926505089568EE73E080E090E0E8
:105A0000F1D490E080E0089526E030E040E052ECF0
:105A100061E070E090E080E094DF87E795E040D6B9
:105A2000892B21F087E795E055D6F7CF90E080E00D
:105A30000895CF92DF92EF92FF920F931F93CF932F
:105A4000DF936B017A01E9011982188287E795E0FB
:105A500027D6892B69F18601CC24C39482E0D82E05
:105A600080916505811110C087E795E033D60297D4
:105A7000B9F7C0926505F801D1928F0188819981AB
:105A8000019699838883ECCF888199818E159F0533
:105A900078F487E795E01ED68F3F9807A9F3F801C1
:105AA00081938F0188819981019699838883ECCFB6
:105AB00090E080E0DF91CF911F910F91FF90EF90E8
:105AC000DF90CF9008950F931F93CF93DF93EA0158
:105AD000890187E795E092D7F801D183C08390E0F0
