:1000000061C0000087C0000085C0000083C0000000
:1000100081C000007FC000007DC000007BC00000E8
:1000200079C0000077C0000075C0000073C00000F8
:1000300071C000000C94E2216DC000006BC0000094
:100040000C94972567C000000C942E280C9460280F
:1000500061C000005FC000005DC000005BC0000028
:1000600059C0000057C00000000000080002010055
:100070000003040700000000000000000102040863
:100080001020408001020408102001020408102002
:10009000040404040404040402020202020203032E
:1000A00003030303000000002300260029000000D2
:1000B0000000250028002B0000000000240027007D
:1000C0002A00852811241FBECFEFD8E0DEBFCDBFA8
:1000D00011E0A0E0B1E0EEE8F2E502C005900D927B
:1000E000A03DB107D9F725E0A0EDB1E001C01D9218
:1000F000AF38B207E1F710E0C2E6D0E004C02197C4
:10010000FE010E941629C136D107C9F70E94F922C3
:100110000C94452975CF611102C00C94A026613062
:10012000E1F362E0FACF0E94DC2621E0019709F0BA
:1001300020E0822F089590E080E008950F931F93B0
:10014000009709F487C06115710509F483C0009117
:1001500013011091140120911501309116010E3FE9
:100160001F4F2F4F3F4F09F066C04FEF5FEFBA01AF
:10017000409313015093140160931501709316017D
:100180004091130150911401609115017091160175
:10019000DC011296ED91FC9180819181A281B38165
:1001A00080933C0290933D02A0933E02B0933F02A5
:1001B00084819581A681B78180933802909339021A
:1001C000A0933A02B0933B0280859185A285B385C6
:1001D0008093340290933502A0933602B093370295
:1001E00084859585A685B7858093300290933102EA
:1001F000A0933202B093330210922C0210922D027F
:1002000010922E0210922F02E6D480E196E0909395
:10021000D1018093D0019093D3018093D201CAD3AE
:10022000009731F421E030E0309341022093400206
:100230001F910F91089500911301109114012091C5
:10024000150130911601DB010D931D932D933C9305
:10025000139796CF8FEF9FEFEBCF8F929F92AF9236
:10026000BF92CF92DF92EF92FF921F93CF93DF93D3
:100270004B015C011091430282E090E090934102B7
:100280008093400281149104A104B10441F480914F
:100290004302811104C080914202C1E08111C0E09B
:1002A000C12CD12C760180914302811106C080912E
:1002B0004202811102C0CC23D9F083E090E09093F8
:1002C000410280934002CC2379F1CCE9DFEF111198
:1002D00002C00E947409CE01DF91CF911F91FF905F
:1002E000EF90DF90CF90BF90AF909F908F90089548
:1002F0006AE070E080E090E00E94062680E1C80E8F
:1003000087E2D81EE11CF11C8FEF88169806A8061C
:10031000B80631F0C1E08C149D04AE04BF0408F0AF
:10032000C0E080E07BD3BFCFD0E0C0E0D0CFCF92A1
:10033000DF92EF92FF920F931F93CF93DF938F3F44
:10034000910511F008F050C0209140023091410217
:100350002330310539F020914002309141022130A3
:10036000310531F424E030E0309341022093400223
:100370006A017B01EC0182309105A0F011E0AE0131
:10038000C701B60116D3AB01BC01CE011123F9F0B0
:10039000DF91CF911F910F91FF90EF90DF90CF9061
:1003A0000C949D0B8C01000F111F00531E4FD801A0
:1003B0008D919C91892B11F30E94A70B0297F1F666
:1003C000D801ED91FC91CE010995182FD8CF0E944C
:1003D000BF0B90E080E0DF91CF911F910F91FF90D4
:1003E000EF90DF90CF9008958FEF9FEFF4CF80E0F4
:1003F00015C3CF93DF9386E090E090934102809302
:10040000400265D3EC01E0EDF1E084E0DF011D92F4
:100410008A95E9F701D71092410210924002CE016D
:10042000DF91CF91089580914202089580912B022F
:1004300008956093130170931401809315019093B4
:10044000160190E080E008954F925F926F927F9244
:100450008F929F92AF92BF92CF92DF92EF92FF92D4
:10046000CF93C0900101D0900201E0900301F09081
:100470000401A701960160912005709121058091EA
:100480002205909123050E94E623882341F0C09223
:100490002005D0922105E0922205F09223058AE002
:1004A00042DEF82EC1E080918B058F1508F0C0E088
:1004B00080912605C80FC0931605809127056C2FE3
:1004C000681B6093170570E090E080E00E947E2436
:1004D00020910501309106014091070150910801DA
:1004E0000E94EA2360930E0570930F058093100518
:1004F000909311052091090130910A0140910B015F
:1005000050910C010E94342520910D0130910E0173
:1005100040910F01509110010E9434256093120503
:10052000709313058093140590931505F0928B0535
:10053000C0932605E7E2F5E08181819385E0EA3802
:10054000F807D1F7C0938A05C090FE01D090FF0153
:10055000E0900002F09001028FEFC81AD80AE80A72
:10056000F80AC092FE01D092FF01E0920002F092E0
:100570000102C114D104E104F10499F48091020252
:1005800090910302A0910402B09105020196A11D71
:10059000B11D8093020290930302A0930402B093D2
:1005A00005028090060290900702A0900802B09089
:1005B00009026091020270910302809104029091FD
:1005C00005020E947E24A50194010E94342520E0AA
:1005D00030E040E85FE40E9434252B013C01C70174
:1005E000B6010E947E24A50194010E9434259B013E
:1005F000AC01C301B2010E9482236093FA0170939F
:10060000FB018093FC019093FD01CF91FF90EF904F
:10061000DF90CF90BF90AF909F908F907F906F9022
:100620005F904F900895CF93E4EEF1E08BE2DF010D
:100630001D928A95E9F780E090E0A0E8BFEB8093F7
:100640000A0290930B02A0930C02B0930D028AE071
:1006500097EDA3EABBE38093060290930702A09371
:100660000802B093090284EC95E7AAECB5E8809300
:10067000E8019093E901A093EA01B093EB0180E1D6
:100680009EEEAEEFB0EE8093EC019093ED01A0935F
:10069000EE01B093EF018DEB9BE1ADEEB2EF8093F5
:1006A000F0019093F101A093F201B093F30189EF6F
:1006B00099E1AEE8B2E08093F4019093F501A09344
:1006C000F601B093F70188ED91E09093E7018093F4
:1006D000E60184ED91E09093D9018093D8018CE3F9
:1006E00091E09093D5018093D4019093D7018093AA
:1006F000D60188EF91E09093DD018093DC0188EED4
:1007000091E09093DB018093DA018AEF91E090937E
:10071000DF018093DE01EEE0F5E08AE0DF011D926B
:100720008A95E9F7E8E1F5E085E7DF011D928A9512
:10073000E9F7C1E0C0938C0580910101909102011D
:10074000A0910301B09104018093200590932105AD
:10075000A0932205B093230581E090E0A0E0B0E0F3
:100760008093190590931A05A0931B05B0931C055F
:1007700060E08AE0D0DCC0931D0580910001809389
:100780008B05809111018093260580911201E7E28B
:10079000F5E08193B5E0EB38FB07D9F7CF910895E9
:1007A00080911805811103C081E080931805089598
:1007B0004F925F926F927F928F929F92AF92BF9271
:1007C000CF92DF92EF92FF920F931F93F894409095
:1007D0001B0250901C0260901D0270901E02C0907F
:1007E0000F02D0901002E0901102F0901202452BFF
:1007F00009F0A4C09B01AC01241935094609570929
:1008000029013A0100911702109118022091190252
:1008100030911A0248015901840C951CA61CB71C82
:1008200080169106A206B306A0F40091130210915F
:10083000140220911502309116020F5F1F4F2F4FA7
:100840003F4F00931302109314022093150230932C
:1008500016028092170290921802A0921902B0928A
:100860001A02009113021091140220911502309186
:10087000160280921F0290922002A0922102B09252
:100880002202009323021093240220932502309326
:10089000260260931B0270931C0280931D029093AA
:1008A0001E02A8E8B3E1A30192010E941C296C0D6D
:1008B0007D1D8E1D9F1D60930F027093100280930B
:1008C00011029093120200911301109114012091D2
:1008D0001501309116010F3F1F4F2F4F3F4FF1F081
:1008E000009113011091140120911501309116010E
:1008F0000E3F1F4F2F4F3F4F89F0C0901301D090F4
:100900001401E0901501F090160121E08C149D0473
:10091000AE04BF0408F420E020932B0278941F91CA
:100920000F91FF90EF90DF90CF90BF90AF909F908E
:100930008F907F906F905F904F9008954B015C0176
:1009400084189508A608B708A3019201261B370B47
:10095000480B590B6415750586059705D0F082166E
:100960009306A406B50640F420E030E0A901811406
:100970009104A104B10491F4A8E8B3E10E941C29F8
:10098000A7019601261B370B480B590BCA01B90169
:10099000C5CF82169306A406B50670F7A8E8B3E1A2
:1009A000A50194010E941C296C0D7D1D8E1D9F1DAB
:1009B000B5CFFECECF93DF9300D000D0CDB7DEB75A
:1009C0001C821B821A82198210922702109228021E
:1009D0001092290210922A02BE016F5F7F4FCE0152
:1009E00003960E94C62169817A818B819C810E9435
:1009F000BE1A009761F4BE016F5F7F4FCE01039670
:100A00000E94D22169817A818B819C812CD50F90A3
:100A10000F900F900F90DF91CF910895FF920F9359
:100A20001F93CF93DF93082F60E070E0CB010E940B
:100A30000626FF24F3940E94A919EC01892B89F062
:100A400010E0CE3F8FEFD80769F0002361F160E03E
:100A500070E0CB010E94062681E090E0892B59F3DB
:100A600022C011E023D5EC01892B21F0CE3F8FEF7E
:100A7000D80759F711111EC011E0229609F410E0B1
:100A80000E945A19EC01892B21F0CE3F8FEFD80735
:100A9000E1F6111111C011E0CE3F8FEFD80709F434
:100AA00010E001110BC0CE01DF91CF911F910F918A
:100AB000FF90089511E0E4CF11E0F3CF60E070E023
:100AC000CB010E9406261F25812F90E0C7CFCF9330
:100AD000DF9380912B02882321F060E070E0CB014E
:100AE0004CD635D6D0E0C0E0892B71F06AE070E0DA
:100AF00080E090E00E94062681E090DF28D62196D3
:100B0000C03D27E0D20781F727D60E94121B109222
:100B100043021092420210923C0210923D02109247
:100B20003E0210923F021092380210923902109247
:100B30003A0210923B021092340210923502109247
:100B40003602109237021092300210923102109247
:100B500032021092330210922C0210922D02109247
:100B60002E0210922F024EEF5FEF6FEF7FEF409358
:100B700013015093140160931501709316011092A4
:100B80002B02EFE1F2E028E0DF011D922A95E9F760
:100B900010921B0210921C0210921D0210921E0253
:100BA00010921702109218021092190210921A0253
:100BB0001092130210921402109215021092160253
:100BC00010920F0210921002109211021092120253
:100BD000DF91CF91089510924F021092500210921F
:100BE00051021092520210924E028091570290913F
:100BF000580290934D0280934C0210924B02109237
:100C00004A02109246021092470210924802109235
:100C10004902109254021092530290E080E008952D
:100C2000CF92DF92EF92FF920F931F93CF938C019D
:100C3000892B09F055C020915702309158028091BC
:100C40004C0290914D02409157025091580250939E
:100C50004D0240934C022817390781F010924B0245
:100C600010924A02109246021092470210924802D5
:100C7000109249021092540210925302809157022E
:100C800090915802019761F580915302909154021E
:100C9000892B21F480911701811112C08091530298
:100CA000909154020197E1F480914602909147029D
:100CB000A0914802B09149020197A105B10581F4C4
:100CC0001092460210924702109248021092490276
:100CD0001092170182E090E09093540280935302A7
:100CE0008091570290915802019709F01CC18091A0
:100CF0006D0290916E028017910709F014C18091E6
:100D0000690290916A02A0916B02B0916C02009707
:100D100009F409C12091680221110DC040916902B6
:100D200050916A0260916B0270916C02452B462BC8
:100D3000472B09F4F8C0209153023091540222301D
:100D4000310509F0F0C020914A022111ECC0FC01EC
:100D5000C080D180E280F38080914E02882309F424
:100D6000D3C080915A0290915B02892B09F4FDC097
:100D700020915A0230915B0281E02230310509F066
:100D800080E020915A0230915B02C1E021303105B0
:100D900049F020915A0230915B02C1E022303105C6
:100DA00009F0C0E0882309F456C020916402309114
:100DB00065024091660250916702C701B6010E9428
:100DC000302587FD14C02091640230916502409166
:100DD00066025091670260914F02709150028091BB
:100DE0005102909152020E94E62387FD22C0209179
:100DF0006402309165024091660250916702C7011A
:100E0000B6010E943025181634F520916402309105
:100E10006502409166025091670260914F027091A5
:100E2000500280915102909152020E94E62381115A
:100E300012C080915C0290915D02A0915E02B0911F
:100E40005F02892B8A2B8B2B19F481E080934B0254
:100E500081E080934A02CC2309F456C020916402B9
:100E6000309165024091660250916702C701B60158
:100E70000E94E62387FF14C020916402309165022E
:100E8000409166025091670260914F02709150024A
:100E900080915102909152020E94302587FF22C01A
:100EA0002091640230916502409166025091670280
:100EB000C701B6010E94E623811126C02091640279
:100EC00030916502409166025091670260914F0235
:100ED0007091500280915102909152020E943025EF
:100EE000181694F480915C0290915D02A0915E02CC
:100EF000B0915F02892B8A2B8B2B19F481E08093B0
:100F00004B0281E080934A0281E090914A02911164
:100F100080E080934E02C0924F02D0925002E09245
:100F20005102F0925202012B09F067C180915302E5
:100F300090915402892BD9F41092590210924A02CE
:100F400080911701882379F082E090E09093540219
:100F5000809353021092170120915702309158024A
:100F600081E0232BE9F080E01BC081E00ACF1092E2
:100F7000170180915902882349F010924B02109278
:100F800054021092530210925902EDCF80915702F1
:100F900090915802892BE1F080914A0210924A0206
:100FA00020915302309154022230310509F45EC081
:100FB00088F42115310509F448C02130310509F4C0
:100FC000F3C010924B0210924A021092590238C09C
:100FD00081E0E6CF2330310509F4B1C0243031057A
:100FE00081F740914602509147026091480270910A
:100FF0004902411551056105710561F041505109E2
:101000006109710940934602509347026093480278
:101010007093490240914602509147026091480204
:1010200070914902452B462B472BD9F4209155024C
:10103000309156022130310509F046C010924B0222
:1010400010925402109253020CC080911701882311
:1010500041F082E090E0909354028093530210920A
:1010600017011092440280914B02CEC08823C9F32D
:1010700080915C0290915D02A0915E02B0915F024E
:10108000181619061A061B060CF07DC0809157022F
:1010900090915802019709F076C080915C0290917E
:1010A0005D02A0915E02B0915F0280934602909330
:1010B0004702A0934802B093490283E090E09093E6
:1010C000540280935302CDCF40916002509161024F
:1010D0006091620270916302452B462B472BA9F069
:1010E00010924B028091600290916102A091620285
:1010F000B09163028093460290934702A093480206
:10110000B093490281E090E0DACF882399F0809192
:10111000180190911901A0911A01B0911B018093BF
:10112000460290934702A0934802B093490284E09C
:1011300090E0C5CF10924B0282E090E0C0CF80914A
:10114000460290914702A0914802B091490200974F
:10115000A105B10559F00197A109B1098093460293
:1011600090934702A0934802B093490280914602AF
:1011700090914702A0914802B0914902892B8A2B95
:101180008B2B09F06ECF8091180190911901A091DD
:101190001A01B0911B01892B8A2B8B2B09F44ECF9E
:1011A00081E080934B02B3CF4091460250914702B9
:1011B0006091480270914902411551056105710520
:1011C00061F0415051096109710940934602509301
:1011D0004702609348027093490240914602509141
:1011E00047026091480270914902452B462B472BDC
:1011F00009F037CF8111C7CF9FCF80914402882358
:1012000009F431CF80914502CF911F910F91FF904A
:10121000EF90DF90CF90089510924F0210925002FD
:10122000109251021092520210924E0210925402E9
:101230001092530210924D0210924C0210926E02C4
:1012400010926D0210924B0210924A0210924602C6
:1012500010924702109248021092490210924502E1
:10126000109244021092690210926A0210926B026C
:1012700010926C0210926802109264021092650241
:10128000109266021092670288EE93E0A0E0B0E050
:101290008093180190931901A0931A01B0931B0138
:1012A0001092600210926102109262021092630228
:1012B00010925C0210925D0210925E0210925F0228
:1012C00010925B0210925A0281E0809317011092F3
:1012D0005902109258021092570210925602109220
:1012E000550290E080E00895809157029091580255
:1012F000892B19F580911701882351F080915902AB
:10130000811106C081E080934502809344020895D4
:10131000209159023091170181E090E0332311F0C0
:1013200090E080E030E082239323892B21F010921B
:10133000450281E0EACF10924402089582E090E0F5
:10134000FA01918380838FEF9FEF0895CF93DF930E
:10135000EA01009711F00E942F1C1982188290E078
:1013600080E0DF91CF910895DB01009719F48FEFB2
:101370008C9308952EEF2C930F968F30910508F0E3
:1013800033C0FC01EA53F64F0C941629F209F00918
:10139000EE09EC09EA09E609E809E409E209E009CD
:1013A000DD09D909D509DB09F40980E311968C938D
:1013B000089589E2FBCF82E2F9CF11961C9208953D
:1013C00083E2F4CF81E2F2CF81E1F0CF87E2EECF8A
:1013D0008AE2ECCF80E1EACF84E2E8CF88E2E6CF90
:1013E00086E2E4CF81E3E2CF80E2E0CF80917B022E
:1013F00090917C02089590937C0280937B020895E3
:1014000080917A02089590917A02892B80937A02D2
:101410000895982F909580917A02892380937A027B
:1014200008958091790208958091770290917802D1
:1014300008956115710559F0FB0130E020E070E07E
:1014400060E02417350719F06115710511F0CB0123
:101450000895A081B181A817B90709F4BF012F5FD2
:101460003F4F3696EECF80917D0281111CC062D233
:1014700068D29093700280936F020E9434140E948D
:10148000461490937402809373020E94C4180E94C1
:10149000CB18909372028093710281E080937D0259
:1014A00090E080E0089584EF9FEF08958F929F92DF
:1014B000AF92BF92CF92DF92EF92FF920F931F9362
:1014C000CF93DF93CDB7DEB72A970FB6F894DEBF80
:1014D0000FBECDBF1A86198618861F821E821D82F6
:1014E0001C821B821A82198280917D0207EF1FEFF6
:1014F000882309F49CC08E010D5F1F4F9E012B5F56
:101500003F4FAE01495F5F4FBE01675F7F4F90E085
:1015100080E00E94441A8C01009721F00596029702
:1015200008F0DBC029853A852115310509F402C18F
:10153000ED80FE804B815C81B701640F751F8F8148
:1015400098858617970708F4F5C0E20EF31ED701B9
:101550009C91903C09F07FC04230510508F47BC05B
:1015600011968C9140917B0250917C02452B09F49D
:101570009CC0913F08F071C02CE1290F2D3008F478
:101580008BC02DE2290F203108F489C0903C21F452
:101590008150823008F483C088E3890F8B3008F4CF
:1015A00081C094EBC92E99E0D92EEEE9F9E06D8166
:1015B0007E81AE014F5F5F4F89859A8509955C01F9
:1015C000C114D104A1F189809A808114910479F128
:1015D0008B819C818815990508F487C010E000E094
:1015E0004B815C8170E060E0C7010E943E290115DB
:1015F0001105E9F449815A8169857A858D819E8139
:10160000680F791FC501F6010995E980FA800D81FF
:101610001E812F81388549855A856FEF7FEF81E0E4
:1016200090E00E94E0198C01892B09F056C0C80196
:101630002A960FB6F894DEBF0FBECDBFDF91CF91D3
:101640001F910F91FF90EF90DF90CF90BF90AF90E0
:101650009F908F90089580E085CF30E020E0220FAA
:10166000331FF901E159FD4F0190F081E02D3097D2
:1016700009F497CF892F90E00995009709F491CF4D
:10168000DC011296ED91FC9113971496CD90DC90AD
:10169000309709F08CCF1FC021E030E0E0CF22E08E
:1016A00030E0DDCF23E030E0DACFD12CC12CE6EA08
:1016B000F9E09F3F09F07BCFE0916F02F09170025B
:1016C000309721F4C90104EF1FEF0CC08FEF90E0B9
:1016D00009950097A9F604EF1FEF89859A85009771
:1016E00009F4A5CF0E942F1CA2CF0E940D1B8C01D4
:1016F00089859A850E942F1C70E060E0C4010E94D9
:10170000A61A98878F830E94DD199E838D836F812F
:1017100078856115710559F0C8010E94BB1D9A8733
:10172000898706EF1FEF892B09F058CF59CF08EFB3
:101730001FEF56CF08EF1FEFD0CF20917D0222235D
:1017400019F020E00C944B1487EF9FEF08958091DF
:101750007B0290917C0208950E94D0180E942A1862
:10176000F5D0EFE6F2E088E0DF011D928A95E9F717
:1017700010927D0290E080E008950C94871621E09D
:1017800040E050E0BA010C944B1486E090E0FA017E
:101790009183808390E080E0089547E050E06FE31C
:1017A00071E047CEDF92EF92FF920F931F93CF939A
:1017B000DF938A01EC01C60FD71FE0908102F09001
:1017C0008202D9800E94F51AD816190678F082E0B4
:1017D00090E0F801918380838EEF9FEFDF91CF91AE
:1017E0001F910F91FF90EF90DF900895EF2841F443
:1017F00082E090E0F8019183808384EF9FEFEECF49
:1018000089818093800290E00196F8019183808322
:1018100090E080E0E3CFCF93DF93EA010E94381796
:10182000882321F00E94021B0E94391782E090E079
:10183000998388838BEF9FEFDF91CF910895CF93AA
:10184000DF93EB0186E0FB0111928A95E9F78FEFB8
:101850008883D6DD8983E5DD8A83E6DD9D838C83FD
:10186000DF91CF910895CF93DF93EA010E943B1758
:10187000811109C082E090E09983888385EF9FEF12
:10188000DF91CF91089590E080E0B5DD81E090E0B8
:101890009983888390E080E0F3CF0F931F93CF93D9
:1018A000DF93EA018C01060F171F0E943B1781117D
:1018B0000BC082E090E09983888385EF9FEFDF91F2
:1018C000CF911F910F910895F8018181823038F0F6
:1018D00082E090E0998388838EEF9FEFF0CF81E0E4
:1018E00090E089DD88E090E09983888390E080E053
:1018F000E6CFCF93DF930097D1F4EB01FB01329653
:1019000086E0DF011D928A95E9F78FEF888385E0F5
:1019100089831A820E94F51A8B830E94F41A9D8390
:101920008C8381E08E838F83DF91CF910895DF9147
:10193000CF911ACD8DEC9BE090937F0280937E0235
:10194000089580917E0290917F02089510927F0207
:1019500010927E02089580918102909182020895F2
:10196000411105C0611571058105910561F0609314
:101970008102709382028093830290938402409349
:10198000850281E0089580E00895FF920F931F93F0
:10199000CF93DF938A01EC01C60FD71FF9800E9415
:1019A000F51AF816190668F082E090E0F8019183C4
:1019B00080838EEF9FEFDF91CF911F910F91FF906A
:1019C00008956C817D818E819F814B81C9DF81115A
:1019D00008C082E090E0F8019183808384EF9FEF5C
:1019E000EACF89818093800290E00196F80191838B
:1019F000808390E080E0DFCFCF93DF93EA01FC01AA
:101A0000E60FF71F64817581868197814381A8DF86
:101A1000811109C082E090E09983888384EF9FEF71
:101A2000DF91CF91089581E090E09983888390E0E1
:101A300080E0F6CFE1E8F2E040815181628173817C
:101A4000480F511D611D711D408351836283738353
:101A50000895CF93C09180024C2F50E06091810295
:101A60007091820201960E9435298C2FE3DF10923B
:101A70008002CF910895009799F48091810290910E
:101A800082022FEFFB012083892B59F020918002E5
:101A900030E02F5F3F4F2417350719F4CB01D9CF22
:101AA00063CC0895009799F480918102909182020D
:101AB0002FEFFB012083892B59F02091800230E029
:101AC0002F5F3F4F2417350719F4CB01C2CF4CCC01
:101AD000089523E1AC01249FC001259F900D11249E
:101AE000E0918A02F0918B02E80FF91F2381348183
:101AF0002250310981E02230310508F080E008955C
:101B00000F931F93CF93DF9300918C0210918D025E
:101B1000D0E0C0E080E00C171D0749F491E081118E
:101B200090E0892FDF91CF911F910F91089581113E
:101B3000F5CFCE01CEDF2196EECFA0918A02B091F3
:101B40008B02109729F120918C0230918D0282171F
:101B50009307F0F453E1589F9001599F300D1124E1
:101B6000A20FB31FED91FC911197309789F0129657
:101B70008C91681768F48DE0689FE00DF11D1124C9
:101B800080819181892B21F081E09281491708F0B1
:101B900080E008959C0143E1429FC001439F900D66
:101BA0001124E0918A02F0918B02E80FF91F8385DE
:101BB000823091F481E090E06581768140911C0152
:101BC00050911D016417750711F490E080E0892B96
:101BD00019F081E0232B09F080E00895FC01A08139
:101BE000B1818DE0689FA00DB11D112413964D9118
:101BF0005C9185859685489F9001499F300D589F3F
:101C0000300D1124C9010196611103C0478144FDC3
:101C100004960895EF92FF920F931F93CF93DF9353
:101C2000EA01FC01E60FF71F02811381E480F580D1
:101C30004F2D6E2DC80181DF81110DC082E090E033
:101C4000998388838EEF9FEFDF91CF911F910F9142
:101C5000FF90EF900895C8013CDF882339F082E0BF
:101C600090E09983888388EF9FEFEECF1093230154
:101C700000932201E0922401F092250181E090E09E
:101C80009983888390E080E0DFCFCF92DF92EF925C
:101C9000FF920F931F93CF93DF937A01EC01C60F4E
:101CA000D71FC0902201D0902301009124011091F0
:101CB0002501412F602FC60140DF811110C082E055
:101CC00090E0F701918380838AEF9FEFDF91CF91BE
:101CD0001F910F91FF90EF90DF90CF900895C60174
:101CE000F8DE882341F082E090E0F7019183808361
:101CF00088EF9FEFEBCF4C815D816E817F819A8170
:101D000089818F3F41F082E090E0F70191838083E9
:101D10008EEF9FEFDBCFE3E1EC9D9001ED9D300D69
:101D20001124E0918A02F0918B02E20FF31F0190DF
:101D3000F081E02D2DE0029FE00DF11D11240190B6
:101D4000F081E02D27E0129FE00DF11D112480832A
:101D500091838B81828343835483658376831F5F62
:101D60001093250181E090E0F7019183808390E05A
:101D700080E0ACCFEF92FF920F931F93CF93DF934E
:101D80007A018C01060F171FC0918A02D0918B0235
:101D9000209781F021E030E0F80182819381409129
:101DA0008C0250918D028417950710F030E020E0EE
:101DB000232B71F482E090E0F701918380838EEF12
:101DC0009FEFDF91CF911F910F91FF90EF900895BA
:101DD00043E1489F9001499F300D1124C20FD31F4A
:101DE00078DE882341F082E090E0F70191838083E0
:101DF00088EF9FEFE6CFF801248135812038310547
:101E0000C8F687818111D6CF4181842F90E08F7EE3
:101E1000009741F082E090E0F7019183808386EFA4
:101E20009FEFCFCF4F833E832D832681288719864E
:101E3000223010F421E0288721E030E0F7013183DF
:101E40002083BFCF88E090E0FA019183808390E007
:101E500080E00895FB018FEF808381E181838FEF24
:101E60009FEF9383828380E890E09583848316823A
:101E700017820895FB018FEF808391E09183828325
:101E80009383848384E3858381E090E097838683D2
:101E90000895DF92EF92FF920F931F93CF93DF93FA
:101EA000EA01FC01E60FF71F8181813071F082E0C9
:101EB00090E0998388838FEF9FEFDF91CF911F91FF
:101EC0000F91FF90EF90DF90089582819381D480ED
:101ED0002581E680F78000918A0210918B0201151E
:101EE000110539F482E090E0998388838CEF9FEFAD
:101EF000E4CF40918C0250918D028417950738F001
:101F000082E090E0998388838EEF9FEFD6CF892B74
:101F100039F082E090E09983888386EF9FEFCDCF00
:101F20008D2D8D7FB1F72130A1F781E0D11006C052
:101F300091E0E916F10431F080E004C0E2E0EE1631
:101F4000F104D0F3882329F390E080E0C2DD8823F8
:101F500039F082E090E09983888388EF9FEFADCFDE
:101F6000F801D38681E08487F686E586108A178695
:101F700081E090E09983888390E080E09ECF4CE000
:101F800050E069E671E055CA8F929F92BF92CF925E
:101F9000DF92EF92FF920F931F93CF93DF93EA01AB
:101FA000FC01E60FF71F828193810481B580E091E7
:101FB0008A02F0918B02309791F482E090E099834D
:101FC00088838CEF9FEFDF91CF911F910F91FF904E
:101FD000EF90DF90CF90BF909F908F9008952091C9
:101FE0008C0230918D028217930738F082E090E0E6
:101FF000998388838EEF9FEFE6CF23E1289F6001CE
:10200000299FD00C1124EC0DFD1DE080F180E1141E
:10201000F10499F28281081748F78DE0089F80014A
:102020001124E00EF11EF70180819181892B29F6A0
:10203000BB20E1F2F7E0BF9E40011124C4010E94E1
:10204000F61BF70191838083E0918A02F0918B0265
:10205000EC0DFD1D0190F081E02DE00FF11F80815E
:102060009181009739F482E090E0998388838DEF25
:102070009FEFA9CFA40170E060E00E943E2980910B
:102080008A0290918B02C80ED91EF601808191813F
:10209000080F191FF801B28281E090E099838883CC
:1020A00090E080E090CFAF92BF92CF92DF92FF920C
:1020B0000F931F93CF93DF93EA01FC01E60FF71F05
:1020C00082819381F48000918A0210918B02011524
:1020D000110581F482E090E0998388838CEF9FEF73
:1020E000DF91CF911F910F91FF90DF90CF90BF9024
:1020F000AF90089520918C0230918D028217930742
:1021000038F082E090E0998388838EEF9FEFE8CFEC
:102110002FEF2F0D2C3FA8F723E1289F6001299F67
:10212000D00C11240C0D1D1DF80180819181892B8B
:1021300089F6FDE0FF9E50011124C5010E94F61BA7
:10214000F80191838083E0918A02F0918B02EC0D7B
:10215000FD1D80819181009739F482E090E09983A0
:1021600088838DEF9FEFBCCFA50170E060E00E94F7
:102170003E29E0918A02F0918B02EC0DFD1DF28266
:1021800081E090E09983888390E080E0A9CFCF92AE
:10219000DF92EF92FF920F931F93CF93DF93860FFF
:1021A000971FFC010281138180918A0290918B021A
:1021B000892B81F082E090E0FA01918380838CEF9B
:1021C0009FEFDF91CF911F910F91FF90EF90DF90E4
:1021D000CF900895C801B0E0A0E00197A109B1092E
:1021E0008F3F9F4FA105B10540F082E090E0FA01DA
:1021F000918380838EEF9FEFE4CF7A0183E1809F0C
:102200006001819FD00C1124C6010E94F61BEC01D5
:10221000009741F482E090E0F701918380838DEF95
:102220009FEFCFCFA60170E060E00E943E29D093DF
:102230008B02C0938A0210938D0200938C0290E06F
:1022400080E02FEF3FEF41E061E070E08017910701
:1022500041F481E090E0F7019183808390E080E099
:10226000B0CF3A8B298B1B864C877E876D87188A67
:102270001F8601966396EACFEF92FF921F93CF934A
:10228000DF93EC0110E0F12CE12C6A811617A8F025
:1022900070E0660F771FAE014F5E5F4FC7010E946F
:1022A0005B1C009721F02FEF3FEF3A8B298BDF91DA
:1022B000CF911F91FF90EF900895612FCE018EDC9A
:1022C00061E070E00E94A61AE816F90608F47C01A5
:1022D0001F5FDBCFF894209188023091890281E062
:1022E0002115310509F080E0232B09F07894089539
:1022F0002F923F924F925F926F927F928F929F9216
:10230000AF92BF92CF92DF92EF92FF920F931F9303
:10231000CF93DF933C01660E771EF3018281938198
:102320004C01B12CA12CC0918A02D0918B02209734
:1023300069F021E030E060918C0270918D02861787
:10234000970710F030E020E0232BD1F482E090E0FA
:10235000FA01918380838EEF9FEFDF91CF911F91E0
:102360000F91FF90EF90DF90CF90BF90AF909F9034
:102370008F907F906F905F904F903F902F90089537
:102380008092260190922701A0922801B092290103
:1023900063E1689F9001699F300D1124C20FD31F24
:1023A000F3018181833040F082E090E0FA01918373
:1023B000808386EF9FEFD1CF2A012B813C81232B95
:1023C000F1F4288139819F8191FF2EC0232B09F4DC
:1023D0006FC020918F029A81422F490F5527551FB8
:1023E000BA0141E050E06138710514F050E040E07E
:1023F000452B09F45DC02A87920F90938F0281507C
:10240000823008F481C066DF882309F4D8C0F30164
:102410008181813009F48DC008F47BC0823009F4D9
:10242000C6C090E080E0ADC0232B09F441C02091EC
:102430008E029A81E22FE90FFF27FF1F41E050E053
:10244000ED3FF10514F050E040E0452B89F12A877B
:10245000920F90938E02D3CFA081B181A20FB31FB0
:1024600011966C91060F111D0196295F3F4F84173D
:10247000950794F38D859E85089F1001099F300C68
:10248000189F300C1124C114D104D1F48F8184FF22
:1024900017C00E94F41AF5E02F0E311C21E08215BE
:1024A000930508F420E0A701435F5F4F21110EC0A0
:1024B00082E090E0F2019183808387EF9FEF4DCF20
:1024C0000E94F41A2FEF221A320AE8CF88819981EC
:1024D000E80EF91EF70114830383FFEFCF1ADF0A1A
:1024E0007A018A818C151D0409F00CF48CCFE881E7
:1024F000F981EE0DFF1D428150E030E020E010E058
:1025000000E090E080E0B3CFF12CE12CD12CC12C85
:10251000E8CF81E090E09C838B83F2DA882309F492
:1025200080CF81E090E00E94FB0980E40E94090ACC
:1025300078CF89899A89019661F083E090E09C8345
:102540008B8382E090E00E94FB0980E40E94030AF2
:1025500068CF8D819E8120911C0130911D018217D1
:102560009307D1F46091200170912101AE014F5E7B
:102570005F4F80911E0190911F010E947A1D00976C
:10258000E1F2789422E030E0F20131832083892B5C
:1025900099F08DEF9FEFE1CE89288A288B2869F684
:1025A000892B59F6CE0168DE188A1F86E8CF82E0B3
:1025B00090E09C838B8335CF90E080E0CECE82E0AC
:1025C00090E0F2019183808385EF9FEFC6CE8F92DA
:1025D0009F92AF92BF92CF92DF92EF92FF920F93B2
:1025E0001F93CF93DF93EA018C01060F171FF801A9
:1025F0008181833098F082E090E09983888386EF30
:102600009FEFDF91CF911F910F91FF90EF90DF909F
:10261000CF90BF90AF909F908F90089580918A0245
:1026200090918B02892B61F081E090E020918C02E7
:1026300030918D02232B11F490E080E0892B39F446
:1026400082E090E0998388838EEF9FEFDACF42DEBD
:10265000882309F4DFC0F8018181813009F495C035
:10266000E8F0823099F420918C0230918D02E09153
:102670008A02F0918B0290E080E041E050E0281760
:10268000390709F0BDC03CDA811117C0789481E0A8
:1026900090E09983888390E080E0B3CF20918C0212
:1026A00030918D02E0918A02F0918B0290E080E0FF
:1026B00041E050E02817390741F481E090E00E94A2
:1026C000FB0980E40E94090AE1CF63817481672BD2
:1026D00011F05483438301967396ECCFE0918A0204
:1026E000F0918B02E00FF11F2381348122303105FC
:1026F000D9F4218932892F3F3F4FB1F425813681AA
:1027000040911C0150911D012417350761F5AF015F
:102710004F5E5F4F609120017091210180911E01F9
:1027200090911F010E947A1DEFEFCE1ADE0AEE0A89
:10273000FE0A0D5E1F4F40918C0250918D0270E099
:1027400060E0C416D506E606F7063CF5009731F2C0
:102750007894892B09F49BCF82E090E09983888359
:102760008DEF9FEF4ECFC114D104E104F104E1F6E7
:10277000232BD1F6CF0180DDE0918A02F0918B020C
:10278000E00FF11F108A1786CFCF10E000E090E035
:1027900080E0C12CD12C7601CECF0097C9F610E095
:1027A00000E0812C912C540183E0E82EF12C1AC01A
:1027B000E0918A02F0918B02E00FF11F83819481F6
:1027C000029749F4F482E38282E090E00E94FB09E0
:1027D00080E40E94030AFFEF8F1A9F0AAF0ABF0A24
:1027E0000D5E1F4F80918C0290918D02B0E0A0E0B1
:1027F00088169906AA06BB06DCF290E080E0A8CF16
:10280000638174816230710511F4548343830196AE
:10281000739635CF82E090E09983888385EF9FEFB0
:10282000F0CE0097B9F48FEFFB0180832091260151
:102830003091270143E1429FC001439F900D112435
:10284000E0918A02F0918B02E80FF91F8285FB016B
:10285000818308950C94B40988E090E0FA01918393
:10286000808390E080E0089510928902109288029F
:10287000EAE8F2E086E0DF011D928A95E9F78FEB46
:102880009FE090938702809386020895809186024C
:102890009091870208952F923F924F925F926F928C
:1028A0007F928F929F92AF92BF92CF92DF92EF92E0
:1028B000FF920F931F93CF93DF93CDB7DEB72F9780
:1028C0000FB6F894DEBF0FBECDBFF894E09188023A
:1028D000F09189023196F0938902E093880278940E
:1028E00040908A0250908B024114510409F40CC2AA
:1028F000E0918C02F0918D02EF2B09F405C22D8737
:1029000049875A876B877C8798878F831201B12C00
:10291000A12C10E000E080918C0290918D02A8160D
:10292000B90618F40115110529F1F894809188026F
:1029300090918902019790938902809388027894FC
:10294000C8012F960FB6F894DEBF0FBECDBFDF9142
:10295000CF911F910F91FF90EF90DF90CF90BF909C
:10296000AF909F908F907F906F905F904F903F902F
:102970002F9008957101E418F508D10117968C91F4
:10298000179781FD54C013968D919C9114970397CE
:1029900009F04DC015968D919C91EF81F8858E17A9
:1029A0009F0709F044C0B50190E080E07ED48A839F
:1029B00020918A0230918B023D832C833D85332305
:1029C00009F44CC04C815D81452B09F49AC180917A
:1029D0008C0290918D02A816B90608F092C1C5012B
:1029E000D9D88823E9F06C817D816E0D7F1D7D83B0
:1029F0006C83DB011F968D919C91892B89F0D12CE2
:102A0000C12CF12CE12CAC81BD8112968C911297D6
:102A10008E151F0409F094F450961C921E921F9775
:102A20002A81222321F0B50190E080E040D43FEFDD
:102A3000A31AB30A43E1240E311C6DCFAC81BD81D2
:102A4000ED91FC91EC0DFD1D8581968108D7BFEFBE
:102A5000EB1AFB0AEDE0CE0ED11CD5CFEC81FD8147
:102A6000309709F44EC180918C0290918D02A81686
:102A7000B90608F046C1EE0DFF1DFF87EE87C501C0
:102A800089D88B83882339F1AE85BF851F968D91B8
:102A90009C915097019621E01D964D915C91841771
:102AA000950709F020E02E831982712C10E000E0D8
:102AB000AE85BF8512968C91781608F45DC0EE85C0
:102AC000FF85878590890196658576850E94E02837
:102AD000908B8787A5CFB1E0BE83E6CF99249394EE
:102AE0006BC084D6F6019683858382C0D601ED90B3
:102AF000FC90B7E06B9EE00CF11C1124F7016381A0
:102B0000748180818F3F61F121E030E002C0220FAB
:102B1000331F8A95E2F7C901092E000CAA0BBB0BE3
:102B2000FB01408151816281738184239523A62317
:102B3000B72321E0892B8A2B8B2B09F420E0D401C9
:102B40002C93D70111968C91F60123853485820F41
:102B5000932F911D880E991E1486138663949BC033
:102B6000418150E0C4010E943529EBCF998206EFE4
:102B70001FEFC5C01982C3C0F981F111A0CFEDE0EC
:102B80007E9E70011124AE85BF85CD90DC90CE0C69
:102B9000DF1C13D49D838C83BB81BB2309F49ECFA0
:102BA00081E0EE85FF8527853089232B09F080E0C1
:102BB000982E882309F458C0672D8E859F850ED8DE
:102BC000D60118969C938E93179761E070E0BED45F
:102BD000EE85FF85218932892F3F320709F481CFA5
:102BE000BC01C901C8D7D60116969C938E93159740
:102BF000D60115968D919C911697009709F4B6CF42
:102C0000EC81FD818E0F9F1F1A969C938E931997CE
:102C1000AE85BF85ED91FC911197EE0EFF1EF70179
:102C200021853285148613861A968C91870DD901D9
:102C30008D93711016C0EE85FF85878184FF11C0CA
:102C400049855A856B857C85F9014183528363836D
:102C50007483F701838594850496A80FB91F1486A1
:102C60001386F701B287A187D60115968D919C91A5
:102C70001697892B09F443C0EE85FF85258136819F
:102C800080911C0190911D012817390779F0199640
:102C90008D909C90612CD60112968C91129768169B
:102CA00008F424CF1A969C928E921997BE81BB236A
:102CB00009F460CF61E070E0F6018781908546D429
:102CC000D6011796ED90FC90189715964D915C9152
:102CD000E1E0F0E0BA81BB2311F0F0E0E0E00C812C
:102CE0001D819C01B501882799278E1B9F0B68D3F6
:102CF0008C01892B21F0F60185819681B0D57394E2
:102D0000D7CE0FEF1FEF8CCE10E000E00ECE2F924B
:102D10003F924F925F926F927F928F929F92AF926B
:102D2000BF92CF92DF92EF92FF920F931F93CF93B8
:102D3000DF9380918A0290918B0210E000E0892B52
:102D4000A9F0C8DA0AEF1FEF882381F020908C02E7
:102D500030908D02C0918A02D0918B02D12CC12C6F
:102D600010E000E02C143D04A9F47894C801DF9130
:102D7000CF911F910F91FF90EF90DF90CF90BF9078
:102D8000AF909F908F907F906F905F904F903F900B
:102D90002F900895C6010E94CA0D882309F18B81E6
:102DA0009C810397E9F48F859889892BC9F0B60136
:102DB00090E080E07AD221E030E0882311F030E02A
:102DC00020E044245524421A530AB12CA12C912C02
:102DD000812C8A818815190409F038F4188A1F8615
:102DE0004FEFC41AD40A6396BDCFE881F981EA0D8A
:102DF000FB1D85819681892BA1F161E070E08781BF
:102E00009085A4D33C01D9D28C01E881F981EA0DE7
:102E1000FB1D8185928525813681200F311FAC01F4
:102E2000421B530B9A0147815085421B530B70E0A4
:102E300060E00E943E29E881F981EA0DFB1DE780F0
:102E4000F084458156819301B601C201B9D28C014B
:102E5000892B39F0E881F981EA0DFB1D8581968186
:102E6000FED45FEF851A950A8DE0A80EB11CB1CF94
:102E700031CA789408952F923F924F925F926F9249
:102E80007F929F92AF92BF92CF92DF92EF92FF928A
:102E90000F931F93CF93DF9300D000D000D0CDB716
:102EA000DEB700918A0210918B0299249394011548
:102EB000110509F43EC0A0908C02B0908D020ADA90
:102EC000982E8823B1F110928B0210928A021092F0
:102ED0008D0210928C0210928E0210928F028FEF50
:102EE0009FEFDC018093260190932701A093280196
:102EF000B093290178947AD31E830D83C12CD12CF1
:102F00007601C501B0E0A0E089839A83AB83BC83DE
:102F100022242A94322C89819A81AB81BC81C816E3
:102F2000D906EA06FB06F4F0C80199D480E40E94B1
:102F3000090A892D26960FB6F894DEBF0FBECDBFC5
:102F4000DF91CF911F910F91FF90EF90DF90CF9085
:102F5000BF90AF909F907F906F905F904F903F9009
:102F60002F900895AD81BE8115968D919C911697F5
:102F700020911C0130911D0182179307D1F45196C5
:102F80008D919C91E6D5ED81FE8180819181B12C5E
:102F9000A12C412C512C3201892B89F5BFEFCB1A82
:102FA000DB0AEB0AFB0AED81FE817396FE83ED835B
:102FB000B2CFC114D104E104F10429F7892B19F728
:102FC000ED81FE81818992898F3F980709F021D593
:102FD000AD81BE8152963C922E925197D4CF8A0DEC
:102FE0009B1DDC018D919C91009709F038D4BFEFB7
:102FF0004B1A5B0A6B0A7B0AEDE0AE0EB11CAD8189
:10300000BE818D919C91119712964C9150E070E089
:1030100060E044165506660677060CF320D4BECF52
:10302000CF93DF93EA0127DF811109C082E090E0AE
:103030009983888385EF9FEFDF91CF91089581E099
:1030400090E00E94FB0981E090E09983888390E002
:1030500080E0F2CF10DF109287021092860208956E
:1030600042E050E061EB71E00C94190AFF920F937B
:103070001F93CF93DF938A01EC01C60FD71FF9800E
:10308000B4D20897F816190671F068F082E090E063
:10309000F801918380838EEF9FEFDF91CF911F9195
:1030A0000F91FF9008956C817D818E819F814B816E
:1030B0000E94B00C811108C082E090E0F801918379
:1030C000808384EF9FEFE9CFF9800E94AB0C4F2DF6
:1030D00050E0BE01685F7F4F0E94352989810E94C0
:1030E0001A0D81E090E0F8019183808390E080E008
:1030F000D4CFDF92EF92FF920F931F93CF93DF9382
:103100008A01EC01C60FD71F0E94AB0C7C01D9804D
:103110006CD2DD2059F0029721E030E0D816190674
:1031200019F010F030E020E0232B79F482E090E0F9
:10313000F801918380838EEF9FEFDF91CF911F91F4
:103140000F91FF90EF90DF900895EF2841F482E017
:1031500090E0F8019183808384EF9FEFEECFF980B8
:103160000E94AB0C4F2D50E0BE016E5F7F4F0E945E
:10317000352989810E941A0D81E090E0F801918340
:10318000808390E080E0D9CF80E398E19093910232
:1031900080939002089580919002909191020895F9
:1031A0000895FC0111821082938382830895DB01CC
:1031B0001D921C92DC011296ED91FC911397718384
:1031C000608313967C936E9312970895FC0180811F
:1031D0009181DB018D939C93A081B181109741F087
:1031E0008D919C9191838083892B11F4F383E283E9
:1031F0000895FC0180819181DB018D939C93892B43
:1032000011F473836283718360830895FC011182DA
:103210001082938382830895CF93DF9300D0CDB73C
:10322000DEB71A821982F894BE016F5F7F4F87E97B
:1032300092E0CCDF89819A81009709F010D38981CF
:103240009A81892B89F7BE016F5F7F4F8BE992E0EE
:10325000BDDF89819A81009709F001D389819A8124
:10326000892B89F778940F900F90DF91CF91089573
:10327000CF93DF9300D0CDB7DEB71A821982F894CE
:10328000BE016F5F7F4F83E992E0A0DF89819A8161
:10329000009709F0E4D289819A81892B89F7789483
:1032A0000F900F90DF91CF91089581E0089590E005
:1032B00080E00895EF92FF920F931F93CF93DF93D7
:1032C00000D0CDB7DEB71A8219828091920207EF43
:1032D0001FEF8823A1F1F894BE016F5F7F4F8BE948
:1032E00092E074DF789489819A81EE24E394F12C42
:1032F000892B51F4F894BE016F5F7F4F87E992E00C
:1033000065DF7894F12CE12C89819A810EEF1FEF13
:103310000097A9F0FC014281538164E070E06AD615
:103320008C01892B61F0F89469817A81C701880F3B
:10333000991F880F991F89569D4F5BDF7894C801AC
:103340000F900F90DF91CF911F910F91FF90EF9011
:1033500008950F931F93CF93DF9300D000D0CDB784
:10336000DEB71C821B821A8219828091920207EFBB
:103370001FEF8823C1F0AE014D5F5F4F64E070E046
:10338000CE010196AAD68C01892B69F4E981FA81D4
:103390008B819C8193838283F89469817A8183E90C
:1033A00092E005DF7894C8010F900F900F900F9076
:1033B000DF91CF911F910F910895AFD70496089593
:1033C0008F929F92AF92BF92CF92DF92EF92FF9235
:1033D0000F931F93CF93DF9300D0CDB7DEB71A8240
:1033E0001982BC016F5F7F4F6330710598F0AA248A
:1033F000AA94BA2CC5010F900F90DF91CF911F9125
:103400000F91FF90EF90DF90CF90BF90AF909F9083
:103410008F9008954115510551F3480159018A01D2
:103420006C01CBDF8815990511F7E114F104F9F26D
:103430008E0D9F1DA816B906D0F2809192028823A6
:10344000F1F0F894B501645071099701AE014F5F36
:103450005F4FC8010496D6D65C01892B71F489812F
:103460009A81F80193838283C601880F991F880F80
:10347000991FB80189569D4F9ADE7894BBCF87EF8C
:10348000A82EBB24BA94B6CFAF92BF92CF92DF9250
:10349000EF92FF920F931F93CF93DF9300D0CDB79E
:1034A000DEB71A821982892B09F047C061157105B0
:1034B00009F443C04115510509F43FC021153105F8
:1034C00009F43BC001151105C1F1809192028823D6
:1034D000B9F179016A015B01F894BE016F5F7F4F1A
:1034E00083E992E073DE789489819A81009759F19B
:1034F000DC0112966D917C91A80104969CD68C01FA
:10350000E981FA81D501ED93FC9382819381049640
:10351000F6019183808351DFD7018D939C93C8017D
:103520000F900F90DF91CF911F910F91FF90EF902F
:10353000DF90CF90BF90AF9008950FEF1FEFEFCFC8
:1035400007EF1FEFECCF0EEF1FEFE9CFCF93DF9325
:10355000EC01672B71F4EAD68C179D0760F0DDD67D
:103560002496C80FD91FDCD68C0F9D1FDF91CF91F9
:103570000895D9D6F1CF90E080E0F8CF0F931F9354
:10358000CF93DF932091920221112BC08B01EC018C
:1035900087E992E006DE8BE992E003DE83E992E0C0
:1035A00000DE97D00097C1F4C1D670E060E0CEDFB6
:1035B0004AE251E062E070E07ED1009769F48091C8
:1035C0002A0190912B01C4D6B801CE01F9D40097FD
:1035D00019F421E020939202DF91CF911F910F9176
:1035E000089584EF9FEFF8CF9EC6A0C6CF93DF93D8
:1035F000A0D6EC01892B11F40FDE3ADECE01DF916B
:10360000CF910895CF93DF9394D6EC01892B09F4E1
:1036100003DECE01DF91CF91089580912A01909130
:103620002B010895CF93DF9380919202D0E0C0E008
:103630008823D1F092D6EC01892BB1F4EDDD18DEB0
:1036400080912A0190912B01E4D1E5D2EC01892BE4
:1036500059F487E992E0DADD8BE992E0D7DD83E97E
:1036600092E0D4DD10929202CE01DF91CF910895C5
:10367000EF92FF920F931F93CF93DF93EC017A01A8
:103680008B010F5F1F4F0E9DA0010F9D500D1E9DC2
:10369000500D112470E060E00E943E2990E080E02F
:1036A000F0E0E0E02FEFE816F90639F4DF91CF9172
:1036B0001F910F91FF90EF9008951A82198228832D
:1036C000309711F0D283C1830196FE01C00FD11F44
:1036D000EACFCF92DF92EF92FF920F931F93CF9397
:1036E000DF9303EA13E00C7F43E050E06CE271E00B
:1036F00082E391E012D48CE2E82E81E0F82E92E38E
:10370000C92E91E0D92ECAE2D4E0D7014D915D9146
:103710007D01F601619171916F01198308835D83C9
:103720004C835B834A837F836E839B012F5F3F4F74
:10373000249FC001259F900D349F900D11249987DF
:1037400088870115110511F0C80192DF88859985D8
:10375000080F191F2A96F2E3EF16F1E0FF06A9F60B
:10376000E1EAF2E08FEFDF011D928A95E9F710920E
:10377000A00210929F0210924904109248041092E5
:103780004D0410924C0410924B0410924A04109273
:103790004F0410924E041092510410925004109253
:1037A000530410925204109257041092560410922F
:1037B0005504109254041092590410925804109217
:1037C0005B0410925A04109227041092260410925F
:1037D00029041092280490E080E0DF91CF911F919E
:1037E0000F91FF90EF90DF90CF9008950097F1F048
:1037F000F894A2E3B1E0EAE2F4E030E020E04D9199
:103800005D9148175907A8F0428153814115510530
:1038100081F08AE0829FF001839FF00D1124E65D24
:10382000FB4F80819181009759F4789490E080E07B
:1038300008952F5F3F4F3A962330310501F7F5CFBA
:10384000DC0111966D917C91718360834150510927
:1038500053834283FC012193CF017894089500970C
:1038600049F1DC018E91853041F4E0912804F0911A
:1038700029043097F9F0CD0109948530D8F4282F28
:1038800030E0F8948FEF8C938AE0829FF001839F61
:10389000F00D1124E65DFB4F8081918112969C937F
:1038A0008E931197B183A083828193810196938334
:1038B000828378940895CF92DF92EF92FF920F93D4
:1038C0001F93CF93DF939C0184EA92E08C7F411594
:1038D000510509F49BC02115310509F497C0611504
:1038E000710509F493C07A01AB01B9016D5F7F4F97
:1038F0006C7F9B012F5F3F4F249F8001259F100D00
:10390000349F100D1124F8942091480430914904FB
:10391000232B59F420915004309151042115310585
:1039200069F12017310708F058C0209152043091F6
:103930005304232B91F42091500430915104820FB1
:10394000931F20915A0430915B042115310509F42D
:1039500041C02017310708F056C07894CFEFDFEF51
:1039600086EF9FEFF701D183C083DF91CF911F9145
:103970000F91FF90EF90DF90CF900895C3E0D0E0DB
:10398000C0909F02D090A0022CEF30E02C193D098E
:103990002017310710F32AE02C9FF0012D9FF00D26
:1039A0001124E65DFB4F91838083558344835383C9
:1039B00042837783668311870087009709F058DE7A
:1039C0000C0D1D1D1093A00200939F02789490E0AF
:1039D00080E0C8CFC4E0D0E0D3CFC3E0D0E02AE09D
:1039E0002C9FF0012D9FF00D1124E65DFB4F91837C
:1039F0008083558344835383428377836683009710
:103A000029F336DEE3CFC4E0D0E0E9CF8FEF9FEFBC
:103A1000ACCF9C010397029708F069C0F89484E04A
:103A20009AE0482F50E0241735070CF44DC091E080
:103A30008AE0829FF001839FF00D1124E65DFB4F29
:103A400011821082158214821382128217821682CA
:103A50009923B1F18091480490914904892BA9F4EC
:103A600020915004309151042115310571F080915D
:103A70009F029091A002821B930B9093A0028093CF
:103A80009F02109251041092500480915204909120
:103A90005304892BA9F420915A0430915B04211519
:103AA000310571F080919F029091A002821B930BCF
:103AB0009093A00280939F0210925B0410925A048C
:103AC000789490E080E00895949FF001959FF00D28
:103AD0001124E65DFB4F40815181452B31F4408537
:103AE0005185452B11F481509CCF90E0A1CF8FEFF1
:103AF0009FEF08954115510549F1009739F161157E
:103B0000710521F1F8942091260430912704232B8C
:103B1000B9F42091280430912904232B89F490933F
:103B200027048093260470932904609328047894D2
:103B300025E030E090E080E0FA01318320830895B1
:103B400078942FEF3FEF86EF9FEFF6CF8FEF9FEF49
:103B50000895059769F4F8941092270410922604AA
:103B60001092290410922804789490E080E008953F
:103B70008FEF9FEF08956115710519F4F0E0E0E013
:103B800011C08530910581F4E0912604F09127045D
:103B90003097A1F3CB0101960995009779F3FC01C9
:103BA00085E08193CF0108959C0123503109223093
:103BB000310520F72AE0289FD001299FB00D11245C
:103BC000A65DBB4F2D913C911197232BB9F2169610
:103BD0002D913C9117972617370780F2F89412968B
:103BE0002D913C9113972115310529F0ED91FC9110
:103BF0001197309711F47894C1CF41815281119679
:103C00005C934E932150310913963C932E93129757
:103C100081937894C7CFE0EAF3E086E8DF011D9254
:103C20008A95E9F7E1EAF2E08FEFDF011D928A95CC
:103C3000E9F71092A00210929F02EAE2F4E082E318
:103C4000DF011D928A95E9F7E6E2F4E084E0DF0106
:103C50001D928A95E9F790E080E00895CF93DF9375
:103C6000C0913801D0913901CF3FDC0759F407D416
:103C7000909339018093380197FF09C0D09339019F
:103C8000C093380184EF9FEFDF91CF91089590E0CA
:103C900080E0FACF8230910528F480935C0490E0B4
:103CA00080E008958FEF9FEF08954F925F926F929B
:103CB0007F92AF92BF92CF92DF92EF92FF920F93DB
:103CC0001F93CF93DF9300D0CDB7DEB71A8219824E
:103CD000009709F478C06115710509F474C020914A
:103CE00038013091390107EF1FEF2F3F3F4F09F4A3
:103CF00044C06B015C01412C512C3201F12CE12CB0
:103D000010E000E09E012F5F3F4FA6014E195F09B2
:103D1000B5016E0D7F1D80913801909139010ED44F
:103D2000892B09F04AC089819A81009741F4E114F6
:103D3000F10429F420915C04222309F441C0E80E27
:103D4000F91EEC14FD04C8F480E8481684E858060F
:103D50008EE16806710418F560E070E0CB0156D77B
:103D60002AE0420E511C611C711C0A3F4FEF1407E0
:103D700021F0043F8FEF1807A1F4C8010F900F90B6
:103D8000DF91CF911F910F91FF90EF90DF90CF9037
:103D9000BF90AF907F906F905F904F90089501EF2C
:103DA0001FEF81E090E0013F2FEF120711F090E04C
:103DB00080E0892B09F4A6CFE0CF04EF1FEFDDCF21
:103DC0000AEF1FEFDACF0FEF1FEFD7CF4F925F92BF
:103DD0006F927F92AF92BF92CF92DF92EF92FF925B
:103DE0000F931F93CF93DF9300D0CDB7DEB71A8226
:103DF0001982009709F478C06115710509F474C03F
:103E0000209138013091390107EF1FEF2F3F3F4FCD
:103E100009F444C06B015C01412C512C3201F12C9E
:103E2000E12C10E000E09E012F5F3F4FA6014E19EC
:103E30005F09B5016E0D7F1D8091380190913901A8
:103E400033D3892B09F04AC089819A81009741F4C4
:103E5000E114F10429F420915C04222309F441C007
:103E6000E80EF91EEC14FD04C8F480E4481682E460
:103E700058068FE06806710418F560E070E0CB0129
:103E8000C5D62AE0420E511C611C711C0E3F4FEF3B
:103E9000140721F0043F8FEF1807A1F4C8010F9019
:103EA0000F90DF91CF911F910F91FF90EF90DF90D6
:103EB000CF90BF90AF907F906F905F904F9008959C
:103EC00002EF1FEF81E090E0023F2FEF120711F0A9
:103ED00090E080E0892B09F4A6CFE0CF04EF1FEF3C
:103EE000DDCF0EEF1FEFDACF0FEF1FEFD7CF8091AF
:103EF0003801909139018F3F980749F0B8D2892B4A
:103F000049F48FEF9FEF909339018093380190E04F
:103F100080E0089584EF9FEF0895CF92DF92EF92B3
:103F2000FF920F931F93CF93DF9321E0411551052B
:103F300009F020E04150510921112CC0DC01FB01A6
:103F4000D12CC12C21E022C03FEFC31AD30A7D013E
:103F50000D911D91E701EA80FB80E016F106A8F4BF
:103F600020813181E280F380F182E08233832283F9
:103F7000ED90FC9011979D0122503109E901F982E1
:103F8000E88211961C930E9320E03296C416D50653
:103F9000D8F2D2CFDF91CF911F910F91FF90EF9088
:103FA000DF90CF900895FC01680F791F90E080E0CA
:103FB000E617F70709F408952191820F911DF8CFB4
:103FC00020915D04211113C049DE009791F41092F5
:103FD00063041092620410926104109260041092C3
:103FE0005F0410925E0421E020935D04089584EF45
:103FF0009FEF0895AF92BF92CF92DF92EF92FF9220
:104000000F931F93CF93DF93009709F460C046305E
:10401000510508F45CC020915D04C7EFDFEF222357
:1040200009F449C08C01060F171FF801C080D18028
:10403000C114D10409F44EC096012A5F3F4F4217C4
:10404000530708F447C07C01809162049091630497
:1040500093838283B6016C5F7F4F5801A60EB71E13
:10406000C801A1DFF5019183808364E070E0C8019D
:104070001CDEEC01892BF9F481E090E00BDEB60147
:10408000C801049612DEEC01892B91F462E070E025
:10409000C5010BDEEC01892B59F4C701E0DB8091EF
:1040A0006204909163040196909363048093620488
:1040B00090E080E0EFDDCE01DF91CF911F910F9175
:1040C000FF90EF90DF90CF90BF90AF900895CFEF2B
:1040D000DFEFF1CFC9EFDFEFEECF6F927F928F92DC
:1040E0009F92AF92BF92CF92DF92EF92FF920F9387
:1040F0001F93CF93DF9300D000D0CDB7DEB70097EA
:1041000009F47AC04115510509F476C020915D0487
:1041100007EF1FEF222309F44DC03A017B015C0138
:1041200064E070E0CE01019651DE8C01892B09F02C
:1041300041C009811A810115110509F45AC04801CD
:1041400086E0880E911CB701680D791D80913A01B7
:1041500090913B0110DD6C01009709F450C0A7015C
:1041600070E060E00E943E2989819A81AB81BC8128
:10417000EC0CFD1CF70181939193A193B1937F0106
:1041800081E090E087DDB801C70120DE892B31F5A1
:1041900062E070E0C701800F911F18DE8C01892B4F
:1041A000E9F490E080E076DDF501D182C082F30190
:1041B00091828082C8010F900F900F900F90DF9135
:1041C000CF911F910F91FF90EF90DF90CF90BF9014
:1041D000AF909F908F907F906F90089590E080E0D7
:1041E00059DDF50111821082F30111821082C6019E
:1041F00036DB09EF1FEFDECF0FEF1FEFDBCF06EF50
:104200001FEFD8CF0097A1F04115510589F0211576
:10421000310571F0F90136966E177F0748F0DC0121
:104220002D933C93DA01ED93FC9390E080E00895A8
:104230008FEF9FEF0895AF92BF92CF92DF92EF92F0
:10424000FF920F931F93CF93DF93009709F45FC002
:104250004115510509F45BC06530710508F457C07C
:1042600020915D04C7EFDFEF222391F1DC01CD90B7
:10427000DC9011971296ED91FC9196012A5F3F4FC9
:10428000C9EFDFEF2617370719F5C0915E04D0910B
:104290005F04209749F521E030E030935F042093DC
:1042A0005E047A018C01F0936104E093600456018E
:1042B000B4E0AB0EB11CB50176DE0A0D1B1DF80192
:1042C000208131818217930729F5D701CD92DC92A5
:1042D000CE01DF91CF911F910F91FF90EF90DF9072
:1042E000CF90BF90AF900895209160043091610409
:1042F0002F5F3F4FCCEFDFEFE217F30790F2CBEFEA
:10430000DFEF2E173F0768F2D0E0C0E0CACFCFEF53
:10431000DFEFDECFC3EFDFEFDBCF84E090E0089587
:1043200082E090E008958CEF9FEF089580E290E0A6
:104330000895109263041092620410926104109226
:10434000600410925F0410925E0490E080E0089593
:1043500090933B0180933A01089580915D048823F6
:1043600091F0C5DD009789F4109263041092620405
:10437000109261041092600410925F0410925E0427
:1043800010925D04089590E080E00895009749F050
:104390006115710531F0FC0111821082FB0111825F
:1043A00010820895F3CF26E030E040E050E16EE067
:1043B00070E090E080E000C0892B19F481E794E080
:1043C000EDC508951F920F920FB60F9211242F93EF
:1043D0003F934F935F936F937F938F939F93AF938D
:1043E000BF93EF93FF938EE19BEF909385008093B3
:1043F0008400B7D0FF91EF91BF91AF919F918F91C2
:104400007F916F915F914F913F912F910F900FBED0
:104410000F901F9018958EE19BEF909385008093ED
:104420008400AFE6B0E08C918E7F8C93E0E8F0E002
:1044300080818C7F8083E1E8F0E08081877E8083CB
:1044400080818360808380818B7F80838C91816079
:104450008C930895EFE6F0E0808190819E7F9083B9
:104460008170089581E0089510926404089568EEC3
:1044700073E080E090E0CAD390E080E0089526E009
:1044800030E040E052EC61E070E090E080E094DFEA
:1044900081E794E0B9D4892B21F081E794E0CED470
:1044A000F7CF90E080E00895CF92DF92EF92FF92F5
:1044B0000F931F93CF93DF936B017A01E901198268
:1044C000188281E794E0A0D4892B69F18601CC247D
:1044D000C39482E0D82E80916404811110C081E7DA
:1044E00094E0ACD40297B9F7C0926404F801D19279
:1044F0008F0188819981019699838883ECCF888187
:1045000099818E159F0578F481E794E097D48F3FC9
:104510009807A9F3F80181938F0188819981019609
:1045200099838883ECCF90E080E0DF91CF911F9159
:104530000F91FF90EF90DF90CF9008950F931F930E
:10454000CF93DF93EA01890181E794E00BD6F8016C
:10455000D183C08390E080E0DF91CF911F910F91D4
:104560000895CF92DF92EF92FF92CF93DF938091E5
:10457000650491E0980F90936504882379F021E019
:1045800030E0309367042093660480936504DF91E4
:10459000CF91FF90EF90DF90CF9008957894C091E5
:1045A0003D01D0913E016E8D7F8D88A199A1A6D14C
:1045B00020E030E040E85FE457D26B017C016A8D77
:1045C0007B8D8C8D9D8D9AD19B01AC01C701B6016D
:1045D00099D068D16B017C010E942402B701A60129
:1045E00090E080E00E949701F894809165048150EA
:1045F000CCCF0F931F93CF93DF9310928E05109221
:104600008D053AD3D0DEC0913D01D0913E01198293
:1046100018826FEF7FEFCB010E94190270E060E01B
:1046200090E080E00E949B00009709F03AC00E9451
:104630001303F8947894BE016A5D7F4F8A819B8151
:104640000E949E00892B59F46FEF7FEFCB010E94EF
:104650002D010E941302882311F081E08AA7F894AB
:10466000DADE0E941602882311F080E008C00E9462
:1046700013028111FACF81E09AA59111F6CF8093B0
:104680008D0578940E94F6098C01789480918D05AF
:1046900081110CC00E94D0030E94F901F89490E0AF
:1046A00080E0DF91CF911F910F9108950E94F70153
:1046B0000E9416028823D9F081E080938E059091A4
:1046C0008E0581E0911180E080938D0580918E05AB
:1046D0008111C0DE0130110529F40E94F609892BF1
:1046E00009F4C2DE0E94F6098C01BCDECFCF0E9425
:1046F00013028111E1CF81E09AA59111DECF80E014
:10470000DCCF5058BB27AA270ED070C161D130F042
:1047100066D120F031F49F3F11F41EF456C10EF41F
:10472000E095E7FB4CC1E92F72D180F3BA1762071D
:1047300073078407950718F071F49EF58AC10EF48B
:10474000E0950B2EBA2FA02D0B01B90190010C01A1
:10475000CA01A0011124FF27591B99F0593F50F4B9
:10476000503E68F11A16F040A22F232F342F442711
:10477000585FF3CF469537952795A795F040539509
:10478000C9F77EF41F16BA0B620B730B840BBAF0D9
:104790009150A1F0FF0FBB1F661F771F881FC2F744
:1047A0000EC0BA0F621F731F841F48F48795779558
:1047B0006795B795F7959E3F08F0B3CF9395880F0F
:1047C00008F09927EE0F979587950895D4D008F4AF
:1047D00081E008950CD00AC102D140F0F9D030F048
:1047E00021F45F3F19F0EBC0511134C1EEC00FD17D
:1047F00098F39923C9F35523B1F3951B550BBB27A8
:10480000AA2762177307840738F09F5F5F4F220F54
:10481000331F441FAA1FA9F333D00E2E3AF0E0E84D
:1048200030D091505040E695001CCAF729D0FE2F99
:1048300027D0660F771F881FBB1F2617370748072B
:10484000AB07B0E809F0BB0B802DBF01FF279358E1
:104850005F4F2AF09E3F510568F0B1C0FBC05F3F3B
:10486000ECF3983EDCF3869577956795B795F795C9
:104870009F5FC9F7880F911D9695879597F90895C1
:10488000E1E0660F771F881FBB1F6217730784075D
:10489000BA0720F0621B730B840BBA0BEE1F88F76C
:1048A000E0950895BCD088F09F5790F0B92F9927D4
:1048B000B751A0F0D1F0660F771F881F991F1AF02B
:1048C000BA95C9F712C0B13081F0C3D0B1E00895F4
:1048D000C0C0672F782F8827B85F39F0B93FCCF375
:1048E000869577956795B395D9F73EF49095809521
:1048F000709561957F4F8F4F9F4F0895E89409C041
:1049000097FB3EF490958095709561957F4F8F4F02
:104910009F4F9923A9F0F92F96E9BB279395F69518
:10492000879577956795B795F111F8CFFAF4BB0F96
:1049300011F460FF1BC06F5F7F4F8F4F9F4F16C0FA
:10494000882311F096E911C0772321F09EE8872F84
:10495000762F05C0662371F096E8862F70E060E040
:104960002AF09A95660F771F881FDAF7880F9695B9
:10497000879597F90895990F0008550FAA0BE0E85D
:10498000FEEF16161706E807F907C0F01216130611
:10499000E407F50798F0621B730B840B950B39F451
:1049A0000A2661F0232B242B252B21F408950A26B7
:1049B00009F4A140A6958FEF811D811D089597F9F7
:1049C0009F6780E870E060E008959FEF80EC0895B5
:1049D00000240A94161617061806090608950024DE
:1049E0000A9412161306140605060895092E039458
:1049F000000C11F4882352F0BB0F40F4BF2B11F4CC
:104A000060FF04C06F5F7F4F8F4F9F4F089557FD2A
:104A10009058440F551F59F05F3F71F04795880F2C
:104A200097FB991F61F09F3F79F0879508951216C3
:104A300013061406551FF2CF4695F1DF08C016166F
:104A400017061806991FF1CF869571056105089420
:104A50000895E894BB2766277727CB0197F9089537
:104A60008ADF08F48FEF08950BD0C0CFB1DF28F0B4
:104A7000B6DF18F0952309F0A2CFA7CF1124EACF13
:104A8000C6DFA0F3959FD1F3950F50E0551F629FAD
:104A9000F001729FBB27F00DB11D639FAA27F00D97
:104AA000B11DAA1F649F6627B00DA11D661F829FBE
:104AB0002227B00DA11D621F739FB00DA11D621FA3
:104AC000839FA00D611D221F749F3327A00D611DC0
:104AD000231F849F600D211D822F762F6A2F1124A2
:104AE0009F5750408AF0E1F088234AF0EE0FFF1FF5
:104AF000BB1F661F771F881F91505040A9F79E3F2C
:104B0000510570F05CCFA6CF5F3FECF3983EDCF32D
:104B1000869577956795B795F795E7959F5FC1F768
:104B2000FE2B880F911D9695879597F908951F92F2
:104B30000F920FB60F9211242F933F938F939F9351
:104B4000AF93BF938091690490916A04A0916B0424
:104B5000B0916C043091680423E0230F2D3758F591
:104B60000196A11DB11D2093680480936904909360
:104B70006A04A0936B04B0936C0480916D049091CF
:104B80006E04A0916F04B09170040196A11DB11D37
:104B900080936D0490936E04A0936F04B09370049F
:104BA000BF91AF919F918F913F912F910F900FBE29
:104BB0000F901F90189526E8230F0296A11DB11D96
:104BC000D2CF3FB7F89480916D0490916E04A0917C
:104BD0006F04B091700426B5A89B05C02F3F19F053
:104BE0000196A11DB11D3FBFBA2FA92F982F88276D
:104BF000BC01CD01620F711D811D911D42E0660F48
:104C0000771F881F991F4A95D1F708958F929F9219
:104C1000AF92BF92CF92DF92EF92FF926B017C0135
:104C2000D0DF4B015C01C114D104E104F104D9F0DF
:104C3000C6D2C7DF681979098A099B09683E7340A3
:104C40008105910580F321E0C21AD108E108F1083D
:104C500088EE880E83E0981EA11CB11CC114D104FB
:104C6000E104F10431F7FF90EF90DF90CF90BF9017
:104C7000AF909F908F900895789484B5826084BDA2
:104C800084B5816084BD85B5826085BD85B5816050
:104C900085BDEEE6F0E0808181608083E1E8F0E0B0
:104CA0001082808182608083808181608083E0E8DF
:104CB000F0E0808181608083E1EBF0E080818460BE
:104CC0008083E0EBF0E0808181608083EAE7F0E0C0
:104CD0008081846080838081826080838081816024
:104CE00080838081806880831092C1000895833022
:104CF00081F028F4813099F08230A9F0089587304E
:104D0000A9F08830C9F08430B1F4809180008F7DA3
:104D100003C0809180008F7780938000089584B5D0
:104D20008F7784BD089584B58F7DFBCF8091B000CF
:104D30008F778093B00008958091B0008F7DF9CF78
:104D4000CF93DF9390E0FC01E458FF4F249180570C
:104D50009F4FFC0184918823C9F090E0880F991F30
:104D6000FC01E854FF4FA591B491FC01E255FF4FBF
:104D7000C591D49161110DC09FB7F8948C91209585
:104D800082238C938881282328839FBFDF91CF9132
:104D90000895623051F49FB7F8943C91822F80952A
:104DA00083238C93E8812E2BEFCF8FB7F894EC916F
:104DB0002E2B2C938FBFEACFCF93DF93282F30E099
:104DC000F901E859FF4F8491F901E458FF4FD4915C
:104DD000F901E057FF4FC491CC2399F0811187DF8F
:104DE000EC2FF0E0EE0FFF1FEC55FF4FA591B491B3
:104DF000EC91ED2381E090E009F480E0DF91CF9128
:104E0000089580E090E0FACFFC01918D228D892FEA
:104E100090E0805C9F4F821B91098F7399270895C2
:104E2000FC01918D828D981731F0828DE80FF11D74
:104E3000858D90E008958FEF9FEF0895FC01918D8F
:104E4000828D981761F0A28DAE0FBF2FB11D5D96B8
:104E50008C91928D9F5F9F73928F90E008958FEF5A
:104E60009FEF0895FC01538D448D252F30E0842F52
:104E700090E0821B930B541710F0CF960895019782
:104E80000895FC01A48DA80FB92FB11DA35ABF4FDF
:104E90002C91848D90E001968F739927848FA68939
:104EA000B7892C93A089B1898C91837080648C938D
:104EB000938D848D981306C00288F389E02D80813C
:104EC0008F7D80830895CF93DF93EC01888D8823B5
:104ED000B1F0AA89BB89E889F9898C9185FD03C065
:104EE000808186FD0CC00FB607FCF7CF8C9185FF43
:104EF000F2CF808185FFEDCFCE01C3DFEACFDF9116
:104F0000CF910895EF92FF920F931F93CF93DF936A
:104F1000EC0181E0888F9B8D8C8D98131AC0E889F5
:104F2000F989808185FF15C09FB7F894EE89FF89C4
:104F30006083E889F98980818370806480839FBF62
:104F400081E090E0DF91CF911F910F91FF90EF9062
:104F50000895F62E0B8D10E00F5F1F4F0F73112772
:104F6000E02E8C8D8E110BC00FB607FCFACFE889AE
:104F7000F989808185FFF5CFCE0183DFF2CFEB8DFC
:104F8000EC0FFD2FF11DE35AFF4FF0829FB7F8940D
:104F90000B8FEA89FB8980818062D0CFCF92DF922C
:104FA000EF92FF921F93CF93DF93EC016A017B0195
:104FB000122FE889F98982E08083C11481EED80636
:104FC000E104F10499F060E079E08DE390E0A7015D
:104FD00096010AD121503109410951095695479549
:104FE00037952795211580E1380790F0E889F989F0
:104FF000108260E874E88EE190E0A7019601F4D099
:105000002150310941095109569547953795279502
:10501000EC85FD853083EE85FF852083188EEC8935
:10502000FD891083EA89FB89808180618083EA8918
:10503000FB89808188608083EA89FB898081806820
:105040008083EA89FB8980818F7D8083DF91CF9186
:105050001F91FF90EF90DF90CF9008951F920F92D5
:105060000FB60F9211242F938F939F93EF93FF937B
:10507000E0918104F09182048081E0918704F091B5
:10508000880482FD1BC0908180918A048F5F8F739A
:1050900020918B04821741F0E0918A04F0E0EF58F0
:1050A000FB4F958F80938A04FF91EF919F918F9191
:1050B0002F910F900FBE0F901F9018958081F4CF05
:1050C0001F920F920FB60F9211242F933F934F937D
:1050D0005F936F937F938F939F93AF93BF93EF9360
:1050E000FF9381E794E0CDDEFF91EF91BF91AF9107
:1050F0009F918F917F916F915F914F913F912F91F0
:105100000F900FBE0F901F901895E1E7F4E0138207
:10511000128288EE93E0A0E0B0E084839583A683BA
:10512000B78381EC91E09183808385EC90E0958753
:10513000848784EC90E09787868780EC90E0918B61
:10514000808B81EC90E0938B828B82EC90E0958B4E
:10515000848B86EC90E0978B868B118E128E138E4B
:10516000148E0895AF92BF92CF92DF92EF92FF928A
:105170000F931F93CF93DF936C017B018B01040F7F
:10518000151FEB015E01AE18BF08C017D10759F01B
:105190006991D601ED91FC910190F081E02DC6015D
:1051A0000995892B79F7C501DF91CF911F910F9157
:1051B000FF90EF90DF90CF90BF90AF90089508954B
:1051C000AA1BBB1B51E107C0AA1FBB1FA617B7072D
:1051D00010F0A61BB70B881F991F5A95A9F7809549
:1051E0009095BC01CD010895A1E21A2EAA1BBB1B0C
:1051F000FD010DC0AA1FBB1FEE1FFF1FA217B307A3
:10520000E407F50720F0A21BB30BE40BF50B661FB8
:10521000771F881F991F1A9469F76095709580957C
:1052200090959B01AC01BD01CF010895EE0FFF1FCA
:105230000590F491E02D099409D0A59F900DB49F9D
:10524000900DA49F800D911D11240895A29FB0017F
:10525000B39FC001A39F700D811D1124911DB29FAA
:10526000700D811D1124911D0895FB01DC0102C008
:1052700001900D9241505040D8F70895DC0101C0D3
:0E5280006D9341505040E0F70895F894FFCF31
:10528E0000000080BF0000003F323F913ADD7EBC3F
:10529E00420000FEFFFFFF01E8030000FFFF0000D9
:1052AE000000FFFFFFFFFFFFFFFFFFFF01000100F8
:1052BE000100200038002800FFFFFFFF01E401FF7E
:1052CE00004D0C790CFE00330CB409FD00C50B1F0C
:1052DE000CFC000B0CB409F600FC0CB409F500D262
:1052EE000B3B0DF400C50C520DDE0078111114DDD0
:1052FE0000E712B409DA00220F2A0FD9002C143A53
:10530E000FE2000A0EB409E100450EB409E000BA3E
:10531E000EB409D6001018B409D500C710B409D4BC
:10532E00005310B409D300C40FB409C000490FB420
:10533E0009F0007918B409ED003618B40900000020
:10534E00008227B2283227632704271E2710270042
:00000001FF
